
examples/hello.riscv:     file format elf64-littleriscv


Disassembly of section .text:

0000000040000000 <_start>:
    40000000:	00000297          	auipc	t0,0x0
    40000004:	09c28293          	addi	t0,t0,156 # 4000009c <trap_entry>
    40000008:	30529073          	csrw	mtvec,t0
    4000000c:	4081                	li	ra,0
    4000000e:	4101                	li	sp,0
    40000010:	4181                	li	gp,0
    40000012:	4201                	li	tp,0
    40000014:	4281                	li	t0,0
    40000016:	4301                	li	t1,0
    40000018:	4381                	li	t2,0
    4000001a:	4401                	li	s0,0
    4000001c:	4481                	li	s1,0
    4000001e:	4501                	li	a0,0
    40000020:	4581                	li	a1,0
    40000022:	4601                	li	a2,0
    40000024:	4681                	li	a3,0
    40000026:	4701                	li	a4,0
    40000028:	4781                	li	a5,0
    4000002a:	4801                	li	a6,0
    4000002c:	4881                	li	a7,0
    4000002e:	4901                	li	s2,0
    40000030:	4981                	li	s3,0
    40000032:	4a01                	li	s4,0
    40000034:	4a81                	li	s5,0
    40000036:	4b01                	li	s6,0
    40000038:	4b81                	li	s7,0
    4000003a:	4c01                	li	s8,0
    4000003c:	4c81                	li	s9,0
    4000003e:	4d01                	li	s10,0
    40000040:	4d81                	li	s11,0
    40000042:	4e01                	li	t3,0
    40000044:	4e81                	li	t4,0
    40000046:	4f01                	li	t5,0
    40000048:	4f81                	li	t6,0
    4000004a:	6299                	lui	t0,0x6
    4000004c:	3002a073          	csrs	mstatus,t0
    40000050:	62e1                	lui	t0,0x18
    40000052:	3002a073          	csrs	mstatus,t0
    40000056:	300022f3          	csrr	t0,mstatus
    4000005a:	6361                	lui	t1,0x18
    4000005c:	0062f333          	and	t1,t0,t1
    40000060:	00007397          	auipc	t2,0x7
    40000064:	b463ac23          	sw	t1,-1192(t2) # 40006bb8 <have_vec>
    40000068:	6319                	lui	t1,0x6
    4000006a:	0062f333          	and	t1,t0,t1
    4000006e:	00030263          	beqz	t1,40000072 <_start+0x72>
    40000072:	00007197          	auipc	gp,0x7
    40000076:	29618193          	addi	gp,gp,662 # 40007308 <_gp>
    4000007a:	00007217          	auipc	tp,0x7
    4000007e:	ee520213          	addi	tp,tp,-283 # 40006f5f <_end+0x3f>
    40000082:	fc027213          	andi	tp,tp,-64
    40000086:	f1402573          	csrr	a0,mhartid
    4000008a:	4585                	li	a1,1
    4000008c:	00b57063          	bleu	a1,a0,4000008c <_start+0x8c>
    40000090:	400105b7          	lui	a1,0x40010
    40000094:	ff858113          	addi	sp,a1,-8 # 4000fff8 <_gp+0x8cf0>
    40000098:	2ec0006f          	j	40000384 <_init>

000000004000009c <trap_entry>:
    4000009c:	716d                	addi	sp,sp,-272
    4000009e:	c002                	sw	zero,0(sp)
    400000a0:	c206                	sw	ra,4(sp)
    400000a2:	c40a                	sw	sp,8(sp)
    400000a4:	c60e                	sw	gp,12(sp)
    400000a6:	c812                	sw	tp,16(sp)
    400000a8:	ca16                	sw	t0,20(sp)
    400000aa:	cc1a                	sw	t1,24(sp)
    400000ac:	ce1e                	sw	t2,28(sp)
    400000ae:	d022                	sw	s0,32(sp)
    400000b0:	d226                	sw	s1,36(sp)
    400000b2:	d42a                	sw	a0,40(sp)
    400000b4:	d62e                	sw	a1,44(sp)
    400000b6:	d832                	sw	a2,48(sp)
    400000b8:	da36                	sw	a3,52(sp)
    400000ba:	dc3a                	sw	a4,56(sp)
    400000bc:	de3e                	sw	a5,60(sp)
    400000be:	c0c2                	sw	a6,64(sp)
    400000c0:	c2c6                	sw	a7,68(sp)
    400000c2:	c4ca                	sw	s2,72(sp)
    400000c4:	c6ce                	sw	s3,76(sp)
    400000c6:	c8d2                	sw	s4,80(sp)
    400000c8:	cad6                	sw	s5,84(sp)
    400000ca:	ccda                	sw	s6,88(sp)
    400000cc:	cede                	sw	s7,92(sp)
    400000ce:	d0e2                	sw	s8,96(sp)
    400000d0:	d2e6                	sw	s9,100(sp)
    400000d2:	d4ea                	sw	s10,104(sp)
    400000d4:	d6ee                	sw	s11,108(sp)
    400000d6:	d8f2                	sw	t3,112(sp)
    400000d8:	daf6                	sw	t4,116(sp)
    400000da:	dcfa                	sw	t5,120(sp)
    400000dc:	defe                	sw	t6,124(sp)
    400000de:	34202573          	csrr	a0,mcause
    400000e2:	341025f3          	csrr	a1,mepc
    400000e6:	860a                	mv	a2,sp
    400000e8:	00055563          	bgez	a0,400000f2 <trap_entry+0x56>
    400000ec:	0bc000ef          	jal	ra,400001a8 <handle_interrupt>
    400000f0:	a029                	j	400000fa <trap_entry+0x5e>
    400000f2:	0cc000ef          	jal	ra,400001be <handle_trap>
    400000f6:	34151073          	csrw	mepc,a0
    400000fa:	000022b7          	lui	t0,0x2
    400000fe:	8002829b          	addiw	t0,t0,-2048
    40000102:	3002a073          	csrs	mstatus,t0
    40000106:	4092                	lw	ra,4(sp)
    40000108:	4122                	lw	sp,8(sp)
    4000010a:	41b2                	lw	gp,12(sp)
    4000010c:	4242                	lw	tp,16(sp)
    4000010e:	42d2                	lw	t0,20(sp)
    40000110:	4362                	lw	t1,24(sp)
    40000112:	43f2                	lw	t2,28(sp)
    40000114:	5402                	lw	s0,32(sp)
    40000116:	5492                	lw	s1,36(sp)
    40000118:	5522                	lw	a0,40(sp)
    4000011a:	55b2                	lw	a1,44(sp)
    4000011c:	5642                	lw	a2,48(sp)
    4000011e:	56d2                	lw	a3,52(sp)
    40000120:	5762                	lw	a4,56(sp)
    40000122:	57f2                	lw	a5,60(sp)
    40000124:	4806                	lw	a6,64(sp)
    40000126:	4896                	lw	a7,68(sp)
    40000128:	4926                	lw	s2,72(sp)
    4000012a:	49b6                	lw	s3,76(sp)
    4000012c:	4a46                	lw	s4,80(sp)
    4000012e:	4ad6                	lw	s5,84(sp)
    40000130:	4b66                	lw	s6,88(sp)
    40000132:	4bf6                	lw	s7,92(sp)
    40000134:	5c06                	lw	s8,96(sp)
    40000136:	5c96                	lw	s9,100(sp)
    40000138:	5d26                	lw	s10,104(sp)
    4000013a:	5db6                	lw	s11,108(sp)
    4000013c:	5e46                	lw	t3,112(sp)
    4000013e:	5ed6                	lw	t4,116(sp)
    40000140:	5f66                	lw	t5,120(sp)
    40000142:	5ff6                	lw	t6,124(sp)
    40000144:	6151                	addi	sp,sp,272
    40000146:	30200073          	mret

000000004000014a <external_interrupt>:
    4000014a:	8082                	ret

000000004000014c <tohost_exit>:
    4000014c:	7139                	addi	sp,sp,-64
    4000014e:	fc06                	sd	ra,56(sp)
    40000150:	f822                	sd	s0,48(sp)
    40000152:	c521                	beqz	a0,4000019a <tohost_exit+0x4e>
    40000154:	00006597          	auipc	a1,0x6
    40000158:	0cc58593          	addi	a1,a1,204 # 40006220 <P_array.1885+0xe8>
    4000015c:	842a                	mv	s0,a0
    4000015e:	02100613          	li	a2,33
    40000162:	0028                	addi	a0,sp,8
    40000164:	672050ef          	jal	ra,400057d6 <memcpy>
    40000168:	4781                	li	a5,0
    4000016a:	4525                	li	a0,9
    4000016c:	55c1                	li	a1,-16
    4000016e:	00f47613          	andi	a2,s0,15
    40000172:	0ff67713          	andi	a4,a2,255
    40000176:	03000693          	li	a3,48
    4000017a:	00c55463          	ble	a2,a0,40000182 <tohost_exit+0x36>
    4000017e:	05700693          	li	a3,87
    40000182:	0030                	addi	a2,sp,8
    40000184:	963e                	add	a2,a2,a5
    40000186:	9f35                	addw	a4,a4,a3
    40000188:	00e60ea3          	sb	a4,29(a2)
    4000018c:	17fd                	addi	a5,a5,-1
    4000018e:	8411                	srai	s0,s0,0x4
    40000190:	fcb79fe3          	bne	a5,a1,4000016e <tohost_exit+0x22>
    40000194:	0028                	addi	a0,sp,8
    40000196:	45a000ef          	jal	ra,400005f0 <hid_send_string>
    4000019a:	00006517          	auipc	a0,0x6
    4000019e:	04650513          	addi	a0,a0,70 # 400061e0 <P_array.1885+0xa8>
    400001a2:	44e000ef          	jal	ra,400005f0 <hid_send_string>
    400001a6:	a001                	j	400001a6 <tohost_exit+0x5a>

00000000400001a8 <handle_interrupt>:
    400001a8:	800007b7          	lui	a5,0x80000
    400001ac:	fff7c793          	not	a5,a5
    400001b0:	8d7d                	and	a0,a0,a5
    400001b2:	47ad                	li	a5,11
    400001b4:	00f51463          	bne	a0,a5,400001bc <handle_interrupt+0x14>
    400001b8:	f93ff06f          	j	4000014a <external_interrupt>
    400001bc:	8082                	ret

00000000400001be <handle_trap>:
    400001be:	711d                	addi	sp,sp,-96
    400001c0:	e8a2                	sd	s0,80(sp)
    400001c2:	842a                	mv	s0,a0
    400001c4:	00006517          	auipc	a0,0x6
    400001c8:	08450513          	addi	a0,a0,132 # 40006248 <P_array.1885+0x110>
    400001cc:	e4a6                	sd	s1,72(sp)
    400001ce:	ec86                	sd	ra,88(sp)
    400001d0:	e0ca                	sd	s2,64(sp)
    400001d2:	fc4e                	sd	s3,56(sp)
    400001d4:	f852                	sd	s4,48(sp)
    400001d6:	f456                	sd	s5,40(sp)
    400001d8:	f05a                	sd	s6,32(sp)
    400001da:	ec5e                	sd	s7,24(sp)
    400001dc:	e862                	sd	s8,16(sp)
    400001de:	e466                	sd	s9,8(sp)
    400001e0:	e06a                	sd	s10,0(sp)
    400001e2:	84b2                	mv	s1,a2
    400001e4:	50d040ef          	jal	ra,40004ef0 <printf>
    400001e8:	47ad                	li	a5,11
    400001ea:	1087e163          	bltu	a5,s0,400002ec <handle_trap+0x12e>
    400001ee:	00006717          	auipc	a4,0x6
    400001f2:	d7a70713          	addi	a4,a4,-646 # 40005f68 <scancode+0x300>
    400001f6:	040a                	slli	s0,s0,0x2
    400001f8:	943a                	add	s0,s0,a4
    400001fa:	401c                	lw	a5,0(s0)
    400001fc:	97ba                	add	a5,a5,a4
    400001fe:	8782                	jr	a5
    40000200:	00006517          	auipc	a0,0x6
    40000204:	05850513          	addi	a0,a0,88 # 40006258 <P_array.1885+0x120>
    40000208:	4e9040ef          	jal	ra,40004ef0 <printf>
    4000020c:	34302573          	csrr	a0,mbadaddr
    40000210:	85aa                	mv	a1,a0
    40000212:	00006517          	auipc	a0,0x6
    40000216:	1ee50513          	addi	a0,a0,494 # 40006400 <P_array.1885+0x2c8>
    4000021a:	4d7040ef          	jal	ra,40004ef0 <printf>
    4000021e:	8926                	mv	s2,s1
    40000220:	4401                	li	s0,0
    40000222:	4a09                	li	s4,2
    40000224:	4a85                	li	s5,1
    40000226:	498d                	li	s3,3
    40000228:	4b1d                	li	s6,7
    4000022a:	4ba5                	li	s7,9
    4000022c:	00006c17          	auipc	s8,0x6
    40000230:	20cc0c13          	addi	s8,s8,524 # 40006438 <P_array.1885+0x300>
    40000234:	00006c97          	auipc	s9,0x6
    40000238:	1fcc8c93          	addi	s9,s9,508 # 40006430 <P_array.1885+0x2f8>
    4000023c:	00006d17          	auipc	s10,0x6
    40000240:	1ecd0d13          	addi	s10,s10,492 # 40006428 <P_array.1885+0x2f0>
    40000244:	0b441d63          	bne	s0,s4,400002fe <handle_trap+0x140>
    40000248:	688c                	ld	a1,16(s1)
    4000024a:	00006517          	auipc	a0,0x6
    4000024e:	1c650513          	addi	a0,a0,454 # 40006410 <P_array.1885+0x2d8>
    40000252:	49f040ef          	jal	ra,40004ef0 <printf>
    40000256:	00347793          	andi	a5,s0,3
    4000025a:	01379863          	bne	a5,s3,4000026a <handle_trap+0xac>
    4000025e:	00006517          	auipc	a0,0x6
    40000262:	f7a50513          	addi	a0,a0,-134 # 400061d8 <P_array.1885+0xa0>
    40000266:	48b040ef          	jal	ra,40004ef0 <printf>
    4000026a:	2405                	addiw	s0,s0,1
    4000026c:	02000793          	li	a5,32
    40000270:	0921                	addi	s2,s2,8
    40000272:	fcf419e3          	bne	s0,a5,40000244 <handle_trap+0x86>
    40000276:	53900513          	li	a0,1337
    4000027a:	ed3ff0ef          	jal	ra,4000014c <tohost_exit>
    4000027e:	00006517          	auipc	a0,0x6
    40000282:	ff250513          	addi	a0,a0,-14 # 40006270 <P_array.1885+0x138>
    40000286:	b749                	j	40000208 <handle_trap+0x4a>
    40000288:	00006517          	auipc	a0,0x6
    4000028c:	00850513          	addi	a0,a0,8 # 40006290 <P_array.1885+0x158>
    40000290:	bfa5                	j	40000208 <handle_trap+0x4a>
    40000292:	00006517          	auipc	a0,0x6
    40000296:	01650513          	addi	a0,a0,22 # 400062a8 <P_array.1885+0x170>
    4000029a:	b7bd                	j	40000208 <handle_trap+0x4a>
    4000029c:	00006517          	auipc	a0,0x6
    400002a0:	02450513          	addi	a0,a0,36 # 400062c0 <P_array.1885+0x188>
    400002a4:	b795                	j	40000208 <handle_trap+0x4a>
    400002a6:	00006517          	auipc	a0,0x6
    400002aa:	03a50513          	addi	a0,a0,58 # 400062e0 <P_array.1885+0x1a8>
    400002ae:	bfa9                	j	40000208 <handle_trap+0x4a>
    400002b0:	00006517          	auipc	a0,0x6
    400002b4:	05050513          	addi	a0,a0,80 # 40006300 <P_array.1885+0x1c8>
    400002b8:	bf81                	j	40000208 <handle_trap+0x4a>
    400002ba:	00006517          	auipc	a0,0x6
    400002be:	06e50513          	addi	a0,a0,110 # 40006328 <P_array.1885+0x1f0>
    400002c2:	b799                	j	40000208 <handle_trap+0x4a>
    400002c4:	00006517          	auipc	a0,0x6
    400002c8:	08450513          	addi	a0,a0,132 # 40006348 <P_array.1885+0x210>
    400002cc:	bf35                	j	40000208 <handle_trap+0x4a>
    400002ce:	00006517          	auipc	a0,0x6
    400002d2:	0a250513          	addi	a0,a0,162 # 40006370 <P_array.1885+0x238>
    400002d6:	bf0d                	j	40000208 <handle_trap+0x4a>
    400002d8:	00006517          	auipc	a0,0x6
    400002dc:	0c050513          	addi	a0,a0,192 # 40006398 <P_array.1885+0x260>
    400002e0:	b725                	j	40000208 <handle_trap+0x4a>
    400002e2:	00006517          	auipc	a0,0x6
    400002e6:	0de50513          	addi	a0,a0,222 # 400063c0 <P_array.1885+0x288>
    400002ea:	bf39                	j	40000208 <handle_trap+0x4a>
    400002ec:	8622                	mv	a2,s0
    400002ee:	85a2                	mv	a1,s0
    400002f0:	00006517          	auipc	a0,0x6
    400002f4:	0f850513          	addi	a0,a0,248 # 400063e8 <P_array.1885+0x2b0>
    400002f8:	3f9040ef          	jal	ra,40004ef0 <printf>
    400002fc:	bf01                	j	4000020c <handle_trap+0x4e>
    400002fe:	01541863          	bne	s0,s5,4000030e <handle_trap+0x150>
    40000302:	648c                	ld	a1,8(s1)
    40000304:	00006517          	auipc	a0,0x6
    40000308:	11450513          	addi	a0,a0,276 # 40006418 <P_array.1885+0x2e0>
    4000030c:	b799                	j	40000252 <handle_trap+0x94>
    4000030e:	01341863          	bne	s0,s3,4000031e <handle_trap+0x160>
    40000312:	6c8c                	ld	a1,24(s1)
    40000314:	00006517          	auipc	a0,0x6
    40000318:	10c50513          	addi	a0,a0,268 # 40006420 <P_array.1885+0x2e8>
    4000031c:	bf1d                	j	40000252 <handle_trap+0x94>
    4000031e:	0004079b          	sext.w	a5,s0
    40000322:	ff67859b          	addiw	a1,a5,-10
    40000326:	00093603          	ld	a2,0(s2)
    4000032a:	856a                	mv	a0,s10
    4000032c:	00bb7963          	bleu	a1,s6,4000033e <handle_trap+0x180>
    40000330:	fee7871b          	addiw	a4,a5,-18
    40000334:	00ebe863          	bltu	s7,a4,40000344 <handle_trap+0x186>
    40000338:	ff07859b          	addiw	a1,a5,-16
    4000033c:	8566                	mv	a0,s9
    4000033e:	3b3040ef          	jal	ra,40004ef0 <printf>
    40000342:	bf11                	j	40000256 <handle_trap+0x98>
    40000344:	85a2                	mv	a1,s0
    40000346:	8562                	mv	a0,s8
    40000348:	bfdd                	j	4000033e <handle_trap+0x180>

000000004000034a <thread_entry>:
    4000034a:	e101                	bnez	a0,4000034a <thread_entry>
    4000034c:	8082                	ret

000000004000034e <__bswap_16>:
    4000034e:	0085579b          	srliw	a5,a0,0x8
    40000352:	0522                	slli	a0,a0,0x8
    40000354:	8d5d                	or	a0,a0,a5
    40000356:	1542                	slli	a0,a0,0x30
    40000358:	9141                	srli	a0,a0,0x30
    4000035a:	8082                	ret

000000004000035c <__bswap_32>:
    4000035c:	0185171b          	slliw	a4,a0,0x18
    40000360:	0185579b          	srliw	a5,a0,0x18
    40000364:	66c1                	lui	a3,0x10
    40000366:	8fd9                	or	a5,a5,a4
    40000368:	f0068693          	addi	a3,a3,-256 # ff00 <_tbss_end+0xff00>
    4000036c:	0085571b          	srliw	a4,a0,0x8
    40000370:	8f75                	and	a4,a4,a3
    40000372:	8fd9                	or	a5,a5,a4
    40000374:	0085151b          	slliw	a0,a0,0x8
    40000378:	00ff0737          	lui	a4,0xff0
    4000037c:	8d79                	and	a0,a0,a4
    4000037e:	8d5d                	or	a0,a0,a5
    40000380:	2501                	sext.w	a0,a0
    40000382:	8082                	ret

0000000040000384 <_init>:
    40000384:	00006517          	auipc	a0,0x6
    40000388:	7e550513          	addi	a0,a0,2021 # 40006b69 <_bss>
    4000038c:	00007617          	auipc	a2,0x7
    40000390:	b9460613          	addi	a2,a2,-1132 # 40006f20 <_end>
    40000394:	7179                	addi	sp,sp,-48
    40000396:	8e09                	sub	a2,a2,a0
    40000398:	4581                	li	a1,0
    4000039a:	f406                	sd	ra,40(sp)
    4000039c:	f022                	sd	s0,32(sp)
    4000039e:	ec26                	sd	s1,24(sp)
    400003a0:	e84a                	sd	s2,16(sp)
    400003a2:	374000ef          	jal	ra,40000716 <memset>
    400003a6:	344000ef          	jal	ra,400006ea <get_sw>
    400003aa:	033517b7          	lui	a5,0x3351
    400003ae:	a007879b          	addiw	a5,a5,-1536
    400003b2:	00006717          	auipc	a4,0x6
    400003b6:	7af72f23          	sw	a5,1982(a4) # 40006b70 <mac_addr>
    400003ba:	f5600713          	li	a4,-170
    400003be:	00006697          	auipc	a3,0x6
    400003c2:	7ae69b23          	sh	a4,1974(a3) # 40006b74 <mac_addr+0x4>
    400003c6:	33500693          	li	a3,821
    400003ca:	00d11423          	sh	a3,8(sp)
    400003ce:	00e11523          	sh	a4,10(sp)
    400003d2:	00f57493          	andi	s1,a0,15
    400003d6:	4522                	lw	a0,8(sp)
    400003d8:	00f11623          	sh	a5,12(sp)
    400003dc:	ff248413          	addi	s0,s1,-14
    400003e0:	f7dff0ef          	jal	ra,4000035c <__bswap_32>
    400003e4:	00006797          	auipc	a5,0x6
    400003e8:	76478793          	addi	a5,a5,1892 # 40006b48 <eth_base>
    400003ec:	46b2                	lw	a3,12(sp)
    400003ee:	6398                	ld	a4,0(a5)
    400003f0:	01000637          	lui	a2,0x1000
    400003f4:	6785                	lui	a5,0x1
    400003f6:	973e                	add	a4,a4,a5
    400003f8:	f0060613          	addi	a2,a2,-256 # ffff00 <_tbss_end+0xffff00>
    400003fc:	0086979b          	slliw	a5,a3,0x8
    40000400:	82a1                	srli	a3,a3,0x8
    40000402:	8ff1                	and	a5,a5,a2
    40000404:	0ff6f693          	andi	a3,a3,255
    40000408:	1502                	slli	a0,a0,0x20
    4000040a:	8fd5                	or	a5,a5,a3
    4000040c:	9101                	srli	a0,a0,0x20
    4000040e:	17c2                	slli	a5,a5,0x30
    40000410:	80a73023          	sd	a0,-2048(a4)
    40000414:	93c1                	srli	a5,a5,0x30
    40000416:	80f73423          	sd	a5,-2040(a4)
    4000041a:	80073603          	ld	a2,-2048(a4)
    4000041e:	80873583          	ld	a1,-2040(a4)
    40000422:	4939                	li	s2,14
    40000424:	2601                	sext.w	a2,a2
    40000426:	15c2                	slli	a1,a1,0x30
    40000428:	91c1                	srli	a1,a1,0x30
    4000042a:	c432                	sw	a2,8(sp)
    4000042c:	c62e                	sw	a1,12(sp)
    4000042e:	00143413          	seqz	s0,s0
    40000432:	01248863          	beq	s1,s2,40000442 <_init+0xbe>
    40000436:	00006517          	auipc	a0,0x6
    4000043a:	00a50513          	addi	a0,a0,10 # 40006440 <P_array.1885+0x308>
    4000043e:	2b3040ef          	jal	ra,40004ef0 <printf>
    40000442:	4581                	li	a1,0
    40000444:	8522                	mv	a0,s0
    40000446:	7a0050ef          	jal	ra,40005be6 <main>
    4000044a:	85aa                	mv	a1,a0
    4000044c:	00006517          	auipc	a0,0x6
    40000450:	01450513          	addi	a0,a0,20 # 40006460 <P_array.1885+0x328>
    40000454:	29d040ef          	jal	ra,40004ef0 <printf>
    40000458:	a001                	j	40000458 <_init+0xd4>

000000004000045a <printhex>:
    4000045a:	7179                	addi	sp,sp,-48
    4000045c:	f406                	sd	ra,40(sp)
    4000045e:	4781                	li	a5,0
    40000460:	4825                	li	a6,9
    40000462:	55c1                	li	a1,-16
    40000464:	00f57613          	andi	a2,a0,15
    40000468:	0ff67713          	andi	a4,a2,255
    4000046c:	03000693          	li	a3,48
    40000470:	00c87463          	bleu	a2,a6,40000478 <printhex+0x1e>
    40000474:	05700693          	li	a3,87
    40000478:	0030                	addi	a2,sp,8
    4000047a:	963e                	add	a2,a2,a5
    4000047c:	9f35                	addw	a4,a4,a3
    4000047e:	00e607a3          	sb	a4,15(a2)
    40000482:	17fd                	addi	a5,a5,-1
    40000484:	8111                	srli	a0,a0,0x4
    40000486:	fcb79fe3          	bne	a5,a1,40000464 <printhex+0xa>
    4000048a:	0028                	addi	a0,sp,8
    4000048c:	00010c23          	sb	zero,24(sp)
    40000490:	160000ef          	jal	ra,400005f0 <hid_send_string>
    40000494:	70a2                	ld	ra,40(sp)
    40000496:	6145                	addi	sp,sp,48
    40000498:	8082                	ret

000000004000049a <hid_console_putchar>:
    4000049a:	00006697          	auipc	a3,0x6
    4000049e:	72268693          	addi	a3,a3,1826 # 40006bbc <addr_int>
    400004a2:	4729                	li	a4,10
    400004a4:	429c                	lw	a5,0(a3)
    400004a6:	8836                	mv	a6,a3
    400004a8:	0ae50263          	beq	a0,a4,4000054c <hid_console_putchar+0xb2>
    400004ac:	08a76363          	bltu	a4,a0,40000532 <hid_console_putchar+0x98>
    400004b0:	4721                	li	a4,8
    400004b2:	0ce51d63          	bne	a0,a4,4000058c <hid_console_putchar+0xf2>
    400004b6:	07f7f713          	andi	a4,a5,127
    400004ba:	c31d                	beqz	a4,400004e0 <hid_console_putchar+0x46>
    400004bc:	fff7871b          	addiw	a4,a5,-1
    400004c0:	00006797          	auipc	a5,0x6
    400004c4:	69078793          	addi	a5,a5,1680 # 40006b50 <hid_vga_ptr>
    400004c8:	639c                	ld	a5,0(a5)
    400004ca:	00006697          	auipc	a3,0x6
    400004ce:	6ee6a923          	sw	a4,1778(a3) # 40006bbc <addr_int>
    400004d2:	0706                	slli	a4,a4,0x1
    400004d4:	97ba                	add	a5,a5,a4
    400004d6:	6705                	lui	a4,0x1
    400004d8:	f207071b          	addiw	a4,a4,-224
    400004dc:	00e79023          	sh	a4,0(a5)
    400004e0:	00082703          	lw	a4,0(a6)
    400004e4:	6785                	lui	a5,0x1
    400004e6:	f7f78793          	addi	a5,a5,-129 # f7f <_tbss_end+0xf7f>
    400004ea:	04e7d363          	ble	a4,a5,40000530 <hid_console_putchar+0x96>
    400004ee:	00006717          	auipc	a4,0x6
    400004f2:	6c072723          	sw	zero,1742(a4) # 40006bbc <addr_int>
    400004f6:	00006717          	auipc	a4,0x6
    400004fa:	65a70713          	addi	a4,a4,1626 # 40006b50 <hid_vga_ptr>
    400004fe:	6318                	ld	a4,0(a4)
    40000500:	6605                	lui	a2,0x1
    40000502:	4681                	li	a3,0
    40000504:	6505                	lui	a0,0x1
    40000506:	f206061b          	addiw	a2,a2,-224
    4000050a:	0ad7e763          	bltu	a5,a3,400005b8 <hid_console_putchar+0x11e>
    4000050e:	10075583          	lhu	a1,256(a4)
    40000512:	15c2                	slli	a1,a1,0x30
    40000514:	91c1                	srli	a1,a1,0x30
    40000516:	00b71023          	sh	a1,0(a4)
    4000051a:	0685                	addi	a3,a3,1
    4000051c:	0709                	addi	a4,a4,2
    4000051e:	fea696e3          	bne	a3,a0,4000050a <hid_console_putchar+0x70>
    40000522:	6785                	lui	a5,0x1
    40000524:	f007879b          	addiw	a5,a5,-256
    40000528:	00006717          	auipc	a4,0x6
    4000052c:	68f72a23          	sw	a5,1684(a4) # 40006bbc <addr_int>
    40000530:	8082                	ret
    40000532:	4735                	li	a4,13
    40000534:	00e50563          	beq	a0,a4,4000053e <hid_console_putchar+0xa4>
    40000538:	07f00713          	li	a4,127
    4000053c:	bf9d                	j	400004b2 <hid_console_putchar+0x18>
    4000053e:	f807f793          	andi	a5,a5,-128
    40000542:	00006717          	auipc	a4,0x6
    40000546:	66f72d23          	sw	a5,1658(a4) # 40006bbc <addr_int>
    4000054a:	bf59                	j	400004e0 <hid_console_putchar+0x46>
    4000054c:	00006717          	auipc	a4,0x6
    40000550:	60470713          	addi	a4,a4,1540 # 40006b50 <hid_vga_ptr>
    40000554:	6585                	lui	a1,0x1
    40000556:	00073883          	ld	a7,0(a4)
    4000055a:	07f7e513          	ori	a0,a5,127
    4000055e:	86be                	mv	a3,a5
    40000560:	4601                	li	a2,0
    40000562:	4701                	li	a4,0
    40000564:	f205859b          	addiw	a1,a1,-224
    40000568:	00d55863          	ble	a3,a0,40000578 <hid_console_putchar+0xde>
    4000056c:	db35                	beqz	a4,400004e0 <hid_console_putchar+0x46>
    4000056e:	00006797          	auipc	a5,0x6
    40000572:	64d7a723          	sw	a3,1614(a5) # 40006bbc <addr_int>
    40000576:	b7ad                	j	400004e0 <hid_console_putchar+0x46>
    40000578:	00c78733          	add	a4,a5,a2
    4000057c:	0706                	slli	a4,a4,0x1
    4000057e:	9746                	add	a4,a4,a7
    40000580:	00b71023          	sh	a1,0(a4)
    40000584:	2685                	addiw	a3,a3,1
    40000586:	0605                	addi	a2,a2,1
    40000588:	4705                	li	a4,1
    4000058a:	bff9                	j	40000568 <hid_console_putchar+0xce>
    4000058c:	0017871b          	addiw	a4,a5,1
    40000590:	00006697          	auipc	a3,0x6
    40000594:	62e6a623          	sw	a4,1580(a3) # 40006bbc <addr_int>
    40000598:	00006717          	auipc	a4,0x6
    4000059c:	5b870713          	addi	a4,a4,1464 # 40006b50 <hid_vga_ptr>
    400005a0:	6318                	ld	a4,0(a4)
    400005a2:	0786                	slli	a5,a5,0x1
    400005a4:	97ba                	add	a5,a5,a4
    400005a6:	6705                	lui	a4,0x1
    400005a8:	f0070713          	addi	a4,a4,-256 # f00 <_tbss_end+0xf00>
    400005ac:	8d59                	or	a0,a0,a4
    400005ae:	1542                	slli	a0,a0,0x30
    400005b0:	9141                	srli	a0,a0,0x30
    400005b2:	00a79023          	sh	a0,0(a5)
    400005b6:	b72d                	j	400004e0 <hid_console_putchar+0x46>
    400005b8:	00c71023          	sh	a2,0(a4)
    400005bc:	bfb9                	j	4000051a <hid_console_putchar+0x80>

00000000400005be <uart_console_putchar>:
    400005be:	00006797          	auipc	a5,0x6
    400005c2:	59a78793          	addi	a5,a5,1434 # 40006b58 <uart_base>
    400005c6:	6398                	ld	a4,0(a5)
    400005c8:	631c                	ld	a5,0(a4)
    400005ca:	4007f793          	andi	a5,a5,1024
    400005ce:	ffed                	bnez	a5,400005c8 <uart_console_putchar+0xa>
    400005d0:	e308                	sd	a0,0(a4)
    400005d2:	8082                	ret

00000000400005d4 <hid_init>:
    400005d4:	8082                	ret

00000000400005d6 <hid_send_irq>:
    400005d6:	8082                	ret

00000000400005d8 <hid_send>:
    400005d8:	1141                	addi	sp,sp,-16
    400005da:	e022                	sd	s0,0(sp)
    400005dc:	e406                	sd	ra,8(sp)
    400005de:	842a                	mv	s0,a0
    400005e0:	fdfff0ef          	jal	ra,400005be <uart_console_putchar>
    400005e4:	8522                	mv	a0,s0
    400005e6:	6402                	ld	s0,0(sp)
    400005e8:	60a2                	ld	ra,8(sp)
    400005ea:	0141                	addi	sp,sp,16
    400005ec:	eafff06f          	j	4000049a <hid_console_putchar>

00000000400005f0 <hid_send_string>:
    400005f0:	1141                	addi	sp,sp,-16
    400005f2:	e022                	sd	s0,0(sp)
    400005f4:	e406                	sd	ra,8(sp)
    400005f6:	842a                	mv	s0,a0
    400005f8:	00044503          	lbu	a0,0(s0)
    400005fc:	e509                	bnez	a0,40000606 <hid_send_string+0x16>
    400005fe:	60a2                	ld	ra,8(sp)
    40000600:	6402                	ld	s0,0(sp)
    40000602:	0141                	addi	sp,sp,16
    40000604:	8082                	ret
    40000606:	0405                	addi	s0,s0,1
    40000608:	fd1ff0ef          	jal	ra,400005d8 <hid_send>
    4000060c:	b7f5                	j	400005f8 <hid_send_string+0x8>

000000004000060e <hid_send_buf>:
    4000060e:	7179                	addi	sp,sp,-48
    40000610:	f022                	sd	s0,32(sp)
    40000612:	ec26                	sd	s1,24(sp)
    40000614:	f406                	sd	ra,40(sp)
    40000616:	84aa                	mv	s1,a0
    40000618:	842a                	mv	s0,a0
    4000061a:	409407bb          	subw	a5,s0,s1
    4000061e:	00b7c763          	blt	a5,a1,4000062c <hid_send_buf+0x1e>
    40000622:	70a2                	ld	ra,40(sp)
    40000624:	7402                	ld	s0,32(sp)
    40000626:	64e2                	ld	s1,24(sp)
    40000628:	6145                	addi	sp,sp,48
    4000062a:	8082                	ret
    4000062c:	00044503          	lbu	a0,0(s0)
    40000630:	e42e                	sd	a1,8(sp)
    40000632:	0405                	addi	s0,s0,1
    40000634:	fa5ff0ef          	jal	ra,400005d8 <hid_send>
    40000638:	65a2                	ld	a1,8(sp)
    4000063a:	b7c5                	j	4000061a <hid_send_buf+0xc>

000000004000063c <hid_recv>:
    4000063c:	0ff00513          	li	a0,255
    40000640:	8082                	ret

0000000040000642 <hid_check_read_irq>:
    40000642:	00006797          	auipc	a5,0x6
    40000646:	51678793          	addi	a5,a5,1302 # 40006b58 <uart_base>
    4000064a:	639c                	ld	a5,0(a5)
    4000064c:	4501                	li	a0,0
    4000064e:	6398                	ld	a4,0(a5)
    40000650:	6709                	lui	a4,0x2
    40000652:	97ba                	add	a5,a5,a4
    40000654:	639c                	ld	a5,0(a5)
    40000656:	8082                	ret

0000000040000658 <hid_read_irq>:
    40000658:	1101                	addi	sp,sp,-32
    4000065a:	e822                	sd	s0,16(sp)
    4000065c:	e426                	sd	s1,8(sp)
    4000065e:	ec06                	sd	ra,24(sp)
    40000660:	00006497          	auipc	s1,0x6
    40000664:	4f848493          	addi	s1,s1,1272 # 40006b58 <uart_base>
    40000668:	6405                	lui	s0,0x1
    4000066a:	fd9ff0ef          	jal	ra,40000642 <hid_check_read_irq>
    4000066e:	dd75                	beqz	a0,4000066a <hid_read_irq+0x12>
    40000670:	609c                	ld	a5,0(s1)
    40000672:	00878733          	add	a4,a5,s0
    40000676:	00073023          	sd	zero,0(a4) # 2000 <_tbss_end+0x2000>
    4000067a:	6388                	ld	a0,0(a5)
    4000067c:	07f57513          	andi	a0,a0,127
    40000680:	d56d                	beqz	a0,4000066a <hid_read_irq+0x12>
    40000682:	60e2                	ld	ra,24(sp)
    40000684:	6442                	ld	s0,16(sp)
    40000686:	64a2                	ld	s1,8(sp)
    40000688:	6105                	addi	sp,sp,32
    4000068a:	8082                	ret

000000004000068c <hid_enable_read_irq>:
    4000068c:	8082                	ret

000000004000068e <hid_disable_read_irq>:
    4000068e:	8082                	ret

0000000040000690 <putc>:
    40000690:	1141                	addi	sp,sp,-16
    40000692:	0ff57513          	andi	a0,a0,255
    40000696:	e406                	sd	ra,8(sp)
    40000698:	f41ff0ef          	jal	ra,400005d8 <hid_send>
    4000069c:	60a2                	ld	ra,8(sp)
    4000069e:	0141                	addi	sp,sp,16
    400006a0:	8082                	ret

00000000400006a2 <puts>:
    400006a2:	1141                	addi	sp,sp,-16
    400006a4:	e022                	sd	s0,0(sp)
    400006a6:	e406                	sd	ra,8(sp)
    400006a8:	842a                	mv	s0,a0
    400006aa:	00044503          	lbu	a0,0(s0) # 1000 <_tbss_end+0x1000>
    400006ae:	e909                	bnez	a0,400006c0 <puts+0x1e>
    400006b0:	4529                	li	a0,10
    400006b2:	f27ff0ef          	jal	ra,400005d8 <hid_send>
    400006b6:	60a2                	ld	ra,8(sp)
    400006b8:	6402                	ld	s0,0(sp)
    400006ba:	4501                	li	a0,0
    400006bc:	0141                	addi	sp,sp,16
    400006be:	8082                	ret
    400006c0:	0405                	addi	s0,s0,1
    400006c2:	f17ff0ef          	jal	ra,400005d8 <hid_send>
    400006c6:	b7d5                	j	400006aa <puts+0x8>

00000000400006c8 <get_bram_base>:
    400006c8:	40000537          	lui	a0,0x40000
    400006cc:	8082                	ret

00000000400006ce <get_ddr_base>:
    400006ce:	4505                	li	a0,1
    400006d0:	057e                	slli	a0,a0,0x1f
    400006d2:	8082                	ret

00000000400006d4 <get_ddr_size>:
    400006d4:	08000537          	lui	a0,0x8000
    400006d8:	8082                	ret

00000000400006da <get_flash_base>:
    400006da:	4501                	li	a0,0
    400006dc:	8082                	ret

00000000400006de <write_led>:
    400006de:	1502                	slli	a0,a0,0x20
    400006e0:	9101                	srli	a0,a0,0x20
    400006e2:	400107b7          	lui	a5,0x40010
    400006e6:	ffa8                	sd	a0,120(a5)
    400006e8:	8082                	ret

00000000400006ea <get_sw>:
    400006ea:	400107b7          	lui	a5,0x40010
    400006ee:	7fe8                	ld	a0,248(a5)
    400006f0:	2501                	sext.w	a0,a0
    400006f2:	8082                	ret

00000000400006f4 <memcmp>:
    400006f4:	962a                	add	a2,a2,a0
    400006f6:	00c50e63          	beq	a0,a2,40000712 <memcmp+0x1e>
    400006fa:	00054783          	lbu	a5,0(a0) # 8000000 <_tbss_end+0x8000000>
    400006fe:	0005c703          	lbu	a4,0(a1) # 1000 <_tbss_end+0x1000>
    40000702:	00e78563          	beq	a5,a4,4000070c <memcmp+0x18>
    40000706:	40e7853b          	subw	a0,a5,a4
    4000070a:	8082                	ret
    4000070c:	0505                	addi	a0,a0,1
    4000070e:	0585                	addi	a1,a1,1
    40000710:	b7dd                	j	400006f6 <memcmp+0x2>
    40000712:	4501                	li	a0,0
    40000714:	8082                	ret

0000000040000716 <memset>:
    40000716:	471d                	li	a4,7
    40000718:	87aa                	mv	a5,a0
    4000071a:	04c77563          	bleu	a2,a4,40000764 <memset+0x4e>
    4000071e:	0ff5f813          	andi	a6,a1,255
    40000722:	00881693          	slli	a3,a6,0x8
    40000726:	0106e6b3          	or	a3,a3,a6
    4000072a:	01069713          	slli	a4,a3,0x10
    4000072e:	8ed9                	or	a3,a3,a4
    40000730:	02069713          	slli	a4,a3,0x20
    40000734:	8f55                	or	a4,a4,a3
    40000736:	00c50333          	add	t1,a0,a2
    4000073a:	0077f693          	andi	a3,a5,7
    4000073e:	88be                	mv	a7,a5
    40000740:	40f30633          	sub	a2,t1,a5
    40000744:	e685                	bnez	a3,4000076c <memset+0x56>
    40000746:	00665693          	srli	a3,a2,0x6
    4000074a:	8836                	mv	a6,a3
    4000074c:	02081463          	bnez	a6,40000774 <memset+0x5e>
    40000750:	069a                	slli	a3,a3,0x6
    40000752:	00365793          	srli	a5,a2,0x3
    40000756:	96c6                	add	a3,a3,a7
    40000758:	8b9d                	andi	a5,a5,7
    4000075a:	03079963          	bne	a5,a6,4000078c <memset+0x76>
    4000075e:	078e                	slli	a5,a5,0x3
    40000760:	97b6                	add	a5,a5,a3
    40000762:	8a1d                	andi	a2,a2,7
    40000764:	963e                	add	a2,a2,a5
    40000766:	02c79a63          	bne	a5,a2,4000079a <memset+0x84>
    4000076a:	8082                	ret
    4000076c:	01078023          	sb	a6,0(a5) # 40010000 <_gp+0x8cf8>
    40000770:	0785                	addi	a5,a5,1
    40000772:	b7e1                	j	4000073a <memset+0x24>
    40000774:	e398                	sd	a4,0(a5)
    40000776:	e798                	sd	a4,8(a5)
    40000778:	eb98                	sd	a4,16(a5)
    4000077a:	ef98                	sd	a4,24(a5)
    4000077c:	f398                	sd	a4,32(a5)
    4000077e:	f798                	sd	a4,40(a5)
    40000780:	fb98                	sd	a4,48(a5)
    40000782:	ff98                	sd	a4,56(a5)
    40000784:	187d                	addi	a6,a6,-1
    40000786:	04078793          	addi	a5,a5,64
    4000078a:	b7c9                	j	4000074c <memset+0x36>
    4000078c:	00381893          	slli	a7,a6,0x3
    40000790:	98b6                	add	a7,a7,a3
    40000792:	00e8b023          	sd	a4,0(a7)
    40000796:	0805                	addi	a6,a6,1
    40000798:	b7c9                	j	4000075a <memset+0x44>
    4000079a:	00b78023          	sb	a1,0(a5)
    4000079e:	0785                	addi	a5,a5,1
    400007a0:	b7d9                	j	40000766 <memset+0x50>

00000000400007a2 <strcmp>:
    400007a2:	0505                	addi	a0,a0,1
    400007a4:	fff54783          	lbu	a5,-1(a0)
    400007a8:	0585                	addi	a1,a1,1
    400007aa:	fff5c703          	lbu	a4,-1(a1)
    400007ae:	e781                	bnez	a5,400007b6 <strcmp+0x14>
    400007b0:	40e0053b          	negw	a0,a4
    400007b4:	8082                	ret
    400007b6:	fee786e3          	beq	a5,a4,400007a2 <strcmp>
    400007ba:	40e7853b          	subw	a0,a5,a4
    400007be:	8082                	ret

00000000400007c0 <strcpy>:
    400007c0:	87aa                	mv	a5,a0
    400007c2:	0005c703          	lbu	a4,0(a1)
    400007c6:	0785                	addi	a5,a5,1
    400007c8:	0585                	addi	a1,a1,1
    400007ca:	fee78fa3          	sb	a4,-1(a5)
    400007ce:	fb75                	bnez	a4,400007c2 <strcpy+0x2>
    400007d0:	8082                	ret

00000000400007d2 <strnlen>:
    400007d2:	c1a5                	beqz	a1,40000832 <strnlen+0x60>
    400007d4:	00b506b3          	add	a3,a0,a1
    400007d8:	00a6f363          	bleu	a0,a3,400007de <strnlen+0xc>
    400007dc:	56fd                	li	a3,-1
    400007de:	85aa                	mv	a1,a0
    400007e0:	0075f793          	andi	a5,a1,7
    400007e4:	e3a1                	bnez	a5,40000824 <strnlen+0x52>
    400007e6:	87ae                	mv	a5,a1
    400007e8:	00006817          	auipc	a6,0x6
    400007ec:	32080813          	addi	a6,a6,800 # 40006b08 <P_array.1885+0x9d0>
    400007f0:	00006897          	auipc	a7,0x6
    400007f4:	32088893          	addi	a7,a7,800 # 40006b10 <P_array.1885+0x9d8>
    400007f8:	02d7f963          	bleu	a3,a5,4000082a <strnlen+0x58>
    400007fc:	00878713          	addi	a4,a5,8
    40000800:	00083583          	ld	a1,0(a6)
    40000804:	ff873603          	ld	a2,-8(a4)
    40000808:	962e                	add	a2,a2,a1
    4000080a:	0008b583          	ld	a1,0(a7)
    4000080e:	8e6d                	and	a2,a2,a1
    40000810:	ca2d                	beqz	a2,40000882 <strnlen+0xb0>
    40000812:	ff874603          	lbu	a2,-8(a4)
    40000816:	ca2d                	beqz	a2,40000888 <strnlen+0xb6>
    40000818:	ff974603          	lbu	a2,-7(a4)
    4000081c:	ee19                	bnez	a2,4000083a <strnlen+0x68>
    4000081e:	00178593          	addi	a1,a5,1
    40000822:	a021                	j	4000082a <strnlen+0x58>
    40000824:	0005c783          	lbu	a5,0(a1)
    40000828:	e799                	bnez	a5,40000836 <strnlen+0x64>
    4000082a:	00b6f363          	bleu	a1,a3,40000830 <strnlen+0x5e>
    4000082e:	85b6                	mv	a1,a3
    40000830:	8d89                	sub	a1,a1,a0
    40000832:	852e                	mv	a0,a1
    40000834:	8082                	ret
    40000836:	0585                	addi	a1,a1,1
    40000838:	b765                	j	400007e0 <strnlen+0xe>
    4000083a:	ffa74603          	lbu	a2,-6(a4)
    4000083e:	e601                	bnez	a2,40000846 <strnlen+0x74>
    40000840:	00278593          	addi	a1,a5,2
    40000844:	b7dd                	j	4000082a <strnlen+0x58>
    40000846:	ffb74603          	lbu	a2,-5(a4)
    4000084a:	e601                	bnez	a2,40000852 <strnlen+0x80>
    4000084c:	00378593          	addi	a1,a5,3
    40000850:	bfe9                	j	4000082a <strnlen+0x58>
    40000852:	ffc74603          	lbu	a2,-4(a4)
    40000856:	e601                	bnez	a2,4000085e <strnlen+0x8c>
    40000858:	00478593          	addi	a1,a5,4
    4000085c:	b7f9                	j	4000082a <strnlen+0x58>
    4000085e:	ffd74603          	lbu	a2,-3(a4)
    40000862:	e601                	bnez	a2,4000086a <strnlen+0x98>
    40000864:	00578593          	addi	a1,a5,5
    40000868:	b7c9                	j	4000082a <strnlen+0x58>
    4000086a:	ffe74603          	lbu	a2,-2(a4)
    4000086e:	e601                	bnez	a2,40000876 <strnlen+0xa4>
    40000870:	00678593          	addi	a1,a5,6
    40000874:	bf5d                	j	4000082a <strnlen+0x58>
    40000876:	fff74603          	lbu	a2,-1(a4)
    4000087a:	e601                	bnez	a2,40000882 <strnlen+0xb0>
    4000087c:	00778593          	addi	a1,a5,7
    40000880:	b76d                	j	4000082a <strnlen+0x58>
    40000882:	85b6                	mv	a1,a3
    40000884:	87ba                	mv	a5,a4
    40000886:	bf8d                	j	400007f8 <strnlen+0x26>
    40000888:	85be                	mv	a1,a5
    4000088a:	b745                	j	4000082a <strnlen+0x58>

000000004000088c <_wordcopy_fwd_aligned>:
    4000088c:	00767793          	andi	a5,a2,7
    40000890:	17fd                	addi	a5,a5,-1
    40000892:	4719                	li	a4,6
    40000894:	08f76163          	bltu	a4,a5,40000916 <_wordcopy_fwd_aligned+0x8a>
    40000898:	00005717          	auipc	a4,0x5
    4000089c:	70070713          	addi	a4,a4,1792 # 40005f98 <scancode+0x330>
    400008a0:	078a                	slli	a5,a5,0x2
    400008a2:	97ba                	add	a5,a5,a4
    400008a4:	439c                	lw	a5,0(a5)
    400008a6:	97ba                	add	a5,a5,a4
    400008a8:	8782                	jr	a5
    400008aa:	6198                	ld	a4,0(a1)
    400008ac:	fc850513          	addi	a0,a0,-56
    400008b0:	fd058593          	addi	a1,a1,-48
    400008b4:	0619                	addi	a2,a2,6
    400008b6:	7d9c                	ld	a5,56(a1)
    400008b8:	1661                	addi	a2,a2,-8
    400008ba:	fd18                	sd	a4,56(a0)
    400008bc:	04058593          	addi	a1,a1,64
    400008c0:	04050513          	addi	a0,a0,64
    400008c4:	e23d                	bnez	a2,4000092a <_wordcopy_fwd_aligned+0x9e>
    400008c6:	e11c                	sd	a5,0(a0)
    400008c8:	8082                	ret
    400008ca:	619c                	ld	a5,0(a1)
    400008cc:	fd050513          	addi	a0,a0,-48
    400008d0:	fd858593          	addi	a1,a1,-40
    400008d4:	0615                	addi	a2,a2,5
    400008d6:	7998                	ld	a4,48(a1)
    400008d8:	f91c                	sd	a5,48(a0)
    400008da:	bff1                	j	400008b6 <_wordcopy_fwd_aligned+0x2a>
    400008dc:	6198                	ld	a4,0(a1)
    400008de:	fd850513          	addi	a0,a0,-40
    400008e2:	1581                	addi	a1,a1,-32
    400008e4:	0611                	addi	a2,a2,4
    400008e6:	759c                	ld	a5,40(a1)
    400008e8:	f518                	sd	a4,40(a0)
    400008ea:	b7f5                	j	400008d6 <_wordcopy_fwd_aligned+0x4a>
    400008ec:	619c                	ld	a5,0(a1)
    400008ee:	1501                	addi	a0,a0,-32
    400008f0:	15a1                	addi	a1,a1,-24
    400008f2:	060d                	addi	a2,a2,3
    400008f4:	7198                	ld	a4,32(a1)
    400008f6:	f11c                	sd	a5,32(a0)
    400008f8:	b7fd                	j	400008e6 <_wordcopy_fwd_aligned+0x5a>
    400008fa:	6198                	ld	a4,0(a1)
    400008fc:	1521                	addi	a0,a0,-24
    400008fe:	15c1                	addi	a1,a1,-16
    40000900:	0609                	addi	a2,a2,2
    40000902:	6d9c                	ld	a5,24(a1)
    40000904:	ed18                	sd	a4,24(a0)
    40000906:	b7fd                	j	400008f4 <_wordcopy_fwd_aligned+0x68>
    40000908:	619c                	ld	a5,0(a1)
    4000090a:	1541                	addi	a0,a0,-16
    4000090c:	15e1                	addi	a1,a1,-8
    4000090e:	0605                	addi	a2,a2,1
    40000910:	6998                	ld	a4,16(a1)
    40000912:	e91c                	sd	a5,16(a0)
    40000914:	b7fd                	j	40000902 <_wordcopy_fwd_aligned+0x76>
    40000916:	da4d                	beqz	a2,400008c8 <_wordcopy_fwd_aligned+0x3c>
    40000918:	6198                	ld	a4,0(a1)
    4000091a:	1561                	addi	a0,a0,-8
    4000091c:	659c                	ld	a5,8(a1)
    4000091e:	e518                	sd	a4,8(a0)
    40000920:	bfc5                	j	40000910 <_wordcopy_fwd_aligned+0x84>
    40000922:	167d                	addi	a2,a2,-1
    40000924:	619c                	ld	a5,0(a1)
    40000926:	d245                	beqz	a2,400008c6 <_wordcopy_fwd_aligned+0x3a>
    40000928:	05a1                	addi	a1,a1,8
    4000092a:	6198                	ld	a4,0(a1)
    4000092c:	e11c                	sd	a5,0(a0)
    4000092e:	b7fd                	j	4000091c <_wordcopy_fwd_aligned+0x90>

0000000040000930 <_wordcopy_fwd_dest_aligned>:
    40000930:	0075f313          	andi	t1,a1,7
    40000934:	00331e1b          	slliw	t3,t1,0x3
    40000938:	04000693          	li	a3,64
    4000093c:	00367793          	andi	a5,a2,3
    40000940:	4709                	li	a4,2
    40000942:	41c6833b          	subw	t1,a3,t3
    40000946:	99e1                	andi	a1,a1,-8
    40000948:	02e78663          	beq	a5,a4,40000974 <_wordcopy_fwd_dest_aligned+0x44>
    4000094c:	470d                	li	a4,3
    4000094e:	04e78f63          	beq	a5,a4,400009ac <_wordcopy_fwd_dest_aligned+0x7c>
    40000952:	4705                	li	a4,1
    40000954:	06e79c63          	bne	a5,a4,400009cc <_wordcopy_fwd_dest_aligned+0x9c>
    40000958:	167d                	addi	a2,a2,-1
    4000095a:	619c                	ld	a5,0(a1)
    4000095c:	6594                	ld	a3,8(a1)
    4000095e:	c221                	beqz	a2,4000099e <_wordcopy_fwd_dest_aligned+0x6e>
    40000960:	05c1                	addi	a1,a1,16
    40000962:	01c7d733          	srl	a4,a5,t3
    40000966:	006697b3          	sll	a5,a3,t1
    4000096a:	8f5d                	or	a4,a4,a5
    4000096c:	0005b883          	ld	a7,0(a1)
    40000970:	e118                	sd	a4,0(a0)
    40000972:	a09d                	j	400009d8 <_wordcopy_fwd_dest_aligned+0xa8>
    40000974:	0005b803          	ld	a6,0(a1)
    40000978:	659c                	ld	a5,8(a1)
    4000097a:	1521                	addi	a0,a0,-24
    4000097c:	15e1                	addi	a1,a1,-8
    4000097e:	0609                	addi	a2,a2,2
    40000980:	01c85833          	srl	a6,a6,t3
    40000984:	00679733          	sll	a4,a5,t1
    40000988:	00e86833          	or	a6,a6,a4
    4000098c:	6d94                	ld	a3,24(a1)
    4000098e:	1671                	addi	a2,a2,-4
    40000990:	01053c23          	sd	a6,24(a0)
    40000994:	02058593          	addi	a1,a1,32
    40000998:	02050513          	addi	a0,a0,32
    4000099c:	f279                	bnez	a2,40000962 <_wordcopy_fwd_dest_aligned+0x32>
    4000099e:	01c7d7b3          	srl	a5,a5,t3
    400009a2:	006696b3          	sll	a3,a3,t1
    400009a6:	8fd5                	or	a5,a5,a3
    400009a8:	e11c                	sd	a5,0(a0)
    400009aa:	8082                	ret
    400009ac:	0005b883          	ld	a7,0(a1)
    400009b0:	0085b803          	ld	a6,8(a1)
    400009b4:	1541                	addi	a0,a0,-16
    400009b6:	0605                	addi	a2,a2,1
    400009b8:	01c8d8b3          	srl	a7,a7,t3
    400009bc:	00681733          	sll	a4,a6,t1
    400009c0:	00e8e8b3          	or	a7,a7,a4
    400009c4:	699c                	ld	a5,16(a1)
    400009c6:	01153823          	sd	a7,16(a0)
    400009ca:	bf5d                	j	40000980 <_wordcopy_fwd_dest_aligned+0x50>
    400009cc:	de79                	beqz	a2,400009aa <_wordcopy_fwd_dest_aligned+0x7a>
    400009ce:	6194                	ld	a3,0(a1)
    400009d0:	0085b883          	ld	a7,8(a1)
    400009d4:	1561                	addi	a0,a0,-8
    400009d6:	05a1                	addi	a1,a1,8
    400009d8:	01c6d733          	srl	a4,a3,t3
    400009dc:	006896b3          	sll	a3,a7,t1
    400009e0:	8f55                	or	a4,a4,a3
    400009e2:	0085b803          	ld	a6,8(a1)
    400009e6:	e518                	sd	a4,8(a0)
    400009e8:	bfc1                	j	400009b8 <_wordcopy_fwd_dest_aligned+0x88>

00000000400009ea <_wordcopy_bwd_aligned>:
    400009ea:	00767793          	andi	a5,a2,7
    400009ee:	17fd                	addi	a5,a5,-1
    400009f0:	4719                	li	a4,6
    400009f2:	08f76a63          	bltu	a4,a5,40000a86 <_wordcopy_bwd_aligned+0x9c>
    400009f6:	00005717          	auipc	a4,0x5
    400009fa:	5be70713          	addi	a4,a4,1470 # 40005fb4 <scancode+0x34c>
    400009fe:	078a                	slli	a5,a5,0x2
    40000a00:	97ba                	add	a5,a5,a4
    40000a02:	439c                	lw	a5,0(a5)
    40000a04:	97ba                	add	a5,a5,a4
    40000a06:	8782                	jr	a5
    40000a08:	ff85b683          	ld	a3,-8(a1)
    40000a0c:	ff058793          	addi	a5,a1,-16
    40000a10:	1561                	addi	a0,a0,-8
    40000a12:	0619                	addi	a2,a2,6
    40000a14:	6398                	ld	a4,0(a5)
    40000a16:	1661                	addi	a2,a2,-8
    40000a18:	e114                	sd	a3,0(a0)
    40000a1a:	fc078793          	addi	a5,a5,-64
    40000a1e:	fc050513          	addi	a0,a0,-64
    40000a22:	e641                	bnez	a2,40000aaa <_wordcopy_bwd_aligned+0xc0>
    40000a24:	fd18                	sd	a4,56(a0)
    40000a26:	8082                	ret
    40000a28:	ff85b703          	ld	a4,-8(a1)
    40000a2c:	fe858793          	addi	a5,a1,-24
    40000a30:	1541                	addi	a0,a0,-16
    40000a32:	0615                	addi	a2,a2,5
    40000a34:	6794                	ld	a3,8(a5)
    40000a36:	e518                	sd	a4,8(a0)
    40000a38:	bff1                	j	40000a14 <_wordcopy_bwd_aligned+0x2a>
    40000a3a:	ff85b683          	ld	a3,-8(a1)
    40000a3e:	fe058793          	addi	a5,a1,-32
    40000a42:	1521                	addi	a0,a0,-24
    40000a44:	0611                	addi	a2,a2,4
    40000a46:	6b98                	ld	a4,16(a5)
    40000a48:	e914                	sd	a3,16(a0)
    40000a4a:	b7ed                	j	40000a34 <_wordcopy_bwd_aligned+0x4a>
    40000a4c:	ff85b703          	ld	a4,-8(a1)
    40000a50:	fd858793          	addi	a5,a1,-40
    40000a54:	1501                	addi	a0,a0,-32
    40000a56:	060d                	addi	a2,a2,3
    40000a58:	6f94                	ld	a3,24(a5)
    40000a5a:	ed18                	sd	a4,24(a0)
    40000a5c:	b7ed                	j	40000a46 <_wordcopy_bwd_aligned+0x5c>
    40000a5e:	ff85b683          	ld	a3,-8(a1)
    40000a62:	fd058793          	addi	a5,a1,-48
    40000a66:	fd850513          	addi	a0,a0,-40
    40000a6a:	0609                	addi	a2,a2,2
    40000a6c:	7398                	ld	a4,32(a5)
    40000a6e:	f114                	sd	a3,32(a0)
    40000a70:	b7e5                	j	40000a58 <_wordcopy_bwd_aligned+0x6e>
    40000a72:	ff85b703          	ld	a4,-8(a1)
    40000a76:	fc858793          	addi	a5,a1,-56
    40000a7a:	fd050513          	addi	a0,a0,-48
    40000a7e:	0605                	addi	a2,a2,1
    40000a80:	7794                	ld	a3,40(a5)
    40000a82:	f518                	sd	a4,40(a0)
    40000a84:	b7e5                	j	40000a6c <_wordcopy_bwd_aligned+0x82>
    40000a86:	d245                	beqz	a2,40000a26 <_wordcopy_bwd_aligned+0x3c>
    40000a88:	ff85b683          	ld	a3,-8(a1)
    40000a8c:	fc058793          	addi	a5,a1,-64
    40000a90:	fc850513          	addi	a0,a0,-56
    40000a94:	7b98                	ld	a4,48(a5)
    40000a96:	f914                	sd	a3,48(a0)
    40000a98:	b7e5                	j	40000a80 <_wordcopy_bwd_aligned+0x96>
    40000a9a:	167d                	addi	a2,a2,-1
    40000a9c:	fc050513          	addi	a0,a0,-64
    40000aa0:	ff85b703          	ld	a4,-8(a1)
    40000aa4:	d241                	beqz	a2,40000a24 <_wordcopy_bwd_aligned+0x3a>
    40000aa6:	fb858793          	addi	a5,a1,-72
    40000aaa:	7f94                	ld	a3,56(a5)
    40000aac:	fd18                	sd	a4,56(a0)
    40000aae:	b7dd                	j	40000a94 <_wordcopy_bwd_aligned+0xaa>

0000000040000ab0 <_wordcopy_bwd_dest_aligned>:
    40000ab0:	0075f713          	andi	a4,a1,7
    40000ab4:	00371e1b          	slliw	t3,a4,0x3
    40000ab8:	04000813          	li	a6,64
    40000abc:	00367793          	andi	a5,a2,3
    40000ac0:	4709                	li	a4,2
    40000ac2:	41c8083b          	subw	a6,a6,t3
    40000ac6:	99e1                	andi	a1,a1,-8
    40000ac8:	02e78963          	beq	a5,a4,40000afa <_wordcopy_bwd_dest_aligned+0x4a>
    40000acc:	470d                	li	a4,3
    40000ace:	06e78263          	beq	a5,a4,40000b32 <_wordcopy_bwd_dest_aligned+0x82>
    40000ad2:	4705                	li	a4,1
    40000ad4:	08e79163          	bne	a5,a4,40000b56 <_wordcopy_bwd_dest_aligned+0xa6>
    40000ad8:	167d                	addi	a2,a2,-1
    40000ada:	1501                	addi	a0,a0,-32
    40000adc:	6198                	ld	a4,0(a1)
    40000ade:	ff85b783          	ld	a5,-8(a1)
    40000ae2:	c229                	beqz	a2,40000b24 <_wordcopy_bwd_dest_aligned+0x74>
    40000ae4:	fd858693          	addi	a3,a1,-40
    40000ae8:	01c7d5b3          	srl	a1,a5,t3
    40000aec:	01071733          	sll	a4,a4,a6
    40000af0:	8f4d                	or	a4,a4,a1
    40000af2:	0186b303          	ld	t1,24(a3)
    40000af6:	ed18                	sd	a4,24(a0)
    40000af8:	a0b5                	j	40000b64 <_wordcopy_bwd_dest_aligned+0xb4>
    40000afa:	0005b883          	ld	a7,0(a1)
    40000afe:	ff85b703          	ld	a4,-8(a1)
    40000b02:	ff058693          	addi	a3,a1,-16
    40000b06:	1561                	addi	a0,a0,-8
    40000b08:	0609                	addi	a2,a2,2
    40000b0a:	01c755b3          	srl	a1,a4,t3
    40000b0e:	010898b3          	sll	a7,a7,a6
    40000b12:	0115e8b3          	or	a7,a1,a7
    40000b16:	629c                	ld	a5,0(a3)
    40000b18:	1671                	addi	a2,a2,-4
    40000b1a:	01153023          	sd	a7,0(a0)
    40000b1e:	1681                	addi	a3,a3,-32
    40000b20:	1501                	addi	a0,a0,-32
    40000b22:	f279                	bnez	a2,40000ae8 <_wordcopy_bwd_dest_aligned+0x38>
    40000b24:	01c7d7b3          	srl	a5,a5,t3
    40000b28:	01071733          	sll	a4,a4,a6
    40000b2c:	8fd9                	or	a5,a5,a4
    40000b2e:	ed1c                	sd	a5,24(a0)
    40000b30:	8082                	ret
    40000b32:	0005b303          	ld	t1,0(a1)
    40000b36:	ff85b883          	ld	a7,-8(a1)
    40000b3a:	fe858693          	addi	a3,a1,-24
    40000b3e:	1541                	addi	a0,a0,-16
    40000b40:	0605                	addi	a2,a2,1
    40000b42:	01c8d7b3          	srl	a5,a7,t3
    40000b46:	01031333          	sll	t1,t1,a6
    40000b4a:	0067e333          	or	t1,a5,t1
    40000b4e:	6698                	ld	a4,8(a3)
    40000b50:	00653423          	sd	t1,8(a0)
    40000b54:	bf5d                	j	40000b0a <_wordcopy_bwd_dest_aligned+0x5a>
    40000b56:	de69                	beqz	a2,40000b30 <_wordcopy_bwd_dest_aligned+0x80>
    40000b58:	619c                	ld	a5,0(a1)
    40000b5a:	ff85b303          	ld	t1,-8(a1)
    40000b5e:	fe058693          	addi	a3,a1,-32
    40000b62:	1521                	addi	a0,a0,-24
    40000b64:	01c355b3          	srl	a1,t1,t3
    40000b68:	01079733          	sll	a4,a5,a6
    40000b6c:	00e5e7b3          	or	a5,a1,a4
    40000b70:	0106b883          	ld	a7,16(a3)
    40000b74:	e91c                	sd	a5,16(a0)
    40000b76:	b7f1                	j	40000b42 <_wordcopy_bwd_dest_aligned+0x92>

0000000040000b78 <load_elf>:
    40000b78:	04000793          	li	a5,64
    40000b7c:	12b7f463          	bleu	a1,a5,40000ca4 <load_elf+0x12c>
    40000b80:	00056683          	lwu	a3,0(a0)
    40000b84:	464c4737          	lui	a4,0x464c4
    40000b88:	57f70713          	addi	a4,a4,1407 # 464c457f <_gp+0x64bd277>
    40000b8c:	4789                	li	a5,2
    40000b8e:	10e69c63          	bne	a3,a4,40000ca6 <load_elf+0x12e>
    40000b92:	00454683          	lbu	a3,4(a0)
    40000b96:	4709                	li	a4,2
    40000b98:	10e69763          	bne	a3,a4,40000ca6 <load_elf+0x12e>
    40000b9c:	03855703          	lhu	a4,56(a0)
    40000ba0:	03800793          	li	a5,56
    40000ba4:	7159                	addi	sp,sp,-112
    40000ba6:	02f70733          	mul	a4,a4,a5
    40000baa:	f0a2                	sd	s0,96(sp)
    40000bac:	7100                	ld	s0,32(a0)
    40000bae:	fc56                	sd	s5,56(sp)
    40000bb0:	02059a93          	slli	s5,a1,0x20
    40000bb4:	f486                	sd	ra,104(sp)
    40000bb6:	eca6                	sd	s1,88(sp)
    40000bb8:	e8ca                	sd	s2,80(sp)
    40000bba:	e4ce                	sd	s3,72(sp)
    40000bbc:	e0d2                	sd	s4,64(sp)
    40000bbe:	f85a                	sd	s6,48(sp)
    40000bc0:	f45e                	sd	s7,40(sp)
    40000bc2:	f062                	sd	s8,32(sp)
    40000bc4:	ec66                	sd	s9,24(sp)
    40000bc6:	e86a                	sd	s10,16(sp)
    40000bc8:	e46e                	sd	s11,8(sp)
    40000bca:	020ada93          	srli	s5,s5,0x20
    40000bce:	9722                	add	a4,a4,s0
    40000bd0:	478d                	li	a5,3
    40000bd2:	06eae663          	bltu	s5,a4,40000c3e <load_elf+0xc6>
    40000bd6:	892e                	mv	s2,a1
    40000bd8:	84aa                	mv	s1,a0
    40000bda:	942a                	add	s0,s0,a0
    40000bdc:	4a01                	li	s4,0
    40000bde:	4b05                	li	s6,1
    40000be0:	00006b97          	auipc	s7,0x6
    40000be4:	8a0b8b93          	addi	s7,s7,-1888 # 40006480 <P_array.1885+0x348>
    40000be8:	00006c17          	auipc	s8,0x6
    40000bec:	8e0c0c13          	addi	s8,s8,-1824 # 400064c8 <P_array.1885+0x390>
    40000bf0:	00006c97          	auipc	s9,0x6
    40000bf4:	8c0c8c93          	addi	s9,s9,-1856 # 400064b0 <P_array.1885+0x378>
    40000bf8:	0384d783          	lhu	a5,56(s1)
    40000bfc:	00fa6463          	bltu	s4,a5,40000c04 <load_elf+0x8c>
    40000c00:	4781                	li	a5,0
    40000c02:	a835                	j	40000c3e <load_elf+0xc6>
    40000c04:	401c                	lw	a5,0(s0)
    40000c06:	09679b63          	bne	a5,s6,40000c9c <load_elf+0x124>
    40000c0a:	741c                	ld	a5,40(s0)
    40000c0c:	cbc1                	beqz	a5,40000c9c <load_elf+0x124>
    40000c0e:	85d2                	mv	a1,s4
    40000c10:	855e                	mv	a0,s7
    40000c12:	2de040ef          	jal	ra,40004ef0 <printf>
    40000c16:	02043983          	ld	s3,32(s0)
    40000c1a:	04098d63          	beqz	s3,40000c74 <load_elf+0xfc>
    40000c1e:	640c                	ld	a1,8(s0)
    40000c20:	01843d03          	ld	s10,24(s0)
    40000c24:	00b48db3          	add	s11,s1,a1
    40000c28:	95ce                	add	a1,a1,s3
    40000c2a:	02bafa63          	bleu	a1,s5,40000c5e <load_elf+0xe6>
    40000c2e:	864a                	mv	a2,s2
    40000c30:	00006517          	auipc	a0,0x6
    40000c34:	86050513          	addi	a0,a0,-1952 # 40006490 <P_array.1885+0x358>
    40000c38:	2b8040ef          	jal	ra,40004ef0 <printf>
    40000c3c:	478d                	li	a5,3
    40000c3e:	70a6                	ld	ra,104(sp)
    40000c40:	7406                	ld	s0,96(sp)
    40000c42:	64e6                	ld	s1,88(sp)
    40000c44:	6946                	ld	s2,80(sp)
    40000c46:	69a6                	ld	s3,72(sp)
    40000c48:	6a06                	ld	s4,64(sp)
    40000c4a:	7ae2                	ld	s5,56(sp)
    40000c4c:	7b42                	ld	s6,48(sp)
    40000c4e:	7ba2                	ld	s7,40(sp)
    40000c50:	7c02                	ld	s8,32(sp)
    40000c52:	6ce2                	ld	s9,24(sp)
    40000c54:	6d42                	ld	s10,16(sp)
    40000c56:	6da2                	ld	s11,8(sp)
    40000c58:	853e                	mv	a0,a5
    40000c5a:	6165                	addi	sp,sp,112
    40000c5c:	8082                	ret
    40000c5e:	866e                	mv	a2,s11
    40000c60:	85ea                	mv	a1,s10
    40000c62:	86ce                	mv	a3,s3
    40000c64:	8566                	mv	a0,s9
    40000c66:	28a040ef          	jal	ra,40004ef0 <printf>
    40000c6a:	864e                	mv	a2,s3
    40000c6c:	85ee                	mv	a1,s11
    40000c6e:	856a                	mv	a0,s10
    40000c70:	367040ef          	jal	ra,400057d6 <memcpy>
    40000c74:	02843983          	ld	s3,40(s0)
    40000c78:	701c                	ld	a5,32(s0)
    40000c7a:	0337f163          	bleu	s3,a5,40000c9c <load_elf+0x124>
    40000c7e:	01843d03          	ld	s10,24(s0)
    40000c82:	40f989b3          	sub	s3,s3,a5
    40000c86:	864e                	mv	a2,s3
    40000c88:	9d3e                	add	s10,s10,a5
    40000c8a:	85ea                	mv	a1,s10
    40000c8c:	8562                	mv	a0,s8
    40000c8e:	262040ef          	jal	ra,40004ef0 <printf>
    40000c92:	864e                	mv	a2,s3
    40000c94:	4581                	li	a1,0
    40000c96:	856a                	mv	a0,s10
    40000c98:	a7fff0ef          	jal	ra,40000716 <memset>
    40000c9c:	2a05                	addiw	s4,s4,1
    40000c9e:	03840413          	addi	s0,s0,56
    40000ca2:	bf99                	j	40000bf8 <load_elf+0x80>
    40000ca4:	4785                	li	a5,1
    40000ca6:	853e                	mv	a0,a5
    40000ca8:	8082                	ret

0000000040000caa <LD_DWORD>:
    40000caa:	00154783          	lbu	a5,1(a0)
    40000cae:	00054703          	lbu	a4,0(a0)
    40000cb2:	07a2                	slli	a5,a5,0x8
    40000cb4:	8f5d                	or	a4,a4,a5
    40000cb6:	00254783          	lbu	a5,2(a0)
    40000cba:	00354503          	lbu	a0,3(a0)
    40000cbe:	07c2                	slli	a5,a5,0x10
    40000cc0:	8fd9                	or	a5,a5,a4
    40000cc2:	0562                	slli	a0,a0,0x18
    40000cc4:	8d5d                	or	a0,a0,a5
    40000cc6:	2501                	sext.w	a0,a0
    40000cc8:	8082                	ret

0000000040000cca <mem_cpy>:
    40000cca:	57fd                	li	a5,-1
    40000ccc:	367d                	addiw	a2,a2,-1
    40000cce:	00f61363          	bne	a2,a5,40000cd4 <mem_cpy+0xa>
    40000cd2:	8082                	ret
    40000cd4:	0005c703          	lbu	a4,0(a1)
    40000cd8:	0505                	addi	a0,a0,1
    40000cda:	0585                	addi	a1,a1,1
    40000cdc:	fee50fa3          	sb	a4,-1(a0)
    40000ce0:	b7f5                	j	40000ccc <mem_cpy+0x2>

0000000040000ce2 <mem_set>:
    40000ce2:	57fd                	li	a5,-1
    40000ce4:	367d                	addiw	a2,a2,-1
    40000ce6:	00f61363          	bne	a2,a5,40000cec <mem_set+0xa>
    40000cea:	8082                	ret
    40000cec:	00b50023          	sb	a1,0(a0)
    40000cf0:	0505                	addi	a0,a0,1
    40000cf2:	bfcd                	j	40000ce4 <mem_set+0x2>

0000000040000cf4 <get_fileinfo>:
    40000cf4:	495c                	lw	a5,20(a0)
    40000cf6:	1101                	addi	sp,sp,-32
    40000cf8:	e822                	sd	s0,16(sp)
    40000cfa:	ec06                	sd	ra,24(sp)
    40000cfc:	e426                	sd	s1,8(sp)
    40000cfe:	e04a                	sd	s2,0(sp)
    40000d00:	00958413          	addi	s0,a1,9
    40000d04:	cfa5                	beqz	a5,40000d7c <get_fileinfo+0x88>
    40000d06:	01853903          	ld	s2,24(a0)
    40000d0a:	4781                	li	a5,0
    40000d0c:	02000513          	li	a0,32
    40000d10:	86ca                	mv	a3,s2
    40000d12:	4815                	li	a6,5
    40000d14:	48a5                	li	a7,9
    40000d16:	02e00313          	li	t1,46
    40000d1a:	462d                	li	a2,11
    40000d1c:	0006c703          	lbu	a4,0(a3)
    40000d20:	2785                	addiw	a5,a5,1
    40000d22:	00a70e63          	beq	a4,a0,40000d3e <get_fileinfo+0x4a>
    40000d26:	01071463          	bne	a4,a6,40000d2e <get_fileinfo+0x3a>
    40000d2a:	0e500713          	li	a4,229
    40000d2e:	01179563          	bne	a5,a7,40000d38 <get_fileinfo+0x44>
    40000d32:	00640023          	sb	t1,0(s0)
    40000d36:	0405                	addi	s0,s0,1
    40000d38:	00e40023          	sb	a4,0(s0)
    40000d3c:	0405                	addi	s0,s0,1
    40000d3e:	0685                	addi	a3,a3,1
    40000d40:	fcc79ee3          	bne	a5,a2,40000d1c <get_fileinfo+0x28>
    40000d44:	00b94783          	lbu	a5,11(s2)
    40000d48:	01c90513          	addi	a0,s2,28
    40000d4c:	84ae                	mv	s1,a1
    40000d4e:	00f58423          	sb	a5,8(a1)
    40000d52:	f59ff0ef          	jal	ra,40000caa <LD_DWORD>
    40000d56:	c088                	sw	a0,0(s1)
    40000d58:	01994783          	lbu	a5,25(s2)
    40000d5c:	01894703          	lbu	a4,24(s2)
    40000d60:	0087979b          	slliw	a5,a5,0x8
    40000d64:	8fd9                	or	a5,a5,a4
    40000d66:	00f49223          	sh	a5,4(s1)
    40000d6a:	01794783          	lbu	a5,23(s2)
    40000d6e:	01694703          	lbu	a4,22(s2)
    40000d72:	0087979b          	slliw	a5,a5,0x8
    40000d76:	8fd9                	or	a5,a5,a4
    40000d78:	00f49323          	sh	a5,6(s1)
    40000d7c:	00040023          	sb	zero,0(s0)
    40000d80:	60e2                	ld	ra,24(sp)
    40000d82:	6442                	ld	s0,16(sp)
    40000d84:	64a2                	ld	s1,8(sp)
    40000d86:	6902                	ld	s2,0(sp)
    40000d88:	6105                	addi	sp,sp,32
    40000d8a:	8082                	ret

0000000040000d8c <get_ldnumber>:
    40000d8c:	611c                	ld	a5,0(a0)
    40000d8e:	873e                	mv	a4,a5
    40000d90:	cf99                	beqz	a5,40000dae <get_ldnumber+0x22>
    40000d92:	02000593          	li	a1,32
    40000d96:	03a00613          	li	a2,58
    40000d9a:	00074683          	lbu	a3,0(a4)
    40000d9e:	02d5fc63          	bleu	a3,a1,40000dd6 <get_ldnumber+0x4a>
    40000da2:	00c69863          	bne	a3,a2,40000db2 <get_ldnumber+0x26>
    40000da6:	00178693          	addi	a3,a5,1
    40000daa:	00d70663          	beq	a4,a3,40000db6 <get_ldnumber+0x2a>
    40000dae:	577d                	li	a4,-1
    40000db0:	a00d                	j	40000dd2 <get_ldnumber+0x46>
    40000db2:	0705                	addi	a4,a4,1
    40000db4:	b7dd                	j	40000d9a <get_ldnumber+0xe>
    40000db6:	0007c683          	lbu	a3,0(a5)
    40000dba:	4605                	li	a2,1
    40000dbc:	577d                	li	a4,-1
    40000dbe:	fd06869b          	addiw	a3,a3,-48
    40000dc2:	0ff6f593          	andi	a1,a3,255
    40000dc6:	00b66663          	bltu	a2,a1,40000dd2 <get_ldnumber+0x46>
    40000dca:	0789                	addi	a5,a5,2
    40000dcc:	0006871b          	sext.w	a4,a3
    40000dd0:	e11c                	sd	a5,0(a0)
    40000dd2:	853a                	mv	a0,a4
    40000dd4:	8082                	ret
    40000dd6:	00006717          	auipc	a4,0x6
    40000dda:	e1e74703          	lbu	a4,-482(a4) # 40006bf4 <CurrVol>
    40000dde:	bfd5                	j	40000dd2 <get_ldnumber+0x46>

0000000040000de0 <validate>:
    40000de0:	c915                	beqz	a0,40000e14 <validate+0x34>
    40000de2:	611c                	ld	a5,0(a0)
    40000de4:	cb85                	beqz	a5,40000e14 <validate+0x34>
    40000de6:	0007c703          	lbu	a4,0(a5)
    40000dea:	c70d                	beqz	a4,40000e14 <validate+0x34>
    40000dec:	0067d683          	lhu	a3,6(a5)
    40000df0:	00855703          	lhu	a4,8(a0)
    40000df4:	02e69063          	bne	a3,a4,40000e14 <validate+0x34>
    40000df8:	1141                	addi	sp,sp,-16
    40000dfa:	e406                	sd	ra,8(sp)
    40000dfc:	0017c503          	lbu	a0,1(a5)
    40000e00:	29d040ef          	jal	ra,4000589c <disk_status>
    40000e04:	00157793          	andi	a5,a0,1
    40000e08:	4501                	li	a0,0
    40000e0a:	c391                	beqz	a5,40000e0e <validate+0x2e>
    40000e0c:	4525                	li	a0,9
    40000e0e:	60a2                	ld	ra,8(sp)
    40000e10:	0141                	addi	sp,sp,16
    40000e12:	8082                	ret
    40000e14:	4525                	li	a0,9
    40000e16:	8082                	ret

0000000040000e18 <ld_clust.isra.0>:
    40000e18:	01b5c783          	lbu	a5,27(a1)
    40000e1c:	01a5c703          	lbu	a4,26(a1)
    40000e20:	468d                	li	a3,3
    40000e22:	0087979b          	slliw	a5,a5,0x8
    40000e26:	8f5d                	or	a4,a4,a5
    40000e28:	0007079b          	sext.w	a5,a4
    40000e2c:	00d51d63          	bne	a0,a3,40000e46 <ld_clust.isra.0+0x2e>
    40000e30:	0155c783          	lbu	a5,21(a1)
    40000e34:	0145c683          	lbu	a3,20(a1)
    40000e38:	0087979b          	slliw	a5,a5,0x8
    40000e3c:	8fd5                	or	a5,a5,a3
    40000e3e:	0107979b          	slliw	a5,a5,0x10
    40000e42:	8fd9                	or	a5,a5,a4
    40000e44:	2781                	sext.w	a5,a5
    40000e46:	853e                	mv	a0,a5
    40000e48:	8082                	ret

0000000040000e4a <sync_window.part.2>:
    40000e4a:	7179                	addi	sp,sp,-48
    40000e4c:	f022                	sd	s0,32(sp)
    40000e4e:	ec26                	sd	s1,24(sp)
    40000e50:	e44e                	sd	s3,8(sp)
    40000e52:	5904                	lw	s1,48(a0)
    40000e54:	f406                	sd	ra,40(sp)
    40000e56:	e84a                	sd	s2,16(sp)
    40000e58:	e052                	sd	s4,0(sp)
    40000e5a:	03450993          	addi	s3,a0,52
    40000e5e:	842a                	mv	s0,a0
    40000e60:	00154503          	lbu	a0,1(a0)
    40000e64:	4685                	li	a3,1
    40000e66:	8626                	mv	a2,s1
    40000e68:	85ce                	mv	a1,s3
    40000e6a:	2a7040ef          	jal	ra,40005910 <disk_write>
    40000e6e:	2501                	sext.w	a0,a0
    40000e70:	e131                	bnez	a0,40000eb4 <sync_window.part.2+0x6a>
    40000e72:	505c                	lw	a5,36(s0)
    40000e74:	4c58                	lw	a4,28(s0)
    40000e76:	00040223          	sb	zero,4(s0)
    40000e7a:	40f487bb          	subw	a5,s1,a5
    40000e7e:	00e7eb63          	bltu	a5,a4,40000e94 <sync_window.part.2+0x4a>
    40000e82:	4501                	li	a0,0
    40000e84:	70a2                	ld	ra,40(sp)
    40000e86:	7402                	ld	s0,32(sp)
    40000e88:	64e2                	ld	s1,24(sp)
    40000e8a:	6942                	ld	s2,16(sp)
    40000e8c:	69a2                	ld	s3,8(sp)
    40000e8e:	6a02                	ld	s4,0(sp)
    40000e90:	6145                	addi	sp,sp,48
    40000e92:	8082                	ret
    40000e94:	00344903          	lbu	s2,3(s0)
    40000e98:	4a05                	li	s4,1
    40000e9a:	ff2a74e3          	bleu	s2,s4,40000e82 <sync_window.part.2+0x38>
    40000e9e:	4c5c                	lw	a5,28(s0)
    40000ea0:	00144503          	lbu	a0,1(s0)
    40000ea4:	4685                	li	a3,1
    40000ea6:	9cbd                	addw	s1,s1,a5
    40000ea8:	8626                	mv	a2,s1
    40000eaa:	85ce                	mv	a1,s3
    40000eac:	265040ef          	jal	ra,40005910 <disk_write>
    40000eb0:	397d                	addiw	s2,s2,-1
    40000eb2:	b7e5                	j	40000e9a <sync_window.part.2+0x50>
    40000eb4:	4505                	li	a0,1
    40000eb6:	b7f9                	j	40000e84 <sync_window.part.2+0x3a>

0000000040000eb8 <sync_window>:
    40000eb8:	00454783          	lbu	a5,4(a0)
    40000ebc:	c399                	beqz	a5,40000ec2 <sync_window+0xa>
    40000ebe:	f8dff06f          	j	40000e4a <sync_window.part.2>
    40000ec2:	4501                	li	a0,0
    40000ec4:	8082                	ret

0000000040000ec6 <move_window>:
    40000ec6:	591c                	lw	a5,48(a0)
    40000ec8:	1101                	addi	sp,sp,-32
    40000eca:	e822                	sd	s0,16(sp)
    40000ecc:	ec06                	sd	ra,24(sp)
    40000ece:	e426                	sd	s1,8(sp)
    40000ed0:	e04a                	sd	s2,0(sp)
    40000ed2:	4401                	li	s0,0
    40000ed4:	02b78763          	beq	a5,a1,40000f02 <move_window+0x3c>
    40000ed8:	84aa                	mv	s1,a0
    40000eda:	892e                	mv	s2,a1
    40000edc:	fddff0ef          	jal	ra,40000eb8 <sync_window>
    40000ee0:	0005041b          	sext.w	s0,a0
    40000ee4:	ec19                	bnez	s0,40000f02 <move_window+0x3c>
    40000ee6:	0014c503          	lbu	a0,1(s1)
    40000eea:	4685                	li	a3,1
    40000eec:	864a                	mv	a2,s2
    40000eee:	03448593          	addi	a1,s1,52
    40000ef2:	1bb040ef          	jal	ra,400058ac <disk_read>
    40000ef6:	2501                	sext.w	a0,a0
    40000ef8:	c119                	beqz	a0,40000efe <move_window+0x38>
    40000efa:	4405                	li	s0,1
    40000efc:	597d                	li	s2,-1
    40000efe:	0324a823          	sw	s2,48(s1)
    40000f02:	8522                	mv	a0,s0
    40000f04:	60e2                	ld	ra,24(sp)
    40000f06:	6442                	ld	s0,16(sp)
    40000f08:	64a2                	ld	s1,8(sp)
    40000f0a:	6902                	ld	s2,0(sp)
    40000f0c:	6105                	addi	sp,sp,32
    40000f0e:	8082                	ret

0000000040000f10 <check_fs>:
    40000f10:	1101                	addi	sp,sp,-32
    40000f12:	e822                	sd	s0,16(sp)
    40000f14:	ec06                	sd	ra,24(sp)
    40000f16:	e426                	sd	s1,8(sp)
    40000f18:	e04a                	sd	s2,0(sp)
    40000f1a:	57fd                	li	a5,-1
    40000f1c:	00050223          	sb	zero,4(a0)
    40000f20:	d91c                	sw	a5,48(a0)
    40000f22:	842a                	mv	s0,a0
    40000f24:	fa3ff0ef          	jal	ra,40000ec6 <move_window>
    40000f28:	2501                	sext.w	a0,a0
    40000f2a:	e52d                	bnez	a0,40000f94 <check_fs+0x84>
    40000f2c:	23344783          	lbu	a5,563(s0)
    40000f30:	23244703          	lbu	a4,562(s0)
    40000f34:	4509                	li	a0,2
    40000f36:	0087979b          	slliw	a5,a5,0x8
    40000f3a:	8fd9                	or	a5,a5,a4
    40000f3c:	0107979b          	slliw	a5,a5,0x10
    40000f40:	776d                	lui	a4,0xffffb
    40000f42:	4107d79b          	sraiw	a5,a5,0x10
    40000f46:	a5570713          	addi	a4,a4,-1451 # ffffffffffffaa55 <_gp+0xffffffffbfff374d>
    40000f4a:	02f71f63          	bne	a4,a5,40000f88 <check_fs+0x78>
    40000f4e:	06a40513          	addi	a0,s0,106
    40000f52:	d59ff0ef          	jal	ra,40000caa <LD_DWORD>
    40000f56:	0005079b          	sext.w	a5,a0
    40000f5a:	01000537          	lui	a0,0x1000
    40000f5e:	fff50913          	addi	s2,a0,-1 # ffffff <_tbss_end+0xffffff>
    40000f62:	00544537          	lui	a0,0x544
    40000f66:	14650493          	addi	s1,a0,326 # 544146 <_tbss_end+0x544146>
    40000f6a:	0127f7b3          	and	a5,a5,s2
    40000f6e:	4501                	li	a0,0
    40000f70:	00978c63          	beq	a5,s1,40000f88 <check_fs+0x78>
    40000f74:	08640513          	addi	a0,s0,134
    40000f78:	d33ff0ef          	jal	ra,40000caa <LD_DWORD>
    40000f7c:	2501                	sext.w	a0,a0
    40000f7e:	01257533          	and	a0,a0,s2
    40000f82:	8d05                	sub	a0,a0,s1
    40000f84:	00a03533          	snez	a0,a0
    40000f88:	60e2                	ld	ra,24(sp)
    40000f8a:	6442                	ld	s0,16(sp)
    40000f8c:	64a2                	ld	s1,8(sp)
    40000f8e:	6902                	ld	s2,0(sp)
    40000f90:	6105                	addi	sp,sp,32
    40000f92:	8082                	ret
    40000f94:	450d                	li	a0,3
    40000f96:	bfcd                	j	40000f88 <check_fs+0x78>

0000000040000f98 <find_volume>:
    40000f98:	715d                	addi	sp,sp,-80
    40000f9a:	f84a                	sd	s2,48(sp)
    40000f9c:	f44e                	sd	s3,40(sp)
    40000f9e:	e486                	sd	ra,72(sp)
    40000fa0:	e0a2                	sd	s0,64(sp)
    40000fa2:	fc26                	sd	s1,56(sp)
    40000fa4:	f052                	sd	s4,32(sp)
    40000fa6:	ec56                	sd	s5,24(sp)
    40000fa8:	e85a                	sd	s6,16(sp)
    40000faa:	00053023          	sd	zero,0(a0)
    40000fae:	89aa                	mv	s3,a0
    40000fb0:	852e                	mv	a0,a1
    40000fb2:	8932                	mv	s2,a2
    40000fb4:	dd9ff0ef          	jal	ra,40000d8c <get_ldnumber>
    40000fb8:	47ad                	li	a5,11
    40000fba:	02054e63          	bltz	a0,40000ff6 <find_volume+0x5e>
    40000fbe:	00351713          	slli	a4,a0,0x3
    40000fc2:	00006797          	auipc	a5,0x6
    40000fc6:	c9678793          	addi	a5,a5,-874 # 40006c58 <FatFs>
    40000fca:	97ba                	add	a5,a5,a4
    40000fcc:	6380                	ld	s0,0(a5)
    40000fce:	84aa                	mv	s1,a0
    40000fd0:	47b1                	li	a5,12
    40000fd2:	c015                	beqz	s0,40000ff6 <find_volume+0x5e>
    40000fd4:	0089b023          	sd	s0,0(s3)
    40000fd8:	00044783          	lbu	a5,0(s0)
    40000fdc:	cb85                	beqz	a5,4000100c <find_volume+0x74>
    40000fde:	00144503          	lbu	a0,1(s0)
    40000fe2:	0bb040ef          	jal	ra,4000589c <disk_status>
    40000fe6:	00157793          	andi	a5,a0,1
    40000fea:	e38d                	bnez	a5,4000100c <find_volume+0x74>
    40000fec:	00090563          	beqz	s2,40000ff6 <find_volume+0x5e>
    40000ff0:	8911                	andi	a0,a0,4
    40000ff2:	c111                	beqz	a0,40000ff6 <find_volume+0x5e>
    40000ff4:	47a9                	li	a5,10
    40000ff6:	60a6                	ld	ra,72(sp)
    40000ff8:	6406                	ld	s0,64(sp)
    40000ffa:	74e2                	ld	s1,56(sp)
    40000ffc:	7942                	ld	s2,48(sp)
    40000ffe:	79a2                	ld	s3,40(sp)
    40001000:	7a02                	ld	s4,32(sp)
    40001002:	6ae2                	ld	s5,24(sp)
    40001004:	6b42                	ld	s6,16(sp)
    40001006:	853e                	mv	a0,a5
    40001008:	6161                	addi	sp,sp,80
    4000100a:	8082                	ret
    4000100c:	0ff4f513          	andi	a0,s1,255
    40001010:	00040023          	sb	zero,0(s0)
    40001014:	00a400a3          	sb	a0,1(s0)
    40001018:	047040ef          	jal	ra,4000585e <disk_initialize>
    4000101c:	00157713          	andi	a4,a0,1
    40001020:	478d                	li	a5,3
    40001022:	fb71                	bnez	a4,40000ff6 <find_volume+0x5e>
    40001024:	00090463          	beqz	s2,4000102c <find_volume+0x94>
    40001028:	8911                	andi	a0,a0,4
    4000102a:	f569                	bnez	a0,40000ff4 <find_volume+0x5c>
    4000102c:	4581                	li	a1,0
    4000102e:	8522                	mv	a0,s0
    40001030:	ee1ff0ef          	jal	ra,40000f10 <check_fs>
    40001034:	4785                	li	a5,1
    40001036:	04f51a63          	bne	a0,a5,4000108a <find_volume+0xf2>
    4000103a:	848a                	mv	s1,sp
    4000103c:	1fa40913          	addi	s2,s0,506
    40001040:	23a40a13          	addi	s4,s0,570
    40001044:	89a6                	mv	s3,s1
    40001046:	ffc94783          	lbu	a5,-4(s2)
    4000104a:	4501                	li	a0,0
    4000104c:	c789                	beqz	a5,40001056 <find_volume+0xbe>
    4000104e:	854a                	mv	a0,s2
    40001050:	c5bff0ef          	jal	ra,40000caa <LD_DWORD>
    40001054:	2501                	sext.w	a0,a0
    40001056:	00a9a023          	sw	a0,0(s3)
    4000105a:	0941                	addi	s2,s2,16
    4000105c:	0991                	addi	s3,s3,4
    4000105e:	ff2a14e3          	bne	s4,s2,40001046 <find_volume+0xae>
    40001062:	01048913          	addi	s2,s1,16
    40001066:	0004aa83          	lw	s5,0(s1)
    4000106a:	4509                	li	a0,2
    4000106c:	000a8763          	beqz	s5,4000107a <find_volume+0xe2>
    40001070:	85d6                	mv	a1,s5
    40001072:	8522                	mv	a0,s0
    40001074:	e9dff0ef          	jal	ra,40000f10 <check_fs>
    40001078:	c10d                	beqz	a0,4000109a <find_volume+0x102>
    4000107a:	0491                	addi	s1,s1,4
    4000107c:	fe9915e3          	bne	s2,s1,40001066 <find_volume+0xce>
    40001080:	470d                	li	a4,3
    40001082:	4785                	li	a5,1
    40001084:	00e51963          	bne	a0,a4,40001096 <find_volume+0xfe>
    40001088:	b7bd                	j	40000ff6 <find_volume+0x5e>
    4000108a:	470d                	li	a4,3
    4000108c:	4785                	li	a5,1
    4000108e:	f6e504e3          	beq	a0,a4,40000ff6 <find_volume+0x5e>
    40001092:	4a81                	li	s5,0
    40001094:	c119                	beqz	a0,4000109a <find_volume+0x102>
    40001096:	47b5                	li	a5,13
    40001098:	bfb9                	j	40000ff6 <find_volume+0x5e>
    4000109a:	04044783          	lbu	a5,64(s0)
    4000109e:	03f44703          	lbu	a4,63(s0)
    400010a2:	0087979b          	slliw	a5,a5,0x8
    400010a6:	8fd9                	or	a5,a5,a4
    400010a8:	0107979b          	slliw	a5,a5,0x10
    400010ac:	4107d79b          	sraiw	a5,a5,0x10
    400010b0:	20000713          	li	a4,512
    400010b4:	fef711e3          	bne	a4,a5,40001096 <find_volume+0xfe>
    400010b8:	04b44983          	lbu	s3,75(s0)
    400010bc:	04a44783          	lbu	a5,74(s0)
    400010c0:	0089999b          	slliw	s3,s3,0x8
    400010c4:	00f9e9b3          	or	s3,s3,a5
    400010c8:	1a098663          	beqz	s3,40001274 <find_volume+0x2dc>
    400010cc:	2981                	sext.w	s3,s3
    400010ce:	04444903          	lbu	s2,68(s0)
    400010d2:	01342e23          	sw	s3,28(s0)
    400010d6:	4705                	li	a4,1
    400010d8:	fff9079b          	addiw	a5,s2,-1
    400010dc:	012401a3          	sb	s2,3(s0)
    400010e0:	0ff7f793          	andi	a5,a5,255
    400010e4:	faf769e3          	bltu	a4,a5,40001096 <find_volume+0xfe>
    400010e8:	04144b03          	lbu	s6,65(s0)
    400010ec:	01640123          	sb	s6,2(s0)
    400010f0:	fa0b03e3          	beqz	s6,40001096 <find_volume+0xfe>
    400010f4:	fffb079b          	addiw	a5,s6,-1
    400010f8:	00fb77b3          	and	a5,s6,a5
    400010fc:	ffc9                	bnez	a5,40001096 <find_volume+0xfe>
    400010fe:	04644a03          	lbu	s4,70(s0)
    40001102:	04544783          	lbu	a5,69(s0)
    40001106:	008a1a1b          	slliw	s4,s4,0x8
    4000110a:	00fa6a33          	or	s4,s4,a5
    4000110e:	01441423          	sh	s4,8(s0)
    40001112:	00fa7793          	andi	a5,s4,15
    40001116:	f3c1                	bnez	a5,40001096 <find_volume+0xfe>
    40001118:	04844503          	lbu	a0,72(s0)
    4000111c:	04744483          	lbu	s1,71(s0)
    40001120:	0085151b          	slliw	a0,a0,0x8
    40001124:	8d45                	or	a0,a0,s1
    40001126:	14050e63          	beqz	a0,40001282 <find_volume+0x2ea>
    4000112a:	04344783          	lbu	a5,67(s0)
    4000112e:	04244703          	lbu	a4,66(s0)
    40001132:	2501                	sext.w	a0,a0
    40001134:	0087979b          	slliw	a5,a5,0x8
    40001138:	8fd9                	or	a5,a5,a4
    4000113a:	dfb1                	beqz	a5,40001096 <find_volume+0xfe>
    4000113c:	033906bb          	mulw	a3,s2,s3
    40001140:	2781                	sext.w	a5,a5
    40001142:	004a571b          	srliw	a4,s4,0x4
    40001146:	9f3d                	addw	a4,a4,a5
    40001148:	00d7063b          	addw	a2,a4,a3
    4000114c:	8732                	mv	a4,a2
    4000114e:	f4c564e3          	bltu	a0,a2,40001096 <find_volume+0xfe>
    40001152:	40c504bb          	subw	s1,a0,a2
    40001156:	0364d5bb          	divuw	a1,s1,s6
    4000115a:	84ae                	mv	s1,a1
    4000115c:	dd8d                	beqz	a1,40001096 <find_volume+0xfe>
    4000115e:	6905                	lui	s2,0x1
    40001160:	1955                	addi	s2,s2,-11
    40001162:	6641                	lui	a2,0x10
    40001164:	00b93933          	sltu	s2,s2,a1
    40001168:	1655                	addi	a2,a2,-11
    4000116a:	0905                	addi	s2,s2,1
    4000116c:	00b67363          	bleu	a1,a2,40001172 <find_volume+0x1da>
    40001170:	490d                	li	s2,3
    40001172:	00ea873b          	addw	a4,s5,a4
    40001176:	2489                	addiw	s1,s1,2
    40001178:	015787bb          	addw	a5,a5,s5
    4000117c:	d458                	sw	a4,44(s0)
    4000117e:	cc04                	sw	s1,24(s0)
    40001180:	03542023          	sw	s5,32(s0)
    40001184:	d05c                	sw	a5,36(s0)
    40001186:	470d                	li	a4,3
    40001188:	10e91263          	bne	s2,a4,4000128c <find_volume+0x2f4>
    4000118c:	f00a15e3          	bnez	s4,40001096 <find_volume+0xfe>
    40001190:	06040513          	addi	a0,s0,96
    40001194:	b17ff0ef          	jal	ra,40000caa <LD_DWORD>
    40001198:	d408                	sw	a0,40(s0)
    4000119a:	0024949b          	slliw	s1,s1,0x2
    4000119e:	1ff4849b          	addiw	s1,s1,511
    400011a2:	0094d49b          	srliw	s1,s1,0x9
    400011a6:	2481                	sext.w	s1,s1
    400011a8:	ee99e7e3          	bltu	s3,s1,40001096 <find_volume+0xfe>
    400011ac:	57fd                	li	a5,-1
    400011ae:	c81c                	sw	a5,16(s0)
    400011b0:	c45c                	sw	a5,12(s0)
    400011b2:	f8000793          	li	a5,-128
    400011b6:	00f402a3          	sb	a5,5(s0)
    400011ba:	478d                	li	a5,3
    400011bc:	08f91963          	bne	s2,a5,4000124e <find_volume+0x2b6>
    400011c0:	06544783          	lbu	a5,101(s0)
    400011c4:	06444703          	lbu	a4,100(s0)
    400011c8:	0087979b          	slliw	a5,a5,0x8
    400011cc:	8fd9                	or	a5,a5,a4
    400011ce:	0107979b          	slliw	a5,a5,0x10
    400011d2:	4107d79b          	sraiw	a5,a5,0x10
    400011d6:	4705                	li	a4,1
    400011d8:	06f71b63          	bne	a4,a5,4000124e <find_volume+0x2b6>
    400011dc:	001a859b          	addiw	a1,s5,1
    400011e0:	8522                	mv	a0,s0
    400011e2:	ce5ff0ef          	jal	ra,40000ec6 <move_window>
    400011e6:	2501                	sext.w	a0,a0
    400011e8:	e13d                	bnez	a0,4000124e <find_volume+0x2b6>
    400011ea:	23344783          	lbu	a5,563(s0)
    400011ee:	23244703          	lbu	a4,562(s0)
    400011f2:	000402a3          	sb	zero,5(s0)
    400011f6:	0087979b          	slliw	a5,a5,0x8
    400011fa:	8fd9                	or	a5,a5,a4
    400011fc:	0107979b          	slliw	a5,a5,0x10
    40001200:	776d                	lui	a4,0xffffb
    40001202:	4107d79b          	sraiw	a5,a5,0x10
    40001206:	a5570713          	addi	a4,a4,-1451 # ffffffffffffaa55 <_gp+0xffffffffbfff374d>
    4000120a:	04f71263          	bne	a4,a5,4000124e <find_volume+0x2b6>
    4000120e:	03440513          	addi	a0,s0,52
    40001212:	a99ff0ef          	jal	ra,40000caa <LD_DWORD>
    40001216:	416157b7          	lui	a5,0x41615
    4000121a:	2501                	sext.w	a0,a0
    4000121c:	25278793          	addi	a5,a5,594 # 41615252 <_gp+0x160df4a>
    40001220:	02f51763          	bne	a0,a5,4000124e <find_volume+0x2b6>
    40001224:	21840513          	addi	a0,s0,536
    40001228:	a83ff0ef          	jal	ra,40000caa <LD_DWORD>
    4000122c:	614177b7          	lui	a5,0x61417
    40001230:	2501                	sext.w	a0,a0
    40001232:	27278793          	addi	a5,a5,626 # 61417272 <_gp+0x2140ff6a>
    40001236:	00f51c63          	bne	a0,a5,4000124e <find_volume+0x2b6>
    4000123a:	21c40513          	addi	a0,s0,540
    4000123e:	a6dff0ef          	jal	ra,40000caa <LD_DWORD>
    40001242:	c808                	sw	a0,16(s0)
    40001244:	22040513          	addi	a0,s0,544
    40001248:	a63ff0ef          	jal	ra,40000caa <LD_DWORD>
    4000124c:	c448                	sw	a0,12(s0)
    4000124e:	00006797          	auipc	a5,0x6
    40001252:	9a87d783          	lhu	a5,-1624(a5) # 40006bf6 <Fsid>
    40001256:	2785                	addiw	a5,a5,1
    40001258:	17c2                	slli	a5,a5,0x30
    4000125a:	93c1                	srli	a5,a5,0x30
    4000125c:	00006717          	auipc	a4,0x6
    40001260:	98f71d23          	sh	a5,-1638(a4) # 40006bf6 <Fsid>
    40001264:	00f41323          	sh	a5,6(s0)
    40001268:	01240023          	sb	s2,0(s0)
    4000126c:	00042a23          	sw	zero,20(s0)
    40001270:	4781                	li	a5,0
    40001272:	b351                	j	40000ff6 <find_volume+0x5e>
    40001274:	05840513          	addi	a0,s0,88
    40001278:	a33ff0ef          	jal	ra,40000caa <LD_DWORD>
    4000127c:	0005099b          	sext.w	s3,a0
    40001280:	b5b9                	j	400010ce <find_volume+0x136>
    40001282:	05440513          	addi	a0,s0,84
    40001286:	a25ff0ef          	jal	ra,40000caa <LD_DWORD>
    4000128a:	b545                	j	4000112a <find_volume+0x192>
    4000128c:	e00a05e3          	beqz	s4,40001096 <find_volume+0xfe>
    40001290:	9fb5                	addw	a5,a5,a3
    40001292:	d41c                	sw	a5,40(s0)
    40001294:	4789                	li	a5,2
    40001296:	00f91563          	bne	s2,a5,400012a0 <find_volume+0x308>
    4000129a:	0014949b          	slliw	s1,s1,0x1
    4000129e:	b701                	j	4000119e <find_volume+0x206>
    400012a0:	478d                	li	a5,3
    400012a2:	029787bb          	mulw	a5,a5,s1
    400012a6:	8885                	andi	s1,s1,1
    400012a8:	0017d79b          	srliw	a5,a5,0x1
    400012ac:	9cbd                	addw	s1,s1,a5
    400012ae:	bdc5                	j	4000119e <find_volume+0x206>

00000000400012b0 <sync_fs>:
    400012b0:	1101                	addi	sp,sp,-32
    400012b2:	e822                	sd	s0,16(sp)
    400012b4:	ec06                	sd	ra,24(sp)
    400012b6:	e426                	sd	s1,8(sp)
    400012b8:	842a                	mv	s0,a0
    400012ba:	bffff0ef          	jal	ra,40000eb8 <sync_window>
    400012be:	2501                	sext.w	a0,a0
    400012c0:	ed69                	bnez	a0,4000139a <sync_fs+0xea>
    400012c2:	00044703          	lbu	a4,0(s0)
    400012c6:	478d                	li	a5,3
    400012c8:	0cf71063          	bne	a4,a5,40001388 <sync_fs+0xd8>
    400012cc:	00544703          	lbu	a4,5(s0)
    400012d0:	4785                	li	a5,1
    400012d2:	0af71b63          	bne	a4,a5,40001388 <sync_fs+0xd8>
    400012d6:	03440493          	addi	s1,s0,52
    400012da:	20000613          	li	a2,512
    400012de:	4581                	li	a1,0
    400012e0:	8526                	mv	a0,s1
    400012e2:	a01ff0ef          	jal	ra,40000ce2 <mem_set>
    400012e6:	05500793          	li	a5,85
    400012ea:	22f40923          	sb	a5,562(s0)
    400012ee:	faa00793          	li	a5,-86
    400012f2:	22f409a3          	sb	a5,563(s0)
    400012f6:	05200793          	li	a5,82
    400012fa:	02f40a23          	sb	a5,52(s0)
    400012fe:	02f40aa3          	sb	a5,53(s0)
    40001302:	06100793          	li	a5,97
    40001306:	02f40b23          	sb	a5,54(s0)
    4000130a:	20f40da3          	sb	a5,539(s0)
    4000130e:	481c                	lw	a5,16(s0)
    40001310:	04100713          	li	a4,65
    40001314:	02e40ba3          	sb	a4,55(s0)
    40001318:	20e40d23          	sb	a4,538(s0)
    4000131c:	0107971b          	slliw	a4,a5,0x10
    40001320:	0107571b          	srliw	a4,a4,0x10
    40001324:	0087571b          	srliw	a4,a4,0x8
    40001328:	20f40e23          	sb	a5,540(s0)
    4000132c:	20e40ea3          	sb	a4,541(s0)
    40001330:	0107d71b          	srliw	a4,a5,0x10
    40001334:	0187d79b          	srliw	a5,a5,0x18
    40001338:	20f40fa3          	sb	a5,543(s0)
    4000133c:	445c                	lw	a5,12(s0)
    4000133e:	20e40f23          	sb	a4,542(s0)
    40001342:	5010                	lw	a2,32(s0)
    40001344:	0107971b          	slliw	a4,a5,0x10
    40001348:	0107571b          	srliw	a4,a4,0x10
    4000134c:	0087571b          	srliw	a4,a4,0x8
    40001350:	00144503          	lbu	a0,1(s0)
    40001354:	07200693          	li	a3,114
    40001358:	22f40023          	sb	a5,544(s0)
    4000135c:	22e400a3          	sb	a4,545(s0)
    40001360:	2605                	addiw	a2,a2,1
    40001362:	0107d71b          	srliw	a4,a5,0x10
    40001366:	0187d79b          	srliw	a5,a5,0x18
    4000136a:	20d40c23          	sb	a3,536(s0)
    4000136e:	20d40ca3          	sb	a3,537(s0)
    40001372:	22e40123          	sb	a4,546(s0)
    40001376:	22f401a3          	sb	a5,547(s0)
    4000137a:	d810                	sw	a2,48(s0)
    4000137c:	4685                	li	a3,1
    4000137e:	85a6                	mv	a1,s1
    40001380:	590040ef          	jal	ra,40005910 <disk_write>
    40001384:	000402a3          	sb	zero,5(s0)
    40001388:	00144503          	lbu	a0,1(s0)
    4000138c:	4601                	li	a2,0
    4000138e:	4581                	li	a1,0
    40001390:	640040ef          	jal	ra,400059d0 <disk_ioctl>
    40001394:	2501                	sext.w	a0,a0
    40001396:	00a03533          	snez	a0,a0
    4000139a:	60e2                	ld	ra,24(sp)
    4000139c:	6442                	ld	s0,16(sp)
    4000139e:	64a2                	ld	s1,8(sp)
    400013a0:	6105                	addi	sp,sp,32
    400013a2:	8082                	ret

00000000400013a4 <clust2sect>:
    400013a4:	4d1c                	lw	a5,24(a0)
    400013a6:	ffe5869b          	addiw	a3,a1,-2
    400013aa:	37f9                	addiw	a5,a5,-2
    400013ac:	00f6f963          	bleu	a5,a3,400013be <clust2sect+0x1a>
    400013b0:	00254583          	lbu	a1,2(a0)
    400013b4:	5548                	lw	a0,44(a0)
    400013b6:	02d585bb          	mulw	a1,a1,a3
    400013ba:	9d2d                	addw	a0,a0,a1
    400013bc:	8082                	ret
    400013be:	4501                	li	a0,0
    400013c0:	8082                	ret

00000000400013c2 <get_fat>:
    400013c2:	4785                	li	a5,1
    400013c4:	0eb7f763          	bleu	a1,a5,400014b2 <get_fat+0xf0>
    400013c8:	4d18                	lw	a4,24(a0)
    400013ca:	7179                	addi	sp,sp,-48
    400013cc:	e84a                	sd	s2,16(sp)
    400013ce:	f406                	sd	ra,40(sp)
    400013d0:	f022                	sd	s0,32(sp)
    400013d2:	ec26                	sd	s1,24(sp)
    400013d4:	e44e                	sd	s3,8(sp)
    400013d6:	892a                	mv	s2,a0
    400013d8:	02e5f963          	bleu	a4,a1,4000140a <get_fat+0x48>
    400013dc:	00054703          	lbu	a4,0(a0)
    400013e0:	4689                	li	a3,2
    400013e2:	842e                	mv	s0,a1
    400013e4:	06d70c63          	beq	a4,a3,4000145c <get_fat+0x9a>
    400013e8:	468d                	li	a3,3
    400013ea:	08d70e63          	beq	a4,a3,40001486 <get_fat+0xc4>
    400013ee:	00f71e63          	bne	a4,a5,4000140a <get_fat+0x48>
    400013f2:	0015d49b          	srliw	s1,a1,0x1
    400013f6:	515c                	lw	a5,36(a0)
    400013f8:	9cad                	addw	s1,s1,a1
    400013fa:	0094d59b          	srliw	a1,s1,0x9
    400013fe:	9dbd                	addw	a1,a1,a5
    40001400:	ac7ff0ef          	jal	ra,40000ec6 <move_window>
    40001404:	2501                	sext.w	a0,a0
    40001406:	c911                	beqz	a0,4000141a <get_fat+0x58>
    40001408:	57fd                	li	a5,-1
    4000140a:	70a2                	ld	ra,40(sp)
    4000140c:	7402                	ld	s0,32(sp)
    4000140e:	64e2                	ld	s1,24(sp)
    40001410:	6942                	ld	s2,16(sp)
    40001412:	69a2                	ld	s3,8(sp)
    40001414:	853e                	mv	a0,a5
    40001416:	6145                	addi	sp,sp,48
    40001418:	8082                	ret
    4000141a:	02492783          	lw	a5,36(s2) # 1024 <_tbss_end+0x1024>
    4000141e:	0014899b          	addiw	s3,s1,1
    40001422:	0099d59b          	srliw	a1,s3,0x9
    40001426:	1ff4f493          	andi	s1,s1,511
    4000142a:	94ca                	add	s1,s1,s2
    4000142c:	9dbd                	addw	a1,a1,a5
    4000142e:	854a                	mv	a0,s2
    40001430:	0344c483          	lbu	s1,52(s1)
    40001434:	a93ff0ef          	jal	ra,40000ec6 <move_window>
    40001438:	2501                	sext.w	a0,a0
    4000143a:	f579                	bnez	a0,40001408 <get_fat+0x46>
    4000143c:	1ff9f993          	andi	s3,s3,511
    40001440:	994e                	add	s2,s2,s3
    40001442:	03494783          	lbu	a5,52(s2)
    40001446:	8805                	andi	s0,s0,1
    40001448:	0087979b          	slliw	a5,a5,0x8
    4000144c:	8fc5                	or	a5,a5,s1
    4000144e:	c019                	beqz	s0,40001454 <get_fat+0x92>
    40001450:	8391                	srli	a5,a5,0x4
    40001452:	bf65                	j	4000140a <get_fat+0x48>
    40001454:	6505                	lui	a0,0x1
    40001456:	157d                	addi	a0,a0,-1
    40001458:	8fe9                	and	a5,a5,a0
    4000145a:	bf45                	j	4000140a <get_fat+0x48>
    4000145c:	515c                	lw	a5,36(a0)
    4000145e:	0085d59b          	srliw	a1,a1,0x8
    40001462:	9dbd                	addw	a1,a1,a5
    40001464:	a63ff0ef          	jal	ra,40000ec6 <move_window>
    40001468:	2501                	sext.w	a0,a0
    4000146a:	fd59                	bnez	a0,40001408 <get_fat+0x46>
    4000146c:	0014141b          	slliw	s0,s0,0x1
    40001470:	1fe47413          	andi	s0,s0,510
    40001474:	9922                	add	s2,s2,s0
    40001476:	03594783          	lbu	a5,53(s2)
    4000147a:	03494503          	lbu	a0,52(s2)
    4000147e:	0087979b          	slliw	a5,a5,0x8
    40001482:	8fc9                	or	a5,a5,a0
    40001484:	b759                	j	4000140a <get_fat+0x48>
    40001486:	515c                	lw	a5,36(a0)
    40001488:	0075d59b          	srliw	a1,a1,0x7
    4000148c:	9dbd                	addw	a1,a1,a5
    4000148e:	a39ff0ef          	jal	ra,40000ec6 <move_window>
    40001492:	2501                	sext.w	a0,a0
    40001494:	f935                	bnez	a0,40001408 <get_fat+0x46>
    40001496:	0024151b          	slliw	a0,s0,0x2
    4000149a:	1fc57513          	andi	a0,a0,508
    4000149e:	03450513          	addi	a0,a0,52 # 1034 <_tbss_end+0x1034>
    400014a2:	954a                	add	a0,a0,s2
    400014a4:	807ff0ef          	jal	ra,40000caa <LD_DWORD>
    400014a8:	100007b7          	lui	a5,0x10000
    400014ac:	2501                	sext.w	a0,a0
    400014ae:	17fd                	addi	a5,a5,-1
    400014b0:	b765                	j	40001458 <get_fat+0x96>
    400014b2:	4785                	li	a5,1
    400014b4:	853e                	mv	a0,a5
    400014b6:	8082                	ret

00000000400014b8 <dir_sdi>:
    400014b8:	7139                	addi	sp,sp,-64
    400014ba:	f822                	sd	s0,48(sp)
    400014bc:	4540                	lw	s0,12(a0)
    400014be:	f04a                	sd	s2,32(sp)
    400014c0:	fc06                	sd	ra,56(sp)
    400014c2:	f426                	sd	s1,40(sp)
    400014c4:	ec4e                	sd	s3,24(sp)
    400014c6:	e852                	sd	s4,16(sp)
    400014c8:	e456                	sd	s5,8(sp)
    400014ca:	00b51523          	sh	a1,10(a0)
    400014ce:	4785                	li	a5,1
    400014d0:	892a                	mv	s2,a0
    400014d2:	00f41c63          	bne	s0,a5,400014ea <dir_sdi+0x32>
    400014d6:	4509                	li	a0,2
    400014d8:	70e2                	ld	ra,56(sp)
    400014da:	7442                	ld	s0,48(sp)
    400014dc:	74a2                	ld	s1,40(sp)
    400014de:	7902                	ld	s2,32(sp)
    400014e0:	69e2                	ld	s3,24(sp)
    400014e2:	6a42                	ld	s4,16(sp)
    400014e4:	6aa2                	ld	s5,8(sp)
    400014e6:	6121                	addi	sp,sp,64
    400014e8:	8082                	ret
    400014ea:	611c                	ld	a5,0(a0)
    400014ec:	4f98                	lw	a4,24(a5)
    400014ee:	fee474e3          	bleu	a4,s0,400014d6 <dir_sdi+0x1e>
    400014f2:	84ae                	mv	s1,a1
    400014f4:	e021                	bnez	s0,40001534 <dir_sdi+0x7c>
    400014f6:	0007c683          	lbu	a3,0(a5) # 10000000 <_tbss_end+0x10000000>
    400014fa:	470d                	li	a4,3
    400014fc:	00e69463          	bne	a3,a4,40001504 <dir_sdi+0x4c>
    40001500:	5798                	lw	a4,40(a5)
    40001502:	eb15                	bnez	a4,40001536 <dir_sdi+0x7e>
    40001504:	0087d703          	lhu	a4,8(a5)
    40001508:	fce4f7e3          	bleu	a4,s1,400014d6 <dir_sdi+0x1e>
    4000150c:	5788                	lw	a0,40(a5)
    4000150e:	00892823          	sw	s0,16(s2)
    40001512:	d171                	beqz	a0,400014d6 <dir_sdi+0x1e>
    40001514:	0044d79b          	srliw	a5,s1,0x4
    40001518:	9d3d                	addw	a0,a0,a5
    4000151a:	00093783          	ld	a5,0(s2)
    4000151e:	88bd                	andi	s1,s1,15
    40001520:	0496                	slli	s1,s1,0x5
    40001522:	03478793          	addi	a5,a5,52
    40001526:	94be                	add	s1,s1,a5
    40001528:	00a92a23          	sw	a0,20(s2)
    4000152c:	00993c23          	sd	s1,24(s2)
    40001530:	4501                	li	a0,0
    40001532:	b75d                	j	400014d8 <dir_sdi+0x20>
    40001534:	8722                	mv	a4,s0
    40001536:	0027c983          	lbu	s3,2(a5)
    4000153a:	843a                	mv	s0,a4
    4000153c:	5a7d                	li	s4,-1
    4000153e:	0992                	slli	s3,s3,0x4
    40001540:	4a85                	li	s5,1
    40001542:	00093503          	ld	a0,0(s2)
    40001546:	85a2                	mv	a1,s0
    40001548:	0134f663          	bleu	s3,s1,40001554 <dir_sdi+0x9c>
    4000154c:	e59ff0ef          	jal	ra,400013a4 <clust2sect>
    40001550:	2501                	sext.w	a0,a0
    40001552:	bf75                	j	4000150e <dir_sdi+0x56>
    40001554:	e6fff0ef          	jal	ra,400013c2 <get_fat>
    40001558:	0005041b          	sext.w	s0,a0
    4000155c:	01440c63          	beq	s0,s4,40001574 <dir_sdi+0xbc>
    40001560:	f68afbe3          	bleu	s0,s5,400014d6 <dir_sdi+0x1e>
    40001564:	00093783          	ld	a5,0(s2)
    40001568:	4f9c                	lw	a5,24(a5)
    4000156a:	f6f476e3          	bleu	a5,s0,400014d6 <dir_sdi+0x1e>
    4000156e:	413484bb          	subw	s1,s1,s3
    40001572:	bfc1                	j	40001542 <dir_sdi+0x8a>
    40001574:	4505                	li	a0,1
    40001576:	b78d                	j	400014d8 <dir_sdi+0x20>

0000000040001578 <dir_remove>:
    40001578:	00a55583          	lhu	a1,10(a0)
    4000157c:	1101                	addi	sp,sp,-32
    4000157e:	e822                	sd	s0,16(sp)
    40001580:	e426                	sd	s1,8(sp)
    40001582:	ec06                	sd	ra,24(sp)
    40001584:	842a                	mv	s0,a0
    40001586:	f33ff0ef          	jal	ra,400014b8 <dir_sdi>
    4000158a:	0005049b          	sext.w	s1,a0
    4000158e:	e495                	bnez	s1,400015ba <dir_remove+0x42>
    40001590:	484c                	lw	a1,20(s0)
    40001592:	6008                	ld	a0,0(s0)
    40001594:	933ff0ef          	jal	ra,40000ec6 <move_window>
    40001598:	0005049b          	sext.w	s1,a0
    4000159c:	ec99                	bnez	s1,400015ba <dir_remove+0x42>
    4000159e:	6c08                	ld	a0,24(s0)
    400015a0:	02000613          	li	a2,32
    400015a4:	4581                	li	a1,0
    400015a6:	f3cff0ef          	jal	ra,40000ce2 <mem_set>
    400015aa:	6c1c                	ld	a5,24(s0)
    400015ac:	5715                	li	a4,-27
    400015ae:	00e78023          	sb	a4,0(a5)
    400015b2:	601c                	ld	a5,0(s0)
    400015b4:	4705                	li	a4,1
    400015b6:	00e78223          	sb	a4,4(a5)
    400015ba:	60e2                	ld	ra,24(sp)
    400015bc:	6442                	ld	s0,16(sp)
    400015be:	8526                	mv	a0,s1
    400015c0:	64a2                	ld	s1,8(sp)
    400015c2:	6105                	addi	sp,sp,32
    400015c4:	8082                	ret

00000000400015c6 <put_fat>:
    400015c6:	7139                	addi	sp,sp,-64
    400015c8:	e852                	sd	s4,16(sp)
    400015ca:	fc06                	sd	ra,56(sp)
    400015cc:	f822                	sd	s0,48(sp)
    400015ce:	f426                	sd	s1,40(sp)
    400015d0:	f04a                	sd	s2,32(sp)
    400015d2:	ec4e                	sd	s3,24(sp)
    400015d4:	e456                	sd	s5,8(sp)
    400015d6:	4a05                	li	s4,1
    400015d8:	16ba7563          	bleu	a1,s4,40001742 <put_fat+0x17c>
    400015dc:	4d1c                	lw	a5,24(a0)
    400015de:	84aa                	mv	s1,a0
    400015e0:	4989                	li	s3,2
    400015e2:	0af5f063          	bleu	a5,a1,40001682 <put_fat+0xbc>
    400015e6:	00054783          	lbu	a5,0(a0)
    400015ea:	4709                	li	a4,2
    400015ec:	8932                	mv	s2,a2
    400015ee:	842e                	mv	s0,a1
    400015f0:	0ae78f63          	beq	a5,a4,400016ae <put_fat+0xe8>
    400015f4:	470d                	li	a4,3
    400015f6:	0ee78863          	beq	a5,a4,400016e6 <put_fat+0x120>
    400015fa:	15479463          	bne	a5,s4,40001742 <put_fat+0x17c>
    400015fe:	0015da1b          	srliw	s4,a1,0x1
    40001602:	515c                	lw	a5,36(a0)
    40001604:	00ba0a3b          	addw	s4,s4,a1
    40001608:	009a559b          	srliw	a1,s4,0x9
    4000160c:	9dbd                	addw	a1,a1,a5
    4000160e:	8b9ff0ef          	jal	ra,40000ec6 <move_window>
    40001612:	0005099b          	sext.w	s3,a0
    40001616:	06099663          	bnez	s3,40001682 <put_fat+0xbc>
    4000161a:	8805                	andi	s0,s0,1
    4000161c:	001a0a9b          	addiw	s5,s4,1
    40001620:	0ff97793          	andi	a5,s2,255
    40001624:	1ffa7a13          	andi	s4,s4,511
    40001628:	cc19                	beqz	s0,40001646 <put_fat+0x80>
    4000162a:	014487b3          	add	a5,s1,s4
    4000162e:	0347c783          	lbu	a5,52(a5)
    40001632:	6685                	lui	a3,0x1
    40001634:	16c1                	addi	a3,a3,-16
    40001636:	00f7f713          	andi	a4,a5,15
    4000163a:	0049179b          	slliw	a5,s2,0x4
    4000163e:	8ff5                	and	a5,a5,a3
    40001640:	8fd9                	or	a5,a5,a4
    40001642:	0ff7f793          	andi	a5,a5,255
    40001646:	9a26                	add	s4,s4,s1
    40001648:	02fa0a23          	sb	a5,52(s4)
    4000164c:	4785                	li	a5,1
    4000164e:	00f48223          	sb	a5,4(s1)
    40001652:	50dc                	lw	a5,36(s1)
    40001654:	009ad59b          	srliw	a1,s5,0x9
    40001658:	8526                	mv	a0,s1
    4000165a:	9dbd                	addw	a1,a1,a5
    4000165c:	86bff0ef          	jal	ra,40000ec6 <move_window>
    40001660:	0005099b          	sext.w	s3,a0
    40001664:	00099f63          	bnez	s3,40001682 <put_fat+0xbc>
    40001668:	1ffafa93          	andi	s5,s5,511
    4000166c:	c40d                	beqz	s0,40001696 <put_fat+0xd0>
    4000166e:	0049591b          	srliw	s2,s2,0x4
    40001672:	0ff97913          	andi	s2,s2,255
    40001676:	9aa6                	add	s5,s5,s1
    40001678:	032a8a23          	sb	s2,52(s5)
    4000167c:	4785                	li	a5,1
    4000167e:	00f48223          	sb	a5,4(s1)
    40001682:	70e2                	ld	ra,56(sp)
    40001684:	7442                	ld	s0,48(sp)
    40001686:	854e                	mv	a0,s3
    40001688:	74a2                	ld	s1,40(sp)
    4000168a:	7902                	ld	s2,32(sp)
    4000168c:	69e2                	ld	s3,24(sp)
    4000168e:	6a42                	ld	s4,16(sp)
    40001690:	6aa2                	ld	s5,8(sp)
    40001692:	6121                	addi	sp,sp,64
    40001694:	8082                	ret
    40001696:	015487b3          	add	a5,s1,s5
    4000169a:	0347c783          	lbu	a5,52(a5)
    4000169e:	0089591b          	srliw	s2,s2,0x8
    400016a2:	00f97913          	andi	s2,s2,15
    400016a6:	9bc1                	andi	a5,a5,-16
    400016a8:	0127e933          	or	s2,a5,s2
    400016ac:	b7e9                	j	40001676 <put_fat+0xb0>
    400016ae:	515c                	lw	a5,36(a0)
    400016b0:	0085d59b          	srliw	a1,a1,0x8
    400016b4:	9dbd                	addw	a1,a1,a5
    400016b6:	811ff0ef          	jal	ra,40000ec6 <move_window>
    400016ba:	0005099b          	sext.w	s3,a0
    400016be:	fc0992e3          	bnez	s3,40001682 <put_fat+0xbc>
    400016c2:	0014141b          	slliw	s0,s0,0x1
    400016c6:	1fe47413          	andi	s0,s0,510
    400016ca:	9426                	add	s0,s0,s1
    400016cc:	03240a23          	sb	s2,52(s0)
    400016d0:	0109191b          	slliw	s2,s2,0x10
    400016d4:	0109591b          	srliw	s2,s2,0x10
    400016d8:	0089591b          	srliw	s2,s2,0x8
    400016dc:	03240aa3          	sb	s2,53(s0)
    400016e0:	01448223          	sb	s4,4(s1)
    400016e4:	bf79                	j	40001682 <put_fat+0xbc>
    400016e6:	515c                	lw	a5,36(a0)
    400016e8:	0075d59b          	srliw	a1,a1,0x7
    400016ec:	9dbd                	addw	a1,a1,a5
    400016ee:	fd8ff0ef          	jal	ra,40000ec6 <move_window>
    400016f2:	0005099b          	sext.w	s3,a0
    400016f6:	f80996e3          	bnez	s3,40001682 <put_fat+0xbc>
    400016fa:	0024141b          	slliw	s0,s0,0x2
    400016fe:	1fc47413          	andi	s0,s0,508
    40001702:	03440a93          	addi	s5,s0,52
    40001706:	9aa6                	add	s5,s5,s1
    40001708:	8556                	mv	a0,s5
    4000170a:	da0ff0ef          	jal	ra,40000caa <LD_DWORD>
    4000170e:	2501                	sext.w	a0,a0
    40001710:	f0000637          	lui	a2,0xf0000
    40001714:	8d71                	and	a0,a0,a2
    40001716:	01256933          	or	s2,a0,s2
    4000171a:	0109179b          	slliw	a5,s2,0x10
    4000171e:	9426                	add	s0,s0,s1
    40001720:	0107d79b          	srliw	a5,a5,0x10
    40001724:	03240a23          	sb	s2,52(s0)
    40001728:	0087d79b          	srliw	a5,a5,0x8
    4000172c:	00fa80a3          	sb	a5,1(s5)
    40001730:	0109579b          	srliw	a5,s2,0x10
    40001734:	0189591b          	srliw	s2,s2,0x18
    40001738:	00fa8123          	sb	a5,2(s5)
    4000173c:	012a81a3          	sb	s2,3(s5)
    40001740:	b745                	j	400016e0 <put_fat+0x11a>
    40001742:	4989                	li	s3,2
    40001744:	bf3d                	j	40001682 <put_fat+0xbc>

0000000040001746 <create_chain>:
    40001746:	7139                	addi	sp,sp,-64
    40001748:	f426                	sd	s1,40(sp)
    4000174a:	ec4e                	sd	s3,24(sp)
    4000174c:	fc06                	sd	ra,56(sp)
    4000174e:	f822                	sd	s0,48(sp)
    40001750:	f04a                	sd	s2,32(sp)
    40001752:	e852                	sd	s4,16(sp)
    40001754:	e456                	sd	s5,8(sp)
    40001756:	84aa                	mv	s1,a0
    40001758:	89ae                	mv	s3,a1
    4000175a:	e19d                	bnez	a1,40001780 <create_chain+0x3a>
    4000175c:	00c52903          	lw	s2,12(a0)
    40001760:	04090a63          	beqz	s2,400017b4 <create_chain+0x6e>
    40001764:	4d1c                	lw	a5,24(a0)
    40001766:	04f97763          	bleu	a5,s2,400017b4 <create_chain+0x6e>
    4000176a:	844a                	mv	s0,s2
    4000176c:	4a05                	li	s4,1
    4000176e:	5afd                	li	s5,-1
    40001770:	4c9c                	lw	a5,24(s1)
    40001772:	2405                	addiw	s0,s0,1
    40001774:	04f46363          	bltu	s0,a5,400017ba <create_chain+0x74>
    40001778:	052a6063          	bltu	s4,s2,400017b8 <create_chain+0x72>
    4000177c:	4401                	li	s0,0
    4000177e:	a821                	j	40001796 <create_chain+0x50>
    40001780:	c43ff0ef          	jal	ra,400013c2 <get_fat>
    40001784:	0005041b          	sext.w	s0,a0
    40001788:	4785                	li	a5,1
    4000178a:	0887f863          	bleu	s0,a5,4000181a <create_chain+0xd4>
    4000178e:	57fd                	li	a5,-1
    40001790:	00f41d63          	bne	s0,a5,400017aa <create_chain+0x64>
    40001794:	547d                	li	s0,-1
    40001796:	8522                	mv	a0,s0
    40001798:	70e2                	ld	ra,56(sp)
    4000179a:	7442                	ld	s0,48(sp)
    4000179c:	74a2                	ld	s1,40(sp)
    4000179e:	7902                	ld	s2,32(sp)
    400017a0:	69e2                	ld	s3,24(sp)
    400017a2:	6a42                	ld	s4,16(sp)
    400017a4:	6aa2                	ld	s5,8(sp)
    400017a6:	6121                	addi	sp,sp,64
    400017a8:	8082                	ret
    400017aa:	4c9c                	lw	a5,24(s1)
    400017ac:	894e                	mv	s2,s3
    400017ae:	faf47ee3          	bleu	a5,s0,4000176a <create_chain+0x24>
    400017b2:	b7d5                	j	40001796 <create_chain+0x50>
    400017b4:	4905                	li	s2,1
    400017b6:	bf55                	j	4000176a <create_chain+0x24>
    400017b8:	4409                	li	s0,2
    400017ba:	85a2                	mv	a1,s0
    400017bc:	8526                	mv	a0,s1
    400017be:	c05ff0ef          	jal	ra,400013c2 <get_fat>
    400017c2:	2501                	sext.w	a0,a0
    400017c4:	c901                	beqz	a0,400017d4 <create_chain+0x8e>
    400017c6:	fd5507e3          	beq	a0,s5,40001794 <create_chain+0x4e>
    400017ca:	05450863          	beq	a0,s4,4000181a <create_chain+0xd4>
    400017ce:	fb2411e3          	bne	s0,s2,40001770 <create_chain+0x2a>
    400017d2:	b76d                	j	4000177c <create_chain+0x36>
    400017d4:	10000637          	lui	a2,0x10000
    400017d8:	167d                	addi	a2,a2,-1
    400017da:	85a2                	mv	a1,s0
    400017dc:	8526                	mv	a0,s1
    400017de:	de9ff0ef          	jal	ra,400015c6 <put_fat>
    400017e2:	2501                	sext.w	a0,a0
    400017e4:	e905                	bnez	a0,40001814 <create_chain+0xce>
    400017e6:	02099063          	bnez	s3,40001806 <create_chain+0xc0>
    400017ea:	489c                	lw	a5,16(s1)
    400017ec:	c4c0                	sw	s0,12(s1)
    400017ee:	577d                	li	a4,-1
    400017f0:	fae783e3          	beq	a5,a4,40001796 <create_chain+0x50>
    400017f4:	37fd                	addiw	a5,a5,-1
    400017f6:	c89c                	sw	a5,16(s1)
    400017f8:	0054c783          	lbu	a5,5(s1)
    400017fc:	0017e793          	ori	a5,a5,1
    40001800:	00f482a3          	sb	a5,5(s1)
    40001804:	bf49                	j	40001796 <create_chain+0x50>
    40001806:	8622                	mv	a2,s0
    40001808:	85ce                	mv	a1,s3
    4000180a:	8526                	mv	a0,s1
    4000180c:	dbbff0ef          	jal	ra,400015c6 <put_fat>
    40001810:	2501                	sext.w	a0,a0
    40001812:	dd61                	beqz	a0,400017ea <create_chain+0xa4>
    40001814:	4785                	li	a5,1
    40001816:	f6f50fe3          	beq	a0,a5,40001794 <create_chain+0x4e>
    4000181a:	4405                	li	s0,1
    4000181c:	bfad                	j	40001796 <create_chain+0x50>

000000004000181e <dir_next>:
    4000181e:	7139                	addi	sp,sp,-64
    40001820:	f04a                	sd	s2,32(sp)
    40001822:	00a55903          	lhu	s2,10(a0)
    40001826:	fc06                	sd	ra,56(sp)
    40001828:	f822                	sd	s0,48(sp)
    4000182a:	2905                	addiw	s2,s2,1
    4000182c:	03091793          	slli	a5,s2,0x30
    40001830:	f426                	sd	s1,40(sp)
    40001832:	ec4e                	sd	s3,24(sp)
    40001834:	e852                	sd	s4,16(sp)
    40001836:	e456                	sd	s5,8(sp)
    40001838:	93c1                	srli	a5,a5,0x30
    4000183a:	eb99                	bnez	a5,40001850 <dir_next+0x32>
    4000183c:	4511                	li	a0,4
    4000183e:	70e2                	ld	ra,56(sp)
    40001840:	7442                	ld	s0,48(sp)
    40001842:	74a2                	ld	s1,40(sp)
    40001844:	7902                	ld	s2,32(sp)
    40001846:	69e2                	ld	s3,24(sp)
    40001848:	6a42                	ld	s4,16(sp)
    4000184a:	6aa2                	ld	s5,8(sp)
    4000184c:	6121                	addi	sp,sp,64
    4000184e:	8082                	ret
    40001850:	495c                	lw	a5,20(a0)
    40001852:	d7ed                	beqz	a5,4000183c <dir_next+0x1e>
    40001854:	00f97993          	andi	s3,s2,15
    40001858:	8a2e                	mv	s4,a1
    4000185a:	842a                	mv	s0,a0
    4000185c:	00099d63          	bnez	s3,40001876 <dir_next+0x58>
    40001860:	480c                	lw	a1,16(s0)
    40001862:	2785                	addiw	a5,a5,1
    40001864:	6108                	ld	a0,0(a0)
    40001866:	c85c                	sw	a5,20(s0)
    40001868:	e18d                	bnez	a1,4000188a <dir_next+0x6c>
    4000186a:	00855783          	lhu	a5,8(a0)
    4000186e:	0009071b          	sext.w	a4,s2
    40001872:	fcf775e3          	bleu	a5,a4,4000183c <dir_next+0x1e>
    40001876:	601c                	ld	a5,0(s0)
    40001878:	0996                	slli	s3,s3,0x5
    4000187a:	01241523          	sh	s2,10(s0)
    4000187e:	03478793          	addi	a5,a5,52
    40001882:	97ce                	add	a5,a5,s3
    40001884:	ec1c                	sd	a5,24(s0)
    40001886:	4501                	li	a0,0
    40001888:	bf5d                	j	4000183e <dir_next+0x20>
    4000188a:	00254783          	lbu	a5,2(a0)
    4000188e:	00495a9b          	srliw	s5,s2,0x4
    40001892:	37fd                	addiw	a5,a5,-1
    40001894:	0157fab3          	and	s5,a5,s5
    40001898:	fc0a9fe3          	bnez	s5,40001876 <dir_next+0x58>
    4000189c:	b27ff0ef          	jal	ra,400013c2 <get_fat>
    400018a0:	0005049b          	sext.w	s1,a0
    400018a4:	4785                	li	a5,1
    400018a6:	0097e463          	bltu	a5,s1,400018ae <dir_next+0x90>
    400018aa:	4509                	li	a0,2
    400018ac:	bf49                	j	4000183e <dir_next+0x20>
    400018ae:	57fd                	li	a5,-1
    400018b0:	00f49463          	bne	s1,a5,400018b8 <dir_next+0x9a>
    400018b4:	4505                	li	a0,1
    400018b6:	b761                	j	4000183e <dir_next+0x20>
    400018b8:	6008                	ld	a0,0(s0)
    400018ba:	4d1c                	lw	a5,24(a0)
    400018bc:	06f4e063          	bltu	s1,a5,4000191c <dir_next+0xfe>
    400018c0:	f60a0ee3          	beqz	s4,4000183c <dir_next+0x1e>
    400018c4:	480c                	lw	a1,16(s0)
    400018c6:	e81ff0ef          	jal	ra,40001746 <create_chain>
    400018ca:	0005049b          	sext.w	s1,a0
    400018ce:	451d                	li	a0,7
    400018d0:	d4bd                	beqz	s1,4000183e <dir_next+0x20>
    400018d2:	4785                	li	a5,1
    400018d4:	fcf48be3          	beq	s1,a5,400018aa <dir_next+0x8c>
    400018d8:	57fd                	li	a5,-1
    400018da:	fcf48de3          	beq	s1,a5,400018b4 <dir_next+0x96>
    400018de:	6008                	ld	a0,0(s0)
    400018e0:	dd8ff0ef          	jal	ra,40000eb8 <sync_window>
    400018e4:	2501                	sext.w	a0,a0
    400018e6:	f579                	bnez	a0,400018b4 <dir_next+0x96>
    400018e8:	6008                	ld	a0,0(s0)
    400018ea:	20000613          	li	a2,512
    400018ee:	4581                	li	a1,0
    400018f0:	03450513          	addi	a0,a0,52
    400018f4:	beeff0ef          	jal	ra,40000ce2 <mem_set>
    400018f8:	00043a03          	ld	s4,0(s0)
    400018fc:	85a6                	mv	a1,s1
    400018fe:	8552                	mv	a0,s4
    40001900:	aa5ff0ef          	jal	ra,400013a4 <clust2sect>
    40001904:	02aa2823          	sw	a0,48(s4)
    40001908:	4a05                	li	s4,1
    4000190a:	6008                	ld	a0,0(s0)
    4000190c:	00254783          	lbu	a5,2(a0)
    40001910:	00faed63          	bltu	s5,a5,4000192a <dir_next+0x10c>
    40001914:	591c                	lw	a5,48(a0)
    40001916:	415787bb          	subw	a5,a5,s5
    4000191a:	d91c                	sw	a5,48(a0)
    4000191c:	6008                	ld	a0,0(s0)
    4000191e:	c804                	sw	s1,16(s0)
    40001920:	85a6                	mv	a1,s1
    40001922:	a83ff0ef          	jal	ra,400013a4 <clust2sect>
    40001926:	c848                	sw	a0,20(s0)
    40001928:	b7b9                	j	40001876 <dir_next+0x58>
    4000192a:	01450223          	sb	s4,4(a0)
    4000192e:	d1cff0ef          	jal	ra,40000e4a <sync_window.part.2>
    40001932:	2501                	sext.w	a0,a0
    40001934:	f141                	bnez	a0,400018b4 <dir_next+0x96>
    40001936:	6018                	ld	a4,0(s0)
    40001938:	2a85                	addiw	s5,s5,1
    4000193a:	5b1c                	lw	a5,48(a4)
    4000193c:	2785                	addiw	a5,a5,1
    4000193e:	db1c                	sw	a5,48(a4)
    40001940:	b7e9                	j	4000190a <dir_next+0xec>

0000000040001942 <follow_path>:
    40001942:	7139                	addi	sp,sp,-64
    40001944:	f822                	sd	s0,48(sp)
    40001946:	f426                	sd	s1,40(sp)
    40001948:	fc06                	sd	ra,56(sp)
    4000194a:	f04a                	sd	s2,32(sp)
    4000194c:	ec4e                	sd	s3,24(sp)
    4000194e:	e852                	sd	s4,16(sp)
    40001950:	e456                	sd	s5,8(sp)
    40001952:	e05a                	sd	s6,0(sp)
    40001954:	0005c783          	lbu	a5,0(a1)
    40001958:	02f00713          	li	a4,47
    4000195c:	84aa                	mv	s1,a0
    4000195e:	842e                	mv	s0,a1
    40001960:	00e78663          	beq	a5,a4,4000196c <follow_path+0x2a>
    40001964:	05c00713          	li	a4,92
    40001968:	0ce79063          	bne	a5,a4,40001a28 <follow_path+0xe6>
    4000196c:	0405                	addi	s0,s0,1
    4000196e:	0004a623          	sw	zero,12(s1)
    40001972:	00044703          	lbu	a4,0(s0)
    40001976:	47fd                	li	a5,31
    40001978:	0ae7fc63          	bleu	a4,a5,40001a30 <follow_path+0xee>
    4000197c:	02f00a13          	li	s4,47
    40001980:	05c00a93          	li	s5,92
    40001984:	02e00993          	li	s3,46
    40001988:	4b21                	li	s6,8
    4000198a:	00044783          	lbu	a5,0(s0)
    4000198e:	0d478263          	beq	a5,s4,40001a52 <follow_path+0x110>
    40001992:	0d578063          	beq	a5,s5,40001a52 <follow_path+0x110>
    40001996:	0204b903          	ld	s2,32(s1)
    4000199a:	462d                	li	a2,11
    4000199c:	02000593          	li	a1,32
    400019a0:	854a                	mv	a0,s2
    400019a2:	b40ff0ef          	jal	ra,40000ce2 <mem_set>
    400019a6:	00044783          	lbu	a5,0(s0)
    400019aa:	0d379263          	bne	a5,s3,40001a6e <follow_path+0x12c>
    400019ae:	01390023          	sb	s3,0(s2)
    400019b2:	00144783          	lbu	a5,1(s0)
    400019b6:	0b379063          	bne	a5,s3,40001a56 <follow_path+0x114>
    400019ba:	02e00793          	li	a5,46
    400019be:	00f900a3          	sb	a5,1(s2)
    400019c2:	00244783          	lbu	a5,2(s0)
    400019c6:	1b378e63          	beq	a5,s3,40001b82 <follow_path+0x240>
    400019ca:	470d                	li	a4,3
    400019cc:	09479763          	bne	a5,s4,40001a5a <follow_path+0x118>
    400019d0:	943a                	add	s0,s0,a4
    400019d2:	02000793          	li	a5,32
    400019d6:	00f905a3          	sb	a5,11(s2)
    400019da:	4581                	li	a1,0
    400019dc:	8526                	mv	a0,s1
    400019de:	adbff0ef          	jal	ra,400014b8 <dir_sdi>
    400019e2:	2501                	sext.w	a0,a0
    400019e4:	10051063          	bnez	a0,40001ae4 <follow_path+0x1a2>
    400019e8:	48cc                	lw	a1,20(s1)
    400019ea:	6088                	ld	a0,0(s1)
    400019ec:	cdaff0ef          	jal	ra,40000ec6 <move_window>
    400019f0:	2501                	sext.w	a0,a0
    400019f2:	e96d                	bnez	a0,40001ae4 <follow_path+0x1a2>
    400019f4:	6c98                	ld	a4,24(s1)
    400019f6:	00074783          	lbu	a5,0(a4)
    400019fa:	c7e5                	beqz	a5,40001ae2 <follow_path+0x1a0>
    400019fc:	00b74783          	lbu	a5,11(a4)
    40001a00:	8ba1                	andi	a5,a5,8
    40001a02:	ef91                	bnez	a5,40001a1e <follow_path+0xdc>
    40001a04:	709c                	ld	a5,32(s1)
    40001a06:	00b78593          	addi	a1,a5,11
    40001a0a:	0cb78d63          	beq	a5,a1,40001ae4 <follow_path+0x1a2>
    40001a0e:	0705                	addi	a4,a4,1
    40001a10:	0785                	addi	a5,a5,1
    40001a12:	fff74603          	lbu	a2,-1(a4)
    40001a16:	fff7c683          	lbu	a3,-1(a5)
    40001a1a:	fed608e3          	beq	a2,a3,40001a0a <follow_path+0xc8>
    40001a1e:	4581                	li	a1,0
    40001a20:	8526                	mv	a0,s1
    40001a22:	dfdff0ef          	jal	ra,4000181e <dir_next>
    40001a26:	bf75                	j	400019e2 <follow_path+0xa0>
    40001a28:	611c                	ld	a5,0(a0)
    40001a2a:	4bdc                	lw	a5,20(a5)
    40001a2c:	c55c                	sw	a5,12(a0)
    40001a2e:	b791                	j	40001972 <follow_path+0x30>
    40001a30:	4581                	li	a1,0
    40001a32:	8526                	mv	a0,s1
    40001a34:	a85ff0ef          	jal	ra,400014b8 <dir_sdi>
    40001a38:	2501                	sext.w	a0,a0
    40001a3a:	0004bc23          	sd	zero,24(s1)
    40001a3e:	70e2                	ld	ra,56(sp)
    40001a40:	7442                	ld	s0,48(sp)
    40001a42:	74a2                	ld	s1,40(sp)
    40001a44:	7902                	ld	s2,32(sp)
    40001a46:	69e2                	ld	s3,24(sp)
    40001a48:	6a42                	ld	s4,16(sp)
    40001a4a:	6aa2                	ld	s5,8(sp)
    40001a4c:	6b02                	ld	s6,0(sp)
    40001a4e:	6121                	addi	sp,sp,64
    40001a50:	8082                	ret
    40001a52:	0405                	addi	s0,s0,1
    40001a54:	bf1d                	j	4000198a <follow_path+0x48>
    40001a56:	4709                	li	a4,2
    40001a58:	bf95                	j	400019cc <follow_path+0x8a>
    40001a5a:	f7578be3          	beq	a5,s5,400019d0 <follow_path+0x8e>
    40001a5e:	02000693          	li	a3,32
    40001a62:	12f6e063          	bltu	a3,a5,40001b82 <follow_path+0x240>
    40001a66:	943a                	add	s0,s0,a4
    40001a68:	02400793          	li	a5,36
    40001a6c:	b7ad                	j	400019d6 <follow_path+0x94>
    40001a6e:	4681                	li	a3,0
    40001a70:	4701                	li	a4,0
    40001a72:	45a1                	li	a1,8
    40001a74:	4781                	li	a5,0
    40001a76:	02000313          	li	t1,32
    40001a7a:	4865                	li	a6,25
    40001a7c:	a0d1                	j	40001b40 <follow_path+0x1fe>
    40001a7e:	0505                	addi	a0,a0,1
    40001a80:	a8dd                	j	40001b76 <follow_path+0x234>
    40001a82:	0027e793          	ori	a5,a5,2
    40001a86:	02069513          	slli	a0,a3,0x20
    40001a8a:	9101                	srli	a0,a0,0x20
    40001a8c:	954a                	add	a0,a0,s2
    40001a8e:	00e50023          	sb	a4,0(a0)
    40001a92:	2685                	addiw	a3,a3,1
    40001a94:	a06d                	j	40001b3e <follow_path+0x1fc>
    40001a96:	4711                	li	a4,4
    40001a98:	c6ed                	beqz	a3,40001b82 <follow_path+0x240>
    40001a9a:	00094503          	lbu	a0,0(s2)
    40001a9e:	0e500693          	li	a3,229
    40001aa2:	00d51563          	bne	a0,a3,40001aac <follow_path+0x16a>
    40001aa6:	4695                	li	a3,5
    40001aa8:	00d90023          	sb	a3,0(s2)
    40001aac:	01659663          	bne	a1,s6,40001ab8 <follow_path+0x176>
    40001ab0:	0027979b          	slliw	a5,a5,0x2
    40001ab4:	0ff7f793          	andi	a5,a5,255
    40001ab8:	0037f693          	andi	a3,a5,3
    40001abc:	4585                	li	a1,1
    40001abe:	00b69463          	bne	a3,a1,40001ac6 <follow_path+0x184>
    40001ac2:	01076713          	ori	a4,a4,16
    40001ac6:	8bb1                	andi	a5,a5,12
    40001ac8:	4691                	li	a3,4
    40001aca:	00d79463          	bne	a5,a3,40001ad2 <follow_path+0x190>
    40001ace:	00876713          	ori	a4,a4,8
    40001ad2:	1602                	slli	a2,a2,0x20
    40001ad4:	9201                	srli	a2,a2,0x20
    40001ad6:	9432                	add	s0,s0,a2
    40001ad8:	00e905a3          	sb	a4,11(s2)
    40001adc:	bdfd                	j	400019da <follow_path+0x98>
    40001ade:	4701                	li	a4,0
    40001ae0:	bf65                	j	40001a98 <follow_path+0x156>
    40001ae2:	4511                	li	a0,4
    40001ae4:	709c                	ld	a5,32(s1)
    40001ae6:	00b7c783          	lbu	a5,11(a5)
    40001aea:	c505                	beqz	a0,40001b12 <follow_path+0x1d0>
    40001aec:	4711                	li	a4,4
    40001aee:	f4e518e3          	bne	a0,a4,40001a3e <follow_path+0xfc>
    40001af2:	0047f713          	andi	a4,a5,4
    40001af6:	0207f793          	andi	a5,a5,32
    40001afa:	cb89                	beqz	a5,40001b0c <follow_path+0x1ca>
    40001afc:	0004a623          	sw	zero,12(s1)
    40001b00:	0004bc23          	sd	zero,24(s1)
    40001b04:	e80703e3          	beqz	a4,4000198a <follow_path+0x48>
    40001b08:	4501                	li	a0,0
    40001b0a:	bf15                	j	40001a3e <follow_path+0xfc>
    40001b0c:	fb0d                	bnez	a4,40001a3e <follow_path+0xfc>
    40001b0e:	4515                	li	a0,5
    40001b10:	b73d                	j	40001a3e <follow_path+0xfc>
    40001b12:	8b91                	andi	a5,a5,4
    40001b14:	fbf5                	bnez	a5,40001b08 <follow_path+0x1c6>
    40001b16:	6c8c                	ld	a1,24(s1)
    40001b18:	00b5c783          	lbu	a5,11(a1)
    40001b1c:	8bc1                	andi	a5,a5,16
    40001b1e:	dbe5                	beqz	a5,40001b0e <follow_path+0x1cc>
    40001b20:	609c                	ld	a5,0(s1)
    40001b22:	0007c503          	lbu	a0,0(a5)
    40001b26:	af2ff0ef          	jal	ra,40000e18 <ld_clust.isra.0>
    40001b2a:	c4c8                	sw	a0,12(s1)
    40001b2c:	bdb9                	j	4000198a <follow_path+0x48>
    40001b2e:	05659a63          	bne	a1,s6,40001b82 <follow_path+0x240>
    40001b32:	0027979b          	slliw	a5,a5,0x2
    40001b36:	0ff7f793          	andi	a5,a5,255
    40001b3a:	46a1                	li	a3,8
    40001b3c:	45ad                	li	a1,11
    40001b3e:	8732                	mv	a4,a2
    40001b40:	0017061b          	addiw	a2,a4,1
    40001b44:	1702                	slli	a4,a4,0x20
    40001b46:	9301                	srli	a4,a4,0x20
    40001b48:	9722                	add	a4,a4,s0
    40001b4a:	00074703          	lbu	a4,0(a4)
    40001b4e:	f4e374e3          	bleu	a4,t1,40001a96 <follow_path+0x154>
    40001b52:	f94706e3          	beq	a4,s4,40001ade <follow_path+0x19c>
    40001b56:	f95704e3          	beq	a4,s5,40001ade <follow_path+0x19c>
    40001b5a:	fd370ae3          	beq	a4,s3,40001b2e <follow_path+0x1ec>
    40001b5e:	02b6f263          	bleu	a1,a3,40001b82 <follow_path+0x240>
    40001b62:	0187151b          	slliw	a0,a4,0x18
    40001b66:	4185551b          	sraiw	a0,a0,0x18
    40001b6a:	00054c63          	bltz	a0,40001b82 <follow_path+0x240>
    40001b6e:	00005517          	auipc	a0,0x5
    40001b72:	97250513          	addi	a0,a0,-1678 # 400064e0 <P_array.1885+0x3a8>
    40001b76:	00054883          	lbu	a7,0(a0)
    40001b7a:	00088663          	beqz	a7,40001b86 <follow_path+0x244>
    40001b7e:	f11710e3          	bne	a4,a7,40001a7e <follow_path+0x13c>
    40001b82:	4519                	li	a0,6
    40001b84:	bd6d                	j	40001a3e <follow_path+0xfc>
    40001b86:	fbf7051b          	addiw	a0,a4,-65
    40001b8a:	0ff57513          	andi	a0,a0,255
    40001b8e:	eea87ae3          	bleu	a0,a6,40001a82 <follow_path+0x140>
    40001b92:	f9f7051b          	addiw	a0,a4,-97
    40001b96:	0ff57513          	andi	a0,a0,255
    40001b9a:	eea866e3          	bltu	a6,a0,40001a86 <follow_path+0x144>
    40001b9e:	3701                	addiw	a4,a4,-32
    40001ba0:	0017e793          	ori	a5,a5,1
    40001ba4:	0ff77713          	andi	a4,a4,255
    40001ba8:	bdf9                	j	40001a86 <follow_path+0x144>

0000000040001baa <dir_read>:
    40001baa:	7179                	addi	sp,sp,-48
    40001bac:	f022                	sd	s0,32(sp)
    40001bae:	ec26                	sd	s1,24(sp)
    40001bb0:	e84a                	sd	s2,16(sp)
    40001bb2:	e44e                	sd	s3,8(sp)
    40001bb4:	842a                	mv	s0,a0
    40001bb6:	f406                	sd	ra,40(sp)
    40001bb8:	84ae                	mv	s1,a1
    40001bba:	4511                	li	a0,4
    40001bbc:	0e500913          	li	s2,229
    40001bc0:	49bd                	li	s3,15
    40001bc2:	484c                	lw	a1,20(s0)
    40001bc4:	e199                	bnez	a1,40001bca <dir_read+0x20>
    40001bc6:	c90d                	beqz	a0,40001bf8 <dir_read+0x4e>
    40001bc8:	a0b1                	j	40001c14 <dir_read+0x6a>
    40001bca:	6008                	ld	a0,0(s0)
    40001bcc:	afaff0ef          	jal	ra,40000ec6 <move_window>
    40001bd0:	2501                	sext.w	a0,a0
    40001bd2:	e129                	bnez	a0,40001c14 <dir_read+0x6a>
    40001bd4:	6c1c                	ld	a5,24(s0)
    40001bd6:	0007c703          	lbu	a4,0(a5)
    40001bda:	c321                	beqz	a4,40001c1a <dir_read+0x70>
    40001bdc:	00b7c783          	lbu	a5,11(a5)
    40001be0:	03f7f793          	andi	a5,a5,63
    40001be4:	03270263          	beq	a4,s2,40001c08 <dir_read+0x5e>
    40001be8:	03378063          	beq	a5,s3,40001c08 <dir_read+0x5e>
    40001bec:	8bfd                	andi	a5,a5,31
    40001bee:	17e1                	addi	a5,a5,-8
    40001bf0:	0017b793          	seqz	a5,a5
    40001bf4:	00979a63          	bne	a5,s1,40001c08 <dir_read+0x5e>
    40001bf8:	4501                	li	a0,0
    40001bfa:	70a2                	ld	ra,40(sp)
    40001bfc:	7402                	ld	s0,32(sp)
    40001bfe:	64e2                	ld	s1,24(sp)
    40001c00:	6942                	ld	s2,16(sp)
    40001c02:	69a2                	ld	s3,8(sp)
    40001c04:	6145                	addi	sp,sp,48
    40001c06:	8082                	ret
    40001c08:	4581                	li	a1,0
    40001c0a:	8522                	mv	a0,s0
    40001c0c:	c13ff0ef          	jal	ra,4000181e <dir_next>
    40001c10:	2501                	sext.w	a0,a0
    40001c12:	d945                	beqz	a0,40001bc2 <dir_read+0x18>
    40001c14:	00042a23          	sw	zero,20(s0)
    40001c18:	b7cd                	j	40001bfa <dir_read+0x50>
    40001c1a:	4511                	li	a0,4
    40001c1c:	bfe5                	j	40001c14 <dir_read+0x6a>

0000000040001c1e <dir_alloc.constprop.12>:
    40001c1e:	1101                	addi	sp,sp,-32
    40001c20:	4581                	li	a1,0
    40001c22:	e822                	sd	s0,16(sp)
    40001c24:	ec06                	sd	ra,24(sp)
    40001c26:	e426                	sd	s1,8(sp)
    40001c28:	842a                	mv	s0,a0
    40001c2a:	88fff0ef          	jal	ra,400014b8 <dir_sdi>
    40001c2e:	2501                	sext.w	a0,a0
    40001c30:	e50d                	bnez	a0,40001c5a <dir_alloc.constprop.12+0x3c>
    40001c32:	0e500493          	li	s1,229
    40001c36:	484c                	lw	a1,20(s0)
    40001c38:	6008                	ld	a0,0(s0)
    40001c3a:	a8cff0ef          	jal	ra,40000ec6 <move_window>
    40001c3e:	2501                	sext.w	a0,a0
    40001c40:	ed09                	bnez	a0,40001c5a <dir_alloc.constprop.12+0x3c>
    40001c42:	6c1c                	ld	a5,24(s0)
    40001c44:	0007c783          	lbu	a5,0(a5)
    40001c48:	00978d63          	beq	a5,s1,40001c62 <dir_alloc.constprop.12+0x44>
    40001c4c:	cb99                	beqz	a5,40001c62 <dir_alloc.constprop.12+0x44>
    40001c4e:	4585                	li	a1,1
    40001c50:	8522                	mv	a0,s0
    40001c52:	bcdff0ef          	jal	ra,4000181e <dir_next>
    40001c56:	2501                	sext.w	a0,a0
    40001c58:	dd79                	beqz	a0,40001c36 <dir_alloc.constprop.12+0x18>
    40001c5a:	4791                	li	a5,4
    40001c5c:	00f51363          	bne	a0,a5,40001c62 <dir_alloc.constprop.12+0x44>
    40001c60:	451d                	li	a0,7
    40001c62:	60e2                	ld	ra,24(sp)
    40001c64:	6442                	ld	s0,16(sp)
    40001c66:	64a2                	ld	s1,8(sp)
    40001c68:	6105                	addi	sp,sp,32
    40001c6a:	8082                	ret

0000000040001c6c <dir_register>:
    40001c6c:	1101                	addi	sp,sp,-32
    40001c6e:	e822                	sd	s0,16(sp)
    40001c70:	e426                	sd	s1,8(sp)
    40001c72:	ec06                	sd	ra,24(sp)
    40001c74:	842a                	mv	s0,a0
    40001c76:	fa9ff0ef          	jal	ra,40001c1e <dir_alloc.constprop.12>
    40001c7a:	0005049b          	sext.w	s1,a0
    40001c7e:	e49d                	bnez	s1,40001cac <dir_register+0x40>
    40001c80:	484c                	lw	a1,20(s0)
    40001c82:	6008                	ld	a0,0(s0)
    40001c84:	a42ff0ef          	jal	ra,40000ec6 <move_window>
    40001c88:	0005049b          	sext.w	s1,a0
    40001c8c:	e085                	bnez	s1,40001cac <dir_register+0x40>
    40001c8e:	6c08                	ld	a0,24(s0)
    40001c90:	02000613          	li	a2,32
    40001c94:	4581                	li	a1,0
    40001c96:	84cff0ef          	jal	ra,40000ce2 <mem_set>
    40001c9a:	700c                	ld	a1,32(s0)
    40001c9c:	6c08                	ld	a0,24(s0)
    40001c9e:	462d                	li	a2,11
    40001ca0:	82aff0ef          	jal	ra,40000cca <mem_cpy>
    40001ca4:	601c                	ld	a5,0(s0)
    40001ca6:	4705                	li	a4,1
    40001ca8:	00e78223          	sb	a4,4(a5)
    40001cac:	60e2                	ld	ra,24(sp)
    40001cae:	6442                	ld	s0,16(sp)
    40001cb0:	8526                	mv	a0,s1
    40001cb2:	64a2                	ld	s1,8(sp)
    40001cb4:	6105                	addi	sp,sp,32
    40001cb6:	8082                	ret

0000000040001cb8 <remove_chain>:
    40001cb8:	4785                	li	a5,1
    40001cba:	00b7ed63          	bltu	a5,a1,40001cd4 <remove_chain+0x1c>
    40001cbe:	4509                	li	a0,2
    40001cc0:	8082                	ret
    40001cc2:	4509                	li	a0,2
    40001cc4:	70a2                	ld	ra,40(sp)
    40001cc6:	7402                	ld	s0,32(sp)
    40001cc8:	64e2                	ld	s1,24(sp)
    40001cca:	6942                	ld	s2,16(sp)
    40001ccc:	69a2                	ld	s3,8(sp)
    40001cce:	6a02                	ld	s4,0(sp)
    40001cd0:	6145                	addi	sp,sp,48
    40001cd2:	8082                	ret
    40001cd4:	4d1c                	lw	a5,24(a0)
    40001cd6:	7179                	addi	sp,sp,-48
    40001cd8:	f022                	sd	s0,32(sp)
    40001cda:	ec26                	sd	s1,24(sp)
    40001cdc:	f406                	sd	ra,40(sp)
    40001cde:	e84a                	sd	s2,16(sp)
    40001ce0:	e44e                	sd	s3,8(sp)
    40001ce2:	e052                	sd	s4,0(sp)
    40001ce4:	842a                	mv	s0,a0
    40001ce6:	84ae                	mv	s1,a1
    40001ce8:	fcf5fde3          	bleu	a5,a1,40001cc2 <remove_chain+0xa>
    40001cec:	4a05                	li	s4,1
    40001cee:	59fd                	li	s3,-1
    40001cf0:	4c1c                	lw	a5,24(s0)
    40001cf2:	00f4fa63          	bleu	a5,s1,40001d06 <remove_chain+0x4e>
    40001cf6:	85a6                	mv	a1,s1
    40001cf8:	8522                	mv	a0,s0
    40001cfa:	ec8ff0ef          	jal	ra,400013c2 <get_fat>
    40001cfe:	0005091b          	sext.w	s2,a0
    40001d02:	00091463          	bnez	s2,40001d0a <remove_chain+0x52>
    40001d06:	4501                	li	a0,0
    40001d08:	bf75                	j	40001cc4 <remove_chain+0xc>
    40001d0a:	fb490ce3          	beq	s2,s4,40001cc2 <remove_chain+0xa>
    40001d0e:	03390763          	beq	s2,s3,40001d3c <remove_chain+0x84>
    40001d12:	4601                	li	a2,0
    40001d14:	85a6                	mv	a1,s1
    40001d16:	8522                	mv	a0,s0
    40001d18:	8afff0ef          	jal	ra,400015c6 <put_fat>
    40001d1c:	2501                	sext.w	a0,a0
    40001d1e:	f15d                	bnez	a0,40001cc4 <remove_chain+0xc>
    40001d20:	481c                	lw	a5,16(s0)
    40001d22:	01378a63          	beq	a5,s3,40001d36 <remove_chain+0x7e>
    40001d26:	2785                	addiw	a5,a5,1
    40001d28:	c81c                	sw	a5,16(s0)
    40001d2a:	00544783          	lbu	a5,5(s0)
    40001d2e:	0017e793          	ori	a5,a5,1
    40001d32:	00f402a3          	sb	a5,5(s0)
    40001d36:	0009049b          	sext.w	s1,s2
    40001d3a:	bf5d                	j	40001cf0 <remove_chain+0x38>
    40001d3c:	4505                	li	a0,1
    40001d3e:	b759                	j	40001cc4 <remove_chain+0xc>

0000000040001d40 <f_mount>:
    40001d40:	7139                	addi	sp,sp,-64
    40001d42:	ec2a                	sd	a0,24(sp)
    40001d44:	1028                	addi	a0,sp,40
    40001d46:	fc06                	sd	ra,56(sp)
    40001d48:	e82e                	sd	a1,16(sp)
    40001d4a:	e432                	sd	a2,8(sp)
    40001d4c:	f42e                	sd	a1,40(sp)
    40001d4e:	83eff0ef          	jal	ra,40000d8c <get_ldnumber>
    40001d52:	04054263          	bltz	a0,40001d96 <f_mount+0x56>
    40001d56:	00005797          	auipc	a5,0x5
    40001d5a:	f0278793          	addi	a5,a5,-254 # 40006c58 <FatFs>
    40001d5e:	050e                	slli	a0,a0,0x3
    40001d60:	00a78733          	add	a4,a5,a0
    40001d64:	6318                	ld	a4,0(a4)
    40001d66:	6622                	ld	a2,8(sp)
    40001d68:	c319                	beqz	a4,40001d6e <f_mount+0x2e>
    40001d6a:	00070023          	sb	zero,0(a4)
    40001d6e:	6762                	ld	a4,24(sp)
    40001d70:	c319                	beqz	a4,40001d76 <f_mount+0x36>
    40001d72:	00070023          	sb	zero,0(a4)
    40001d76:	97aa                	add	a5,a5,a0
    40001d78:	e398                	sd	a4,0(a5)
    40001d7a:	4501                	li	a0,0
    40001d7c:	cb11                	beqz	a4,40001d90 <f_mount+0x50>
    40001d7e:	4785                	li	a5,1
    40001d80:	00f61863          	bne	a2,a5,40001d90 <f_mount+0x50>
    40001d84:	4601                	li	a2,0
    40001d86:	080c                	addi	a1,sp,16
    40001d88:	0828                	addi	a0,sp,24
    40001d8a:	a0eff0ef          	jal	ra,40000f98 <find_volume>
    40001d8e:	2501                	sext.w	a0,a0
    40001d90:	70e2                	ld	ra,56(sp)
    40001d92:	6121                	addi	sp,sp,64
    40001d94:	8082                	ret
    40001d96:	452d                	li	a0,11
    40001d98:	bfe5                	j	40001d90 <f_mount+0x50>

0000000040001d9a <f_open>:
    40001d9a:	7175                	addi	sp,sp,-144
    40001d9c:	f8ca                	sd	s2,112(sp)
    40001d9e:	e506                	sd	ra,136(sp)
    40001da0:	e122                	sd	s0,128(sp)
    40001da2:	fca6                	sd	s1,120(sp)
    40001da4:	f4ce                	sd	s3,104(sp)
    40001da6:	f0d2                	sd	s4,96(sp)
    40001da8:	ecd6                	sd	s5,88(sp)
    40001daa:	e8da                	sd	s6,80(sp)
    40001dac:	e42e                	sd	a1,8(sp)
    40001dae:	4925                	li	s2,9
    40001db0:	14050d63          	beqz	a0,40001f0a <f_open+0x170>
    40001db4:	00053023          	sd	zero,0(a0)
    40001db8:	89b2                	mv	s3,a2
    40001dba:	84aa                	mv	s1,a0
    40001dbc:	8a79                	andi	a2,a2,30
    40001dbe:	002c                	addi	a1,sp,8
    40001dc0:	1028                	addi	a0,sp,40
    40001dc2:	9d6ff0ef          	jal	ra,40000f98 <find_volume>
    40001dc6:	0005091b          	sext.w	s2,a0
    40001dca:	14091063          	bnez	s2,40001f0a <f_open+0x170>
    40001dce:	65a2                	ld	a1,8(sp)
    40001dd0:	083c                	addi	a5,sp,24
    40001dd2:	1028                	addi	a0,sp,40
    40001dd4:	e4be                	sd	a5,72(sp)
    40001dd6:	b6dff0ef          	jal	ra,40001942 <follow_path>
    40001dda:	2501                	sext.w	a0,a0
    40001ddc:	6406                	ld	s0,64(sp)
    40001dde:	e119                	bnez	a0,40001de4 <f_open+0x4a>
    40001de0:	e011                	bnez	s0,40001de4 <f_open+0x4a>
    40001de2:	4519                	li	a0,6
    40001de4:	01c9f793          	andi	a5,s3,28
    40001de8:	01f9fa13          	andi	s4,s3,31
    40001dec:	c3e1                	beqz	a5,40001eac <f_open+0x112>
    40001dee:	c54d                	beqz	a0,40001e98 <f_open+0xfe>
    40001df0:	4791                	li	a5,4
    40001df2:	00f51663          	bne	a0,a5,40001dfe <f_open+0x64>
    40001df6:	1028                	addi	a0,sp,40
    40001df8:	e75ff0ef          	jal	ra,40001c6c <dir_register>
    40001dfc:	2501                	sext.w	a0,a0
    40001dfe:	008a6a13          	ori	s4,s4,8
    40001e02:	e949                	bnez	a0,40001e94 <f_open+0xfa>
    40001e04:	6406                	ld	s0,64(sp)
    40001e06:	008a7793          	andi	a5,s4,8
    40001e0a:	cfcd                	beqz	a5,40001ec4 <f_open+0x12a>
    40001e0c:	7aa2                	ld	s5,40(sp)
    40001e0e:	04600793          	li	a5,70
    40001e12:	02100713          	li	a4,33
    40001e16:	00f408a3          	sb	a5,17(s0)
    40001e1a:	00f40ca3          	sb	a5,25(s0)
    40001e1e:	00040723          	sb	zero,14(s0)
    40001e22:	000407a3          	sb	zero,15(s0)
    40001e26:	00e40823          	sb	a4,16(s0)
    40001e2a:	00040b23          	sb	zero,22(s0)
    40001e2e:	00040ba3          	sb	zero,23(s0)
    40001e32:	00e40c23          	sb	a4,24(s0)
    40001e36:	000405a3          	sb	zero,11(s0)
    40001e3a:	00040e23          	sb	zero,28(s0)
    40001e3e:	00040ea3          	sb	zero,29(s0)
    40001e42:	00040f23          	sb	zero,30(s0)
    40001e46:	00040fa3          	sb	zero,31(s0)
    40001e4a:	000ac503          	lbu	a0,0(s5)
    40001e4e:	85a2                	mv	a1,s0
    40001e50:	fc9fe0ef          	jal	ra,40000e18 <ld_clust.isra.0>
    40001e54:	4785                	li	a5,1
    40001e56:	00040d23          	sb	zero,26(s0)
    40001e5a:	00040da3          	sb	zero,27(s0)
    40001e5e:	00040a23          	sb	zero,20(s0)
    40001e62:	00040aa3          	sb	zero,21(s0)
    40001e66:	0005099b          	sext.w	s3,a0
    40001e6a:	00fa8223          	sb	a5,4(s5)
    40001e6e:	04098b63          	beqz	s3,40001ec4 <f_open+0x12a>
    40001e72:	85ce                	mv	a1,s3
    40001e74:	8556                	mv	a0,s5
    40001e76:	030aab03          	lw	s6,48(s5)
    40001e7a:	e3fff0ef          	jal	ra,40001cb8 <remove_chain>
    40001e7e:	2501                	sext.w	a0,a0
    40001e80:	e911                	bnez	a0,40001e94 <f_open+0xfa>
    40001e82:	7522                	ld	a0,40(sp)
    40001e84:	39fd                	addiw	s3,s3,-1
    40001e86:	85da                	mv	a1,s6
    40001e88:	01352623          	sw	s3,12(a0)
    40001e8c:	83aff0ef          	jal	ra,40000ec6 <move_window>
    40001e90:	2501                	sext.w	a0,a0
    40001e92:	c90d                	beqz	a0,40001ec4 <f_open+0x12a>
    40001e94:	892a                	mv	s2,a0
    40001e96:	a895                	j	40001f0a <f_open+0x170>
    40001e98:	00b44783          	lbu	a5,11(s0)
    40001e9c:	8bc5                	andi	a5,a5,17
    40001e9e:	e3d9                	bnez	a5,40001f24 <f_open+0x18a>
    40001ea0:	0049f993          	andi	s3,s3,4
    40001ea4:	f60981e3          	beqz	s3,40001e06 <f_open+0x6c>
    40001ea8:	4921                	li	s2,8
    40001eaa:	a085                	j	40001f0a <f_open+0x170>
    40001eac:	f565                	bnez	a0,40001e94 <f_open+0xfa>
    40001eae:	00b44783          	lbu	a5,11(s0)
    40001eb2:	0107f713          	andi	a4,a5,16
    40001eb6:	e72d                	bnez	a4,40001f20 <f_open+0x186>
    40001eb8:	0029f993          	andi	s3,s3,2
    40001ebc:	00098463          	beqz	s3,40001ec4 <f_open+0x12a>
    40001ec0:	8b85                	andi	a5,a5,1
    40001ec2:	e3ad                	bnez	a5,40001f24 <f_open+0x18a>
    40001ec4:	008a7793          	andi	a5,s4,8
    40001ec8:	c399                	beqz	a5,40001ece <f_open+0x134>
    40001eca:	020a6a13          	ori	s4,s4,32
    40001ece:	79a2                	ld	s3,40(sp)
    40001ed0:	85a2                	mv	a1,s0
    40001ed2:	0309a783          	lw	a5,48(s3)
    40001ed6:	f480                	sd	s0,40(s1)
    40001ed8:	01448523          	sb	s4,10(s1)
    40001edc:	d09c                	sw	a5,32(s1)
    40001ede:	000485a3          	sb	zero,11(s1)
    40001ee2:	0009c503          	lbu	a0,0(s3)
    40001ee6:	f33fe0ef          	jal	ra,40000e18 <ld_clust.isra.0>
    40001eea:	c8c8                	sw	a0,20(s1)
    40001eec:	01c40513          	addi	a0,s0,28
    40001ef0:	dbbfe0ef          	jal	ra,40000caa <LD_DWORD>
    40001ef4:	0069d783          	lhu	a5,6(s3)
    40001ef8:	c888                	sw	a0,16(s1)
    40001efa:	0004a623          	sw	zero,12(s1)
    40001efe:	0004ae23          	sw	zero,28(s1)
    40001f02:	0134b023          	sd	s3,0(s1)
    40001f06:	00f49423          	sh	a5,8(s1)
    40001f0a:	60aa                	ld	ra,136(sp)
    40001f0c:	640a                	ld	s0,128(sp)
    40001f0e:	854a                	mv	a0,s2
    40001f10:	74e6                	ld	s1,120(sp)
    40001f12:	7946                	ld	s2,112(sp)
    40001f14:	79a6                	ld	s3,104(sp)
    40001f16:	7a06                	ld	s4,96(sp)
    40001f18:	6ae6                	ld	s5,88(sp)
    40001f1a:	6b46                	ld	s6,80(sp)
    40001f1c:	6149                	addi	sp,sp,144
    40001f1e:	8082                	ret
    40001f20:	4911                	li	s2,4
    40001f22:	b7e5                	j	40001f0a <f_open+0x170>
    40001f24:	491d                	li	s2,7
    40001f26:	b7d5                	j	40001f0a <f_open+0x170>

0000000040001f28 <f_read>:
    40001f28:	7119                	addi	sp,sp,-128
    40001f2a:	f8a2                	sd	s0,112(sp)
    40001f2c:	ecce                	sd	s3,88(sp)
    40001f2e:	e8d2                	sd	s4,80(sp)
    40001f30:	e4d6                	sd	s5,72(sp)
    40001f32:	fc86                	sd	ra,120(sp)
    40001f34:	f4a6                	sd	s1,104(sp)
    40001f36:	f0ca                	sd	s2,96(sp)
    40001f38:	e0da                	sd	s6,64(sp)
    40001f3a:	fc5e                	sd	s7,56(sp)
    40001f3c:	f862                	sd	s8,48(sp)
    40001f3e:	f466                	sd	s9,40(sp)
    40001f40:	f06a                	sd	s10,32(sp)
    40001f42:	ec6e                	sd	s11,24(sp)
    40001f44:	0006a023          	sw	zero,0(a3) # 1000 <_tbss_end+0x1000>
    40001f48:	842a                	mv	s0,a0
    40001f4a:	8a2e                	mv	s4,a1
    40001f4c:	e432                	sd	a2,8(sp)
    40001f4e:	8ab6                	mv	s5,a3
    40001f50:	e91fe0ef          	jal	ra,40000de0 <validate>
    40001f54:	0005099b          	sext.w	s3,a0
    40001f58:	00099863          	bnez	s3,40001f68 <f_read+0x40>
    40001f5c:	00b44783          	lbu	a5,11(s0)
    40001f60:	6622                	ld	a2,8(sp)
    40001f62:	c39d                	beqz	a5,40001f88 <f_read+0x60>
    40001f64:	0007899b          	sext.w	s3,a5
    40001f68:	70e6                	ld	ra,120(sp)
    40001f6a:	7446                	ld	s0,112(sp)
    40001f6c:	854e                	mv	a0,s3
    40001f6e:	74a6                	ld	s1,104(sp)
    40001f70:	7906                	ld	s2,96(sp)
    40001f72:	69e6                	ld	s3,88(sp)
    40001f74:	6a46                	ld	s4,80(sp)
    40001f76:	6aa6                	ld	s5,72(sp)
    40001f78:	6b06                	ld	s6,64(sp)
    40001f7a:	7be2                	ld	s7,56(sp)
    40001f7c:	7c42                	ld	s8,48(sp)
    40001f7e:	7ca2                	ld	s9,40(sp)
    40001f80:	7d02                	ld	s10,32(sp)
    40001f82:	6de2                	ld	s11,24(sp)
    40001f84:	6109                	addi	sp,sp,128
    40001f86:	8082                	ret
    40001f88:	00a44783          	lbu	a5,10(s0)
    40001f8c:	8b85                	andi	a5,a5,1
    40001f8e:	16078963          	beqz	a5,40002100 <f_read+0x1d8>
    40001f92:	01042903          	lw	s2,16(s0)
    40001f96:	445c                	lw	a5,12(s0)
    40001f98:	40f907bb          	subw	a5,s2,a5
    40001f9c:	893e                	mv	s2,a5
    40001f9e:	00f67463          	bleu	a5,a2,40001fa6 <f_read+0x7e>
    40001fa2:	0006091b          	sext.w	s2,a2
    40001fa6:	20000b93          	li	s7,512
    40001faa:	03040b13          	addi	s6,s0,48
    40001fae:	5c7d                	li	s8,-1
    40001fb0:	fa090ce3          	beqz	s2,40001f68 <f_read+0x40>
    40001fb4:	4458                	lw	a4,12(s0)
    40001fb6:	1ff77793          	andi	a5,a4,511
    40001fba:	12079063          	bnez	a5,400020da <f_read+0x1b2>
    40001fbe:	6008                	ld	a0,0(s0)
    40001fc0:	00975c9b          	srliw	s9,a4,0x9
    40001fc4:	00254783          	lbu	a5,2(a0)
    40001fc8:	37fd                	addiw	a5,a5,-1
    40001fca:	0197fcb3          	and	s9,a5,s9
    40001fce:	0ffcfc93          	andi	s9,s9,255
    40001fd2:	020c9963          	bnez	s9,40002004 <f_read+0xdc>
    40001fd6:	eb11                	bnez	a4,40001fea <f_read+0xc2>
    40001fd8:	4848                	lw	a0,20(s0)
    40001fda:	4785                	li	a5,1
    40001fdc:	00a7ec63          	bltu	a5,a0,40001ff4 <f_read+0xcc>
    40001fe0:	4789                	li	a5,2
    40001fe2:	00f405a3          	sb	a5,11(s0)
    40001fe6:	4989                	li	s3,2
    40001fe8:	b741                	j	40001f68 <f_read+0x40>
    40001fea:	4c0c                	lw	a1,24(s0)
    40001fec:	bd6ff0ef          	jal	ra,400013c2 <get_fat>
    40001ff0:	2501                	sext.w	a0,a0
    40001ff2:	b7e5                	j	40001fda <f_read+0xb2>
    40001ff4:	01851763          	bne	a0,s8,40002002 <f_read+0xda>
    40001ff8:	4785                	li	a5,1
    40001ffa:	00f405a3          	sb	a5,11(s0)
    40001ffe:	4985                	li	s3,1
    40002000:	b7a5                	j	40001f68 <f_read+0x40>
    40002002:	cc08                	sw	a0,24(s0)
    40002004:	00043d83          	ld	s11,0(s0)
    40002008:	4c0c                	lw	a1,24(s0)
    4000200a:	856e                	mv	a0,s11
    4000200c:	b98ff0ef          	jal	ra,400013a4 <clust2sect>
    40002010:	2501                	sext.w	a0,a0
    40002012:	d579                	beqz	a0,40001fe0 <f_read+0xb8>
    40002014:	000c861b          	sext.w	a2,s9
    40002018:	0099579b          	srliw	a5,s2,0x9
    4000201c:	00a6073b          	addw	a4,a2,a0
    40002020:	0007849b          	sext.w	s1,a5
    40002024:	8d3a                	mv	s10,a4
    40002026:	c4b5                	beqz	s1,40002092 <f_read+0x16a>
    40002028:	002dc683          	lbu	a3,2(s11)
    4000202c:	9fb1                	addw	a5,a5,a2
    4000202e:	00f6f463          	bleu	a5,a3,40002036 <f_read+0x10e>
    40002032:	419684bb          	subw	s1,a3,s9
    40002036:	001dc503          	lbu	a0,1(s11)
    4000203a:	86a6                	mv	a3,s1
    4000203c:	863a                	mv	a2,a4
    4000203e:	85d2                	mv	a1,s4
    40002040:	06d030ef          	jal	ra,400058ac <disk_read>
    40002044:	2501                	sext.w	a0,a0
    40002046:	f94d                	bnez	a0,40001ff8 <f_read+0xd0>
    40002048:	00a44783          	lbu	a5,10(s0)
    4000204c:	0407f793          	andi	a5,a5,64
    40002050:	c385                	beqz	a5,40002070 <f_read+0x148>
    40002052:	4c48                	lw	a0,28(s0)
    40002054:	41a507bb          	subw	a5,a0,s10
    40002058:	0097fc63          	bleu	s1,a5,40002070 <f_read+0x148>
    4000205c:	0097951b          	slliw	a0,a5,0x9
    40002060:	1502                	slli	a0,a0,0x20
    40002062:	9101                	srli	a0,a0,0x20
    40002064:	20000613          	li	a2,512
    40002068:	85da                	mv	a1,s6
    4000206a:	9552                	add	a0,a0,s4
    4000206c:	c5ffe0ef          	jal	ra,40000cca <mem_cpy>
    40002070:	0094949b          	slliw	s1,s1,0x9
    40002074:	02049793          	slli	a5,s1,0x20
    40002078:	9381                	srli	a5,a5,0x20
    4000207a:	9a3e                	add	s4,s4,a5
    4000207c:	445c                	lw	a5,12(s0)
    4000207e:	4099093b          	subw	s2,s2,s1
    40002082:	9fa5                	addw	a5,a5,s1
    40002084:	c45c                	sw	a5,12(s0)
    40002086:	000aa783          	lw	a5,0(s5)
    4000208a:	9fa5                	addw	a5,a5,s1
    4000208c:	00faa023          	sw	a5,0(s5)
    40002090:	b705                	j	40001fb0 <f_read+0x88>
    40002092:	4c50                	lw	a2,28(s0)
    40002094:	04e60163          	beq	a2,a4,400020d6 <f_read+0x1ae>
    40002098:	00a44783          	lbu	a5,10(s0)
    4000209c:	0407f793          	andi	a5,a5,64
    400020a0:	c38d                	beqz	a5,400020c2 <f_read+0x19a>
    400020a2:	001dc503          	lbu	a0,1(s11)
    400020a6:	4685                	li	a3,1
    400020a8:	85da                	mv	a1,s6
    400020aa:	e43a                	sd	a4,8(sp)
    400020ac:	065030ef          	jal	ra,40005910 <disk_write>
    400020b0:	2501                	sext.w	a0,a0
    400020b2:	f139                	bnez	a0,40001ff8 <f_read+0xd0>
    400020b4:	00a44783          	lbu	a5,10(s0)
    400020b8:	6722                	ld	a4,8(sp)
    400020ba:	fbf7f793          	andi	a5,a5,-65
    400020be:	00f40523          	sb	a5,10(s0)
    400020c2:	601c                	ld	a5,0(s0)
    400020c4:	4685                	li	a3,1
    400020c6:	863a                	mv	a2,a4
    400020c8:	0017c503          	lbu	a0,1(a5)
    400020cc:	85da                	mv	a1,s6
    400020ce:	7de030ef          	jal	ra,400058ac <disk_read>
    400020d2:	2501                	sext.w	a0,a0
    400020d4:	f115                	bnez	a0,40001ff8 <f_read+0xd0>
    400020d6:	01a42e23          	sw	s10,28(s0)
    400020da:	444c                	lw	a1,12(s0)
    400020dc:	0009049b          	sext.w	s1,s2
    400020e0:	1ff5f593          	andi	a1,a1,511
    400020e4:	40bb87bb          	subw	a5,s7,a1
    400020e8:	0127f463          	bleu	s2,a5,400020f0 <f_read+0x1c8>
    400020ec:	0007849b          	sext.w	s1,a5
    400020f0:	03058593          	addi	a1,a1,48
    400020f4:	8626                	mv	a2,s1
    400020f6:	95a2                	add	a1,a1,s0
    400020f8:	8552                	mv	a0,s4
    400020fa:	bd1fe0ef          	jal	ra,40000cca <mem_cpy>
    400020fe:	bf9d                	j	40002074 <f_read+0x14c>
    40002100:	499d                	li	s3,7
    40002102:	b59d                	j	40001f68 <f_read+0x40>

0000000040002104 <f_write>:
    40002104:	7159                	addi	sp,sp,-112
    40002106:	f0a2                	sd	s0,96(sp)
    40002108:	e8ca                	sd	s2,80(sp)
    4000210a:	e4ce                	sd	s3,72(sp)
    4000210c:	e0d2                	sd	s4,64(sp)
    4000210e:	fc56                	sd	s5,56(sp)
    40002110:	f486                	sd	ra,104(sp)
    40002112:	eca6                	sd	s1,88(sp)
    40002114:	f85a                	sd	s6,48(sp)
    40002116:	f45e                	sd	s7,40(sp)
    40002118:	f062                	sd	s8,32(sp)
    4000211a:	ec66                	sd	s9,24(sp)
    4000211c:	e86a                	sd	s10,16(sp)
    4000211e:	e46e                	sd	s11,8(sp)
    40002120:	0006a023          	sw	zero,0(a3)
    40002124:	842a                	mv	s0,a0
    40002126:	8a2e                	mv	s4,a1
    40002128:	8932                	mv	s2,a2
    4000212a:	8ab6                	mv	s5,a3
    4000212c:	cb5fe0ef          	jal	ra,40000de0 <validate>
    40002130:	0005099b          	sext.w	s3,a0
    40002134:	00099763          	bnez	s3,40002142 <f_write+0x3e>
    40002138:	00b44783          	lbu	a5,11(s0)
    4000213c:	c39d                	beqz	a5,40002162 <f_write+0x5e>
    4000213e:	0007899b          	sext.w	s3,a5
    40002142:	70a6                	ld	ra,104(sp)
    40002144:	7406                	ld	s0,96(sp)
    40002146:	854e                	mv	a0,s3
    40002148:	64e6                	ld	s1,88(sp)
    4000214a:	6946                	ld	s2,80(sp)
    4000214c:	69a6                	ld	s3,72(sp)
    4000214e:	6a06                	ld	s4,64(sp)
    40002150:	7ae2                	ld	s5,56(sp)
    40002152:	7b42                	ld	s6,48(sp)
    40002154:	7ba2                	ld	s7,40(sp)
    40002156:	7c02                	ld	s8,32(sp)
    40002158:	6ce2                	ld	s9,24(sp)
    4000215a:	6d42                	ld	s10,16(sp)
    4000215c:	6da2                	ld	s11,8(sp)
    4000215e:	6165                	addi	sp,sp,112
    40002160:	8082                	ret
    40002162:	00a44783          	lbu	a5,10(s0)
    40002166:	8b89                	andi	a5,a5,2
    40002168:	18078f63          	beqz	a5,40002306 <f_write+0x202>
    4000216c:	445c                	lw	a5,12(s0)
    4000216e:	0127873b          	addw	a4,a5,s2
    40002172:	04f76c63          	bltu	a4,a5,400021ca <f_write+0xc6>
    40002176:	20000b93          	li	s7,512
    4000217a:	03040b13          	addi	s6,s0,48
    4000217e:	5c7d                	li	s8,-1
    40002180:	4458                	lw	a4,12(s0)
    40002182:	04090463          	beqz	s2,400021ca <f_write+0xc6>
    40002186:	1ff77793          	andi	a5,a4,511
    4000218a:	14079363          	bnez	a5,400022d0 <f_write+0x1cc>
    4000218e:	6008                	ld	a0,0(s0)
    40002190:	00975c9b          	srliw	s9,a4,0x9
    40002194:	00254783          	lbu	a5,2(a0)
    40002198:	37fd                	addiw	a5,a5,-1
    4000219a:	0197fcb3          	and	s9,a5,s9
    4000219e:	0ffcfc93          	andi	s9,s9,255
    400021a2:	040c9a63          	bnez	s9,400021f6 <f_write+0xf2>
    400021a6:	ef01                	bnez	a4,400021be <f_write+0xba>
    400021a8:	485c                	lw	a5,20(s0)
    400021aa:	4581                	li	a1,0
    400021ac:	cb91                	beqz	a5,400021c0 <f_write+0xbc>
    400021ae:	4705                	li	a4,1
    400021b0:	02e79863          	bne	a5,a4,400021e0 <f_write+0xdc>
    400021b4:	4789                	li	a5,2
    400021b6:	00f405a3          	sb	a5,11(s0)
    400021ba:	4989                	li	s3,2
    400021bc:	b759                	j	40002142 <f_write+0x3e>
    400021be:	4c0c                	lw	a1,24(s0)
    400021c0:	d86ff0ef          	jal	ra,40001746 <create_chain>
    400021c4:	0005079b          	sext.w	a5,a0
    400021c8:	f3fd                	bnez	a5,400021ae <f_write+0xaa>
    400021ca:	445c                	lw	a5,12(s0)
    400021cc:	4818                	lw	a4,16(s0)
    400021ce:	12f76a63          	bltu	a4,a5,40002302 <f_write+0x1fe>
    400021d2:	00a44783          	lbu	a5,10(s0)
    400021d6:	0207e793          	ori	a5,a5,32
    400021da:	00f40523          	sb	a5,10(s0)
    400021de:	b795                	j	40002142 <f_write+0x3e>
    400021e0:	01879763          	bne	a5,s8,400021ee <f_write+0xea>
    400021e4:	4785                	li	a5,1
    400021e6:	00f405a3          	sb	a5,11(s0)
    400021ea:	4985                	li	s3,1
    400021ec:	bf99                	j	40002142 <f_write+0x3e>
    400021ee:	4858                	lw	a4,20(s0)
    400021f0:	cc1c                	sw	a5,24(s0)
    400021f2:	e311                	bnez	a4,400021f6 <f_write+0xf2>
    400021f4:	c85c                	sw	a5,20(s0)
    400021f6:	00a44783          	lbu	a5,10(s0)
    400021fa:	0407f793          	andi	a5,a5,64
    400021fe:	c38d                	beqz	a5,40002220 <f_write+0x11c>
    40002200:	601c                	ld	a5,0(s0)
    40002202:	4c50                	lw	a2,28(s0)
    40002204:	4685                	li	a3,1
    40002206:	0017c503          	lbu	a0,1(a5)
    4000220a:	85da                	mv	a1,s6
    4000220c:	704030ef          	jal	ra,40005910 <disk_write>
    40002210:	2501                	sext.w	a0,a0
    40002212:	f969                	bnez	a0,400021e4 <f_write+0xe0>
    40002214:	00a44783          	lbu	a5,10(s0)
    40002218:	fbf7f793          	andi	a5,a5,-65
    4000221c:	00f40523          	sb	a5,10(s0)
    40002220:	00043d83          	ld	s11,0(s0)
    40002224:	4c0c                	lw	a1,24(s0)
    40002226:	856e                	mv	a0,s11
    40002228:	97cff0ef          	jal	ra,400013a4 <clust2sect>
    4000222c:	2501                	sext.w	a0,a0
    4000222e:	d159                	beqz	a0,400021b4 <f_write+0xb0>
    40002230:	000c869b          	sext.w	a3,s9
    40002234:	0099579b          	srliw	a5,s2,0x9
    40002238:	00a6863b          	addw	a2,a3,a0
    4000223c:	0007849b          	sext.w	s1,a5
    40002240:	8d32                	mv	s10,a2
    40002242:	c4b5                	beqz	s1,400022ae <f_write+0x1aa>
    40002244:	002dc703          	lbu	a4,2(s11)
    40002248:	9fb5                	addw	a5,a5,a3
    4000224a:	00f77463          	bleu	a5,a4,40002252 <f_write+0x14e>
    4000224e:	419704bb          	subw	s1,a4,s9
    40002252:	001dc503          	lbu	a0,1(s11)
    40002256:	86a6                	mv	a3,s1
    40002258:	85d2                	mv	a1,s4
    4000225a:	6b6030ef          	jal	ra,40005910 <disk_write>
    4000225e:	2501                	sext.w	a0,a0
    40002260:	f151                	bnez	a0,400021e4 <f_write+0xe0>
    40002262:	4c4c                	lw	a1,28(s0)
    40002264:	41a587bb          	subw	a5,a1,s10
    40002268:	0297f263          	bleu	s1,a5,4000228c <f_write+0x188>
    4000226c:	0097959b          	slliw	a1,a5,0x9
    40002270:	1582                	slli	a1,a1,0x20
    40002272:	9181                	srli	a1,a1,0x20
    40002274:	20000613          	li	a2,512
    40002278:	95d2                	add	a1,a1,s4
    4000227a:	855a                	mv	a0,s6
    4000227c:	a4ffe0ef          	jal	ra,40000cca <mem_cpy>
    40002280:	00a44783          	lbu	a5,10(s0)
    40002284:	fbf7f793          	andi	a5,a5,-65
    40002288:	00f40523          	sb	a5,10(s0)
    4000228c:	0094949b          	slliw	s1,s1,0x9
    40002290:	02049793          	slli	a5,s1,0x20
    40002294:	9381                	srli	a5,a5,0x20
    40002296:	9a3e                	add	s4,s4,a5
    40002298:	445c                	lw	a5,12(s0)
    4000229a:	4099093b          	subw	s2,s2,s1
    4000229e:	9fa5                	addw	a5,a5,s1
    400022a0:	c45c                	sw	a5,12(s0)
    400022a2:	000aa783          	lw	a5,0(s5)
    400022a6:	9fa5                	addw	a5,a5,s1
    400022a8:	00faa023          	sw	a5,0(s5)
    400022ac:	bdd1                	j	40002180 <f_write+0x7c>
    400022ae:	4c5c                	lw	a5,28(s0)
    400022b0:	00c78e63          	beq	a5,a2,400022cc <f_write+0x1c8>
    400022b4:	4818                	lw	a4,16(s0)
    400022b6:	445c                	lw	a5,12(s0)
    400022b8:	00e7fa63          	bleu	a4,a5,400022cc <f_write+0x1c8>
    400022bc:	001dc503          	lbu	a0,1(s11)
    400022c0:	4685                	li	a3,1
    400022c2:	85da                	mv	a1,s6
    400022c4:	5e8030ef          	jal	ra,400058ac <disk_read>
    400022c8:	2501                	sext.w	a0,a0
    400022ca:	fd09                	bnez	a0,400021e4 <f_write+0xe0>
    400022cc:	01a42e23          	sw	s10,28(s0)
    400022d0:	4448                	lw	a0,12(s0)
    400022d2:	0009049b          	sext.w	s1,s2
    400022d6:	1ff57513          	andi	a0,a0,511
    400022da:	40ab87bb          	subw	a5,s7,a0
    400022de:	0127f463          	bleu	s2,a5,400022e6 <f_write+0x1e2>
    400022e2:	0007849b          	sext.w	s1,a5
    400022e6:	03050513          	addi	a0,a0,48
    400022ea:	8626                	mv	a2,s1
    400022ec:	85d2                	mv	a1,s4
    400022ee:	9522                	add	a0,a0,s0
    400022f0:	9dbfe0ef          	jal	ra,40000cca <mem_cpy>
    400022f4:	00a44783          	lbu	a5,10(s0)
    400022f8:	0407e793          	ori	a5,a5,64
    400022fc:	00f40523          	sb	a5,10(s0)
    40002300:	bf41                	j	40002290 <f_write+0x18c>
    40002302:	c81c                	sw	a5,16(s0)
    40002304:	b5f9                	j	400021d2 <f_write+0xce>
    40002306:	499d                	li	s3,7
    40002308:	bd2d                	j	40002142 <f_write+0x3e>

000000004000230a <f_sync>:
    4000230a:	1141                	addi	sp,sp,-16
    4000230c:	e022                	sd	s0,0(sp)
    4000230e:	e406                	sd	ra,8(sp)
    40002310:	842a                	mv	s0,a0
    40002312:	acffe0ef          	jal	ra,40000de0 <validate>
    40002316:	2501                	sext.w	a0,a0
    40002318:	e175                	bnez	a0,400023fc <f_sync+0xf2>
    4000231a:	00a44783          	lbu	a5,10(s0)
    4000231e:	0207f713          	andi	a4,a5,32
    40002322:	cf69                	beqz	a4,400023fc <f_sync+0xf2>
    40002324:	0407f793          	andi	a5,a5,64
    40002328:	c395                	beqz	a5,4000234c <f_sync+0x42>
    4000232a:	601c                	ld	a5,0(s0)
    4000232c:	4c50                	lw	a2,28(s0)
    4000232e:	4685                	li	a3,1
    40002330:	0017c503          	lbu	a0,1(a5)
    40002334:	03040593          	addi	a1,s0,48
    40002338:	5d8030ef          	jal	ra,40005910 <disk_write>
    4000233c:	2501                	sext.w	a0,a0
    4000233e:	ed55                	bnez	a0,400023fa <f_sync+0xf0>
    40002340:	00a44783          	lbu	a5,10(s0)
    40002344:	fbf7f793          	andi	a5,a5,-65
    40002348:	00f40523          	sb	a5,10(s0)
    4000234c:	500c                	lw	a1,32(s0)
    4000234e:	6008                	ld	a0,0(s0)
    40002350:	b77fe0ef          	jal	ra,40000ec6 <move_window>
    40002354:	2501                	sext.w	a0,a0
    40002356:	e15d                	bnez	a0,400023fc <f_sync+0xf2>
    40002358:	741c                	ld	a5,40(s0)
    4000235a:	00b7c703          	lbu	a4,11(a5)
    4000235e:	02076713          	ori	a4,a4,32
    40002362:	00e785a3          	sb	a4,11(a5)
    40002366:	4818                	lw	a4,16(s0)
    40002368:	0107169b          	slliw	a3,a4,0x10
    4000236c:	0106d69b          	srliw	a3,a3,0x10
    40002370:	0086d69b          	srliw	a3,a3,0x8
    40002374:	00e78e23          	sb	a4,28(a5)
    40002378:	00d78ea3          	sb	a3,29(a5)
    4000237c:	0107569b          	srliw	a3,a4,0x10
    40002380:	0187571b          	srliw	a4,a4,0x18
    40002384:	00d78f23          	sb	a3,30(a5)
    40002388:	00e78fa3          	sb	a4,31(a5)
    4000238c:	4858                	lw	a4,20(s0)
    4000238e:	00078b23          	sb	zero,22(a5)
    40002392:	00078ba3          	sb	zero,23(a5)
    40002396:	00e78d23          	sb	a4,26(a5)
    4000239a:	0107169b          	slliw	a3,a4,0x10
    4000239e:	0107571b          	srliw	a4,a4,0x10
    400023a2:	2701                	sext.w	a4,a4
    400023a4:	00e78a23          	sb	a4,20(a5)
    400023a8:	0107171b          	slliw	a4,a4,0x10
    400023ac:	0107571b          	srliw	a4,a4,0x10
    400023b0:	0087571b          	srliw	a4,a4,0x8
    400023b4:	00e78aa3          	sb	a4,21(a5)
    400023b8:	0106d69b          	srliw	a3,a3,0x10
    400023bc:	02100713          	li	a4,33
    400023c0:	00e78c23          	sb	a4,24(a5)
    400023c4:	0086d69b          	srliw	a3,a3,0x8
    400023c8:	04600713          	li	a4,70
    400023cc:	00d78da3          	sb	a3,27(a5)
    400023d0:	00e78ca3          	sb	a4,25(a5)
    400023d4:	00078923          	sb	zero,18(a5)
    400023d8:	000789a3          	sb	zero,19(a5)
    400023dc:	00a44783          	lbu	a5,10(s0)
    400023e0:	6008                	ld	a0,0(s0)
    400023e2:	fdf7f793          	andi	a5,a5,-33
    400023e6:	00f40523          	sb	a5,10(s0)
    400023ea:	4785                	li	a5,1
    400023ec:	00f50223          	sb	a5,4(a0)
    400023f0:	6402                	ld	s0,0(sp)
    400023f2:	60a2                	ld	ra,8(sp)
    400023f4:	0141                	addi	sp,sp,16
    400023f6:	ebbfe06f          	j	400012b0 <sync_fs>
    400023fa:	4505                	li	a0,1
    400023fc:	60a2                	ld	ra,8(sp)
    400023fe:	6402                	ld	s0,0(sp)
    40002400:	0141                	addi	sp,sp,16
    40002402:	8082                	ret

0000000040002404 <f_close>:
    40002404:	1141                	addi	sp,sp,-16
    40002406:	e022                	sd	s0,0(sp)
    40002408:	e406                	sd	ra,8(sp)
    4000240a:	842a                	mv	s0,a0
    4000240c:	effff0ef          	jal	ra,4000230a <f_sync>
    40002410:	2501                	sext.w	a0,a0
    40002412:	e901                	bnez	a0,40002422 <f_close+0x1e>
    40002414:	8522                	mv	a0,s0
    40002416:	9cbfe0ef          	jal	ra,40000de0 <validate>
    4000241a:	2501                	sext.w	a0,a0
    4000241c:	e119                	bnez	a0,40002422 <f_close+0x1e>
    4000241e:	00043023          	sd	zero,0(s0)
    40002422:	60a2                	ld	ra,8(sp)
    40002424:	6402                	ld	s0,0(sp)
    40002426:	0141                	addi	sp,sp,16
    40002428:	8082                	ret

000000004000242a <f_chdrive>:
    4000242a:	1101                	addi	sp,sp,-32
    4000242c:	e42a                	sd	a0,8(sp)
    4000242e:	0028                	addi	a0,sp,8
    40002430:	ec06                	sd	ra,24(sp)
    40002432:	95bfe0ef          	jal	ra,40000d8c <get_ldnumber>
    40002436:	00054a63          	bltz	a0,4000244a <f_chdrive+0x20>
    4000243a:	00004797          	auipc	a5,0x4
    4000243e:	7aa78d23          	sb	a0,1978(a5) # 40006bf4 <CurrVol>
    40002442:	4501                	li	a0,0
    40002444:	60e2                	ld	ra,24(sp)
    40002446:	6105                	addi	sp,sp,32
    40002448:	8082                	ret
    4000244a:	452d                	li	a0,11
    4000244c:	bfe5                	j	40002444 <f_chdrive+0x1a>

000000004000244e <f_chdir>:
    4000244e:	7159                	addi	sp,sp,-112
    40002450:	e42a                	sd	a0,8(sp)
    40002452:	4601                	li	a2,0
    40002454:	002c                	addi	a1,sp,8
    40002456:	1028                	addi	a0,sp,40
    40002458:	f0a2                	sd	s0,96(sp)
    4000245a:	f486                	sd	ra,104(sp)
    4000245c:	eca6                	sd	s1,88(sp)
    4000245e:	b3bfe0ef          	jal	ra,40000f98 <find_volume>
    40002462:	0005041b          	sext.w	s0,a0
    40002466:	ec19                	bnez	s0,40002484 <f_chdir+0x36>
    40002468:	65a2                	ld	a1,8(sp)
    4000246a:	083c                	addi	a5,sp,24
    4000246c:	1028                	addi	a0,sp,40
    4000246e:	e4be                	sd	a5,72(sp)
    40002470:	cd2ff0ef          	jal	ra,40001942 <follow_path>
    40002474:	0005041b          	sext.w	s0,a0
    40002478:	e41d                	bnez	s0,400024a6 <f_chdir+0x58>
    4000247a:	6586                	ld	a1,64(sp)
    4000247c:	e991                	bnez	a1,40002490 <f_chdir+0x42>
    4000247e:	77a2                	ld	a5,40(sp)
    40002480:	5752                	lw	a4,52(sp)
    40002482:	cbd8                	sw	a4,20(a5)
    40002484:	8522                	mv	a0,s0
    40002486:	70a6                	ld	ra,104(sp)
    40002488:	7406                	ld	s0,96(sp)
    4000248a:	64e6                	ld	s1,88(sp)
    4000248c:	6165                	addi	sp,sp,112
    4000248e:	8082                	ret
    40002490:	00b5c783          	lbu	a5,11(a1)
    40002494:	8bc1                	andi	a5,a5,16
    40002496:	cb99                	beqz	a5,400024ac <f_chdir+0x5e>
    40002498:	74a2                	ld	s1,40(sp)
    4000249a:	0004c503          	lbu	a0,0(s1)
    4000249e:	97bfe0ef          	jal	ra,40000e18 <ld_clust.isra.0>
    400024a2:	c8c8                	sw	a0,20(s1)
    400024a4:	b7c5                	j	40002484 <f_chdir+0x36>
    400024a6:	4791                	li	a5,4
    400024a8:	fcf41ee3          	bne	s0,a5,40002484 <f_chdir+0x36>
    400024ac:	4415                	li	s0,5
    400024ae:	bfd9                	j	40002484 <f_chdir+0x36>

00000000400024b0 <f_getcwd>:
    400024b0:	7175                	addi	sp,sp,-144
    400024b2:	fca6                	sd	s1,120(sp)
    400024b4:	e42a                	sd	a0,8(sp)
    400024b6:	e506                	sd	ra,136(sp)
    400024b8:	e122                	sd	s0,128(sp)
    400024ba:	f8ca                	sd	s2,112(sp)
    400024bc:	f4ce                	sd	s3,104(sp)
    400024be:	f0d2                	sd	s4,96(sp)
    400024c0:	00050023          	sb	zero,0(a0)
    400024c4:	84ae                	mv	s1,a1
    400024c6:	4601                	li	a2,0
    400024c8:	002c                	addi	a1,sp,8
    400024ca:	1828                	addi	a0,sp,56
    400024cc:	acdfe0ef          	jal	ra,40000f98 <find_volume>
    400024d0:	2501                	sext.w	a0,a0
    400024d2:	e529                	bnez	a0,4000251c <f_getcwd+0x6c>
    400024d4:	081c                	addi	a5,sp,16
    400024d6:	ecbe                	sd	a5,88(sp)
    400024d8:	77e2                	ld	a5,56(sp)
    400024da:	8426                	mv	s0,s1
    400024dc:	597d                	li	s2,-1
    400024de:	4bdc                	lw	a5,20(a5)
    400024e0:	02f00993          	li	s3,47
    400024e4:	c2be                	sw	a5,68(sp)
    400024e6:	4a16                	lw	s4,68(sp)
    400024e8:	040a1263          	bnez	s4,4000252c <f_getcwd+0x7c>
    400024ec:	4501                	li	a0,0
    400024ee:	67a2                	ld	a5,8(sp)
    400024f0:	e505                	bnez	a0,40002518 <f_getcwd+0x68>
    400024f2:	00004717          	auipc	a4,0x4
    400024f6:	70274703          	lbu	a4,1794(a4) # 40006bf4 <CurrVol>
    400024fa:	0307071b          	addiw	a4,a4,48
    400024fe:	00e78023          	sb	a4,0(a5)
    40002502:	03a00713          	li	a4,58
    40002506:	00e780a3          	sb	a4,1(a5)
    4000250a:	0e941863          	bne	s0,s1,400025fa <f_getcwd+0x14a>
    4000250e:	02f00713          	li	a4,47
    40002512:	00e78123          	sb	a4,2(a5)
    40002516:	078d                	addi	a5,a5,3
    40002518:	00078023          	sb	zero,0(a5)
    4000251c:	60aa                	ld	ra,136(sp)
    4000251e:	640a                	ld	s0,128(sp)
    40002520:	74e6                	ld	s1,120(sp)
    40002522:	7946                	ld	s2,112(sp)
    40002524:	79a6                	ld	s3,104(sp)
    40002526:	7a06                	ld	s4,96(sp)
    40002528:	6149                	addi	sp,sp,144
    4000252a:	8082                	ret
    4000252c:	4585                	li	a1,1
    4000252e:	1828                	addi	a0,sp,56
    40002530:	f89fe0ef          	jal	ra,400014b8 <dir_sdi>
    40002534:	2501                	sext.w	a0,a0
    40002536:	fd45                	bnez	a0,400024ee <f_getcwd+0x3e>
    40002538:	4581                	li	a1,0
    4000253a:	1828                	addi	a0,sp,56
    4000253c:	e6eff0ef          	jal	ra,40001baa <dir_read>
    40002540:	2501                	sext.w	a0,a0
    40002542:	f555                	bnez	a0,400024ee <f_getcwd+0x3e>
    40002544:	77e2                	ld	a5,56(sp)
    40002546:	65c6                	ld	a1,80(sp)
    40002548:	0007c503          	lbu	a0,0(a5)
    4000254c:	8cdfe0ef          	jal	ra,40000e18 <ld_clust.isra.0>
    40002550:	c2aa                	sw	a0,68(sp)
    40002552:	4581                	li	a1,0
    40002554:	1828                	addi	a0,sp,56
    40002556:	f63fe0ef          	jal	ra,400014b8 <dir_sdi>
    4000255a:	2501                	sext.w	a0,a0
    4000255c:	f949                	bnez	a0,400024ee <f_getcwd+0x3e>
    4000255e:	4581                	li	a1,0
    40002560:	1828                	addi	a0,sp,56
    40002562:	e48ff0ef          	jal	ra,40001baa <dir_read>
    40002566:	2501                	sext.w	a0,a0
    40002568:	e105                	bnez	a0,40002588 <f_getcwd+0xd8>
    4000256a:	77e2                	ld	a5,56(sp)
    4000256c:	65c6                	ld	a1,80(sp)
    4000256e:	0007c503          	lbu	a0,0(a5)
    40002572:	8a7fe0ef          	jal	ra,40000e18 <ld_clust.isra.0>
    40002576:	2501                	sext.w	a0,a0
    40002578:	01450e63          	beq	a0,s4,40002594 <f_getcwd+0xe4>
    4000257c:	4581                	li	a1,0
    4000257e:	1828                	addi	a0,sp,56
    40002580:	a9eff0ef          	jal	ra,4000181e <dir_next>
    40002584:	2501                	sext.w	a0,a0
    40002586:	dd61                	beqz	a0,4000255e <f_getcwd+0xae>
    40002588:	4711                	li	a4,4
    4000258a:	67a2                	ld	a5,8(sp)
    4000258c:	f8e516e3          	bne	a0,a4,40002518 <f_getcwd+0x68>
    40002590:	4509                	li	a0,2
    40002592:	b759                	j	40002518 <f_getcwd+0x68>
    40002594:	100c                	addi	a1,sp,32
    40002596:	1828                	addi	a0,sp,56
    40002598:	f5cfe0ef          	jal	ra,40000cf4 <get_fileinfo>
    4000259c:	4781                	li	a5,0
    4000259e:	02079713          	slli	a4,a5,0x20
    400025a2:	9301                	srli	a4,a4,0x20
    400025a4:	1094                	addi	a3,sp,96
    400025a6:	9736                	add	a4,a4,a3
    400025a8:	fc974703          	lbu	a4,-55(a4)
    400025ac:	eb05                	bnez	a4,400025dc <f_getcwd+0x12c>
    400025ae:	0037871b          	addiw	a4,a5,3
    400025b2:	04e46263          	bltu	s0,a4,400025f6 <f_getcwd+0x146>
    400025b6:	fff7871b          	addiw	a4,a5,-1
    400025ba:	40f405bb          	subw	a1,s0,a5
    400025be:	00e586bb          	addw	a3,a1,a4
    400025c2:	02069613          	slli	a2,a3,0x20
    400025c6:	66a2                	ld	a3,8(sp)
    400025c8:	9201                	srli	a2,a2,0x20
    400025ca:	96b2                	add	a3,a3,a2
    400025cc:	01271a63          	bne	a4,s2,400025e0 <f_getcwd+0x130>
    400025d0:	fff7c793          	not	a5,a5
    400025d4:	01368023          	sb	s3,0(a3)
    400025d8:	9c3d                	addw	s0,s0,a5
    400025da:	b731                	j	400024e6 <f_getcwd+0x36>
    400025dc:	2785                	addiw	a5,a5,1
    400025de:	b7c1                	j	4000259e <f_getcwd+0xee>
    400025e0:	02071613          	slli	a2,a4,0x20
    400025e4:	9201                	srli	a2,a2,0x20
    400025e6:	1088                	addi	a0,sp,96
    400025e8:	962a                	add	a2,a2,a0
    400025ea:	fc964603          	lbu	a2,-55(a2) # fffffc9 <_tbss_end+0xfffffc9>
    400025ee:	377d                	addiw	a4,a4,-1
    400025f0:	00c68023          	sb	a2,0(a3)
    400025f4:	b7e9                	j	400025be <f_getcwd+0x10e>
    400025f6:	4545                	li	a0,17
    400025f8:	bddd                	j	400024ee <f_getcwd+0x3e>
    400025fa:	0789                	addi	a5,a5,2
    400025fc:	6722                	ld	a4,8(sp)
    400025fe:	02041693          	slli	a3,s0,0x20
    40002602:	9281                	srli	a3,a3,0x20
    40002604:	9736                	add	a4,a4,a3
    40002606:	00074703          	lbu	a4,0(a4)
    4000260a:	0785                	addi	a5,a5,1
    4000260c:	2405                	addiw	s0,s0,1
    4000260e:	fee78fa3          	sb	a4,-1(a5)
    40002612:	fe9465e3          	bltu	s0,s1,400025fc <f_getcwd+0x14c>
    40002616:	b709                	j	40002518 <f_getcwd+0x68>

0000000040002618 <f_lseek>:
    40002618:	7139                	addi	sp,sp,-64
    4000261a:	f822                	sd	s0,48(sp)
    4000261c:	f426                	sd	s1,40(sp)
    4000261e:	f04a                	sd	s2,32(sp)
    40002620:	fc06                	sd	ra,56(sp)
    40002622:	ec4e                	sd	s3,24(sp)
    40002624:	e852                	sd	s4,16(sp)
    40002626:	e456                	sd	s5,8(sp)
    40002628:	842a                	mv	s0,a0
    4000262a:	84ae                	mv	s1,a1
    4000262c:	fb4fe0ef          	jal	ra,40000de0 <validate>
    40002630:	0005091b          	sext.w	s2,a0
    40002634:	00091763          	bnez	s2,40002642 <f_lseek+0x2a>
    40002638:	00b44783          	lbu	a5,11(s0)
    4000263c:	cf89                	beqz	a5,40002656 <f_lseek+0x3e>
    4000263e:	0007891b          	sext.w	s2,a5
    40002642:	70e2                	ld	ra,56(sp)
    40002644:	7442                	ld	s0,48(sp)
    40002646:	854a                	mv	a0,s2
    40002648:	74a2                	ld	s1,40(sp)
    4000264a:	7902                	ld	s2,32(sp)
    4000264c:	69e2                	ld	s3,24(sp)
    4000264e:	6a42                	ld	s4,16(sp)
    40002650:	6aa2                	ld	s5,8(sp)
    40002652:	6121                	addi	sp,sp,64
    40002654:	8082                	ret
    40002656:	4818                	lw	a4,16(s0)
    40002658:	00977763          	bleu	s1,a4,40002666 <f_lseek+0x4e>
    4000265c:	00a44783          	lbu	a5,10(s0)
    40002660:	8b89                	andi	a5,a5,2
    40002662:	e391                	bnez	a5,40002666 <f_lseek+0x4e>
    40002664:	84ba                	mv	s1,a4
    40002666:	4458                	lw	a4,12(s0)
    40002668:	00042623          	sw	zero,12(s0)
    4000266c:	e4bd                	bnez	s1,400026da <f_lseek+0xc2>
    4000266e:	445c                	lw	a5,12(s0)
    40002670:	4818                	lw	a4,16(s0)
    40002672:	fcf778e3          	bleu	a5,a4,40002642 <f_lseek+0x2a>
    40002676:	c81c                	sw	a5,16(s0)
    40002678:	00a44783          	lbu	a5,10(s0)
    4000267c:	0207e793          	ori	a5,a5,32
    40002680:	00f40523          	sb	a5,10(s0)
    40002684:	bf7d                	j	40002642 <f_lseek+0x2a>
    40002686:	4481                	li	s1,0
    40002688:	445c                	lw	a5,12(s0)
    4000268a:	1ff7f793          	andi	a5,a5,511
    4000268e:	d3e5                	beqz	a5,4000266e <f_lseek+0x56>
    40002690:	4c50                	lw	a2,28(s0)
    40002692:	fc960ee3          	beq	a2,s1,4000266e <f_lseek+0x56>
    40002696:	00a44783          	lbu	a5,10(s0)
    4000269a:	03040993          	addi	s3,s0,48
    4000269e:	0407f793          	andi	a5,a5,64
    400026a2:	c385                	beqz	a5,400026c2 <f_lseek+0xaa>
    400026a4:	601c                	ld	a5,0(s0)
    400026a6:	4685                	li	a3,1
    400026a8:	85ce                	mv	a1,s3
    400026aa:	0017c503          	lbu	a0,1(a5)
    400026ae:	262030ef          	jal	ra,40005910 <disk_write>
    400026b2:	2501                	sext.w	a0,a0
    400026b4:	ed51                	bnez	a0,40002750 <f_lseek+0x138>
    400026b6:	00a44783          	lbu	a5,10(s0)
    400026ba:	fbf7f793          	andi	a5,a5,-65
    400026be:	00f40523          	sb	a5,10(s0)
    400026c2:	601c                	ld	a5,0(s0)
    400026c4:	4685                	li	a3,1
    400026c6:	8626                	mv	a2,s1
    400026c8:	0017c503          	lbu	a0,1(a5)
    400026cc:	85ce                	mv	a1,s3
    400026ce:	1de030ef          	jal	ra,400058ac <disk_read>
    400026d2:	2501                	sext.w	a0,a0
    400026d4:	ed35                	bnez	a0,40002750 <f_lseek+0x138>
    400026d6:	cc44                	sw	s1,28(s0)
    400026d8:	bf59                	j	4000266e <f_lseek+0x56>
    400026da:	6008                	ld	a0,0(s0)
    400026dc:	00254783          	lbu	a5,2(a0)
    400026e0:	0097999b          	slliw	s3,a5,0x9
    400026e4:	c729                	beqz	a4,4000272e <f_lseek+0x116>
    400026e6:	377d                	addiw	a4,a4,-1
    400026e8:	fff4869b          	addiw	a3,s1,-1
    400026ec:	0336d6bb          	divuw	a3,a3,s3
    400026f0:	0337563b          	divuw	a2,a4,s3
    400026f4:	02c6ed63          	bltu	a3,a2,4000272e <f_lseek+0x116>
    400026f8:	413007bb          	negw	a5,s3
    400026fc:	8ff9                	and	a5,a5,a4
    400026fe:	4c0c                	lw	a1,24(s0)
    40002700:	2781                	sext.w	a5,a5
    40002702:	c45c                	sw	a5,12(s0)
    40002704:	9c9d                	subw	s1,s1,a5
    40002706:	d1c1                	beqz	a1,40002686 <f_lseek+0x6e>
    40002708:	5a7d                	li	s4,-1
    4000270a:	4a85                	li	s5,1
    4000270c:	0499ea63          	bltu	s3,s1,40002760 <f_lseek+0x148>
    40002710:	445c                	lw	a5,12(s0)
    40002712:	9fa5                	addw	a5,a5,s1
    40002714:	c45c                	sw	a5,12(s0)
    40002716:	1ff4f793          	andi	a5,s1,511
    4000271a:	d7b5                	beqz	a5,40002686 <f_lseek+0x6e>
    4000271c:	6008                	ld	a0,0(s0)
    4000271e:	c87fe0ef          	jal	ra,400013a4 <clust2sect>
    40002722:	2501                	sext.w	a0,a0
    40002724:	cd11                	beqz	a0,40002740 <f_lseek+0x128>
    40002726:	0094d49b          	srliw	s1,s1,0x9
    4000272a:	9ca9                	addw	s1,s1,a0
    4000272c:	bfb1                	j	40002688 <f_lseek+0x70>
    4000272e:	484c                	lw	a1,20(s0)
    40002730:	e595                	bnez	a1,4000275c <f_lseek+0x144>
    40002732:	814ff0ef          	jal	ra,40001746 <create_chain>
    40002736:	0005059b          	sext.w	a1,a0
    4000273a:	4785                	li	a5,1
    4000273c:	00f59763          	bne	a1,a5,4000274a <f_lseek+0x132>
    40002740:	4789                	li	a5,2
    40002742:	00f405a3          	sb	a5,11(s0)
    40002746:	4909                	li	s2,2
    40002748:	bded                	j	40002642 <f_lseek+0x2a>
    4000274a:	57fd                	li	a5,-1
    4000274c:	00f59763          	bne	a1,a5,4000275a <f_lseek+0x142>
    40002750:	4785                	li	a5,1
    40002752:	00f405a3          	sb	a5,11(s0)
    40002756:	4905                	li	s2,1
    40002758:	b5ed                	j	40002642 <f_lseek+0x2a>
    4000275a:	c84c                	sw	a1,20(s0)
    4000275c:	cc0c                	sw	a1,24(s0)
    4000275e:	b765                	j	40002706 <f_lseek+0xee>
    40002760:	00a44783          	lbu	a5,10(s0)
    40002764:	6008                	ld	a0,0(s0)
    40002766:	8b89                	andi	a5,a5,2
    40002768:	cb81                	beqz	a5,40002778 <f_lseek+0x160>
    4000276a:	fddfe0ef          	jal	ra,40001746 <create_chain>
    4000276e:	0005059b          	sext.w	a1,a0
    40002772:	e599                	bnez	a1,40002780 <f_lseek+0x168>
    40002774:	84ce                	mv	s1,s3
    40002776:	bf69                	j	40002710 <f_lseek+0xf8>
    40002778:	c4bfe0ef          	jal	ra,400013c2 <get_fat>
    4000277c:	0005059b          	sext.w	a1,a0
    40002780:	fd4588e3          	beq	a1,s4,40002750 <f_lseek+0x138>
    40002784:	fabafee3          	bleu	a1,s5,40002740 <f_lseek+0x128>
    40002788:	601c                	ld	a5,0(s0)
    4000278a:	4f9c                	lw	a5,24(a5)
    4000278c:	faf5fae3          	bleu	a5,a1,40002740 <f_lseek+0x128>
    40002790:	445c                	lw	a5,12(s0)
    40002792:	cc0c                	sw	a1,24(s0)
    40002794:	413484bb          	subw	s1,s1,s3
    40002798:	013787bb          	addw	a5,a5,s3
    4000279c:	c45c                	sw	a5,12(s0)
    4000279e:	b7bd                	j	4000270c <f_lseek+0xf4>

00000000400027a0 <f_opendir>:
    400027a0:	7139                	addi	sp,sp,-64
    400027a2:	fc06                	sd	ra,56(sp)
    400027a4:	f822                	sd	s0,48(sp)
    400027a6:	e42e                	sd	a1,8(sp)
    400027a8:	c52d                	beqz	a0,40002812 <f_opendir+0x72>
    400027aa:	842a                	mv	s0,a0
    400027ac:	4601                	li	a2,0
    400027ae:	002c                	addi	a1,sp,8
    400027b0:	0828                	addi	a0,sp,24
    400027b2:	fe6fe0ef          	jal	ra,40000f98 <find_volume>
    400027b6:	2501                	sext.w	a0,a0
    400027b8:	e115                	bnez	a0,400027dc <f_opendir+0x3c>
    400027ba:	67e2                	ld	a5,24(sp)
    400027bc:	65a2                	ld	a1,8(sp)
    400027be:	8522                	mv	a0,s0
    400027c0:	e01c                	sd	a5,0(s0)
    400027c2:	101c                	addi	a5,sp,32
    400027c4:	f01c                	sd	a5,32(s0)
    400027c6:	97cff0ef          	jal	ra,40001942 <follow_path>
    400027ca:	2501                	sext.w	a0,a0
    400027cc:	e529                	bnez	a0,40002816 <f_opendir+0x76>
    400027ce:	6c0c                	ld	a1,24(s0)
    400027d0:	cd99                	beqz	a1,400027ee <f_opendir+0x4e>
    400027d2:	00b5c783          	lbu	a5,11(a1)
    400027d6:	8bc1                	andi	a5,a5,16
    400027d8:	e789                	bnez	a5,400027e2 <f_opendir+0x42>
    400027da:	4515                	li	a0,5
    400027dc:	00043023          	sd	zero,0(s0)
    400027e0:	a02d                	j	4000280a <f_opendir+0x6a>
    400027e2:	67e2                	ld	a5,24(sp)
    400027e4:	0007c503          	lbu	a0,0(a5)
    400027e8:	e30fe0ef          	jal	ra,40000e18 <ld_clust.isra.0>
    400027ec:	c448                	sw	a0,12(s0)
    400027ee:	67e2                	ld	a5,24(sp)
    400027f0:	4581                	li	a1,0
    400027f2:	8522                	mv	a0,s0
    400027f4:	0067d783          	lhu	a5,6(a5)
    400027f8:	00f41423          	sh	a5,8(s0)
    400027fc:	cbdfe0ef          	jal	ra,400014b8 <dir_sdi>
    40002800:	2501                	sext.w	a0,a0
    40002802:	4791                	li	a5,4
    40002804:	fcf50be3          	beq	a0,a5,400027da <f_opendir+0x3a>
    40002808:	f971                	bnez	a0,400027dc <f_opendir+0x3c>
    4000280a:	70e2                	ld	ra,56(sp)
    4000280c:	7442                	ld	s0,48(sp)
    4000280e:	6121                	addi	sp,sp,64
    40002810:	8082                	ret
    40002812:	4525                	li	a0,9
    40002814:	bfdd                	j	4000280a <f_opendir+0x6a>
    40002816:	4791                	li	a5,4
    40002818:	fcf501e3          	beq	a0,a5,400027da <f_opendir+0x3a>
    4000281c:	b7c1                	j	400027dc <f_opendir+0x3c>

000000004000281e <f_closedir>:
    4000281e:	1141                	addi	sp,sp,-16
    40002820:	e022                	sd	s0,0(sp)
    40002822:	e406                	sd	ra,8(sp)
    40002824:	842a                	mv	s0,a0
    40002826:	dbafe0ef          	jal	ra,40000de0 <validate>
    4000282a:	2501                	sext.w	a0,a0
    4000282c:	e119                	bnez	a0,40002832 <f_closedir+0x14>
    4000282e:	00043023          	sd	zero,0(s0)
    40002832:	60a2                	ld	ra,8(sp)
    40002834:	6402                	ld	s0,0(sp)
    40002836:	0141                	addi	sp,sp,16
    40002838:	8082                	ret

000000004000283a <f_readdir>:
    4000283a:	7179                	addi	sp,sp,-48
    4000283c:	f022                	sd	s0,32(sp)
    4000283e:	ec26                	sd	s1,24(sp)
    40002840:	e84a                	sd	s2,16(sp)
    40002842:	f406                	sd	ra,40(sp)
    40002844:	842a                	mv	s0,a0
    40002846:	892e                	mv	s2,a1
    40002848:	d98fe0ef          	jal	ra,40000de0 <validate>
    4000284c:	0005049b          	sext.w	s1,a0
    40002850:	e889                	bnez	s1,40002862 <f_readdir+0x28>
    40002852:	00091f63          	bnez	s2,40002870 <f_readdir+0x36>
    40002856:	4581                	li	a1,0
    40002858:	8522                	mv	a0,s0
    4000285a:	c5ffe0ef          	jal	ra,400014b8 <dir_sdi>
    4000285e:	0005049b          	sext.w	s1,a0
    40002862:	70a2                	ld	ra,40(sp)
    40002864:	7402                	ld	s0,32(sp)
    40002866:	8526                	mv	a0,s1
    40002868:	6942                	ld	s2,16(sp)
    4000286a:	64e2                	ld	s1,24(sp)
    4000286c:	6145                	addi	sp,sp,48
    4000286e:	8082                	ret
    40002870:	02243023          	sd	sp,32(s0)
    40002874:	4581                	li	a1,0
    40002876:	8522                	mv	a0,s0
    40002878:	b32ff0ef          	jal	ra,40001baa <dir_read>
    4000287c:	2501                	sext.w	a0,a0
    4000287e:	4791                	li	a5,4
    40002880:	02f51363          	bne	a0,a5,400028a6 <f_readdir+0x6c>
    40002884:	00042a23          	sw	zero,20(s0)
    40002888:	85ca                	mv	a1,s2
    4000288a:	8522                	mv	a0,s0
    4000288c:	c68fe0ef          	jal	ra,40000cf4 <get_fileinfo>
    40002890:	4581                	li	a1,0
    40002892:	8522                	mv	a0,s0
    40002894:	f8bfe0ef          	jal	ra,4000181e <dir_next>
    40002898:	2501                	sext.w	a0,a0
    4000289a:	4791                	li	a5,4
    4000289c:	00f51663          	bne	a0,a5,400028a8 <f_readdir+0x6e>
    400028a0:	00042a23          	sw	zero,20(s0)
    400028a4:	bf7d                	j	40002862 <f_readdir+0x28>
    400028a6:	d16d                	beqz	a0,40002888 <f_readdir+0x4e>
    400028a8:	84aa                	mv	s1,a0
    400028aa:	bf65                	j	40002862 <f_readdir+0x28>

00000000400028ac <f_stat>:
    400028ac:	7159                	addi	sp,sp,-112
    400028ae:	eca6                	sd	s1,88(sp)
    400028b0:	e42a                	sd	a0,8(sp)
    400028b2:	84ae                	mv	s1,a1
    400028b4:	4601                	li	a2,0
    400028b6:	002c                	addi	a1,sp,8
    400028b8:	1028                	addi	a0,sp,40
    400028ba:	f0a2                	sd	s0,96(sp)
    400028bc:	f486                	sd	ra,104(sp)
    400028be:	edafe0ef          	jal	ra,40000f98 <find_volume>
    400028c2:	0005041b          	sext.w	s0,a0
    400028c6:	e00d                	bnez	s0,400028e8 <f_stat+0x3c>
    400028c8:	65a2                	ld	a1,8(sp)
    400028ca:	083c                	addi	a5,sp,24
    400028cc:	1028                	addi	a0,sp,40
    400028ce:	e4be                	sd	a5,72(sp)
    400028d0:	872ff0ef          	jal	ra,40001942 <follow_path>
    400028d4:	0005041b          	sext.w	s0,a0
    400028d8:	e801                	bnez	s0,400028e8 <f_stat+0x3c>
    400028da:	6786                	ld	a5,64(sp)
    400028dc:	cf81                	beqz	a5,400028f4 <f_stat+0x48>
    400028de:	c489                	beqz	s1,400028e8 <f_stat+0x3c>
    400028e0:	85a6                	mv	a1,s1
    400028e2:	1028                	addi	a0,sp,40
    400028e4:	c10fe0ef          	jal	ra,40000cf4 <get_fileinfo>
    400028e8:	8522                	mv	a0,s0
    400028ea:	70a6                	ld	ra,104(sp)
    400028ec:	7406                	ld	s0,96(sp)
    400028ee:	64e6                	ld	s1,88(sp)
    400028f0:	6165                	addi	sp,sp,112
    400028f2:	8082                	ret
    400028f4:	4419                	li	s0,6
    400028f6:	bfcd                	j	400028e8 <f_stat+0x3c>

00000000400028f8 <f_getfree>:
    400028f8:	7159                	addi	sp,sp,-112
    400028fa:	f0a2                	sd	s0,96(sp)
    400028fc:	8432                	mv	s0,a2
    400028fe:	f85a                	sd	s6,48(sp)
    40002900:	e42a                	sd	a0,8(sp)
    40002902:	8b2e                	mv	s6,a1
    40002904:	4601                	li	a2,0
    40002906:	002c                	addi	a1,sp,8
    40002908:	8522                	mv	a0,s0
    4000290a:	e0d2                	sd	s4,64(sp)
    4000290c:	f486                	sd	ra,104(sp)
    4000290e:	eca6                	sd	s1,88(sp)
    40002910:	e8ca                	sd	s2,80(sp)
    40002912:	e4ce                	sd	s3,72(sp)
    40002914:	fc56                	sd	s5,56(sp)
    40002916:	f45e                	sd	s7,40(sp)
    40002918:	f062                	sd	s8,32(sp)
    4000291a:	ec66                	sd	s9,24(sp)
    4000291c:	e7cfe0ef          	jal	ra,40000f98 <find_volume>
    40002920:	00050a1b          	sext.w	s4,a0
    40002924:	000a1c63          	bnez	s4,4000293c <f_getfree+0x44>
    40002928:	6000                	ld	s0,0(s0)
    4000292a:	01842c83          	lw	s9,24(s0)
    4000292e:	481c                	lw	a5,16(s0)
    40002930:	ffec871b          	addiw	a4,s9,-2
    40002934:	02f76263          	bltu	a4,a5,40002958 <f_getfree+0x60>
    40002938:	00fb2023          	sw	a5,0(s6)
    4000293c:	70a6                	ld	ra,104(sp)
    4000293e:	7406                	ld	s0,96(sp)
    40002940:	8552                	mv	a0,s4
    40002942:	64e6                	ld	s1,88(sp)
    40002944:	6946                	ld	s2,80(sp)
    40002946:	69a6                	ld	s3,72(sp)
    40002948:	6a06                	ld	s4,64(sp)
    4000294a:	7ae2                	ld	s5,56(sp)
    4000294c:	7b42                	ld	s6,48(sp)
    4000294e:	7ba2                	ld	s7,40(sp)
    40002950:	7c02                	ld	s8,32(sp)
    40002952:	6ce2                	ld	s9,24(sp)
    40002954:	6165                	addi	sp,sp,112
    40002956:	8082                	ret
    40002958:	00044b83          	lbu	s7,0(s0)
    4000295c:	4785                	li	a5,1
    4000295e:	02fb9f63          	bne	s7,a5,4000299c <f_getfree+0xa4>
    40002962:	4909                	li	s2,2
    40002964:	4481                	li	s1,0
    40002966:	59fd                	li	s3,-1
    40002968:	4a85                	li	s5,1
    4000296a:	85ca                	mv	a1,s2
    4000296c:	8522                	mv	a0,s0
    4000296e:	a55fe0ef          	jal	ra,400013c2 <get_fat>
    40002972:	2501                	sext.w	a0,a0
    40002974:	09350863          	beq	a0,s3,40002a04 <f_getfree+0x10c>
    40002978:	09550863          	beq	a0,s5,40002a08 <f_getfree+0x110>
    4000297c:	e111                	bnez	a0,40002980 <f_getfree+0x88>
    4000297e:	2485                	addiw	s1,s1,1
    40002980:	4c1c                	lw	a5,24(s0)
    40002982:	2905                	addiw	s2,s2,1
    40002984:	fef963e3          	bltu	s2,a5,4000296a <f_getfree+0x72>
    40002988:	00544783          	lbu	a5,5(s0)
    4000298c:	c804                	sw	s1,16(s0)
    4000298e:	0017e793          	ori	a5,a5,1
    40002992:	00f402a3          	sb	a5,5(s0)
    40002996:	009b2023          	sw	s1,0(s6)
    4000299a:	b74d                	j	4000293c <f_getfree+0x44>
    4000299c:	504c                	lw	a1,36(s0)
    4000299e:	10000ab7          	lui	s5,0x10000
    400029a2:	4901                	li	s2,0
    400029a4:	4981                	li	s3,0
    400029a6:	4481                	li	s1,0
    400029a8:	4c09                	li	s8,2
    400029aa:	1afd                	addi	s5,s5,-1
    400029ac:	00099e63          	bnez	s3,400029c8 <f_getfree+0xd0>
    400029b0:	8522                	mv	a0,s0
    400029b2:	0015899b          	addiw	s3,a1,1
    400029b6:	d10fe0ef          	jal	ra,40000ec6 <move_window>
    400029ba:	2501                	sext.w	a0,a0
