
examples/jump.riscv:     file format elf64-littleriscv


Disassembly of section .text:

0000000040000000 <_start>:
    40000000:	00000297          	auipc	t0,0x0
    40000004:	09c28293          	addi	t0,t0,156 # 4000009c <trap_entry>
    40000008:	30529073          	csrw	mtvec,t0
    4000000c:	4081                	li	ra,0
    4000000e:	4101                	li	sp,0
    40000010:	4181                	li	gp,0
    40000012:	4201                	li	tp,0
    40000014:	4281                	li	t0,0
    40000016:	4301                	li	t1,0
    40000018:	4381                	li	t2,0
    4000001a:	4401                	li	s0,0
    4000001c:	4481                	li	s1,0
    4000001e:	4501                	li	a0,0
    40000020:	4581                	li	a1,0
    40000022:	4601                	li	a2,0
    40000024:	4681                	li	a3,0
    40000026:	4701                	li	a4,0
    40000028:	4781                	li	a5,0
    4000002a:	4801                	li	a6,0
    4000002c:	4881                	li	a7,0
    4000002e:	4901                	li	s2,0
    40000030:	4981                	li	s3,0
    40000032:	4a01                	li	s4,0
    40000034:	4a81                	li	s5,0
    40000036:	4b01                	li	s6,0
    40000038:	4b81                	li	s7,0
    4000003a:	4c01                	li	s8,0
    4000003c:	4c81                	li	s9,0
    4000003e:	4d01                	li	s10,0
    40000040:	4d81                	li	s11,0
    40000042:	4e01                	li	t3,0
    40000044:	4e81                	li	t4,0
    40000046:	4f01                	li	t5,0
    40000048:	4f81                	li	t6,0
    4000004a:	6299                	lui	t0,0x6
    4000004c:	3002a073          	csrs	mstatus,t0
    40000050:	62e1                	lui	t0,0x18
    40000052:	3002a073          	csrs	mstatus,t0
    40000056:	300022f3          	csrr	t0,mstatus
    4000005a:	6361                	lui	t1,0x18
    4000005c:	0062f333          	and	t1,t0,t1
    40000060:	00006397          	auipc	t2,0x6
    40000064:	7663ac23          	sw	t1,1912(t2) # 400067d8 <have_vec>
    40000068:	6319                	lui	t1,0x6
    4000006a:	0062f333          	and	t1,t0,t1
    4000006e:	00030263          	beqz	t1,40000072 <_start+0x72>
    40000072:	00007197          	auipc	gp,0x7
    40000076:	eb618193          	addi	gp,gp,-330 # 40006f28 <_gp>
    4000007a:	00007217          	auipc	tp,0x7
    4000007e:	b0520213          	addi	tp,tp,-1275 # 40006b7f <_end+0x3f>
    40000082:	fc027213          	andi	tp,tp,-64
    40000086:	f1402573          	csrr	a0,mhartid
    4000008a:	4585                	li	a1,1
    4000008c:	00b57063          	bleu	a1,a0,4000008c <_start+0x8c>
    40000090:	400105b7          	lui	a1,0x40010
    40000094:	ff858113          	addi	sp,a1,-8 # 4000fff8 <_gp+0x90d0>
    40000098:	2d80006f          	j	40000370 <_init>

000000004000009c <trap_entry>:
    4000009c:	716d                	addi	sp,sp,-272
    4000009e:	c002                	sw	zero,0(sp)
    400000a0:	c206                	sw	ra,4(sp)
    400000a2:	c40a                	sw	sp,8(sp)
    400000a4:	c60e                	sw	gp,12(sp)
    400000a6:	c812                	sw	tp,16(sp)
    400000a8:	ca16                	sw	t0,20(sp)
    400000aa:	cc1a                	sw	t1,24(sp)
    400000ac:	ce1e                	sw	t2,28(sp)
    400000ae:	d022                	sw	s0,32(sp)
    400000b0:	d226                	sw	s1,36(sp)
    400000b2:	d42a                	sw	a0,40(sp)
    400000b4:	d62e                	sw	a1,44(sp)
    400000b6:	d832                	sw	a2,48(sp)
    400000b8:	da36                	sw	a3,52(sp)
    400000ba:	dc3a                	sw	a4,56(sp)
    400000bc:	de3e                	sw	a5,60(sp)
    400000be:	c0c2                	sw	a6,64(sp)
    400000c0:	c2c6                	sw	a7,68(sp)
    400000c2:	c4ca                	sw	s2,72(sp)
    400000c4:	c6ce                	sw	s3,76(sp)
    400000c6:	c8d2                	sw	s4,80(sp)
    400000c8:	cad6                	sw	s5,84(sp)
    400000ca:	ccda                	sw	s6,88(sp)
    400000cc:	cede                	sw	s7,92(sp)
    400000ce:	d0e2                	sw	s8,96(sp)
    400000d0:	d2e6                	sw	s9,100(sp)
    400000d2:	d4ea                	sw	s10,104(sp)
    400000d4:	d6ee                	sw	s11,108(sp)
    400000d6:	d8f2                	sw	t3,112(sp)
    400000d8:	daf6                	sw	t4,116(sp)
    400000da:	dcfa                	sw	t5,120(sp)
    400000dc:	defe                	sw	t6,124(sp)
    400000de:	34202573          	csrr	a0,mcause
    400000e2:	341025f3          	csrr	a1,mepc
    400000e6:	860a                	mv	a2,sp
    400000e8:	00055563          	bgez	a0,400000f2 <trap_entry+0x56>
    400000ec:	0bc000ef          	jal	ra,400001a8 <handle_interrupt>
    400000f0:	a029                	j	400000fa <trap_entry+0x5e>
    400000f2:	0b8000ef          	jal	ra,400001aa <handle_trap>
    400000f6:	34151073          	csrw	mepc,a0
    400000fa:	000022b7          	lui	t0,0x2
    400000fe:	8002829b          	addiw	t0,t0,-2048
    40000102:	3002a073          	csrs	mstatus,t0
    40000106:	4092                	lw	ra,4(sp)
    40000108:	4122                	lw	sp,8(sp)
    4000010a:	41b2                	lw	gp,12(sp)
    4000010c:	4242                	lw	tp,16(sp)
    4000010e:	42d2                	lw	t0,20(sp)
    40000110:	4362                	lw	t1,24(sp)
    40000112:	43f2                	lw	t2,28(sp)
    40000114:	5402                	lw	s0,32(sp)
    40000116:	5492                	lw	s1,36(sp)
    40000118:	5522                	lw	a0,40(sp)
    4000011a:	55b2                	lw	a1,44(sp)
    4000011c:	5642                	lw	a2,48(sp)
    4000011e:	56d2                	lw	a3,52(sp)
    40000120:	5762                	lw	a4,56(sp)
    40000122:	57f2                	lw	a5,60(sp)
    40000124:	4806                	lw	a6,64(sp)
    40000126:	4896                	lw	a7,68(sp)
    40000128:	4926                	lw	s2,72(sp)
    4000012a:	49b6                	lw	s3,76(sp)
    4000012c:	4a46                	lw	s4,80(sp)
    4000012e:	4ad6                	lw	s5,84(sp)
    40000130:	4b66                	lw	s6,88(sp)
    40000132:	4bf6                	lw	s7,92(sp)
    40000134:	5c06                	lw	s8,96(sp)
    40000136:	5c96                	lw	s9,100(sp)
    40000138:	5d26                	lw	s10,104(sp)
    4000013a:	5db6                	lw	s11,108(sp)
    4000013c:	5e46                	lw	t3,112(sp)
    4000013e:	5ed6                	lw	t4,116(sp)
    40000140:	5f66                	lw	t5,120(sp)
    40000142:	5ff6                	lw	t6,124(sp)
    40000144:	6151                	addi	sp,sp,272
    40000146:	30200073          	mret

000000004000014a <tohost_exit>:
    4000014a:	7139                	addi	sp,sp,-64
    4000014c:	fc06                	sd	ra,56(sp)
    4000014e:	f822                	sd	s0,48(sp)
    40000150:	c521                	beqz	a0,40000198 <tohost_exit+0x4e>
    40000152:	00006597          	auipc	a1,0x6
    40000156:	cee58593          	addi	a1,a1,-786 # 40005e40 <P_array.1885+0x70>
    4000015a:	842a                	mv	s0,a0
    4000015c:	02100613          	li	a2,33
    40000160:	0028                	addi	a0,sp,8
    40000162:	660050ef          	jal	ra,400057c2 <memcpy>
    40000166:	4781                	li	a5,0
    40000168:	4525                	li	a0,9
    4000016a:	55c1                	li	a1,-16
    4000016c:	00f47613          	andi	a2,s0,15
    40000170:	0ff67713          	andi	a4,a2,255
    40000174:	03000693          	li	a3,48
    40000178:	00c55463          	ble	a2,a0,40000180 <tohost_exit+0x36>
    4000017c:	05700693          	li	a3,87
    40000180:	0030                	addi	a2,sp,8
    40000182:	963e                	add	a2,a2,a5
    40000184:	9f35                	addw	a4,a4,a3
    40000186:	00e60ea3          	sb	a4,29(a2)
    4000018a:	17fd                	addi	a5,a5,-1
    4000018c:	8411                	srai	s0,s0,0x4
    4000018e:	fcb79fe3          	bne	a5,a1,4000016c <tohost_exit+0x22>
    40000192:	0028                	addi	a0,sp,8
    40000194:	448000ef          	jal	ra,400005dc <hid_send_string>
    40000198:	00006517          	auipc	a0,0x6
    4000019c:	c6850513          	addi	a0,a0,-920 # 40005e00 <P_array.1885+0x30>
    400001a0:	43c000ef          	jal	ra,400005dc <hid_send_string>
    400001a4:	a001                	j	400001a4 <tohost_exit+0x5a>

00000000400001a6 <external_interrupt>:
    400001a6:	8082                	ret

00000000400001a8 <handle_interrupt>:
    400001a8:	8082                	ret

00000000400001aa <handle_trap>:
    400001aa:	711d                	addi	sp,sp,-96
    400001ac:	e8a2                	sd	s0,80(sp)
    400001ae:	842a                	mv	s0,a0
    400001b0:	00006517          	auipc	a0,0x6
    400001b4:	cb850513          	addi	a0,a0,-840 # 40005e68 <P_array.1885+0x98>
    400001b8:	e4a6                	sd	s1,72(sp)
    400001ba:	ec86                	sd	ra,88(sp)
    400001bc:	e0ca                	sd	s2,64(sp)
    400001be:	fc4e                	sd	s3,56(sp)
    400001c0:	f852                	sd	s4,48(sp)
    400001c2:	f456                	sd	s5,40(sp)
    400001c4:	f05a                	sd	s6,32(sp)
    400001c6:	ec5e                	sd	s7,24(sp)
    400001c8:	e862                	sd	s8,16(sp)
    400001ca:	e466                	sd	s9,8(sp)
    400001cc:	e06a                	sd	s10,0(sp)
    400001ce:	84b2                	mv	s1,a2
    400001d0:	50d040ef          	jal	ra,40004edc <printf>
    400001d4:	47ad                	li	a5,11
    400001d6:	1087e163          	bltu	a5,s0,400002d8 <handle_trap+0x12e>
    400001da:	00006717          	auipc	a4,0x6
    400001de:	a2670713          	addi	a4,a4,-1498 # 40005c00 <main+0x2e>
    400001e2:	040a                	slli	s0,s0,0x2
    400001e4:	943a                	add	s0,s0,a4
    400001e6:	401c                	lw	a5,0(s0)
    400001e8:	97ba                	add	a5,a5,a4
    400001ea:	8782                	jr	a5
    400001ec:	00006517          	auipc	a0,0x6
    400001f0:	c8c50513          	addi	a0,a0,-884 # 40005e78 <P_array.1885+0xa8>
    400001f4:	4e9040ef          	jal	ra,40004edc <printf>
    400001f8:	34302573          	csrr	a0,mbadaddr
    400001fc:	85aa                	mv	a1,a0
    400001fe:	00006517          	auipc	a0,0x6
    40000202:	e2250513          	addi	a0,a0,-478 # 40006020 <P_array.1885+0x250>
    40000206:	4d7040ef          	jal	ra,40004edc <printf>
    4000020a:	8926                	mv	s2,s1
    4000020c:	4401                	li	s0,0
    4000020e:	4a09                	li	s4,2
    40000210:	4a85                	li	s5,1
    40000212:	498d                	li	s3,3
    40000214:	4b1d                	li	s6,7
    40000216:	4ba5                	li	s7,9
    40000218:	00006c17          	auipc	s8,0x6
    4000021c:	e40c0c13          	addi	s8,s8,-448 # 40006058 <P_array.1885+0x288>
    40000220:	00006c97          	auipc	s9,0x6
    40000224:	e30c8c93          	addi	s9,s9,-464 # 40006050 <P_array.1885+0x280>
    40000228:	00006d17          	auipc	s10,0x6
    4000022c:	e20d0d13          	addi	s10,s10,-480 # 40006048 <P_array.1885+0x278>
    40000230:	0b441d63          	bne	s0,s4,400002ea <handle_trap+0x140>
    40000234:	688c                	ld	a1,16(s1)
    40000236:	00006517          	auipc	a0,0x6
    4000023a:	dfa50513          	addi	a0,a0,-518 # 40006030 <P_array.1885+0x260>
    4000023e:	49f040ef          	jal	ra,40004edc <printf>
    40000242:	00347793          	andi	a5,s0,3
    40000246:	01379863          	bne	a5,s3,40000256 <handle_trap+0xac>
    4000024a:	00006517          	auipc	a0,0x6
    4000024e:	dce50513          	addi	a0,a0,-562 # 40006018 <P_array.1885+0x248>
    40000252:	48b040ef          	jal	ra,40004edc <printf>
    40000256:	2405                	addiw	s0,s0,1
    40000258:	02000793          	li	a5,32
    4000025c:	0921                	addi	s2,s2,8
    4000025e:	fcf419e3          	bne	s0,a5,40000230 <handle_trap+0x86>
    40000262:	53900513          	li	a0,1337
    40000266:	ee5ff0ef          	jal	ra,4000014a <tohost_exit>
    4000026a:	00006517          	auipc	a0,0x6
    4000026e:	c2650513          	addi	a0,a0,-986 # 40005e90 <P_array.1885+0xc0>
    40000272:	b749                	j	400001f4 <handle_trap+0x4a>
    40000274:	00006517          	auipc	a0,0x6
    40000278:	c3c50513          	addi	a0,a0,-964 # 40005eb0 <P_array.1885+0xe0>
    4000027c:	bfa5                	j	400001f4 <handle_trap+0x4a>
    4000027e:	00006517          	auipc	a0,0x6
    40000282:	c4a50513          	addi	a0,a0,-950 # 40005ec8 <P_array.1885+0xf8>
    40000286:	b7bd                	j	400001f4 <handle_trap+0x4a>
    40000288:	00006517          	auipc	a0,0x6
    4000028c:	c5850513          	addi	a0,a0,-936 # 40005ee0 <P_array.1885+0x110>
    40000290:	b795                	j	400001f4 <handle_trap+0x4a>
    40000292:	00006517          	auipc	a0,0x6
    40000296:	c6e50513          	addi	a0,a0,-914 # 40005f00 <P_array.1885+0x130>
    4000029a:	bfa9                	j	400001f4 <handle_trap+0x4a>
    4000029c:	00006517          	auipc	a0,0x6
    400002a0:	c8450513          	addi	a0,a0,-892 # 40005f20 <P_array.1885+0x150>
    400002a4:	bf81                	j	400001f4 <handle_trap+0x4a>
    400002a6:	00006517          	auipc	a0,0x6
    400002aa:	ca250513          	addi	a0,a0,-862 # 40005f48 <P_array.1885+0x178>
    400002ae:	b799                	j	400001f4 <handle_trap+0x4a>
    400002b0:	00006517          	auipc	a0,0x6
    400002b4:	cb850513          	addi	a0,a0,-840 # 40005f68 <P_array.1885+0x198>
    400002b8:	bf35                	j	400001f4 <handle_trap+0x4a>
    400002ba:	00006517          	auipc	a0,0x6
    400002be:	cd650513          	addi	a0,a0,-810 # 40005f90 <P_array.1885+0x1c0>
    400002c2:	bf0d                	j	400001f4 <handle_trap+0x4a>
    400002c4:	00006517          	auipc	a0,0x6
    400002c8:	cf450513          	addi	a0,a0,-780 # 40005fb8 <P_array.1885+0x1e8>
    400002cc:	b725                	j	400001f4 <handle_trap+0x4a>
    400002ce:	00006517          	auipc	a0,0x6
    400002d2:	d1250513          	addi	a0,a0,-750 # 40005fe0 <P_array.1885+0x210>
    400002d6:	bf39                	j	400001f4 <handle_trap+0x4a>
    400002d8:	8622                	mv	a2,s0
    400002da:	85a2                	mv	a1,s0
    400002dc:	00006517          	auipc	a0,0x6
    400002e0:	d2c50513          	addi	a0,a0,-724 # 40006008 <P_array.1885+0x238>
    400002e4:	3f9040ef          	jal	ra,40004edc <printf>
    400002e8:	bf01                	j	400001f8 <handle_trap+0x4e>
    400002ea:	01541863          	bne	s0,s5,400002fa <handle_trap+0x150>
    400002ee:	648c                	ld	a1,8(s1)
    400002f0:	00006517          	auipc	a0,0x6
    400002f4:	d4850513          	addi	a0,a0,-696 # 40006038 <P_array.1885+0x268>
    400002f8:	b799                	j	4000023e <handle_trap+0x94>
    400002fa:	01341863          	bne	s0,s3,4000030a <handle_trap+0x160>
    400002fe:	6c8c                	ld	a1,24(s1)
    40000300:	00006517          	auipc	a0,0x6
    40000304:	d4050513          	addi	a0,a0,-704 # 40006040 <P_array.1885+0x270>
    40000308:	bf1d                	j	4000023e <handle_trap+0x94>
    4000030a:	0004079b          	sext.w	a5,s0
    4000030e:	ff67859b          	addiw	a1,a5,-10
    40000312:	00093603          	ld	a2,0(s2)
    40000316:	856a                	mv	a0,s10
    40000318:	00bb7963          	bleu	a1,s6,4000032a <handle_trap+0x180>
    4000031c:	fee7871b          	addiw	a4,a5,-18
    40000320:	00ebe863          	bltu	s7,a4,40000330 <handle_trap+0x186>
    40000324:	ff07859b          	addiw	a1,a5,-16
    40000328:	8566                	mv	a0,s9
    4000032a:	3b3040ef          	jal	ra,40004edc <printf>
    4000032e:	bf11                	j	40000242 <handle_trap+0x98>
    40000330:	85a2                	mv	a1,s0
    40000332:	8562                	mv	a0,s8
    40000334:	bfdd                	j	4000032a <handle_trap+0x180>

0000000040000336 <thread_entry>:
    40000336:	e101                	bnez	a0,40000336 <thread_entry>
    40000338:	8082                	ret

000000004000033a <__bswap_16>:
    4000033a:	0085579b          	srliw	a5,a0,0x8
    4000033e:	0522                	slli	a0,a0,0x8
    40000340:	8d5d                	or	a0,a0,a5
    40000342:	1542                	slli	a0,a0,0x30
    40000344:	9141                	srli	a0,a0,0x30
    40000346:	8082                	ret

0000000040000348 <__bswap_32>:
    40000348:	0185171b          	slliw	a4,a0,0x18
    4000034c:	0185579b          	srliw	a5,a0,0x18
    40000350:	66c1                	lui	a3,0x10
    40000352:	8fd9                	or	a5,a5,a4
    40000354:	f0068693          	addi	a3,a3,-256 # ff00 <_tbss_end+0xff00>
    40000358:	0085571b          	srliw	a4,a0,0x8
    4000035c:	8f75                	and	a4,a4,a3
    4000035e:	8fd9                	or	a5,a5,a4
    40000360:	0085151b          	slliw	a0,a0,0x8
    40000364:	00ff0737          	lui	a4,0xff0
    40000368:	8d79                	and	a0,a0,a4
    4000036a:	8d5d                	or	a0,a0,a5
    4000036c:	2501                	sext.w	a0,a0
    4000036e:	8082                	ret

0000000040000370 <_init>:
    40000370:	00006517          	auipc	a0,0x6
    40000374:	41950513          	addi	a0,a0,1049 # 40006789 <_bss>
    40000378:	00006617          	auipc	a2,0x6
    4000037c:	7c860613          	addi	a2,a2,1992 # 40006b40 <_end>
    40000380:	7179                	addi	sp,sp,-48
    40000382:	8e09                	sub	a2,a2,a0
    40000384:	4581                	li	a1,0
    40000386:	f406                	sd	ra,40(sp)
    40000388:	f022                	sd	s0,32(sp)
    4000038a:	ec26                	sd	s1,24(sp)
    4000038c:	e84a                	sd	s2,16(sp)
    4000038e:	374000ef          	jal	ra,40000702 <memset>
    40000392:	344000ef          	jal	ra,400006d6 <get_sw>
    40000396:	033517b7          	lui	a5,0x3351
    4000039a:	a007879b          	addiw	a5,a5,-1536
    4000039e:	00006717          	auipc	a4,0x6
    400003a2:	3ef72923          	sw	a5,1010(a4) # 40006790 <mac_addr>
    400003a6:	f5600713          	li	a4,-170
    400003aa:	00006697          	auipc	a3,0x6
    400003ae:	3ee69523          	sh	a4,1002(a3) # 40006794 <mac_addr+0x4>
    400003b2:	33500693          	li	a3,821
    400003b6:	00d11423          	sh	a3,8(sp)
    400003ba:	00e11523          	sh	a4,10(sp)
    400003be:	00f57493          	andi	s1,a0,15
    400003c2:	4522                	lw	a0,8(sp)
    400003c4:	00f11623          	sh	a5,12(sp)
    400003c8:	ff248413          	addi	s0,s1,-14
    400003cc:	f7dff0ef          	jal	ra,40000348 <__bswap_32>
    400003d0:	00006797          	auipc	a5,0x6
    400003d4:	39878793          	addi	a5,a5,920 # 40006768 <eth_base>
    400003d8:	46b2                	lw	a3,12(sp)
    400003da:	6398                	ld	a4,0(a5)
    400003dc:	01000637          	lui	a2,0x1000
    400003e0:	6785                	lui	a5,0x1
    400003e2:	973e                	add	a4,a4,a5
    400003e4:	f0060613          	addi	a2,a2,-256 # ffff00 <_tbss_end+0xffff00>
    400003e8:	0086979b          	slliw	a5,a3,0x8
    400003ec:	82a1                	srli	a3,a3,0x8
    400003ee:	8ff1                	and	a5,a5,a2
    400003f0:	0ff6f693          	andi	a3,a3,255
    400003f4:	1502                	slli	a0,a0,0x20
    400003f6:	8fd5                	or	a5,a5,a3
    400003f8:	9101                	srli	a0,a0,0x20
    400003fa:	17c2                	slli	a5,a5,0x30
    400003fc:	80a73023          	sd	a0,-2048(a4)
    40000400:	93c1                	srli	a5,a5,0x30
    40000402:	80f73423          	sd	a5,-2040(a4)
    40000406:	80073603          	ld	a2,-2048(a4)
    4000040a:	80873583          	ld	a1,-2040(a4)
    4000040e:	4939                	li	s2,14
    40000410:	2601                	sext.w	a2,a2
    40000412:	15c2                	slli	a1,a1,0x30
    40000414:	91c1                	srli	a1,a1,0x30
    40000416:	c432                	sw	a2,8(sp)
    40000418:	c62e                	sw	a1,12(sp)
    4000041a:	00143413          	seqz	s0,s0
    4000041e:	01248863          	beq	s1,s2,4000042e <_init+0xbe>
    40000422:	00006517          	auipc	a0,0x6
    40000426:	c3e50513          	addi	a0,a0,-962 # 40006060 <P_array.1885+0x290>
    4000042a:	2b3040ef          	jal	ra,40004edc <printf>
    4000042e:	4581                	li	a1,0
    40000430:	8522                	mv	a0,s0
    40000432:	7a0050ef          	jal	ra,40005bd2 <main>
    40000436:	85aa                	mv	a1,a0
    40000438:	00006517          	auipc	a0,0x6
    4000043c:	c4850513          	addi	a0,a0,-952 # 40006080 <P_array.1885+0x2b0>
    40000440:	29d040ef          	jal	ra,40004edc <printf>
    40000444:	a001                	j	40000444 <_init+0xd4>

0000000040000446 <printhex>:
    40000446:	7179                	addi	sp,sp,-48
    40000448:	f406                	sd	ra,40(sp)
    4000044a:	4781                	li	a5,0
    4000044c:	4825                	li	a6,9
    4000044e:	55c1                	li	a1,-16
    40000450:	00f57613          	andi	a2,a0,15
    40000454:	0ff67713          	andi	a4,a2,255
    40000458:	03000693          	li	a3,48
    4000045c:	00c87463          	bleu	a2,a6,40000464 <printhex+0x1e>
    40000460:	05700693          	li	a3,87
    40000464:	0030                	addi	a2,sp,8
    40000466:	963e                	add	a2,a2,a5
    40000468:	9f35                	addw	a4,a4,a3
    4000046a:	00e607a3          	sb	a4,15(a2)
    4000046e:	17fd                	addi	a5,a5,-1
    40000470:	8111                	srli	a0,a0,0x4
    40000472:	fcb79fe3          	bne	a5,a1,40000450 <printhex+0xa>
    40000476:	0028                	addi	a0,sp,8
    40000478:	00010c23          	sb	zero,24(sp)
    4000047c:	160000ef          	jal	ra,400005dc <hid_send_string>
    40000480:	70a2                	ld	ra,40(sp)
    40000482:	6145                	addi	sp,sp,48
    40000484:	8082                	ret

0000000040000486 <hid_console_putchar>:
    40000486:	00006697          	auipc	a3,0x6
    4000048a:	35668693          	addi	a3,a3,854 # 400067dc <addr_int>
    4000048e:	4729                	li	a4,10
    40000490:	429c                	lw	a5,0(a3)
    40000492:	8836                	mv	a6,a3
    40000494:	0ae50263          	beq	a0,a4,40000538 <hid_console_putchar+0xb2>
    40000498:	08a76363          	bltu	a4,a0,4000051e <hid_console_putchar+0x98>
    4000049c:	4721                	li	a4,8
    4000049e:	0ce51d63          	bne	a0,a4,40000578 <hid_console_putchar+0xf2>
    400004a2:	07f7f713          	andi	a4,a5,127
    400004a6:	c31d                	beqz	a4,400004cc <hid_console_putchar+0x46>
    400004a8:	fff7871b          	addiw	a4,a5,-1
    400004ac:	00006797          	auipc	a5,0x6
    400004b0:	2c478793          	addi	a5,a5,708 # 40006770 <hid_vga_ptr>
    400004b4:	639c                	ld	a5,0(a5)
    400004b6:	00006697          	auipc	a3,0x6
    400004ba:	32e6a323          	sw	a4,806(a3) # 400067dc <addr_int>
    400004be:	0706                	slli	a4,a4,0x1
    400004c0:	97ba                	add	a5,a5,a4
    400004c2:	6705                	lui	a4,0x1
    400004c4:	f207071b          	addiw	a4,a4,-224
    400004c8:	00e79023          	sh	a4,0(a5)
    400004cc:	00082703          	lw	a4,0(a6)
    400004d0:	6785                	lui	a5,0x1
    400004d2:	f7f78793          	addi	a5,a5,-129 # f7f <_tbss_end+0xf7f>
    400004d6:	04e7d363          	ble	a4,a5,4000051c <hid_console_putchar+0x96>
    400004da:	00006717          	auipc	a4,0x6
    400004de:	30072123          	sw	zero,770(a4) # 400067dc <addr_int>
    400004e2:	00006717          	auipc	a4,0x6
    400004e6:	28e70713          	addi	a4,a4,654 # 40006770 <hid_vga_ptr>
    400004ea:	6318                	ld	a4,0(a4)
    400004ec:	6605                	lui	a2,0x1
    400004ee:	4681                	li	a3,0
    400004f0:	6505                	lui	a0,0x1
    400004f2:	f206061b          	addiw	a2,a2,-224
    400004f6:	0ad7e763          	bltu	a5,a3,400005a4 <hid_console_putchar+0x11e>
    400004fa:	10075583          	lhu	a1,256(a4)
    400004fe:	15c2                	slli	a1,a1,0x30
    40000500:	91c1                	srli	a1,a1,0x30
    40000502:	00b71023          	sh	a1,0(a4)
    40000506:	0685                	addi	a3,a3,1
    40000508:	0709                	addi	a4,a4,2
    4000050a:	fea696e3          	bne	a3,a0,400004f6 <hid_console_putchar+0x70>
    4000050e:	6785                	lui	a5,0x1
    40000510:	f007879b          	addiw	a5,a5,-256
    40000514:	00006717          	auipc	a4,0x6
    40000518:	2cf72423          	sw	a5,712(a4) # 400067dc <addr_int>
    4000051c:	8082                	ret
    4000051e:	4735                	li	a4,13
    40000520:	00e50563          	beq	a0,a4,4000052a <hid_console_putchar+0xa4>
    40000524:	07f00713          	li	a4,127
    40000528:	bf9d                	j	4000049e <hid_console_putchar+0x18>
    4000052a:	f807f793          	andi	a5,a5,-128
    4000052e:	00006717          	auipc	a4,0x6
    40000532:	2af72723          	sw	a5,686(a4) # 400067dc <addr_int>
    40000536:	bf59                	j	400004cc <hid_console_putchar+0x46>
    40000538:	00006717          	auipc	a4,0x6
    4000053c:	23870713          	addi	a4,a4,568 # 40006770 <hid_vga_ptr>
    40000540:	6585                	lui	a1,0x1
    40000542:	00073883          	ld	a7,0(a4)
    40000546:	07f7e513          	ori	a0,a5,127
    4000054a:	86be                	mv	a3,a5
    4000054c:	4601                	li	a2,0
    4000054e:	4701                	li	a4,0
    40000550:	f205859b          	addiw	a1,a1,-224
    40000554:	00d55863          	ble	a3,a0,40000564 <hid_console_putchar+0xde>
    40000558:	db35                	beqz	a4,400004cc <hid_console_putchar+0x46>
    4000055a:	00006797          	auipc	a5,0x6
    4000055e:	28d7a123          	sw	a3,642(a5) # 400067dc <addr_int>
    40000562:	b7ad                	j	400004cc <hid_console_putchar+0x46>
    40000564:	00c78733          	add	a4,a5,a2
    40000568:	0706                	slli	a4,a4,0x1
    4000056a:	9746                	add	a4,a4,a7
    4000056c:	00b71023          	sh	a1,0(a4)
    40000570:	2685                	addiw	a3,a3,1
    40000572:	0605                	addi	a2,a2,1
    40000574:	4705                	li	a4,1
    40000576:	bff9                	j	40000554 <hid_console_putchar+0xce>
    40000578:	0017871b          	addiw	a4,a5,1
    4000057c:	00006697          	auipc	a3,0x6
    40000580:	26e6a023          	sw	a4,608(a3) # 400067dc <addr_int>
    40000584:	00006717          	auipc	a4,0x6
    40000588:	1ec70713          	addi	a4,a4,492 # 40006770 <hid_vga_ptr>
    4000058c:	6318                	ld	a4,0(a4)
    4000058e:	0786                	slli	a5,a5,0x1
    40000590:	97ba                	add	a5,a5,a4
    40000592:	6705                	lui	a4,0x1
    40000594:	f0070713          	addi	a4,a4,-256 # f00 <_tbss_end+0xf00>
    40000598:	8d59                	or	a0,a0,a4
    4000059a:	1542                	slli	a0,a0,0x30
    4000059c:	9141                	srli	a0,a0,0x30
    4000059e:	00a79023          	sh	a0,0(a5)
    400005a2:	b72d                	j	400004cc <hid_console_putchar+0x46>
    400005a4:	00c71023          	sh	a2,0(a4)
    400005a8:	bfb9                	j	40000506 <hid_console_putchar+0x80>

00000000400005aa <uart_console_putchar>:
    400005aa:	00006797          	auipc	a5,0x6
    400005ae:	1ce78793          	addi	a5,a5,462 # 40006778 <uart_base>
    400005b2:	6398                	ld	a4,0(a5)
    400005b4:	631c                	ld	a5,0(a4)
    400005b6:	4007f793          	andi	a5,a5,1024
    400005ba:	ffed                	bnez	a5,400005b4 <uart_console_putchar+0xa>
    400005bc:	e308                	sd	a0,0(a4)
    400005be:	8082                	ret

00000000400005c0 <hid_init>:
    400005c0:	8082                	ret

00000000400005c2 <hid_send_irq>:
    400005c2:	8082                	ret

00000000400005c4 <hid_send>:
    400005c4:	1141                	addi	sp,sp,-16
    400005c6:	e022                	sd	s0,0(sp)
    400005c8:	e406                	sd	ra,8(sp)
    400005ca:	842a                	mv	s0,a0
    400005cc:	fdfff0ef          	jal	ra,400005aa <uart_console_putchar>
    400005d0:	8522                	mv	a0,s0
    400005d2:	6402                	ld	s0,0(sp)
    400005d4:	60a2                	ld	ra,8(sp)
    400005d6:	0141                	addi	sp,sp,16
    400005d8:	eafff06f          	j	40000486 <hid_console_putchar>

00000000400005dc <hid_send_string>:
    400005dc:	1141                	addi	sp,sp,-16
    400005de:	e022                	sd	s0,0(sp)
    400005e0:	e406                	sd	ra,8(sp)
    400005e2:	842a                	mv	s0,a0
    400005e4:	00044503          	lbu	a0,0(s0)
    400005e8:	e509                	bnez	a0,400005f2 <hid_send_string+0x16>
    400005ea:	60a2                	ld	ra,8(sp)
    400005ec:	6402                	ld	s0,0(sp)
    400005ee:	0141                	addi	sp,sp,16
    400005f0:	8082                	ret
    400005f2:	0405                	addi	s0,s0,1
    400005f4:	fd1ff0ef          	jal	ra,400005c4 <hid_send>
    400005f8:	b7f5                	j	400005e4 <hid_send_string+0x8>

00000000400005fa <hid_send_buf>:
    400005fa:	7179                	addi	sp,sp,-48
    400005fc:	f022                	sd	s0,32(sp)
    400005fe:	ec26                	sd	s1,24(sp)
    40000600:	f406                	sd	ra,40(sp)
    40000602:	84aa                	mv	s1,a0
    40000604:	842a                	mv	s0,a0
    40000606:	409407bb          	subw	a5,s0,s1
    4000060a:	00b7c763          	blt	a5,a1,40000618 <hid_send_buf+0x1e>
    4000060e:	70a2                	ld	ra,40(sp)
    40000610:	7402                	ld	s0,32(sp)
    40000612:	64e2                	ld	s1,24(sp)
    40000614:	6145                	addi	sp,sp,48
    40000616:	8082                	ret
    40000618:	00044503          	lbu	a0,0(s0)
    4000061c:	e42e                	sd	a1,8(sp)
    4000061e:	0405                	addi	s0,s0,1
    40000620:	fa5ff0ef          	jal	ra,400005c4 <hid_send>
    40000624:	65a2                	ld	a1,8(sp)
    40000626:	b7c5                	j	40000606 <hid_send_buf+0xc>

0000000040000628 <hid_recv>:
    40000628:	0ff00513          	li	a0,255
    4000062c:	8082                	ret

000000004000062e <hid_check_read_irq>:
    4000062e:	00006797          	auipc	a5,0x6
    40000632:	14a78793          	addi	a5,a5,330 # 40006778 <uart_base>
    40000636:	639c                	ld	a5,0(a5)
    40000638:	4501                	li	a0,0
    4000063a:	6398                	ld	a4,0(a5)
    4000063c:	6709                	lui	a4,0x2
    4000063e:	97ba                	add	a5,a5,a4
    40000640:	639c                	ld	a5,0(a5)
    40000642:	8082                	ret

0000000040000644 <hid_read_irq>:
    40000644:	1101                	addi	sp,sp,-32
    40000646:	e822                	sd	s0,16(sp)
    40000648:	e426                	sd	s1,8(sp)
    4000064a:	ec06                	sd	ra,24(sp)
    4000064c:	00006497          	auipc	s1,0x6
    40000650:	12c48493          	addi	s1,s1,300 # 40006778 <uart_base>
    40000654:	6405                	lui	s0,0x1
    40000656:	fd9ff0ef          	jal	ra,4000062e <hid_check_read_irq>
    4000065a:	dd75                	beqz	a0,40000656 <hid_read_irq+0x12>
    4000065c:	609c                	ld	a5,0(s1)
    4000065e:	00878733          	add	a4,a5,s0
    40000662:	00073023          	sd	zero,0(a4) # 2000 <_tbss_end+0x2000>
    40000666:	6388                	ld	a0,0(a5)
    40000668:	07f57513          	andi	a0,a0,127
    4000066c:	d56d                	beqz	a0,40000656 <hid_read_irq+0x12>
    4000066e:	60e2                	ld	ra,24(sp)
    40000670:	6442                	ld	s0,16(sp)
    40000672:	64a2                	ld	s1,8(sp)
    40000674:	6105                	addi	sp,sp,32
    40000676:	8082                	ret

0000000040000678 <hid_enable_read_irq>:
    40000678:	8082                	ret

000000004000067a <hid_disable_read_irq>:
    4000067a:	8082                	ret

000000004000067c <putc>:
    4000067c:	1141                	addi	sp,sp,-16
    4000067e:	0ff57513          	andi	a0,a0,255
    40000682:	e406                	sd	ra,8(sp)
    40000684:	f41ff0ef          	jal	ra,400005c4 <hid_send>
    40000688:	60a2                	ld	ra,8(sp)
    4000068a:	0141                	addi	sp,sp,16
    4000068c:	8082                	ret

000000004000068e <puts>:
    4000068e:	1141                	addi	sp,sp,-16
    40000690:	e022                	sd	s0,0(sp)
    40000692:	e406                	sd	ra,8(sp)
    40000694:	842a                	mv	s0,a0
    40000696:	00044503          	lbu	a0,0(s0) # 1000 <_tbss_end+0x1000>
    4000069a:	e909                	bnez	a0,400006ac <puts+0x1e>
    4000069c:	4529                	li	a0,10
    4000069e:	f27ff0ef          	jal	ra,400005c4 <hid_send>
    400006a2:	60a2                	ld	ra,8(sp)
    400006a4:	6402                	ld	s0,0(sp)
    400006a6:	4501                	li	a0,0
    400006a8:	0141                	addi	sp,sp,16
    400006aa:	8082                	ret
    400006ac:	0405                	addi	s0,s0,1
    400006ae:	f17ff0ef          	jal	ra,400005c4 <hid_send>
    400006b2:	b7d5                	j	40000696 <puts+0x8>

00000000400006b4 <get_bram_base>:
    400006b4:	40000537          	lui	a0,0x40000
    400006b8:	8082                	ret

00000000400006ba <get_ddr_base>:
    400006ba:	4505                	li	a0,1
    400006bc:	057e                	slli	a0,a0,0x1f
    400006be:	8082                	ret

00000000400006c0 <get_ddr_size>:
    400006c0:	08000537          	lui	a0,0x8000
    400006c4:	8082                	ret

00000000400006c6 <get_flash_base>:
    400006c6:	4501                	li	a0,0
    400006c8:	8082                	ret

00000000400006ca <write_led>:
    400006ca:	1502                	slli	a0,a0,0x20
    400006cc:	9101                	srli	a0,a0,0x20
    400006ce:	400107b7          	lui	a5,0x40010
    400006d2:	ffa8                	sd	a0,120(a5)
    400006d4:	8082                	ret

00000000400006d6 <get_sw>:
    400006d6:	400107b7          	lui	a5,0x40010
    400006da:	7fe8                	ld	a0,248(a5)
    400006dc:	2501                	sext.w	a0,a0
    400006de:	8082                	ret

00000000400006e0 <memcmp>:
    400006e0:	962a                	add	a2,a2,a0
    400006e2:	00c50e63          	beq	a0,a2,400006fe <memcmp+0x1e>
    400006e6:	00054783          	lbu	a5,0(a0) # 8000000 <_tbss_end+0x8000000>
    400006ea:	0005c703          	lbu	a4,0(a1) # 1000 <_tbss_end+0x1000>
    400006ee:	00e78563          	beq	a5,a4,400006f8 <memcmp+0x18>
    400006f2:	40e7853b          	subw	a0,a5,a4
    400006f6:	8082                	ret
    400006f8:	0505                	addi	a0,a0,1
    400006fa:	0585                	addi	a1,a1,1
    400006fc:	b7dd                	j	400006e2 <memcmp+0x2>
    400006fe:	4501                	li	a0,0
    40000700:	8082                	ret

0000000040000702 <memset>:
    40000702:	471d                	li	a4,7
    40000704:	87aa                	mv	a5,a0
    40000706:	04c77563          	bleu	a2,a4,40000750 <memset+0x4e>
    4000070a:	0ff5f813          	andi	a6,a1,255
    4000070e:	00881693          	slli	a3,a6,0x8
    40000712:	0106e6b3          	or	a3,a3,a6
    40000716:	01069713          	slli	a4,a3,0x10
    4000071a:	8ed9                	or	a3,a3,a4
    4000071c:	02069713          	slli	a4,a3,0x20
    40000720:	8f55                	or	a4,a4,a3
    40000722:	00c50333          	add	t1,a0,a2
    40000726:	0077f693          	andi	a3,a5,7
    4000072a:	88be                	mv	a7,a5
    4000072c:	40f30633          	sub	a2,t1,a5
    40000730:	e685                	bnez	a3,40000758 <memset+0x56>
    40000732:	00665693          	srli	a3,a2,0x6
    40000736:	8836                	mv	a6,a3
    40000738:	02081463          	bnez	a6,40000760 <memset+0x5e>
    4000073c:	069a                	slli	a3,a3,0x6
    4000073e:	00365793          	srli	a5,a2,0x3
    40000742:	96c6                	add	a3,a3,a7
    40000744:	8b9d                	andi	a5,a5,7
    40000746:	03079963          	bne	a5,a6,40000778 <memset+0x76>
    4000074a:	078e                	slli	a5,a5,0x3
    4000074c:	97b6                	add	a5,a5,a3
    4000074e:	8a1d                	andi	a2,a2,7
    40000750:	963e                	add	a2,a2,a5
    40000752:	02c79a63          	bne	a5,a2,40000786 <memset+0x84>
    40000756:	8082                	ret
    40000758:	01078023          	sb	a6,0(a5) # 40010000 <_gp+0x90d8>
    4000075c:	0785                	addi	a5,a5,1
    4000075e:	b7e1                	j	40000726 <memset+0x24>
    40000760:	e398                	sd	a4,0(a5)
    40000762:	e798                	sd	a4,8(a5)
    40000764:	eb98                	sd	a4,16(a5)
    40000766:	ef98                	sd	a4,24(a5)
    40000768:	f398                	sd	a4,32(a5)
    4000076a:	f798                	sd	a4,40(a5)
    4000076c:	fb98                	sd	a4,48(a5)
    4000076e:	ff98                	sd	a4,56(a5)
    40000770:	187d                	addi	a6,a6,-1
    40000772:	04078793          	addi	a5,a5,64
    40000776:	b7c9                	j	40000738 <memset+0x36>
    40000778:	00381893          	slli	a7,a6,0x3
    4000077c:	98b6                	add	a7,a7,a3
    4000077e:	00e8b023          	sd	a4,0(a7)
    40000782:	0805                	addi	a6,a6,1
    40000784:	b7c9                	j	40000746 <memset+0x44>
    40000786:	00b78023          	sb	a1,0(a5)
    4000078a:	0785                	addi	a5,a5,1
    4000078c:	b7d9                	j	40000752 <memset+0x50>

000000004000078e <strcmp>:
    4000078e:	0505                	addi	a0,a0,1
    40000790:	fff54783          	lbu	a5,-1(a0)
    40000794:	0585                	addi	a1,a1,1
    40000796:	fff5c703          	lbu	a4,-1(a1)
    4000079a:	e781                	bnez	a5,400007a2 <strcmp+0x14>
    4000079c:	40e0053b          	negw	a0,a4
    400007a0:	8082                	ret
    400007a2:	fee786e3          	beq	a5,a4,4000078e <strcmp>
    400007a6:	40e7853b          	subw	a0,a5,a4
    400007aa:	8082                	ret

00000000400007ac <strcpy>:
    400007ac:	87aa                	mv	a5,a0
    400007ae:	0005c703          	lbu	a4,0(a1)
    400007b2:	0785                	addi	a5,a5,1
    400007b4:	0585                	addi	a1,a1,1
    400007b6:	fee78fa3          	sb	a4,-1(a5)
    400007ba:	fb75                	bnez	a4,400007ae <strcpy+0x2>
    400007bc:	8082                	ret

00000000400007be <strnlen>:
    400007be:	c1a5                	beqz	a1,4000081e <strnlen+0x60>
    400007c0:	00b506b3          	add	a3,a0,a1
    400007c4:	00a6f363          	bleu	a0,a3,400007ca <strnlen+0xc>
    400007c8:	56fd                	li	a3,-1
    400007ca:	85aa                	mv	a1,a0
    400007cc:	0075f793          	andi	a5,a1,7
    400007d0:	e3a1                	bnez	a5,40000810 <strnlen+0x52>
    400007d2:	87ae                	mv	a5,a1
    400007d4:	00006817          	auipc	a6,0x6
    400007d8:	f5480813          	addi	a6,a6,-172 # 40006728 <P_array.1885+0x958>
    400007dc:	00006897          	auipc	a7,0x6
    400007e0:	f5488893          	addi	a7,a7,-172 # 40006730 <P_array.1885+0x960>
    400007e4:	02d7f963          	bleu	a3,a5,40000816 <strnlen+0x58>
    400007e8:	00878713          	addi	a4,a5,8
    400007ec:	00083583          	ld	a1,0(a6)
    400007f0:	ff873603          	ld	a2,-8(a4)
    400007f4:	962e                	add	a2,a2,a1
    400007f6:	0008b583          	ld	a1,0(a7)
    400007fa:	8e6d                	and	a2,a2,a1
    400007fc:	ca2d                	beqz	a2,4000086e <strnlen+0xb0>
    400007fe:	ff874603          	lbu	a2,-8(a4)
    40000802:	ca2d                	beqz	a2,40000874 <strnlen+0xb6>
    40000804:	ff974603          	lbu	a2,-7(a4)
    40000808:	ee19                	bnez	a2,40000826 <strnlen+0x68>
    4000080a:	00178593          	addi	a1,a5,1
    4000080e:	a021                	j	40000816 <strnlen+0x58>
    40000810:	0005c783          	lbu	a5,0(a1)
    40000814:	e799                	bnez	a5,40000822 <strnlen+0x64>
    40000816:	00b6f363          	bleu	a1,a3,4000081c <strnlen+0x5e>
    4000081a:	85b6                	mv	a1,a3
    4000081c:	8d89                	sub	a1,a1,a0
    4000081e:	852e                	mv	a0,a1
    40000820:	8082                	ret
    40000822:	0585                	addi	a1,a1,1
    40000824:	b765                	j	400007cc <strnlen+0xe>
    40000826:	ffa74603          	lbu	a2,-6(a4)
    4000082a:	e601                	bnez	a2,40000832 <strnlen+0x74>
    4000082c:	00278593          	addi	a1,a5,2
    40000830:	b7dd                	j	40000816 <strnlen+0x58>
    40000832:	ffb74603          	lbu	a2,-5(a4)
    40000836:	e601                	bnez	a2,4000083e <strnlen+0x80>
    40000838:	00378593          	addi	a1,a5,3
    4000083c:	bfe9                	j	40000816 <strnlen+0x58>
    4000083e:	ffc74603          	lbu	a2,-4(a4)
    40000842:	e601                	bnez	a2,4000084a <strnlen+0x8c>
    40000844:	00478593          	addi	a1,a5,4
    40000848:	b7f9                	j	40000816 <strnlen+0x58>
    4000084a:	ffd74603          	lbu	a2,-3(a4)
    4000084e:	e601                	bnez	a2,40000856 <strnlen+0x98>
    40000850:	00578593          	addi	a1,a5,5
    40000854:	b7c9                	j	40000816 <strnlen+0x58>
    40000856:	ffe74603          	lbu	a2,-2(a4)
    4000085a:	e601                	bnez	a2,40000862 <strnlen+0xa4>
    4000085c:	00678593          	addi	a1,a5,6
    40000860:	bf5d                	j	40000816 <strnlen+0x58>
    40000862:	fff74603          	lbu	a2,-1(a4)
    40000866:	e601                	bnez	a2,4000086e <strnlen+0xb0>
    40000868:	00778593          	addi	a1,a5,7
    4000086c:	b76d                	j	40000816 <strnlen+0x58>
    4000086e:	85b6                	mv	a1,a3
    40000870:	87ba                	mv	a5,a4
    40000872:	bf8d                	j	400007e4 <strnlen+0x26>
    40000874:	85be                	mv	a1,a5
    40000876:	b745                	j	40000816 <strnlen+0x58>

0000000040000878 <_wordcopy_fwd_aligned>:
    40000878:	00767793          	andi	a5,a2,7
    4000087c:	17fd                	addi	a5,a5,-1
    4000087e:	4719                	li	a4,6
    40000880:	08f76163          	bltu	a4,a5,40000902 <_wordcopy_fwd_aligned+0x8a>
    40000884:	00005717          	auipc	a4,0x5
    40000888:	3ac70713          	addi	a4,a4,940 # 40005c30 <main+0x5e>
    4000088c:	078a                	slli	a5,a5,0x2
    4000088e:	97ba                	add	a5,a5,a4
    40000890:	439c                	lw	a5,0(a5)
    40000892:	97ba                	add	a5,a5,a4
    40000894:	8782                	jr	a5
    40000896:	6198                	ld	a4,0(a1)
    40000898:	fc850513          	addi	a0,a0,-56
    4000089c:	fd058593          	addi	a1,a1,-48
    400008a0:	0619                	addi	a2,a2,6
    400008a2:	7d9c                	ld	a5,56(a1)
    400008a4:	1661                	addi	a2,a2,-8
    400008a6:	fd18                	sd	a4,56(a0)
    400008a8:	04058593          	addi	a1,a1,64
    400008ac:	04050513          	addi	a0,a0,64
    400008b0:	e23d                	bnez	a2,40000916 <_wordcopy_fwd_aligned+0x9e>
    400008b2:	e11c                	sd	a5,0(a0)
    400008b4:	8082                	ret
    400008b6:	619c                	ld	a5,0(a1)
    400008b8:	fd050513          	addi	a0,a0,-48
    400008bc:	fd858593          	addi	a1,a1,-40
    400008c0:	0615                	addi	a2,a2,5
    400008c2:	7998                	ld	a4,48(a1)
    400008c4:	f91c                	sd	a5,48(a0)
    400008c6:	bff1                	j	400008a2 <_wordcopy_fwd_aligned+0x2a>
    400008c8:	6198                	ld	a4,0(a1)
    400008ca:	fd850513          	addi	a0,a0,-40
    400008ce:	1581                	addi	a1,a1,-32
    400008d0:	0611                	addi	a2,a2,4
    400008d2:	759c                	ld	a5,40(a1)
    400008d4:	f518                	sd	a4,40(a0)
    400008d6:	b7f5                	j	400008c2 <_wordcopy_fwd_aligned+0x4a>
    400008d8:	619c                	ld	a5,0(a1)
    400008da:	1501                	addi	a0,a0,-32
    400008dc:	15a1                	addi	a1,a1,-24
    400008de:	060d                	addi	a2,a2,3
    400008e0:	7198                	ld	a4,32(a1)
    400008e2:	f11c                	sd	a5,32(a0)
    400008e4:	b7fd                	j	400008d2 <_wordcopy_fwd_aligned+0x5a>
    400008e6:	6198                	ld	a4,0(a1)
    400008e8:	1521                	addi	a0,a0,-24
    400008ea:	15c1                	addi	a1,a1,-16
    400008ec:	0609                	addi	a2,a2,2
    400008ee:	6d9c                	ld	a5,24(a1)
    400008f0:	ed18                	sd	a4,24(a0)
    400008f2:	b7fd                	j	400008e0 <_wordcopy_fwd_aligned+0x68>
    400008f4:	619c                	ld	a5,0(a1)
    400008f6:	1541                	addi	a0,a0,-16
    400008f8:	15e1                	addi	a1,a1,-8
    400008fa:	0605                	addi	a2,a2,1
    400008fc:	6998                	ld	a4,16(a1)
    400008fe:	e91c                	sd	a5,16(a0)
    40000900:	b7fd                	j	400008ee <_wordcopy_fwd_aligned+0x76>
    40000902:	da4d                	beqz	a2,400008b4 <_wordcopy_fwd_aligned+0x3c>
    40000904:	6198                	ld	a4,0(a1)
    40000906:	1561                	addi	a0,a0,-8
    40000908:	659c                	ld	a5,8(a1)
    4000090a:	e518                	sd	a4,8(a0)
    4000090c:	bfc5                	j	400008fc <_wordcopy_fwd_aligned+0x84>
    4000090e:	167d                	addi	a2,a2,-1
    40000910:	619c                	ld	a5,0(a1)
    40000912:	d245                	beqz	a2,400008b2 <_wordcopy_fwd_aligned+0x3a>
    40000914:	05a1                	addi	a1,a1,8
    40000916:	6198                	ld	a4,0(a1)
    40000918:	e11c                	sd	a5,0(a0)
    4000091a:	b7fd                	j	40000908 <_wordcopy_fwd_aligned+0x90>

000000004000091c <_wordcopy_fwd_dest_aligned>:
    4000091c:	0075f313          	andi	t1,a1,7
    40000920:	00331e1b          	slliw	t3,t1,0x3
    40000924:	04000693          	li	a3,64
    40000928:	00367793          	andi	a5,a2,3
    4000092c:	4709                	li	a4,2
    4000092e:	41c6833b          	subw	t1,a3,t3
    40000932:	99e1                	andi	a1,a1,-8
    40000934:	02e78663          	beq	a5,a4,40000960 <_wordcopy_fwd_dest_aligned+0x44>
    40000938:	470d                	li	a4,3
    4000093a:	04e78f63          	beq	a5,a4,40000998 <_wordcopy_fwd_dest_aligned+0x7c>
    4000093e:	4705                	li	a4,1
    40000940:	06e79c63          	bne	a5,a4,400009b8 <_wordcopy_fwd_dest_aligned+0x9c>
    40000944:	167d                	addi	a2,a2,-1
    40000946:	619c                	ld	a5,0(a1)
    40000948:	6594                	ld	a3,8(a1)
    4000094a:	c221                	beqz	a2,4000098a <_wordcopy_fwd_dest_aligned+0x6e>
    4000094c:	05c1                	addi	a1,a1,16
    4000094e:	01c7d733          	srl	a4,a5,t3
    40000952:	006697b3          	sll	a5,a3,t1
    40000956:	8f5d                	or	a4,a4,a5
    40000958:	0005b883          	ld	a7,0(a1)
    4000095c:	e118                	sd	a4,0(a0)
    4000095e:	a09d                	j	400009c4 <_wordcopy_fwd_dest_aligned+0xa8>
    40000960:	0005b803          	ld	a6,0(a1)
    40000964:	659c                	ld	a5,8(a1)
    40000966:	1521                	addi	a0,a0,-24
    40000968:	15e1                	addi	a1,a1,-8
    4000096a:	0609                	addi	a2,a2,2
    4000096c:	01c85833          	srl	a6,a6,t3
    40000970:	00679733          	sll	a4,a5,t1
    40000974:	00e86833          	or	a6,a6,a4
    40000978:	6d94                	ld	a3,24(a1)
    4000097a:	1671                	addi	a2,a2,-4
    4000097c:	01053c23          	sd	a6,24(a0)
    40000980:	02058593          	addi	a1,a1,32
    40000984:	02050513          	addi	a0,a0,32
    40000988:	f279                	bnez	a2,4000094e <_wordcopy_fwd_dest_aligned+0x32>
    4000098a:	01c7d7b3          	srl	a5,a5,t3
    4000098e:	006696b3          	sll	a3,a3,t1
    40000992:	8fd5                	or	a5,a5,a3
    40000994:	e11c                	sd	a5,0(a0)
    40000996:	8082                	ret
    40000998:	0005b883          	ld	a7,0(a1)
    4000099c:	0085b803          	ld	a6,8(a1)
    400009a0:	1541                	addi	a0,a0,-16
    400009a2:	0605                	addi	a2,a2,1
    400009a4:	01c8d8b3          	srl	a7,a7,t3
    400009a8:	00681733          	sll	a4,a6,t1
    400009ac:	00e8e8b3          	or	a7,a7,a4
    400009b0:	699c                	ld	a5,16(a1)
    400009b2:	01153823          	sd	a7,16(a0)
    400009b6:	bf5d                	j	4000096c <_wordcopy_fwd_dest_aligned+0x50>
    400009b8:	de79                	beqz	a2,40000996 <_wordcopy_fwd_dest_aligned+0x7a>
    400009ba:	6194                	ld	a3,0(a1)
    400009bc:	0085b883          	ld	a7,8(a1)
    400009c0:	1561                	addi	a0,a0,-8
    400009c2:	05a1                	addi	a1,a1,8
    400009c4:	01c6d733          	srl	a4,a3,t3
    400009c8:	006896b3          	sll	a3,a7,t1
    400009cc:	8f55                	or	a4,a4,a3
    400009ce:	0085b803          	ld	a6,8(a1)
    400009d2:	e518                	sd	a4,8(a0)
    400009d4:	bfc1                	j	400009a4 <_wordcopy_fwd_dest_aligned+0x88>

00000000400009d6 <_wordcopy_bwd_aligned>:
    400009d6:	00767793          	andi	a5,a2,7
    400009da:	17fd                	addi	a5,a5,-1
    400009dc:	4719                	li	a4,6
    400009de:	08f76a63          	bltu	a4,a5,40000a72 <_wordcopy_bwd_aligned+0x9c>
    400009e2:	00005717          	auipc	a4,0x5
    400009e6:	26a70713          	addi	a4,a4,618 # 40005c4c <main+0x7a>
    400009ea:	078a                	slli	a5,a5,0x2
    400009ec:	97ba                	add	a5,a5,a4
    400009ee:	439c                	lw	a5,0(a5)
    400009f0:	97ba                	add	a5,a5,a4
    400009f2:	8782                	jr	a5
    400009f4:	ff85b683          	ld	a3,-8(a1)
    400009f8:	ff058793          	addi	a5,a1,-16
    400009fc:	1561                	addi	a0,a0,-8
    400009fe:	0619                	addi	a2,a2,6
    40000a00:	6398                	ld	a4,0(a5)
    40000a02:	1661                	addi	a2,a2,-8
    40000a04:	e114                	sd	a3,0(a0)
    40000a06:	fc078793          	addi	a5,a5,-64
    40000a0a:	fc050513          	addi	a0,a0,-64
    40000a0e:	e641                	bnez	a2,40000a96 <_wordcopy_bwd_aligned+0xc0>
    40000a10:	fd18                	sd	a4,56(a0)
    40000a12:	8082                	ret
    40000a14:	ff85b703          	ld	a4,-8(a1)
    40000a18:	fe858793          	addi	a5,a1,-24
    40000a1c:	1541                	addi	a0,a0,-16
    40000a1e:	0615                	addi	a2,a2,5
    40000a20:	6794                	ld	a3,8(a5)
    40000a22:	e518                	sd	a4,8(a0)
    40000a24:	bff1                	j	40000a00 <_wordcopy_bwd_aligned+0x2a>
    40000a26:	ff85b683          	ld	a3,-8(a1)
    40000a2a:	fe058793          	addi	a5,a1,-32
    40000a2e:	1521                	addi	a0,a0,-24
    40000a30:	0611                	addi	a2,a2,4
    40000a32:	6b98                	ld	a4,16(a5)
    40000a34:	e914                	sd	a3,16(a0)
    40000a36:	b7ed                	j	40000a20 <_wordcopy_bwd_aligned+0x4a>
    40000a38:	ff85b703          	ld	a4,-8(a1)
    40000a3c:	fd858793          	addi	a5,a1,-40
    40000a40:	1501                	addi	a0,a0,-32
    40000a42:	060d                	addi	a2,a2,3
    40000a44:	6f94                	ld	a3,24(a5)
    40000a46:	ed18                	sd	a4,24(a0)
    40000a48:	b7ed                	j	40000a32 <_wordcopy_bwd_aligned+0x5c>
    40000a4a:	ff85b683          	ld	a3,-8(a1)
    40000a4e:	fd058793          	addi	a5,a1,-48
    40000a52:	fd850513          	addi	a0,a0,-40
    40000a56:	0609                	addi	a2,a2,2
    40000a58:	7398                	ld	a4,32(a5)
    40000a5a:	f114                	sd	a3,32(a0)
    40000a5c:	b7e5                	j	40000a44 <_wordcopy_bwd_aligned+0x6e>
    40000a5e:	ff85b703          	ld	a4,-8(a1)
    40000a62:	fc858793          	addi	a5,a1,-56
    40000a66:	fd050513          	addi	a0,a0,-48
    40000a6a:	0605                	addi	a2,a2,1
    40000a6c:	7794                	ld	a3,40(a5)
    40000a6e:	f518                	sd	a4,40(a0)
    40000a70:	b7e5                	j	40000a58 <_wordcopy_bwd_aligned+0x82>
    40000a72:	d245                	beqz	a2,40000a12 <_wordcopy_bwd_aligned+0x3c>
    40000a74:	ff85b683          	ld	a3,-8(a1)
    40000a78:	fc058793          	addi	a5,a1,-64
    40000a7c:	fc850513          	addi	a0,a0,-56
    40000a80:	7b98                	ld	a4,48(a5)
    40000a82:	f914                	sd	a3,48(a0)
    40000a84:	b7e5                	j	40000a6c <_wordcopy_bwd_aligned+0x96>
    40000a86:	167d                	addi	a2,a2,-1
    40000a88:	fc050513          	addi	a0,a0,-64
    40000a8c:	ff85b703          	ld	a4,-8(a1)
    40000a90:	d241                	beqz	a2,40000a10 <_wordcopy_bwd_aligned+0x3a>
    40000a92:	fb858793          	addi	a5,a1,-72
    40000a96:	7f94                	ld	a3,56(a5)
    40000a98:	fd18                	sd	a4,56(a0)
    40000a9a:	b7dd                	j	40000a80 <_wordcopy_bwd_aligned+0xaa>

0000000040000a9c <_wordcopy_bwd_dest_aligned>:
    40000a9c:	0075f713          	andi	a4,a1,7
    40000aa0:	00371e1b          	slliw	t3,a4,0x3
    40000aa4:	04000813          	li	a6,64
    40000aa8:	00367793          	andi	a5,a2,3
    40000aac:	4709                	li	a4,2
    40000aae:	41c8083b          	subw	a6,a6,t3
    40000ab2:	99e1                	andi	a1,a1,-8
    40000ab4:	02e78963          	beq	a5,a4,40000ae6 <_wordcopy_bwd_dest_aligned+0x4a>
    40000ab8:	470d                	li	a4,3
    40000aba:	06e78263          	beq	a5,a4,40000b1e <_wordcopy_bwd_dest_aligned+0x82>
    40000abe:	4705                	li	a4,1
    40000ac0:	08e79163          	bne	a5,a4,40000b42 <_wordcopy_bwd_dest_aligned+0xa6>
    40000ac4:	167d                	addi	a2,a2,-1
    40000ac6:	1501                	addi	a0,a0,-32
    40000ac8:	6198                	ld	a4,0(a1)
    40000aca:	ff85b783          	ld	a5,-8(a1)
    40000ace:	c229                	beqz	a2,40000b10 <_wordcopy_bwd_dest_aligned+0x74>
    40000ad0:	fd858693          	addi	a3,a1,-40
    40000ad4:	01c7d5b3          	srl	a1,a5,t3
    40000ad8:	01071733          	sll	a4,a4,a6
    40000adc:	8f4d                	or	a4,a4,a1
    40000ade:	0186b303          	ld	t1,24(a3)
    40000ae2:	ed18                	sd	a4,24(a0)
    40000ae4:	a0b5                	j	40000b50 <_wordcopy_bwd_dest_aligned+0xb4>
    40000ae6:	0005b883          	ld	a7,0(a1)
    40000aea:	ff85b703          	ld	a4,-8(a1)
    40000aee:	ff058693          	addi	a3,a1,-16
    40000af2:	1561                	addi	a0,a0,-8
    40000af4:	0609                	addi	a2,a2,2
    40000af6:	01c755b3          	srl	a1,a4,t3
    40000afa:	010898b3          	sll	a7,a7,a6
    40000afe:	0115e8b3          	or	a7,a1,a7
    40000b02:	629c                	ld	a5,0(a3)
    40000b04:	1671                	addi	a2,a2,-4
    40000b06:	01153023          	sd	a7,0(a0)
    40000b0a:	1681                	addi	a3,a3,-32
    40000b0c:	1501                	addi	a0,a0,-32
    40000b0e:	f279                	bnez	a2,40000ad4 <_wordcopy_bwd_dest_aligned+0x38>
    40000b10:	01c7d7b3          	srl	a5,a5,t3
    40000b14:	01071733          	sll	a4,a4,a6
    40000b18:	8fd9                	or	a5,a5,a4
    40000b1a:	ed1c                	sd	a5,24(a0)
    40000b1c:	8082                	ret
    40000b1e:	0005b303          	ld	t1,0(a1)
    40000b22:	ff85b883          	ld	a7,-8(a1)
    40000b26:	fe858693          	addi	a3,a1,-24
    40000b2a:	1541                	addi	a0,a0,-16
    40000b2c:	0605                	addi	a2,a2,1
    40000b2e:	01c8d7b3          	srl	a5,a7,t3
    40000b32:	01031333          	sll	t1,t1,a6
    40000b36:	0067e333          	or	t1,a5,t1
    40000b3a:	6698                	ld	a4,8(a3)
    40000b3c:	00653423          	sd	t1,8(a0)
    40000b40:	bf5d                	j	40000af6 <_wordcopy_bwd_dest_aligned+0x5a>
    40000b42:	de69                	beqz	a2,40000b1c <_wordcopy_bwd_dest_aligned+0x80>
    40000b44:	619c                	ld	a5,0(a1)
    40000b46:	ff85b303          	ld	t1,-8(a1)
    40000b4a:	fe058693          	addi	a3,a1,-32
    40000b4e:	1521                	addi	a0,a0,-24
    40000b50:	01c355b3          	srl	a1,t1,t3
    40000b54:	01079733          	sll	a4,a5,a6
    40000b58:	00e5e7b3          	or	a5,a1,a4
    40000b5c:	0106b883          	ld	a7,16(a3)
    40000b60:	e91c                	sd	a5,16(a0)
    40000b62:	b7f1                	j	40000b2e <_wordcopy_bwd_dest_aligned+0x92>

0000000040000b64 <load_elf>:
    40000b64:	04000793          	li	a5,64
    40000b68:	12b7f463          	bleu	a1,a5,40000c90 <load_elf+0x12c>
    40000b6c:	00056683          	lwu	a3,0(a0)
    40000b70:	464c4737          	lui	a4,0x464c4
    40000b74:	57f70713          	addi	a4,a4,1407 # 464c457f <_gp+0x64bd657>
    40000b78:	4789                	li	a5,2
    40000b7a:	10e69c63          	bne	a3,a4,40000c92 <load_elf+0x12e>
    40000b7e:	00454683          	lbu	a3,4(a0)
    40000b82:	4709                	li	a4,2
    40000b84:	10e69763          	bne	a3,a4,40000c92 <load_elf+0x12e>
    40000b88:	03855703          	lhu	a4,56(a0)
    40000b8c:	03800793          	li	a5,56
    40000b90:	7159                	addi	sp,sp,-112
    40000b92:	02f70733          	mul	a4,a4,a5
    40000b96:	f0a2                	sd	s0,96(sp)
    40000b98:	7100                	ld	s0,32(a0)
    40000b9a:	fc56                	sd	s5,56(sp)
    40000b9c:	02059a93          	slli	s5,a1,0x20
    40000ba0:	f486                	sd	ra,104(sp)
    40000ba2:	eca6                	sd	s1,88(sp)
    40000ba4:	e8ca                	sd	s2,80(sp)
    40000ba6:	e4ce                	sd	s3,72(sp)
    40000ba8:	e0d2                	sd	s4,64(sp)
    40000baa:	f85a                	sd	s6,48(sp)
    40000bac:	f45e                	sd	s7,40(sp)
    40000bae:	f062                	sd	s8,32(sp)
    40000bb0:	ec66                	sd	s9,24(sp)
    40000bb2:	e86a                	sd	s10,16(sp)
    40000bb4:	e46e                	sd	s11,8(sp)
    40000bb6:	020ada93          	srli	s5,s5,0x20
    40000bba:	9722                	add	a4,a4,s0
    40000bbc:	478d                	li	a5,3
    40000bbe:	06eae663          	bltu	s5,a4,40000c2a <load_elf+0xc6>
    40000bc2:	892e                	mv	s2,a1
    40000bc4:	84aa                	mv	s1,a0
    40000bc6:	942a                	add	s0,s0,a0
    40000bc8:	4a01                	li	s4,0
    40000bca:	4b05                	li	s6,1
    40000bcc:	00005b97          	auipc	s7,0x5
    40000bd0:	4d4b8b93          	addi	s7,s7,1236 # 400060a0 <P_array.1885+0x2d0>
    40000bd4:	00005c17          	auipc	s8,0x5
    40000bd8:	514c0c13          	addi	s8,s8,1300 # 400060e8 <P_array.1885+0x318>
    40000bdc:	00005c97          	auipc	s9,0x5
    40000be0:	4f4c8c93          	addi	s9,s9,1268 # 400060d0 <P_array.1885+0x300>
    40000be4:	0384d783          	lhu	a5,56(s1)
    40000be8:	00fa6463          	bltu	s4,a5,40000bf0 <load_elf+0x8c>
    40000bec:	4781                	li	a5,0
    40000bee:	a835                	j	40000c2a <load_elf+0xc6>
    40000bf0:	401c                	lw	a5,0(s0)
    40000bf2:	09679b63          	bne	a5,s6,40000c88 <load_elf+0x124>
    40000bf6:	741c                	ld	a5,40(s0)
    40000bf8:	cbc1                	beqz	a5,40000c88 <load_elf+0x124>
    40000bfa:	85d2                	mv	a1,s4
    40000bfc:	855e                	mv	a0,s7
    40000bfe:	2de040ef          	jal	ra,40004edc <printf>
    40000c02:	02043983          	ld	s3,32(s0)
    40000c06:	04098d63          	beqz	s3,40000c60 <load_elf+0xfc>
    40000c0a:	640c                	ld	a1,8(s0)
    40000c0c:	01843d03          	ld	s10,24(s0)
    40000c10:	00b48db3          	add	s11,s1,a1
    40000c14:	95ce                	add	a1,a1,s3
    40000c16:	02bafa63          	bleu	a1,s5,40000c4a <load_elf+0xe6>
    40000c1a:	864a                	mv	a2,s2
    40000c1c:	00005517          	auipc	a0,0x5
    40000c20:	49450513          	addi	a0,a0,1172 # 400060b0 <P_array.1885+0x2e0>
    40000c24:	2b8040ef          	jal	ra,40004edc <printf>
    40000c28:	478d                	li	a5,3
    40000c2a:	70a6                	ld	ra,104(sp)
    40000c2c:	7406                	ld	s0,96(sp)
    40000c2e:	64e6                	ld	s1,88(sp)
    40000c30:	6946                	ld	s2,80(sp)
    40000c32:	69a6                	ld	s3,72(sp)
    40000c34:	6a06                	ld	s4,64(sp)
    40000c36:	7ae2                	ld	s5,56(sp)
    40000c38:	7b42                	ld	s6,48(sp)
    40000c3a:	7ba2                	ld	s7,40(sp)
    40000c3c:	7c02                	ld	s8,32(sp)
    40000c3e:	6ce2                	ld	s9,24(sp)
    40000c40:	6d42                	ld	s10,16(sp)
    40000c42:	6da2                	ld	s11,8(sp)
    40000c44:	853e                	mv	a0,a5
    40000c46:	6165                	addi	sp,sp,112
    40000c48:	8082                	ret
    40000c4a:	866e                	mv	a2,s11
    40000c4c:	85ea                	mv	a1,s10
    40000c4e:	86ce                	mv	a3,s3
    40000c50:	8566                	mv	a0,s9
    40000c52:	28a040ef          	jal	ra,40004edc <printf>
    40000c56:	864e                	mv	a2,s3
    40000c58:	85ee                	mv	a1,s11
    40000c5a:	856a                	mv	a0,s10
    40000c5c:	367040ef          	jal	ra,400057c2 <memcpy>
    40000c60:	02843983          	ld	s3,40(s0)
    40000c64:	701c                	ld	a5,32(s0)
    40000c66:	0337f163          	bleu	s3,a5,40000c88 <load_elf+0x124>
    40000c6a:	01843d03          	ld	s10,24(s0)
    40000c6e:	40f989b3          	sub	s3,s3,a5
    40000c72:	864e                	mv	a2,s3
    40000c74:	9d3e                	add	s10,s10,a5
    40000c76:	85ea                	mv	a1,s10
    40000c78:	8562                	mv	a0,s8
    40000c7a:	262040ef          	jal	ra,40004edc <printf>
    40000c7e:	864e                	mv	a2,s3
    40000c80:	4581                	li	a1,0
    40000c82:	856a                	mv	a0,s10
    40000c84:	a7fff0ef          	jal	ra,40000702 <memset>
    40000c88:	2a05                	addiw	s4,s4,1
    40000c8a:	03840413          	addi	s0,s0,56
    40000c8e:	bf99                	j	40000be4 <load_elf+0x80>
    40000c90:	4785                	li	a5,1
    40000c92:	853e                	mv	a0,a5
    40000c94:	8082                	ret

0000000040000c96 <LD_DWORD>:
    40000c96:	00154783          	lbu	a5,1(a0)
    40000c9a:	00054703          	lbu	a4,0(a0)
    40000c9e:	07a2                	slli	a5,a5,0x8
    40000ca0:	8f5d                	or	a4,a4,a5
    40000ca2:	00254783          	lbu	a5,2(a0)
    40000ca6:	00354503          	lbu	a0,3(a0)
    40000caa:	07c2                	slli	a5,a5,0x10
    40000cac:	8fd9                	or	a5,a5,a4
    40000cae:	0562                	slli	a0,a0,0x18
    40000cb0:	8d5d                	or	a0,a0,a5
    40000cb2:	2501                	sext.w	a0,a0
    40000cb4:	8082                	ret

0000000040000cb6 <mem_cpy>:
    40000cb6:	57fd                	li	a5,-1
    40000cb8:	367d                	addiw	a2,a2,-1
    40000cba:	00f61363          	bne	a2,a5,40000cc0 <mem_cpy+0xa>
    40000cbe:	8082                	ret
    40000cc0:	0005c703          	lbu	a4,0(a1)
    40000cc4:	0505                	addi	a0,a0,1
    40000cc6:	0585                	addi	a1,a1,1
    40000cc8:	fee50fa3          	sb	a4,-1(a0)
    40000ccc:	b7f5                	j	40000cb8 <mem_cpy+0x2>

0000000040000cce <mem_set>:
    40000cce:	57fd                	li	a5,-1
    40000cd0:	367d                	addiw	a2,a2,-1
    40000cd2:	00f61363          	bne	a2,a5,40000cd8 <mem_set+0xa>
    40000cd6:	8082                	ret
    40000cd8:	00b50023          	sb	a1,0(a0)
    40000cdc:	0505                	addi	a0,a0,1
    40000cde:	bfcd                	j	40000cd0 <mem_set+0x2>

0000000040000ce0 <get_fileinfo>:
    40000ce0:	495c                	lw	a5,20(a0)
    40000ce2:	1101                	addi	sp,sp,-32
    40000ce4:	e822                	sd	s0,16(sp)
    40000ce6:	ec06                	sd	ra,24(sp)
    40000ce8:	e426                	sd	s1,8(sp)
    40000cea:	e04a                	sd	s2,0(sp)
    40000cec:	00958413          	addi	s0,a1,9
    40000cf0:	cfa5                	beqz	a5,40000d68 <get_fileinfo+0x88>
    40000cf2:	01853903          	ld	s2,24(a0)
    40000cf6:	4781                	li	a5,0
    40000cf8:	02000513          	li	a0,32
    40000cfc:	86ca                	mv	a3,s2
    40000cfe:	4815                	li	a6,5
    40000d00:	48a5                	li	a7,9
    40000d02:	02e00313          	li	t1,46
    40000d06:	462d                	li	a2,11
    40000d08:	0006c703          	lbu	a4,0(a3)
    40000d0c:	2785                	addiw	a5,a5,1
    40000d0e:	00a70e63          	beq	a4,a0,40000d2a <get_fileinfo+0x4a>
    40000d12:	01071463          	bne	a4,a6,40000d1a <get_fileinfo+0x3a>
    40000d16:	0e500713          	li	a4,229
    40000d1a:	01179563          	bne	a5,a7,40000d24 <get_fileinfo+0x44>
    40000d1e:	00640023          	sb	t1,0(s0)
    40000d22:	0405                	addi	s0,s0,1
    40000d24:	00e40023          	sb	a4,0(s0)
    40000d28:	0405                	addi	s0,s0,1
    40000d2a:	0685                	addi	a3,a3,1
    40000d2c:	fcc79ee3          	bne	a5,a2,40000d08 <get_fileinfo+0x28>
    40000d30:	00b94783          	lbu	a5,11(s2)
    40000d34:	01c90513          	addi	a0,s2,28
    40000d38:	84ae                	mv	s1,a1
    40000d3a:	00f58423          	sb	a5,8(a1)
    40000d3e:	f59ff0ef          	jal	ra,40000c96 <LD_DWORD>
    40000d42:	c088                	sw	a0,0(s1)
    40000d44:	01994783          	lbu	a5,25(s2)
    40000d48:	01894703          	lbu	a4,24(s2)
    40000d4c:	0087979b          	slliw	a5,a5,0x8
    40000d50:	8fd9                	or	a5,a5,a4
    40000d52:	00f49223          	sh	a5,4(s1)
    40000d56:	01794783          	lbu	a5,23(s2)
    40000d5a:	01694703          	lbu	a4,22(s2)
    40000d5e:	0087979b          	slliw	a5,a5,0x8
    40000d62:	8fd9                	or	a5,a5,a4
    40000d64:	00f49323          	sh	a5,6(s1)
    40000d68:	00040023          	sb	zero,0(s0)
    40000d6c:	60e2                	ld	ra,24(sp)
    40000d6e:	6442                	ld	s0,16(sp)
    40000d70:	64a2                	ld	s1,8(sp)
    40000d72:	6902                	ld	s2,0(sp)
    40000d74:	6105                	addi	sp,sp,32
    40000d76:	8082                	ret

0000000040000d78 <get_ldnumber>:
    40000d78:	611c                	ld	a5,0(a0)
    40000d7a:	873e                	mv	a4,a5
    40000d7c:	cf99                	beqz	a5,40000d9a <get_ldnumber+0x22>
    40000d7e:	02000593          	li	a1,32
    40000d82:	03a00613          	li	a2,58
    40000d86:	00074683          	lbu	a3,0(a4)
    40000d8a:	02d5fc63          	bleu	a3,a1,40000dc2 <get_ldnumber+0x4a>
    40000d8e:	00c69863          	bne	a3,a2,40000d9e <get_ldnumber+0x26>
    40000d92:	00178693          	addi	a3,a5,1
    40000d96:	00d70663          	beq	a4,a3,40000da2 <get_ldnumber+0x2a>
    40000d9a:	577d                	li	a4,-1
    40000d9c:	a00d                	j	40000dbe <get_ldnumber+0x46>
    40000d9e:	0705                	addi	a4,a4,1
    40000da0:	b7dd                	j	40000d86 <get_ldnumber+0xe>
    40000da2:	0007c683          	lbu	a3,0(a5)
    40000da6:	4605                	li	a2,1
    40000da8:	577d                	li	a4,-1
    40000daa:	fd06869b          	addiw	a3,a3,-48
    40000dae:	0ff6f593          	andi	a1,a3,255
    40000db2:	00b66663          	bltu	a2,a1,40000dbe <get_ldnumber+0x46>
    40000db6:	0789                	addi	a5,a5,2
    40000db8:	0006871b          	sext.w	a4,a3
    40000dbc:	e11c                	sd	a5,0(a0)
    40000dbe:	853a                	mv	a0,a4
    40000dc0:	8082                	ret
    40000dc2:	00006717          	auipc	a4,0x6
    40000dc6:	a5274703          	lbu	a4,-1454(a4) # 40006814 <CurrVol>
    40000dca:	bfd5                	j	40000dbe <get_ldnumber+0x46>

0000000040000dcc <validate>:
    40000dcc:	c915                	beqz	a0,40000e00 <validate+0x34>
    40000dce:	611c                	ld	a5,0(a0)
    40000dd0:	cb85                	beqz	a5,40000e00 <validate+0x34>
    40000dd2:	0007c703          	lbu	a4,0(a5)
    40000dd6:	c70d                	beqz	a4,40000e00 <validate+0x34>
    40000dd8:	0067d683          	lhu	a3,6(a5)
    40000ddc:	00855703          	lhu	a4,8(a0)
    40000de0:	02e69063          	bne	a3,a4,40000e00 <validate+0x34>
    40000de4:	1141                	addi	sp,sp,-16
    40000de6:	e406                	sd	ra,8(sp)
    40000de8:	0017c503          	lbu	a0,1(a5)
    40000dec:	29d040ef          	jal	ra,40005888 <disk_status>
    40000df0:	00157793          	andi	a5,a0,1
    40000df4:	4501                	li	a0,0
    40000df6:	c391                	beqz	a5,40000dfa <validate+0x2e>
    40000df8:	4525                	li	a0,9
    40000dfa:	60a2                	ld	ra,8(sp)
    40000dfc:	0141                	addi	sp,sp,16
    40000dfe:	8082                	ret
    40000e00:	4525                	li	a0,9
    40000e02:	8082                	ret

0000000040000e04 <ld_clust.isra.0>:
    40000e04:	01b5c783          	lbu	a5,27(a1)
    40000e08:	01a5c703          	lbu	a4,26(a1)
    40000e0c:	468d                	li	a3,3
    40000e0e:	0087979b          	slliw	a5,a5,0x8
    40000e12:	8f5d                	or	a4,a4,a5
    40000e14:	0007079b          	sext.w	a5,a4
    40000e18:	00d51d63          	bne	a0,a3,40000e32 <ld_clust.isra.0+0x2e>
    40000e1c:	0155c783          	lbu	a5,21(a1)
    40000e20:	0145c683          	lbu	a3,20(a1)
    40000e24:	0087979b          	slliw	a5,a5,0x8
    40000e28:	8fd5                	or	a5,a5,a3
    40000e2a:	0107979b          	slliw	a5,a5,0x10
    40000e2e:	8fd9                	or	a5,a5,a4
    40000e30:	2781                	sext.w	a5,a5
    40000e32:	853e                	mv	a0,a5
    40000e34:	8082                	ret

0000000040000e36 <sync_window.part.2>:
    40000e36:	7179                	addi	sp,sp,-48
    40000e38:	f022                	sd	s0,32(sp)
    40000e3a:	ec26                	sd	s1,24(sp)
    40000e3c:	e44e                	sd	s3,8(sp)
    40000e3e:	5904                	lw	s1,48(a0)
    40000e40:	f406                	sd	ra,40(sp)
    40000e42:	e84a                	sd	s2,16(sp)
    40000e44:	e052                	sd	s4,0(sp)
    40000e46:	03450993          	addi	s3,a0,52
    40000e4a:	842a                	mv	s0,a0
    40000e4c:	00154503          	lbu	a0,1(a0)
    40000e50:	4685                	li	a3,1
    40000e52:	8626                	mv	a2,s1
    40000e54:	85ce                	mv	a1,s3
    40000e56:	2a7040ef          	jal	ra,400058fc <disk_write>
    40000e5a:	2501                	sext.w	a0,a0
    40000e5c:	e131                	bnez	a0,40000ea0 <sync_window.part.2+0x6a>
    40000e5e:	505c                	lw	a5,36(s0)
    40000e60:	4c58                	lw	a4,28(s0)
    40000e62:	00040223          	sb	zero,4(s0)
    40000e66:	40f487bb          	subw	a5,s1,a5
    40000e6a:	00e7eb63          	bltu	a5,a4,40000e80 <sync_window.part.2+0x4a>
    40000e6e:	4501                	li	a0,0
    40000e70:	70a2                	ld	ra,40(sp)
    40000e72:	7402                	ld	s0,32(sp)
    40000e74:	64e2                	ld	s1,24(sp)
    40000e76:	6942                	ld	s2,16(sp)
    40000e78:	69a2                	ld	s3,8(sp)
    40000e7a:	6a02                	ld	s4,0(sp)
    40000e7c:	6145                	addi	sp,sp,48
    40000e7e:	8082                	ret
    40000e80:	00344903          	lbu	s2,3(s0)
    40000e84:	4a05                	li	s4,1
    40000e86:	ff2a74e3          	bleu	s2,s4,40000e6e <sync_window.part.2+0x38>
    40000e8a:	4c5c                	lw	a5,28(s0)
    40000e8c:	00144503          	lbu	a0,1(s0)
    40000e90:	4685                	li	a3,1
    40000e92:	9cbd                	addw	s1,s1,a5
    40000e94:	8626                	mv	a2,s1
    40000e96:	85ce                	mv	a1,s3
    40000e98:	265040ef          	jal	ra,400058fc <disk_write>
    40000e9c:	397d                	addiw	s2,s2,-1
    40000e9e:	b7e5                	j	40000e86 <sync_window.part.2+0x50>
    40000ea0:	4505                	li	a0,1
    40000ea2:	b7f9                	j	40000e70 <sync_window.part.2+0x3a>

0000000040000ea4 <sync_window>:
    40000ea4:	00454783          	lbu	a5,4(a0)
    40000ea8:	c399                	beqz	a5,40000eae <sync_window+0xa>
    40000eaa:	f8dff06f          	j	40000e36 <sync_window.part.2>
    40000eae:	4501                	li	a0,0
    40000eb0:	8082                	ret

0000000040000eb2 <move_window>:
    40000eb2:	591c                	lw	a5,48(a0)
    40000eb4:	1101                	addi	sp,sp,-32
    40000eb6:	e822                	sd	s0,16(sp)
    40000eb8:	ec06                	sd	ra,24(sp)
    40000eba:	e426                	sd	s1,8(sp)
    40000ebc:	e04a                	sd	s2,0(sp)
    40000ebe:	4401                	li	s0,0
    40000ec0:	02b78763          	beq	a5,a1,40000eee <move_window+0x3c>
    40000ec4:	84aa                	mv	s1,a0
    40000ec6:	892e                	mv	s2,a1
    40000ec8:	fddff0ef          	jal	ra,40000ea4 <sync_window>
    40000ecc:	0005041b          	sext.w	s0,a0
    40000ed0:	ec19                	bnez	s0,40000eee <move_window+0x3c>
    40000ed2:	0014c503          	lbu	a0,1(s1)
    40000ed6:	4685                	li	a3,1
    40000ed8:	864a                	mv	a2,s2
    40000eda:	03448593          	addi	a1,s1,52
    40000ede:	1bb040ef          	jal	ra,40005898 <disk_read>
    40000ee2:	2501                	sext.w	a0,a0
    40000ee4:	c119                	beqz	a0,40000eea <move_window+0x38>
    40000ee6:	4405                	li	s0,1
    40000ee8:	597d                	li	s2,-1
    40000eea:	0324a823          	sw	s2,48(s1)
    40000eee:	8522                	mv	a0,s0
    40000ef0:	60e2                	ld	ra,24(sp)
    40000ef2:	6442                	ld	s0,16(sp)
    40000ef4:	64a2                	ld	s1,8(sp)
    40000ef6:	6902                	ld	s2,0(sp)
    40000ef8:	6105                	addi	sp,sp,32
    40000efa:	8082                	ret

0000000040000efc <check_fs>:
    40000efc:	1101                	addi	sp,sp,-32
    40000efe:	e822                	sd	s0,16(sp)
    40000f00:	ec06                	sd	ra,24(sp)
    40000f02:	e426                	sd	s1,8(sp)
    40000f04:	e04a                	sd	s2,0(sp)
    40000f06:	57fd                	li	a5,-1
    40000f08:	00050223          	sb	zero,4(a0)
    40000f0c:	d91c                	sw	a5,48(a0)
    40000f0e:	842a                	mv	s0,a0
    40000f10:	fa3ff0ef          	jal	ra,40000eb2 <move_window>
    40000f14:	2501                	sext.w	a0,a0
    40000f16:	e52d                	bnez	a0,40000f80 <check_fs+0x84>
    40000f18:	23344783          	lbu	a5,563(s0)
    40000f1c:	23244703          	lbu	a4,562(s0)
    40000f20:	4509                	li	a0,2
    40000f22:	0087979b          	slliw	a5,a5,0x8
    40000f26:	8fd9                	or	a5,a5,a4
    40000f28:	0107979b          	slliw	a5,a5,0x10
    40000f2c:	776d                	lui	a4,0xffffb
    40000f2e:	4107d79b          	sraiw	a5,a5,0x10
    40000f32:	a5570713          	addi	a4,a4,-1451 # ffffffffffffaa55 <_gp+0xffffffffbfff3b2d>
    40000f36:	02f71f63          	bne	a4,a5,40000f74 <check_fs+0x78>
    40000f3a:	06a40513          	addi	a0,s0,106
    40000f3e:	d59ff0ef          	jal	ra,40000c96 <LD_DWORD>
    40000f42:	0005079b          	sext.w	a5,a0
    40000f46:	01000537          	lui	a0,0x1000
    40000f4a:	fff50913          	addi	s2,a0,-1 # ffffff <_tbss_end+0xffffff>
    40000f4e:	00544537          	lui	a0,0x544
    40000f52:	14650493          	addi	s1,a0,326 # 544146 <_tbss_end+0x544146>
    40000f56:	0127f7b3          	and	a5,a5,s2
    40000f5a:	4501                	li	a0,0
    40000f5c:	00978c63          	beq	a5,s1,40000f74 <check_fs+0x78>
    40000f60:	08640513          	addi	a0,s0,134
    40000f64:	d33ff0ef          	jal	ra,40000c96 <LD_DWORD>
    40000f68:	2501                	sext.w	a0,a0
    40000f6a:	01257533          	and	a0,a0,s2
    40000f6e:	8d05                	sub	a0,a0,s1
    40000f70:	00a03533          	snez	a0,a0
    40000f74:	60e2                	ld	ra,24(sp)
    40000f76:	6442                	ld	s0,16(sp)
    40000f78:	64a2                	ld	s1,8(sp)
    40000f7a:	6902                	ld	s2,0(sp)
    40000f7c:	6105                	addi	sp,sp,32
    40000f7e:	8082                	ret
    40000f80:	450d                	li	a0,3
    40000f82:	bfcd                	j	40000f74 <check_fs+0x78>

0000000040000f84 <find_volume>:
    40000f84:	715d                	addi	sp,sp,-80
    40000f86:	f84a                	sd	s2,48(sp)
    40000f88:	f44e                	sd	s3,40(sp)
    40000f8a:	e486                	sd	ra,72(sp)
    40000f8c:	e0a2                	sd	s0,64(sp)
    40000f8e:	fc26                	sd	s1,56(sp)
    40000f90:	f052                	sd	s4,32(sp)
    40000f92:	ec56                	sd	s5,24(sp)
    40000f94:	e85a                	sd	s6,16(sp)
    40000f96:	00053023          	sd	zero,0(a0)
    40000f9a:	89aa                	mv	s3,a0
    40000f9c:	852e                	mv	a0,a1
    40000f9e:	8932                	mv	s2,a2
    40000fa0:	dd9ff0ef          	jal	ra,40000d78 <get_ldnumber>
    40000fa4:	47ad                	li	a5,11
    40000fa6:	02054e63          	bltz	a0,40000fe2 <find_volume+0x5e>
    40000faa:	00351713          	slli	a4,a0,0x3
    40000fae:	00006797          	auipc	a5,0x6
    40000fb2:	8ca78793          	addi	a5,a5,-1846 # 40006878 <FatFs>
    40000fb6:	97ba                	add	a5,a5,a4
    40000fb8:	6380                	ld	s0,0(a5)
    40000fba:	84aa                	mv	s1,a0
    40000fbc:	47b1                	li	a5,12
    40000fbe:	c015                	beqz	s0,40000fe2 <find_volume+0x5e>
    40000fc0:	0089b023          	sd	s0,0(s3)
    40000fc4:	00044783          	lbu	a5,0(s0)
    40000fc8:	cb85                	beqz	a5,40000ff8 <find_volume+0x74>
    40000fca:	00144503          	lbu	a0,1(s0)
    40000fce:	0bb040ef          	jal	ra,40005888 <disk_status>
    40000fd2:	00157793          	andi	a5,a0,1
    40000fd6:	e38d                	bnez	a5,40000ff8 <find_volume+0x74>
    40000fd8:	00090563          	beqz	s2,40000fe2 <find_volume+0x5e>
    40000fdc:	8911                	andi	a0,a0,4
    40000fde:	c111                	beqz	a0,40000fe2 <find_volume+0x5e>
    40000fe0:	47a9                	li	a5,10
    40000fe2:	60a6                	ld	ra,72(sp)
    40000fe4:	6406                	ld	s0,64(sp)
    40000fe6:	74e2                	ld	s1,56(sp)
    40000fe8:	7942                	ld	s2,48(sp)
    40000fea:	79a2                	ld	s3,40(sp)
    40000fec:	7a02                	ld	s4,32(sp)
    40000fee:	6ae2                	ld	s5,24(sp)
    40000ff0:	6b42                	ld	s6,16(sp)
    40000ff2:	853e                	mv	a0,a5
    40000ff4:	6161                	addi	sp,sp,80
    40000ff6:	8082                	ret
    40000ff8:	0ff4f513          	andi	a0,s1,255
    40000ffc:	00040023          	sb	zero,0(s0)
    40001000:	00a400a3          	sb	a0,1(s0)
    40001004:	047040ef          	jal	ra,4000584a <disk_initialize>
    40001008:	00157713          	andi	a4,a0,1
    4000100c:	478d                	li	a5,3
    4000100e:	fb71                	bnez	a4,40000fe2 <find_volume+0x5e>
    40001010:	00090463          	beqz	s2,40001018 <find_volume+0x94>
    40001014:	8911                	andi	a0,a0,4
    40001016:	f569                	bnez	a0,40000fe0 <find_volume+0x5c>
    40001018:	4581                	li	a1,0
    4000101a:	8522                	mv	a0,s0
    4000101c:	ee1ff0ef          	jal	ra,40000efc <check_fs>
    40001020:	4785                	li	a5,1
    40001022:	04f51a63          	bne	a0,a5,40001076 <find_volume+0xf2>
    40001026:	848a                	mv	s1,sp
    40001028:	1fa40913          	addi	s2,s0,506
    4000102c:	23a40a13          	addi	s4,s0,570
    40001030:	89a6                	mv	s3,s1
    40001032:	ffc94783          	lbu	a5,-4(s2)
    40001036:	4501                	li	a0,0
    40001038:	c789                	beqz	a5,40001042 <find_volume+0xbe>
    4000103a:	854a                	mv	a0,s2
    4000103c:	c5bff0ef          	jal	ra,40000c96 <LD_DWORD>
    40001040:	2501                	sext.w	a0,a0
    40001042:	00a9a023          	sw	a0,0(s3)
    40001046:	0941                	addi	s2,s2,16
    40001048:	0991                	addi	s3,s3,4
    4000104a:	ff2a14e3          	bne	s4,s2,40001032 <find_volume+0xae>
    4000104e:	01048913          	addi	s2,s1,16
    40001052:	0004aa83          	lw	s5,0(s1)
    40001056:	4509                	li	a0,2
    40001058:	000a8763          	beqz	s5,40001066 <find_volume+0xe2>
    4000105c:	85d6                	mv	a1,s5
    4000105e:	8522                	mv	a0,s0
    40001060:	e9dff0ef          	jal	ra,40000efc <check_fs>
    40001064:	c10d                	beqz	a0,40001086 <find_volume+0x102>
    40001066:	0491                	addi	s1,s1,4
    40001068:	fe9915e3          	bne	s2,s1,40001052 <find_volume+0xce>
    4000106c:	470d                	li	a4,3
    4000106e:	4785                	li	a5,1
    40001070:	00e51963          	bne	a0,a4,40001082 <find_volume+0xfe>
    40001074:	b7bd                	j	40000fe2 <find_volume+0x5e>
    40001076:	470d                	li	a4,3
    40001078:	4785                	li	a5,1
    4000107a:	f6e504e3          	beq	a0,a4,40000fe2 <find_volume+0x5e>
    4000107e:	4a81                	li	s5,0
    40001080:	c119                	beqz	a0,40001086 <find_volume+0x102>
    40001082:	47b5                	li	a5,13
    40001084:	bfb9                	j	40000fe2 <find_volume+0x5e>
    40001086:	04044783          	lbu	a5,64(s0)
    4000108a:	03f44703          	lbu	a4,63(s0)
    4000108e:	0087979b          	slliw	a5,a5,0x8
    40001092:	8fd9                	or	a5,a5,a4
    40001094:	0107979b          	slliw	a5,a5,0x10
    40001098:	4107d79b          	sraiw	a5,a5,0x10
    4000109c:	20000713          	li	a4,512
    400010a0:	fef711e3          	bne	a4,a5,40001082 <find_volume+0xfe>
    400010a4:	04b44983          	lbu	s3,75(s0)
    400010a8:	04a44783          	lbu	a5,74(s0)
    400010ac:	0089999b          	slliw	s3,s3,0x8
    400010b0:	00f9e9b3          	or	s3,s3,a5
    400010b4:	1a098663          	beqz	s3,40001260 <find_volume+0x2dc>
    400010b8:	2981                	sext.w	s3,s3
    400010ba:	04444903          	lbu	s2,68(s0)
    400010be:	01342e23          	sw	s3,28(s0)
    400010c2:	4705                	li	a4,1
    400010c4:	fff9079b          	addiw	a5,s2,-1
    400010c8:	012401a3          	sb	s2,3(s0)
    400010cc:	0ff7f793          	andi	a5,a5,255
    400010d0:	faf769e3          	bltu	a4,a5,40001082 <find_volume+0xfe>
    400010d4:	04144b03          	lbu	s6,65(s0)
    400010d8:	01640123          	sb	s6,2(s0)
    400010dc:	fa0b03e3          	beqz	s6,40001082 <find_volume+0xfe>
    400010e0:	fffb079b          	addiw	a5,s6,-1
    400010e4:	00fb77b3          	and	a5,s6,a5
    400010e8:	ffc9                	bnez	a5,40001082 <find_volume+0xfe>
    400010ea:	04644a03          	lbu	s4,70(s0)
    400010ee:	04544783          	lbu	a5,69(s0)
    400010f2:	008a1a1b          	slliw	s4,s4,0x8
    400010f6:	00fa6a33          	or	s4,s4,a5
    400010fa:	01441423          	sh	s4,8(s0)
    400010fe:	00fa7793          	andi	a5,s4,15
    40001102:	f3c1                	bnez	a5,40001082 <find_volume+0xfe>
    40001104:	04844503          	lbu	a0,72(s0)
    40001108:	04744483          	lbu	s1,71(s0)
    4000110c:	0085151b          	slliw	a0,a0,0x8
    40001110:	8d45                	or	a0,a0,s1
    40001112:	14050e63          	beqz	a0,4000126e <find_volume+0x2ea>
    40001116:	04344783          	lbu	a5,67(s0)
    4000111a:	04244703          	lbu	a4,66(s0)
    4000111e:	2501                	sext.w	a0,a0
    40001120:	0087979b          	slliw	a5,a5,0x8
    40001124:	8fd9                	or	a5,a5,a4
    40001126:	dfb1                	beqz	a5,40001082 <find_volume+0xfe>
    40001128:	033906bb          	mulw	a3,s2,s3
    4000112c:	2781                	sext.w	a5,a5
    4000112e:	004a571b          	srliw	a4,s4,0x4
    40001132:	9f3d                	addw	a4,a4,a5
    40001134:	00d7063b          	addw	a2,a4,a3
    40001138:	8732                	mv	a4,a2
    4000113a:	f4c564e3          	bltu	a0,a2,40001082 <find_volume+0xfe>
    4000113e:	40c504bb          	subw	s1,a0,a2
    40001142:	0364d5bb          	divuw	a1,s1,s6
    40001146:	84ae                	mv	s1,a1
    40001148:	dd8d                	beqz	a1,40001082 <find_volume+0xfe>
    4000114a:	6905                	lui	s2,0x1
    4000114c:	1955                	addi	s2,s2,-11
    4000114e:	6641                	lui	a2,0x10
    40001150:	00b93933          	sltu	s2,s2,a1
    40001154:	1655                	addi	a2,a2,-11
    40001156:	0905                	addi	s2,s2,1
    40001158:	00b67363          	bleu	a1,a2,4000115e <find_volume+0x1da>
    4000115c:	490d                	li	s2,3
    4000115e:	00ea873b          	addw	a4,s5,a4
    40001162:	2489                	addiw	s1,s1,2
    40001164:	015787bb          	addw	a5,a5,s5
    40001168:	d458                	sw	a4,44(s0)
    4000116a:	cc04                	sw	s1,24(s0)
    4000116c:	03542023          	sw	s5,32(s0)
    40001170:	d05c                	sw	a5,36(s0)
    40001172:	470d                	li	a4,3
    40001174:	10e91263          	bne	s2,a4,40001278 <find_volume+0x2f4>
    40001178:	f00a15e3          	bnez	s4,40001082 <find_volume+0xfe>
    4000117c:	06040513          	addi	a0,s0,96
    40001180:	b17ff0ef          	jal	ra,40000c96 <LD_DWORD>
    40001184:	d408                	sw	a0,40(s0)
    40001186:	0024949b          	slliw	s1,s1,0x2
    4000118a:	1ff4849b          	addiw	s1,s1,511
    4000118e:	0094d49b          	srliw	s1,s1,0x9
    40001192:	2481                	sext.w	s1,s1
    40001194:	ee99e7e3          	bltu	s3,s1,40001082 <find_volume+0xfe>
    40001198:	57fd                	li	a5,-1
    4000119a:	c81c                	sw	a5,16(s0)
    4000119c:	c45c                	sw	a5,12(s0)
    4000119e:	f8000793          	li	a5,-128
    400011a2:	00f402a3          	sb	a5,5(s0)
    400011a6:	478d                	li	a5,3
    400011a8:	08f91963          	bne	s2,a5,4000123a <find_volume+0x2b6>
    400011ac:	06544783          	lbu	a5,101(s0)
    400011b0:	06444703          	lbu	a4,100(s0)
    400011b4:	0087979b          	slliw	a5,a5,0x8
    400011b8:	8fd9                	or	a5,a5,a4
    400011ba:	0107979b          	slliw	a5,a5,0x10
    400011be:	4107d79b          	sraiw	a5,a5,0x10
    400011c2:	4705                	li	a4,1
    400011c4:	06f71b63          	bne	a4,a5,4000123a <find_volume+0x2b6>
    400011c8:	001a859b          	addiw	a1,s5,1
    400011cc:	8522                	mv	a0,s0
    400011ce:	ce5ff0ef          	jal	ra,40000eb2 <move_window>
    400011d2:	2501                	sext.w	a0,a0
    400011d4:	e13d                	bnez	a0,4000123a <find_volume+0x2b6>
    400011d6:	23344783          	lbu	a5,563(s0)
    400011da:	23244703          	lbu	a4,562(s0)
    400011de:	000402a3          	sb	zero,5(s0)
    400011e2:	0087979b          	slliw	a5,a5,0x8
    400011e6:	8fd9                	or	a5,a5,a4
    400011e8:	0107979b          	slliw	a5,a5,0x10
    400011ec:	776d                	lui	a4,0xffffb
    400011ee:	4107d79b          	sraiw	a5,a5,0x10
    400011f2:	a5570713          	addi	a4,a4,-1451 # ffffffffffffaa55 <_gp+0xffffffffbfff3b2d>
    400011f6:	04f71263          	bne	a4,a5,4000123a <find_volume+0x2b6>
    400011fa:	03440513          	addi	a0,s0,52
    400011fe:	a99ff0ef          	jal	ra,40000c96 <LD_DWORD>
    40001202:	416157b7          	lui	a5,0x41615
    40001206:	2501                	sext.w	a0,a0
    40001208:	25278793          	addi	a5,a5,594 # 41615252 <_gp+0x160e32a>
    4000120c:	02f51763          	bne	a0,a5,4000123a <find_volume+0x2b6>
    40001210:	21840513          	addi	a0,s0,536
    40001214:	a83ff0ef          	jal	ra,40000c96 <LD_DWORD>
    40001218:	614177b7          	lui	a5,0x61417
    4000121c:	2501                	sext.w	a0,a0
    4000121e:	27278793          	addi	a5,a5,626 # 61417272 <_gp+0x2141034a>
    40001222:	00f51c63          	bne	a0,a5,4000123a <find_volume+0x2b6>
    40001226:	21c40513          	addi	a0,s0,540
    4000122a:	a6dff0ef          	jal	ra,40000c96 <LD_DWORD>
    4000122e:	c808                	sw	a0,16(s0)
    40001230:	22040513          	addi	a0,s0,544
    40001234:	a63ff0ef          	jal	ra,40000c96 <LD_DWORD>
    40001238:	c448                	sw	a0,12(s0)
    4000123a:	00005797          	auipc	a5,0x5
    4000123e:	5dc7d783          	lhu	a5,1500(a5) # 40006816 <Fsid>
    40001242:	2785                	addiw	a5,a5,1
    40001244:	17c2                	slli	a5,a5,0x30
    40001246:	93c1                	srli	a5,a5,0x30
    40001248:	00005717          	auipc	a4,0x5
    4000124c:	5cf71723          	sh	a5,1486(a4) # 40006816 <Fsid>
    40001250:	00f41323          	sh	a5,6(s0)
    40001254:	01240023          	sb	s2,0(s0)
    40001258:	00042a23          	sw	zero,20(s0)
    4000125c:	4781                	li	a5,0
    4000125e:	b351                	j	40000fe2 <find_volume+0x5e>
    40001260:	05840513          	addi	a0,s0,88
    40001264:	a33ff0ef          	jal	ra,40000c96 <LD_DWORD>
    40001268:	0005099b          	sext.w	s3,a0
    4000126c:	b5b9                	j	400010ba <find_volume+0x136>
    4000126e:	05440513          	addi	a0,s0,84
    40001272:	a25ff0ef          	jal	ra,40000c96 <LD_DWORD>
    40001276:	b545                	j	40001116 <find_volume+0x192>
    40001278:	e00a05e3          	beqz	s4,40001082 <find_volume+0xfe>
    4000127c:	9fb5                	addw	a5,a5,a3
    4000127e:	d41c                	sw	a5,40(s0)
    40001280:	4789                	li	a5,2
    40001282:	00f91563          	bne	s2,a5,4000128c <find_volume+0x308>
    40001286:	0014949b          	slliw	s1,s1,0x1
    4000128a:	b701                	j	4000118a <find_volume+0x206>
    4000128c:	478d                	li	a5,3
    4000128e:	029787bb          	mulw	a5,a5,s1
    40001292:	8885                	andi	s1,s1,1
    40001294:	0017d79b          	srliw	a5,a5,0x1
    40001298:	9cbd                	addw	s1,s1,a5
    4000129a:	bdc5                	j	4000118a <find_volume+0x206>

000000004000129c <sync_fs>:
    4000129c:	1101                	addi	sp,sp,-32
    4000129e:	e822                	sd	s0,16(sp)
    400012a0:	ec06                	sd	ra,24(sp)
    400012a2:	e426                	sd	s1,8(sp)
    400012a4:	842a                	mv	s0,a0
    400012a6:	bffff0ef          	jal	ra,40000ea4 <sync_window>
    400012aa:	2501                	sext.w	a0,a0
    400012ac:	ed69                	bnez	a0,40001386 <sync_fs+0xea>
    400012ae:	00044703          	lbu	a4,0(s0)
    400012b2:	478d                	li	a5,3
    400012b4:	0cf71063          	bne	a4,a5,40001374 <sync_fs+0xd8>
    400012b8:	00544703          	lbu	a4,5(s0)
    400012bc:	4785                	li	a5,1
    400012be:	0af71b63          	bne	a4,a5,40001374 <sync_fs+0xd8>
    400012c2:	03440493          	addi	s1,s0,52
    400012c6:	20000613          	li	a2,512
    400012ca:	4581                	li	a1,0
    400012cc:	8526                	mv	a0,s1
    400012ce:	a01ff0ef          	jal	ra,40000cce <mem_set>
    400012d2:	05500793          	li	a5,85
    400012d6:	22f40923          	sb	a5,562(s0)
    400012da:	faa00793          	li	a5,-86
    400012de:	22f409a3          	sb	a5,563(s0)
    400012e2:	05200793          	li	a5,82
    400012e6:	02f40a23          	sb	a5,52(s0)
    400012ea:	02f40aa3          	sb	a5,53(s0)
    400012ee:	06100793          	li	a5,97
    400012f2:	02f40b23          	sb	a5,54(s0)
    400012f6:	20f40da3          	sb	a5,539(s0)
    400012fa:	481c                	lw	a5,16(s0)
    400012fc:	04100713          	li	a4,65
    40001300:	02e40ba3          	sb	a4,55(s0)
    40001304:	20e40d23          	sb	a4,538(s0)
    40001308:	0107971b          	slliw	a4,a5,0x10
    4000130c:	0107571b          	srliw	a4,a4,0x10
    40001310:	0087571b          	srliw	a4,a4,0x8
    40001314:	20f40e23          	sb	a5,540(s0)
    40001318:	20e40ea3          	sb	a4,541(s0)
    4000131c:	0107d71b          	srliw	a4,a5,0x10
    40001320:	0187d79b          	srliw	a5,a5,0x18
    40001324:	20f40fa3          	sb	a5,543(s0)
    40001328:	445c                	lw	a5,12(s0)
    4000132a:	20e40f23          	sb	a4,542(s0)
    4000132e:	5010                	lw	a2,32(s0)
    40001330:	0107971b          	slliw	a4,a5,0x10
    40001334:	0107571b          	srliw	a4,a4,0x10
    40001338:	0087571b          	srliw	a4,a4,0x8
    4000133c:	00144503          	lbu	a0,1(s0)
    40001340:	07200693          	li	a3,114
    40001344:	22f40023          	sb	a5,544(s0)
    40001348:	22e400a3          	sb	a4,545(s0)
    4000134c:	2605                	addiw	a2,a2,1
    4000134e:	0107d71b          	srliw	a4,a5,0x10
    40001352:	0187d79b          	srliw	a5,a5,0x18
    40001356:	20d40c23          	sb	a3,536(s0)
    4000135a:	20d40ca3          	sb	a3,537(s0)
    4000135e:	22e40123          	sb	a4,546(s0)
    40001362:	22f401a3          	sb	a5,547(s0)
    40001366:	d810                	sw	a2,48(s0)
    40001368:	4685                	li	a3,1
    4000136a:	85a6                	mv	a1,s1
    4000136c:	590040ef          	jal	ra,400058fc <disk_write>
    40001370:	000402a3          	sb	zero,5(s0)
    40001374:	00144503          	lbu	a0,1(s0)
    40001378:	4601                	li	a2,0
    4000137a:	4581                	li	a1,0
    4000137c:	640040ef          	jal	ra,400059bc <disk_ioctl>
    40001380:	2501                	sext.w	a0,a0
    40001382:	00a03533          	snez	a0,a0
    40001386:	60e2                	ld	ra,24(sp)
    40001388:	6442                	ld	s0,16(sp)
    4000138a:	64a2                	ld	s1,8(sp)
    4000138c:	6105                	addi	sp,sp,32
    4000138e:	8082                	ret

0000000040001390 <clust2sect>:
    40001390:	4d1c                	lw	a5,24(a0)
    40001392:	ffe5869b          	addiw	a3,a1,-2
    40001396:	37f9                	addiw	a5,a5,-2
    40001398:	00f6f963          	bleu	a5,a3,400013aa <clust2sect+0x1a>
    4000139c:	00254583          	lbu	a1,2(a0)
    400013a0:	5548                	lw	a0,44(a0)
    400013a2:	02d585bb          	mulw	a1,a1,a3
    400013a6:	9d2d                	addw	a0,a0,a1
    400013a8:	8082                	ret
    400013aa:	4501                	li	a0,0
    400013ac:	8082                	ret

00000000400013ae <get_fat>:
    400013ae:	4785                	li	a5,1
    400013b0:	0eb7f763          	bleu	a1,a5,4000149e <get_fat+0xf0>
    400013b4:	4d18                	lw	a4,24(a0)
    400013b6:	7179                	addi	sp,sp,-48
    400013b8:	e84a                	sd	s2,16(sp)
    400013ba:	f406                	sd	ra,40(sp)
    400013bc:	f022                	sd	s0,32(sp)
    400013be:	ec26                	sd	s1,24(sp)
    400013c0:	e44e                	sd	s3,8(sp)
    400013c2:	892a                	mv	s2,a0
    400013c4:	02e5f963          	bleu	a4,a1,400013f6 <get_fat+0x48>
    400013c8:	00054703          	lbu	a4,0(a0)
    400013cc:	4689                	li	a3,2
    400013ce:	842e                	mv	s0,a1
    400013d0:	06d70c63          	beq	a4,a3,40001448 <get_fat+0x9a>
    400013d4:	468d                	li	a3,3
    400013d6:	08d70e63          	beq	a4,a3,40001472 <get_fat+0xc4>
    400013da:	00f71e63          	bne	a4,a5,400013f6 <get_fat+0x48>
    400013de:	0015d49b          	srliw	s1,a1,0x1
    400013e2:	515c                	lw	a5,36(a0)
    400013e4:	9cad                	addw	s1,s1,a1
    400013e6:	0094d59b          	srliw	a1,s1,0x9
    400013ea:	9dbd                	addw	a1,a1,a5
    400013ec:	ac7ff0ef          	jal	ra,40000eb2 <move_window>
    400013f0:	2501                	sext.w	a0,a0
    400013f2:	c911                	beqz	a0,40001406 <get_fat+0x58>
    400013f4:	57fd                	li	a5,-1
    400013f6:	70a2                	ld	ra,40(sp)
    400013f8:	7402                	ld	s0,32(sp)
    400013fa:	64e2                	ld	s1,24(sp)
    400013fc:	6942                	ld	s2,16(sp)
    400013fe:	69a2                	ld	s3,8(sp)
    40001400:	853e                	mv	a0,a5
    40001402:	6145                	addi	sp,sp,48
    40001404:	8082                	ret
    40001406:	02492783          	lw	a5,36(s2) # 1024 <_tbss_end+0x1024>
    4000140a:	0014899b          	addiw	s3,s1,1
    4000140e:	0099d59b          	srliw	a1,s3,0x9
    40001412:	1ff4f493          	andi	s1,s1,511
    40001416:	94ca                	add	s1,s1,s2
    40001418:	9dbd                	addw	a1,a1,a5
    4000141a:	854a                	mv	a0,s2
    4000141c:	0344c483          	lbu	s1,52(s1)
    40001420:	a93ff0ef          	jal	ra,40000eb2 <move_window>
    40001424:	2501                	sext.w	a0,a0
    40001426:	f579                	bnez	a0,400013f4 <get_fat+0x46>
    40001428:	1ff9f993          	andi	s3,s3,511
    4000142c:	994e                	add	s2,s2,s3
    4000142e:	03494783          	lbu	a5,52(s2)
    40001432:	8805                	andi	s0,s0,1
    40001434:	0087979b          	slliw	a5,a5,0x8
    40001438:	8fc5                	or	a5,a5,s1
    4000143a:	c019                	beqz	s0,40001440 <get_fat+0x92>
    4000143c:	8391                	srli	a5,a5,0x4
    4000143e:	bf65                	j	400013f6 <get_fat+0x48>
    40001440:	6505                	lui	a0,0x1
    40001442:	157d                	addi	a0,a0,-1
    40001444:	8fe9                	and	a5,a5,a0
    40001446:	bf45                	j	400013f6 <get_fat+0x48>
    40001448:	515c                	lw	a5,36(a0)
    4000144a:	0085d59b          	srliw	a1,a1,0x8
    4000144e:	9dbd                	addw	a1,a1,a5
    40001450:	a63ff0ef          	jal	ra,40000eb2 <move_window>
    40001454:	2501                	sext.w	a0,a0
    40001456:	fd59                	bnez	a0,400013f4 <get_fat+0x46>
    40001458:	0014141b          	slliw	s0,s0,0x1
    4000145c:	1fe47413          	andi	s0,s0,510
    40001460:	9922                	add	s2,s2,s0
    40001462:	03594783          	lbu	a5,53(s2)
    40001466:	03494503          	lbu	a0,52(s2)
    4000146a:	0087979b          	slliw	a5,a5,0x8
    4000146e:	8fc9                	or	a5,a5,a0
    40001470:	b759                	j	400013f6 <get_fat+0x48>
    40001472:	515c                	lw	a5,36(a0)
    40001474:	0075d59b          	srliw	a1,a1,0x7
    40001478:	9dbd                	addw	a1,a1,a5
    4000147a:	a39ff0ef          	jal	ra,40000eb2 <move_window>
    4000147e:	2501                	sext.w	a0,a0
    40001480:	f935                	bnez	a0,400013f4 <get_fat+0x46>
    40001482:	0024151b          	slliw	a0,s0,0x2
    40001486:	1fc57513          	andi	a0,a0,508
    4000148a:	03450513          	addi	a0,a0,52 # 1034 <_tbss_end+0x1034>
    4000148e:	954a                	add	a0,a0,s2
    40001490:	807ff0ef          	jal	ra,40000c96 <LD_DWORD>
    40001494:	100007b7          	lui	a5,0x10000
    40001498:	2501                	sext.w	a0,a0
    4000149a:	17fd                	addi	a5,a5,-1
    4000149c:	b765                	j	40001444 <get_fat+0x96>
    4000149e:	4785                	li	a5,1
    400014a0:	853e                	mv	a0,a5
    400014a2:	8082                	ret

00000000400014a4 <dir_sdi>:
    400014a4:	7139                	addi	sp,sp,-64
    400014a6:	f822                	sd	s0,48(sp)
    400014a8:	4540                	lw	s0,12(a0)
    400014aa:	f04a                	sd	s2,32(sp)
    400014ac:	fc06                	sd	ra,56(sp)
    400014ae:	f426                	sd	s1,40(sp)
    400014b0:	ec4e                	sd	s3,24(sp)
    400014b2:	e852                	sd	s4,16(sp)
    400014b4:	e456                	sd	s5,8(sp)
    400014b6:	00b51523          	sh	a1,10(a0)
    400014ba:	4785                	li	a5,1
    400014bc:	892a                	mv	s2,a0
    400014be:	00f41c63          	bne	s0,a5,400014d6 <dir_sdi+0x32>
    400014c2:	4509                	li	a0,2
    400014c4:	70e2                	ld	ra,56(sp)
    400014c6:	7442                	ld	s0,48(sp)
    400014c8:	74a2                	ld	s1,40(sp)
    400014ca:	7902                	ld	s2,32(sp)
    400014cc:	69e2                	ld	s3,24(sp)
    400014ce:	6a42                	ld	s4,16(sp)
    400014d0:	6aa2                	ld	s5,8(sp)
    400014d2:	6121                	addi	sp,sp,64
    400014d4:	8082                	ret
    400014d6:	611c                	ld	a5,0(a0)
    400014d8:	4f98                	lw	a4,24(a5)
    400014da:	fee474e3          	bleu	a4,s0,400014c2 <dir_sdi+0x1e>
    400014de:	84ae                	mv	s1,a1
    400014e0:	e021                	bnez	s0,40001520 <dir_sdi+0x7c>
    400014e2:	0007c683          	lbu	a3,0(a5) # 10000000 <_tbss_end+0x10000000>
    400014e6:	470d                	li	a4,3
    400014e8:	00e69463          	bne	a3,a4,400014f0 <dir_sdi+0x4c>
    400014ec:	5798                	lw	a4,40(a5)
    400014ee:	eb15                	bnez	a4,40001522 <dir_sdi+0x7e>
    400014f0:	0087d703          	lhu	a4,8(a5)
    400014f4:	fce4f7e3          	bleu	a4,s1,400014c2 <dir_sdi+0x1e>
    400014f8:	5788                	lw	a0,40(a5)
    400014fa:	00892823          	sw	s0,16(s2)
    400014fe:	d171                	beqz	a0,400014c2 <dir_sdi+0x1e>
    40001500:	0044d79b          	srliw	a5,s1,0x4
    40001504:	9d3d                	addw	a0,a0,a5
    40001506:	00093783          	ld	a5,0(s2)
    4000150a:	88bd                	andi	s1,s1,15
    4000150c:	0496                	slli	s1,s1,0x5
    4000150e:	03478793          	addi	a5,a5,52
    40001512:	94be                	add	s1,s1,a5
    40001514:	00a92a23          	sw	a0,20(s2)
    40001518:	00993c23          	sd	s1,24(s2)
    4000151c:	4501                	li	a0,0
    4000151e:	b75d                	j	400014c4 <dir_sdi+0x20>
    40001520:	8722                	mv	a4,s0
    40001522:	0027c983          	lbu	s3,2(a5)
    40001526:	843a                	mv	s0,a4
    40001528:	5a7d                	li	s4,-1
    4000152a:	0992                	slli	s3,s3,0x4
    4000152c:	4a85                	li	s5,1
    4000152e:	00093503          	ld	a0,0(s2)
    40001532:	85a2                	mv	a1,s0
    40001534:	0134f663          	bleu	s3,s1,40001540 <dir_sdi+0x9c>
    40001538:	e59ff0ef          	jal	ra,40001390 <clust2sect>
    4000153c:	2501                	sext.w	a0,a0
    4000153e:	bf75                	j	400014fa <dir_sdi+0x56>
    40001540:	e6fff0ef          	jal	ra,400013ae <get_fat>
    40001544:	0005041b          	sext.w	s0,a0
    40001548:	01440c63          	beq	s0,s4,40001560 <dir_sdi+0xbc>
    4000154c:	f68afbe3          	bleu	s0,s5,400014c2 <dir_sdi+0x1e>
    40001550:	00093783          	ld	a5,0(s2)
    40001554:	4f9c                	lw	a5,24(a5)
    40001556:	f6f476e3          	bleu	a5,s0,400014c2 <dir_sdi+0x1e>
    4000155a:	413484bb          	subw	s1,s1,s3
    4000155e:	bfc1                	j	4000152e <dir_sdi+0x8a>
    40001560:	4505                	li	a0,1
    40001562:	b78d                	j	400014c4 <dir_sdi+0x20>

0000000040001564 <dir_remove>:
    40001564:	00a55583          	lhu	a1,10(a0)
    40001568:	1101                	addi	sp,sp,-32
    4000156a:	e822                	sd	s0,16(sp)
    4000156c:	e426                	sd	s1,8(sp)
    4000156e:	ec06                	sd	ra,24(sp)
    40001570:	842a                	mv	s0,a0
    40001572:	f33ff0ef          	jal	ra,400014a4 <dir_sdi>
    40001576:	0005049b          	sext.w	s1,a0
    4000157a:	e495                	bnez	s1,400015a6 <dir_remove+0x42>
    4000157c:	484c                	lw	a1,20(s0)
    4000157e:	6008                	ld	a0,0(s0)
    40001580:	933ff0ef          	jal	ra,40000eb2 <move_window>
    40001584:	0005049b          	sext.w	s1,a0
    40001588:	ec99                	bnez	s1,400015a6 <dir_remove+0x42>
    4000158a:	6c08                	ld	a0,24(s0)
    4000158c:	02000613          	li	a2,32
    40001590:	4581                	li	a1,0
    40001592:	f3cff0ef          	jal	ra,40000cce <mem_set>
    40001596:	6c1c                	ld	a5,24(s0)
    40001598:	5715                	li	a4,-27
    4000159a:	00e78023          	sb	a4,0(a5)
    4000159e:	601c                	ld	a5,0(s0)
    400015a0:	4705                	li	a4,1
    400015a2:	00e78223          	sb	a4,4(a5)
    400015a6:	60e2                	ld	ra,24(sp)
    400015a8:	6442                	ld	s0,16(sp)
    400015aa:	8526                	mv	a0,s1
    400015ac:	64a2                	ld	s1,8(sp)
    400015ae:	6105                	addi	sp,sp,32
    400015b0:	8082                	ret

00000000400015b2 <put_fat>:
    400015b2:	7139                	addi	sp,sp,-64
    400015b4:	e852                	sd	s4,16(sp)
    400015b6:	fc06                	sd	ra,56(sp)
    400015b8:	f822                	sd	s0,48(sp)
    400015ba:	f426                	sd	s1,40(sp)
    400015bc:	f04a                	sd	s2,32(sp)
    400015be:	ec4e                	sd	s3,24(sp)
    400015c0:	e456                	sd	s5,8(sp)
    400015c2:	4a05                	li	s4,1
    400015c4:	16ba7563          	bleu	a1,s4,4000172e <put_fat+0x17c>
    400015c8:	4d1c                	lw	a5,24(a0)
    400015ca:	84aa                	mv	s1,a0
    400015cc:	4989                	li	s3,2
    400015ce:	0af5f063          	bleu	a5,a1,4000166e <put_fat+0xbc>
    400015d2:	00054783          	lbu	a5,0(a0)
    400015d6:	4709                	li	a4,2
    400015d8:	8932                	mv	s2,a2
    400015da:	842e                	mv	s0,a1
    400015dc:	0ae78f63          	beq	a5,a4,4000169a <put_fat+0xe8>
    400015e0:	470d                	li	a4,3
    400015e2:	0ee78863          	beq	a5,a4,400016d2 <put_fat+0x120>
    400015e6:	15479463          	bne	a5,s4,4000172e <put_fat+0x17c>
    400015ea:	0015da1b          	srliw	s4,a1,0x1
    400015ee:	515c                	lw	a5,36(a0)
    400015f0:	00ba0a3b          	addw	s4,s4,a1
    400015f4:	009a559b          	srliw	a1,s4,0x9
    400015f8:	9dbd                	addw	a1,a1,a5
    400015fa:	8b9ff0ef          	jal	ra,40000eb2 <move_window>
    400015fe:	0005099b          	sext.w	s3,a0
    40001602:	06099663          	bnez	s3,4000166e <put_fat+0xbc>
    40001606:	8805                	andi	s0,s0,1
    40001608:	001a0a9b          	addiw	s5,s4,1
    4000160c:	0ff97793          	andi	a5,s2,255
    40001610:	1ffa7a13          	andi	s4,s4,511
    40001614:	cc19                	beqz	s0,40001632 <put_fat+0x80>
    40001616:	014487b3          	add	a5,s1,s4
    4000161a:	0347c783          	lbu	a5,52(a5)
    4000161e:	6685                	lui	a3,0x1
    40001620:	16c1                	addi	a3,a3,-16
    40001622:	00f7f713          	andi	a4,a5,15
    40001626:	0049179b          	slliw	a5,s2,0x4
    4000162a:	8ff5                	and	a5,a5,a3
    4000162c:	8fd9                	or	a5,a5,a4
    4000162e:	0ff7f793          	andi	a5,a5,255
    40001632:	9a26                	add	s4,s4,s1
    40001634:	02fa0a23          	sb	a5,52(s4)
    40001638:	4785                	li	a5,1
    4000163a:	00f48223          	sb	a5,4(s1)
    4000163e:	50dc                	lw	a5,36(s1)
    40001640:	009ad59b          	srliw	a1,s5,0x9
    40001644:	8526                	mv	a0,s1
    40001646:	9dbd                	addw	a1,a1,a5
    40001648:	86bff0ef          	jal	ra,40000eb2 <move_window>
    4000164c:	0005099b          	sext.w	s3,a0
    40001650:	00099f63          	bnez	s3,4000166e <put_fat+0xbc>
    40001654:	1ffafa93          	andi	s5,s5,511
    40001658:	c40d                	beqz	s0,40001682 <put_fat+0xd0>
    4000165a:	0049591b          	srliw	s2,s2,0x4
    4000165e:	0ff97913          	andi	s2,s2,255
    40001662:	9aa6                	add	s5,s5,s1
    40001664:	032a8a23          	sb	s2,52(s5)
    40001668:	4785                	li	a5,1
    4000166a:	00f48223          	sb	a5,4(s1)
    4000166e:	70e2                	ld	ra,56(sp)
    40001670:	7442                	ld	s0,48(sp)
    40001672:	854e                	mv	a0,s3
    40001674:	74a2                	ld	s1,40(sp)
    40001676:	7902                	ld	s2,32(sp)
    40001678:	69e2                	ld	s3,24(sp)
    4000167a:	6a42                	ld	s4,16(sp)
    4000167c:	6aa2                	ld	s5,8(sp)
    4000167e:	6121                	addi	sp,sp,64
    40001680:	8082                	ret
    40001682:	015487b3          	add	a5,s1,s5
    40001686:	0347c783          	lbu	a5,52(a5)
    4000168a:	0089591b          	srliw	s2,s2,0x8
    4000168e:	00f97913          	andi	s2,s2,15
    40001692:	9bc1                	andi	a5,a5,-16
    40001694:	0127e933          	or	s2,a5,s2
    40001698:	b7e9                	j	40001662 <put_fat+0xb0>
    4000169a:	515c                	lw	a5,36(a0)
    4000169c:	0085d59b          	srliw	a1,a1,0x8
    400016a0:	9dbd                	addw	a1,a1,a5
    400016a2:	811ff0ef          	jal	ra,40000eb2 <move_window>
    400016a6:	0005099b          	sext.w	s3,a0
    400016aa:	fc0992e3          	bnez	s3,4000166e <put_fat+0xbc>
    400016ae:	0014141b          	slliw	s0,s0,0x1
    400016b2:	1fe47413          	andi	s0,s0,510
    400016b6:	9426                	add	s0,s0,s1
    400016b8:	03240a23          	sb	s2,52(s0)
    400016bc:	0109191b          	slliw	s2,s2,0x10
    400016c0:	0109591b          	srliw	s2,s2,0x10
    400016c4:	0089591b          	srliw	s2,s2,0x8
    400016c8:	03240aa3          	sb	s2,53(s0)
    400016cc:	01448223          	sb	s4,4(s1)
    400016d0:	bf79                	j	4000166e <put_fat+0xbc>
    400016d2:	515c                	lw	a5,36(a0)
    400016d4:	0075d59b          	srliw	a1,a1,0x7
    400016d8:	9dbd                	addw	a1,a1,a5
    400016da:	fd8ff0ef          	jal	ra,40000eb2 <move_window>
    400016de:	0005099b          	sext.w	s3,a0
    400016e2:	f80996e3          	bnez	s3,4000166e <put_fat+0xbc>
    400016e6:	0024141b          	slliw	s0,s0,0x2
    400016ea:	1fc47413          	andi	s0,s0,508
    400016ee:	03440a93          	addi	s5,s0,52
    400016f2:	9aa6                	add	s5,s5,s1
    400016f4:	8556                	mv	a0,s5
    400016f6:	da0ff0ef          	jal	ra,40000c96 <LD_DWORD>
    400016fa:	2501                	sext.w	a0,a0
    400016fc:	f0000637          	lui	a2,0xf0000
    40001700:	8d71                	and	a0,a0,a2
    40001702:	01256933          	or	s2,a0,s2
    40001706:	0109179b          	slliw	a5,s2,0x10
    4000170a:	9426                	add	s0,s0,s1
    4000170c:	0107d79b          	srliw	a5,a5,0x10
    40001710:	03240a23          	sb	s2,52(s0)
    40001714:	0087d79b          	srliw	a5,a5,0x8
    40001718:	00fa80a3          	sb	a5,1(s5)
    4000171c:	0109579b          	srliw	a5,s2,0x10
    40001720:	0189591b          	srliw	s2,s2,0x18
    40001724:	00fa8123          	sb	a5,2(s5)
    40001728:	012a81a3          	sb	s2,3(s5)
    4000172c:	b745                	j	400016cc <put_fat+0x11a>
    4000172e:	4989                	li	s3,2
    40001730:	bf3d                	j	4000166e <put_fat+0xbc>

0000000040001732 <create_chain>:
    40001732:	7139                	addi	sp,sp,-64
    40001734:	f426                	sd	s1,40(sp)
    40001736:	ec4e                	sd	s3,24(sp)
    40001738:	fc06                	sd	ra,56(sp)
    4000173a:	f822                	sd	s0,48(sp)
    4000173c:	f04a                	sd	s2,32(sp)
    4000173e:	e852                	sd	s4,16(sp)
    40001740:	e456                	sd	s5,8(sp)
    40001742:	84aa                	mv	s1,a0
    40001744:	89ae                	mv	s3,a1
    40001746:	e19d                	bnez	a1,4000176c <create_chain+0x3a>
    40001748:	00c52903          	lw	s2,12(a0)
    4000174c:	04090a63          	beqz	s2,400017a0 <create_chain+0x6e>
    40001750:	4d1c                	lw	a5,24(a0)
    40001752:	04f97763          	bleu	a5,s2,400017a0 <create_chain+0x6e>
    40001756:	844a                	mv	s0,s2
    40001758:	4a05                	li	s4,1
    4000175a:	5afd                	li	s5,-1
    4000175c:	4c9c                	lw	a5,24(s1)
    4000175e:	2405                	addiw	s0,s0,1
    40001760:	04f46363          	bltu	s0,a5,400017a6 <create_chain+0x74>
    40001764:	052a6063          	bltu	s4,s2,400017a4 <create_chain+0x72>
    40001768:	4401                	li	s0,0
    4000176a:	a821                	j	40001782 <create_chain+0x50>
    4000176c:	c43ff0ef          	jal	ra,400013ae <get_fat>
    40001770:	0005041b          	sext.w	s0,a0
    40001774:	4785                	li	a5,1
    40001776:	0887f863          	bleu	s0,a5,40001806 <create_chain+0xd4>
    4000177a:	57fd                	li	a5,-1
    4000177c:	00f41d63          	bne	s0,a5,40001796 <create_chain+0x64>
    40001780:	547d                	li	s0,-1
    40001782:	8522                	mv	a0,s0
    40001784:	70e2                	ld	ra,56(sp)
    40001786:	7442                	ld	s0,48(sp)
    40001788:	74a2                	ld	s1,40(sp)
    4000178a:	7902                	ld	s2,32(sp)
    4000178c:	69e2                	ld	s3,24(sp)
    4000178e:	6a42                	ld	s4,16(sp)
    40001790:	6aa2                	ld	s5,8(sp)
    40001792:	6121                	addi	sp,sp,64
    40001794:	8082                	ret
    40001796:	4c9c                	lw	a5,24(s1)
    40001798:	894e                	mv	s2,s3
    4000179a:	faf47ee3          	bleu	a5,s0,40001756 <create_chain+0x24>
    4000179e:	b7d5                	j	40001782 <create_chain+0x50>
    400017a0:	4905                	li	s2,1
    400017a2:	bf55                	j	40001756 <create_chain+0x24>
    400017a4:	4409                	li	s0,2
    400017a6:	85a2                	mv	a1,s0
    400017a8:	8526                	mv	a0,s1
    400017aa:	c05ff0ef          	jal	ra,400013ae <get_fat>
    400017ae:	2501                	sext.w	a0,a0
    400017b0:	c901                	beqz	a0,400017c0 <create_chain+0x8e>
    400017b2:	fd5507e3          	beq	a0,s5,40001780 <create_chain+0x4e>
    400017b6:	05450863          	beq	a0,s4,40001806 <create_chain+0xd4>
    400017ba:	fb2411e3          	bne	s0,s2,4000175c <create_chain+0x2a>
    400017be:	b76d                	j	40001768 <create_chain+0x36>
    400017c0:	10000637          	lui	a2,0x10000
    400017c4:	167d                	addi	a2,a2,-1
    400017c6:	85a2                	mv	a1,s0
    400017c8:	8526                	mv	a0,s1
    400017ca:	de9ff0ef          	jal	ra,400015b2 <put_fat>
    400017ce:	2501                	sext.w	a0,a0
    400017d0:	e905                	bnez	a0,40001800 <create_chain+0xce>
    400017d2:	02099063          	bnez	s3,400017f2 <create_chain+0xc0>
    400017d6:	489c                	lw	a5,16(s1)
    400017d8:	c4c0                	sw	s0,12(s1)
    400017da:	577d                	li	a4,-1
    400017dc:	fae783e3          	beq	a5,a4,40001782 <create_chain+0x50>
    400017e0:	37fd                	addiw	a5,a5,-1
    400017e2:	c89c                	sw	a5,16(s1)
    400017e4:	0054c783          	lbu	a5,5(s1)
    400017e8:	0017e793          	ori	a5,a5,1
    400017ec:	00f482a3          	sb	a5,5(s1)
    400017f0:	bf49                	j	40001782 <create_chain+0x50>
    400017f2:	8622                	mv	a2,s0
    400017f4:	85ce                	mv	a1,s3
    400017f6:	8526                	mv	a0,s1
    400017f8:	dbbff0ef          	jal	ra,400015b2 <put_fat>
    400017fc:	2501                	sext.w	a0,a0
    400017fe:	dd61                	beqz	a0,400017d6 <create_chain+0xa4>
    40001800:	4785                	li	a5,1
    40001802:	f6f50fe3          	beq	a0,a5,40001780 <create_chain+0x4e>
    40001806:	4405                	li	s0,1
    40001808:	bfad                	j	40001782 <create_chain+0x50>

000000004000180a <dir_next>:
    4000180a:	7139                	addi	sp,sp,-64
    4000180c:	f04a                	sd	s2,32(sp)
    4000180e:	00a55903          	lhu	s2,10(a0)
    40001812:	fc06                	sd	ra,56(sp)
    40001814:	f822                	sd	s0,48(sp)
    40001816:	2905                	addiw	s2,s2,1
    40001818:	03091793          	slli	a5,s2,0x30
    4000181c:	f426                	sd	s1,40(sp)
    4000181e:	ec4e                	sd	s3,24(sp)
    40001820:	e852                	sd	s4,16(sp)
    40001822:	e456                	sd	s5,8(sp)
    40001824:	93c1                	srli	a5,a5,0x30
    40001826:	eb99                	bnez	a5,4000183c <dir_next+0x32>
    40001828:	4511                	li	a0,4
    4000182a:	70e2                	ld	ra,56(sp)
    4000182c:	7442                	ld	s0,48(sp)
    4000182e:	74a2                	ld	s1,40(sp)
    40001830:	7902                	ld	s2,32(sp)
    40001832:	69e2                	ld	s3,24(sp)
    40001834:	6a42                	ld	s4,16(sp)
    40001836:	6aa2                	ld	s5,8(sp)
    40001838:	6121                	addi	sp,sp,64
    4000183a:	8082                	ret
    4000183c:	495c                	lw	a5,20(a0)
    4000183e:	d7ed                	beqz	a5,40001828 <dir_next+0x1e>
    40001840:	00f97993          	andi	s3,s2,15
    40001844:	8a2e                	mv	s4,a1
    40001846:	842a                	mv	s0,a0
    40001848:	00099d63          	bnez	s3,40001862 <dir_next+0x58>
    4000184c:	480c                	lw	a1,16(s0)
    4000184e:	2785                	addiw	a5,a5,1
    40001850:	6108                	ld	a0,0(a0)
    40001852:	c85c                	sw	a5,20(s0)
    40001854:	e18d                	bnez	a1,40001876 <dir_next+0x6c>
    40001856:	00855783          	lhu	a5,8(a0)
    4000185a:	0009071b          	sext.w	a4,s2
    4000185e:	fcf775e3          	bleu	a5,a4,40001828 <dir_next+0x1e>
    40001862:	601c                	ld	a5,0(s0)
    40001864:	0996                	slli	s3,s3,0x5
    40001866:	01241523          	sh	s2,10(s0)
    4000186a:	03478793          	addi	a5,a5,52
    4000186e:	97ce                	add	a5,a5,s3
    40001870:	ec1c                	sd	a5,24(s0)
    40001872:	4501                	li	a0,0
    40001874:	bf5d                	j	4000182a <dir_next+0x20>
    40001876:	00254783          	lbu	a5,2(a0)
    4000187a:	00495a9b          	srliw	s5,s2,0x4
    4000187e:	37fd                	addiw	a5,a5,-1
    40001880:	0157fab3          	and	s5,a5,s5
    40001884:	fc0a9fe3          	bnez	s5,40001862 <dir_next+0x58>
    40001888:	b27ff0ef          	jal	ra,400013ae <get_fat>
    4000188c:	0005049b          	sext.w	s1,a0
    40001890:	4785                	li	a5,1
    40001892:	0097e463          	bltu	a5,s1,4000189a <dir_next+0x90>
    40001896:	4509                	li	a0,2
    40001898:	bf49                	j	4000182a <dir_next+0x20>
    4000189a:	57fd                	li	a5,-1
    4000189c:	00f49463          	bne	s1,a5,400018a4 <dir_next+0x9a>
    400018a0:	4505                	li	a0,1
    400018a2:	b761                	j	4000182a <dir_next+0x20>
    400018a4:	6008                	ld	a0,0(s0)
    400018a6:	4d1c                	lw	a5,24(a0)
    400018a8:	06f4e063          	bltu	s1,a5,40001908 <dir_next+0xfe>
    400018ac:	f60a0ee3          	beqz	s4,40001828 <dir_next+0x1e>
    400018b0:	480c                	lw	a1,16(s0)
    400018b2:	e81ff0ef          	jal	ra,40001732 <create_chain>
    400018b6:	0005049b          	sext.w	s1,a0
    400018ba:	451d                	li	a0,7
    400018bc:	d4bd                	beqz	s1,4000182a <dir_next+0x20>
    400018be:	4785                	li	a5,1
    400018c0:	fcf48be3          	beq	s1,a5,40001896 <dir_next+0x8c>
    400018c4:	57fd                	li	a5,-1
    400018c6:	fcf48de3          	beq	s1,a5,400018a0 <dir_next+0x96>
    400018ca:	6008                	ld	a0,0(s0)
    400018cc:	dd8ff0ef          	jal	ra,40000ea4 <sync_window>
    400018d0:	2501                	sext.w	a0,a0
    400018d2:	f579                	bnez	a0,400018a0 <dir_next+0x96>
    400018d4:	6008                	ld	a0,0(s0)
    400018d6:	20000613          	li	a2,512
    400018da:	4581                	li	a1,0
    400018dc:	03450513          	addi	a0,a0,52
    400018e0:	beeff0ef          	jal	ra,40000cce <mem_set>
    400018e4:	00043a03          	ld	s4,0(s0)
    400018e8:	85a6                	mv	a1,s1
    400018ea:	8552                	mv	a0,s4
    400018ec:	aa5ff0ef          	jal	ra,40001390 <clust2sect>
    400018f0:	02aa2823          	sw	a0,48(s4)
    400018f4:	4a05                	li	s4,1
    400018f6:	6008                	ld	a0,0(s0)
    400018f8:	00254783          	lbu	a5,2(a0)
    400018fc:	00faed63          	bltu	s5,a5,40001916 <dir_next+0x10c>
    40001900:	591c                	lw	a5,48(a0)
    40001902:	415787bb          	subw	a5,a5,s5
    40001906:	d91c                	sw	a5,48(a0)
    40001908:	6008                	ld	a0,0(s0)
    4000190a:	c804                	sw	s1,16(s0)
    4000190c:	85a6                	mv	a1,s1
    4000190e:	a83ff0ef          	jal	ra,40001390 <clust2sect>
    40001912:	c848                	sw	a0,20(s0)
    40001914:	b7b9                	j	40001862 <dir_next+0x58>
    40001916:	01450223          	sb	s4,4(a0)
    4000191a:	d1cff0ef          	jal	ra,40000e36 <sync_window.part.2>
    4000191e:	2501                	sext.w	a0,a0
    40001920:	f141                	bnez	a0,400018a0 <dir_next+0x96>
    40001922:	6018                	ld	a4,0(s0)
    40001924:	2a85                	addiw	s5,s5,1
    40001926:	5b1c                	lw	a5,48(a4)
    40001928:	2785                	addiw	a5,a5,1
    4000192a:	db1c                	sw	a5,48(a4)
    4000192c:	b7e9                	j	400018f6 <dir_next+0xec>

000000004000192e <follow_path>:
    4000192e:	7139                	addi	sp,sp,-64
    40001930:	f822                	sd	s0,48(sp)
    40001932:	f426                	sd	s1,40(sp)
    40001934:	fc06                	sd	ra,56(sp)
    40001936:	f04a                	sd	s2,32(sp)
    40001938:	ec4e                	sd	s3,24(sp)
    4000193a:	e852                	sd	s4,16(sp)
    4000193c:	e456                	sd	s5,8(sp)
    4000193e:	e05a                	sd	s6,0(sp)
    40001940:	0005c783          	lbu	a5,0(a1)
    40001944:	02f00713          	li	a4,47
    40001948:	84aa                	mv	s1,a0
    4000194a:	842e                	mv	s0,a1
    4000194c:	00e78663          	beq	a5,a4,40001958 <follow_path+0x2a>
    40001950:	05c00713          	li	a4,92
    40001954:	0ce79063          	bne	a5,a4,40001a14 <follow_path+0xe6>
    40001958:	0405                	addi	s0,s0,1
    4000195a:	0004a623          	sw	zero,12(s1)
    4000195e:	00044703          	lbu	a4,0(s0)
    40001962:	47fd                	li	a5,31
    40001964:	0ae7fc63          	bleu	a4,a5,40001a1c <follow_path+0xee>
    40001968:	02f00a13          	li	s4,47
    4000196c:	05c00a93          	li	s5,92
    40001970:	02e00993          	li	s3,46
    40001974:	4b21                	li	s6,8
    40001976:	00044783          	lbu	a5,0(s0)
    4000197a:	0d478263          	beq	a5,s4,40001a3e <follow_path+0x110>
    4000197e:	0d578063          	beq	a5,s5,40001a3e <follow_path+0x110>
    40001982:	0204b903          	ld	s2,32(s1)
    40001986:	462d                	li	a2,11
    40001988:	02000593          	li	a1,32
    4000198c:	854a                	mv	a0,s2
    4000198e:	b40ff0ef          	jal	ra,40000cce <mem_set>
    40001992:	00044783          	lbu	a5,0(s0)
    40001996:	0d379263          	bne	a5,s3,40001a5a <follow_path+0x12c>
    4000199a:	01390023          	sb	s3,0(s2)
    4000199e:	00144783          	lbu	a5,1(s0)
    400019a2:	0b379063          	bne	a5,s3,40001a42 <follow_path+0x114>
    400019a6:	02e00793          	li	a5,46
    400019aa:	00f900a3          	sb	a5,1(s2)
    400019ae:	00244783          	lbu	a5,2(s0)
    400019b2:	1b378e63          	beq	a5,s3,40001b6e <follow_path+0x240>
    400019b6:	470d                	li	a4,3
    400019b8:	09479763          	bne	a5,s4,40001a46 <follow_path+0x118>
    400019bc:	943a                	add	s0,s0,a4
    400019be:	02000793          	li	a5,32
    400019c2:	00f905a3          	sb	a5,11(s2)
    400019c6:	4581                	li	a1,0
    400019c8:	8526                	mv	a0,s1
    400019ca:	adbff0ef          	jal	ra,400014a4 <dir_sdi>
    400019ce:	2501                	sext.w	a0,a0
    400019d0:	10051063          	bnez	a0,40001ad0 <follow_path+0x1a2>
    400019d4:	48cc                	lw	a1,20(s1)
    400019d6:	6088                	ld	a0,0(s1)
    400019d8:	cdaff0ef          	jal	ra,40000eb2 <move_window>
    400019dc:	2501                	sext.w	a0,a0
    400019de:	e96d                	bnez	a0,40001ad0 <follow_path+0x1a2>
    400019e0:	6c98                	ld	a4,24(s1)
    400019e2:	00074783          	lbu	a5,0(a4)
    400019e6:	c7e5                	beqz	a5,40001ace <follow_path+0x1a0>
    400019e8:	00b74783          	lbu	a5,11(a4)
    400019ec:	8ba1                	andi	a5,a5,8
    400019ee:	ef91                	bnez	a5,40001a0a <follow_path+0xdc>
    400019f0:	709c                	ld	a5,32(s1)
    400019f2:	00b78593          	addi	a1,a5,11
    400019f6:	0cb78d63          	beq	a5,a1,40001ad0 <follow_path+0x1a2>
    400019fa:	0705                	addi	a4,a4,1
    400019fc:	0785                	addi	a5,a5,1
    400019fe:	fff74603          	lbu	a2,-1(a4)
    40001a02:	fff7c683          	lbu	a3,-1(a5)
    40001a06:	fed608e3          	beq	a2,a3,400019f6 <follow_path+0xc8>
    40001a0a:	4581                	li	a1,0
    40001a0c:	8526                	mv	a0,s1
    40001a0e:	dfdff0ef          	jal	ra,4000180a <dir_next>
    40001a12:	bf75                	j	400019ce <follow_path+0xa0>
    40001a14:	611c                	ld	a5,0(a0)
    40001a16:	4bdc                	lw	a5,20(a5)
    40001a18:	c55c                	sw	a5,12(a0)
    40001a1a:	b791                	j	4000195e <follow_path+0x30>
    40001a1c:	4581                	li	a1,0
    40001a1e:	8526                	mv	a0,s1
    40001a20:	a85ff0ef          	jal	ra,400014a4 <dir_sdi>
    40001a24:	2501                	sext.w	a0,a0
    40001a26:	0004bc23          	sd	zero,24(s1)
    40001a2a:	70e2                	ld	ra,56(sp)
    40001a2c:	7442                	ld	s0,48(sp)
    40001a2e:	74a2                	ld	s1,40(sp)
    40001a30:	7902                	ld	s2,32(sp)
    40001a32:	69e2                	ld	s3,24(sp)
    40001a34:	6a42                	ld	s4,16(sp)
    40001a36:	6aa2                	ld	s5,8(sp)
    40001a38:	6b02                	ld	s6,0(sp)
    40001a3a:	6121                	addi	sp,sp,64
    40001a3c:	8082                	ret
    40001a3e:	0405                	addi	s0,s0,1
    40001a40:	bf1d                	j	40001976 <follow_path+0x48>
    40001a42:	4709                	li	a4,2
    40001a44:	bf95                	j	400019b8 <follow_path+0x8a>
    40001a46:	f7578be3          	beq	a5,s5,400019bc <follow_path+0x8e>
    40001a4a:	02000693          	li	a3,32
    40001a4e:	12f6e063          	bltu	a3,a5,40001b6e <follow_path+0x240>
    40001a52:	943a                	add	s0,s0,a4
    40001a54:	02400793          	li	a5,36
    40001a58:	b7ad                	j	400019c2 <follow_path+0x94>
    40001a5a:	4681                	li	a3,0
    40001a5c:	4701                	li	a4,0
    40001a5e:	45a1                	li	a1,8
    40001a60:	4781                	li	a5,0
    40001a62:	02000313          	li	t1,32
    40001a66:	4865                	li	a6,25
    40001a68:	a0d1                	j	40001b2c <follow_path+0x1fe>
    40001a6a:	0505                	addi	a0,a0,1
    40001a6c:	a8dd                	j	40001b62 <follow_path+0x234>
    40001a6e:	0027e793          	ori	a5,a5,2
    40001a72:	02069513          	slli	a0,a3,0x20
    40001a76:	9101                	srli	a0,a0,0x20
    40001a78:	954a                	add	a0,a0,s2
    40001a7a:	00e50023          	sb	a4,0(a0)
    40001a7e:	2685                	addiw	a3,a3,1
    40001a80:	a06d                	j	40001b2a <follow_path+0x1fc>
    40001a82:	4711                	li	a4,4
    40001a84:	c6ed                	beqz	a3,40001b6e <follow_path+0x240>
    40001a86:	00094503          	lbu	a0,0(s2)
    40001a8a:	0e500693          	li	a3,229
    40001a8e:	00d51563          	bne	a0,a3,40001a98 <follow_path+0x16a>
    40001a92:	4695                	li	a3,5
    40001a94:	00d90023          	sb	a3,0(s2)
    40001a98:	01659663          	bne	a1,s6,40001aa4 <follow_path+0x176>
    40001a9c:	0027979b          	slliw	a5,a5,0x2
    40001aa0:	0ff7f793          	andi	a5,a5,255
    40001aa4:	0037f693          	andi	a3,a5,3
    40001aa8:	4585                	li	a1,1
    40001aaa:	00b69463          	bne	a3,a1,40001ab2 <follow_path+0x184>
    40001aae:	01076713          	ori	a4,a4,16
    40001ab2:	8bb1                	andi	a5,a5,12
    40001ab4:	4691                	li	a3,4
    40001ab6:	00d79463          	bne	a5,a3,40001abe <follow_path+0x190>
    40001aba:	00876713          	ori	a4,a4,8
    40001abe:	1602                	slli	a2,a2,0x20
    40001ac0:	9201                	srli	a2,a2,0x20
    40001ac2:	9432                	add	s0,s0,a2
    40001ac4:	00e905a3          	sb	a4,11(s2)
    40001ac8:	bdfd                	j	400019c6 <follow_path+0x98>
    40001aca:	4701                	li	a4,0
    40001acc:	bf65                	j	40001a84 <follow_path+0x156>
    40001ace:	4511                	li	a0,4
    40001ad0:	709c                	ld	a5,32(s1)
    40001ad2:	00b7c783          	lbu	a5,11(a5)
    40001ad6:	c505                	beqz	a0,40001afe <follow_path+0x1d0>
    40001ad8:	4711                	li	a4,4
    40001ada:	f4e518e3          	bne	a0,a4,40001a2a <follow_path+0xfc>
    40001ade:	0047f713          	andi	a4,a5,4
    40001ae2:	0207f793          	andi	a5,a5,32
    40001ae6:	cb89                	beqz	a5,40001af8 <follow_path+0x1ca>
    40001ae8:	0004a623          	sw	zero,12(s1)
    40001aec:	0004bc23          	sd	zero,24(s1)
    40001af0:	e80703e3          	beqz	a4,40001976 <follow_path+0x48>
    40001af4:	4501                	li	a0,0
    40001af6:	bf15                	j	40001a2a <follow_path+0xfc>
    40001af8:	fb0d                	bnez	a4,40001a2a <follow_path+0xfc>
    40001afa:	4515                	li	a0,5
    40001afc:	b73d                	j	40001a2a <follow_path+0xfc>
    40001afe:	8b91                	andi	a5,a5,4
    40001b00:	fbf5                	bnez	a5,40001af4 <follow_path+0x1c6>
    40001b02:	6c8c                	ld	a1,24(s1)
    40001b04:	00b5c783          	lbu	a5,11(a1)
    40001b08:	8bc1                	andi	a5,a5,16
    40001b0a:	dbe5                	beqz	a5,40001afa <follow_path+0x1cc>
    40001b0c:	609c                	ld	a5,0(s1)
    40001b0e:	0007c503          	lbu	a0,0(a5)
    40001b12:	af2ff0ef          	jal	ra,40000e04 <ld_clust.isra.0>
    40001b16:	c4c8                	sw	a0,12(s1)
    40001b18:	bdb9                	j	40001976 <follow_path+0x48>
    40001b1a:	05659a63          	bne	a1,s6,40001b6e <follow_path+0x240>
    40001b1e:	0027979b          	slliw	a5,a5,0x2
    40001b22:	0ff7f793          	andi	a5,a5,255
    40001b26:	46a1                	li	a3,8
    40001b28:	45ad                	li	a1,11
    40001b2a:	8732                	mv	a4,a2
    40001b2c:	0017061b          	addiw	a2,a4,1
    40001b30:	1702                	slli	a4,a4,0x20
    40001b32:	9301                	srli	a4,a4,0x20
    40001b34:	9722                	add	a4,a4,s0
    40001b36:	00074703          	lbu	a4,0(a4)
    40001b3a:	f4e374e3          	bleu	a4,t1,40001a82 <follow_path+0x154>
    40001b3e:	f94706e3          	beq	a4,s4,40001aca <follow_path+0x19c>
    40001b42:	f95704e3          	beq	a4,s5,40001aca <follow_path+0x19c>
    40001b46:	fd370ae3          	beq	a4,s3,40001b1a <follow_path+0x1ec>
    40001b4a:	02b6f263          	bleu	a1,a3,40001b6e <follow_path+0x240>
    40001b4e:	0187151b          	slliw	a0,a4,0x18
    40001b52:	4185551b          	sraiw	a0,a0,0x18
    40001b56:	00054c63          	bltz	a0,40001b6e <follow_path+0x240>
    40001b5a:	00004517          	auipc	a0,0x4
    40001b5e:	5a650513          	addi	a0,a0,1446 # 40006100 <P_array.1885+0x330>
    40001b62:	00054883          	lbu	a7,0(a0)
    40001b66:	00088663          	beqz	a7,40001b72 <follow_path+0x244>
    40001b6a:	f11710e3          	bne	a4,a7,40001a6a <follow_path+0x13c>
    40001b6e:	4519                	li	a0,6
    40001b70:	bd6d                	j	40001a2a <follow_path+0xfc>
    40001b72:	fbf7051b          	addiw	a0,a4,-65
    40001b76:	0ff57513          	andi	a0,a0,255
    40001b7a:	eea87ae3          	bleu	a0,a6,40001a6e <follow_path+0x140>
    40001b7e:	f9f7051b          	addiw	a0,a4,-97
    40001b82:	0ff57513          	andi	a0,a0,255
    40001b86:	eea866e3          	bltu	a6,a0,40001a72 <follow_path+0x144>
    40001b8a:	3701                	addiw	a4,a4,-32
    40001b8c:	0017e793          	ori	a5,a5,1
    40001b90:	0ff77713          	andi	a4,a4,255
    40001b94:	bdf9                	j	40001a72 <follow_path+0x144>

0000000040001b96 <dir_read>:
    40001b96:	7179                	addi	sp,sp,-48
    40001b98:	f022                	sd	s0,32(sp)
    40001b9a:	ec26                	sd	s1,24(sp)
    40001b9c:	e84a                	sd	s2,16(sp)
    40001b9e:	e44e                	sd	s3,8(sp)
    40001ba0:	842a                	mv	s0,a0
    40001ba2:	f406                	sd	ra,40(sp)
    40001ba4:	84ae                	mv	s1,a1
    40001ba6:	4511                	li	a0,4
    40001ba8:	0e500913          	li	s2,229
    40001bac:	49bd                	li	s3,15
    40001bae:	484c                	lw	a1,20(s0)
    40001bb0:	e199                	bnez	a1,40001bb6 <dir_read+0x20>
    40001bb2:	c90d                	beqz	a0,40001be4 <dir_read+0x4e>
    40001bb4:	a0b1                	j	40001c00 <dir_read+0x6a>
    40001bb6:	6008                	ld	a0,0(s0)
    40001bb8:	afaff0ef          	jal	ra,40000eb2 <move_window>
    40001bbc:	2501                	sext.w	a0,a0
    40001bbe:	e129                	bnez	a0,40001c00 <dir_read+0x6a>
    40001bc0:	6c1c                	ld	a5,24(s0)
    40001bc2:	0007c703          	lbu	a4,0(a5)
    40001bc6:	c321                	beqz	a4,40001c06 <dir_read+0x70>
    40001bc8:	00b7c783          	lbu	a5,11(a5)
    40001bcc:	03f7f793          	andi	a5,a5,63
    40001bd0:	03270263          	beq	a4,s2,40001bf4 <dir_read+0x5e>
    40001bd4:	03378063          	beq	a5,s3,40001bf4 <dir_read+0x5e>
    40001bd8:	8bfd                	andi	a5,a5,31
    40001bda:	17e1                	addi	a5,a5,-8
    40001bdc:	0017b793          	seqz	a5,a5
    40001be0:	00979a63          	bne	a5,s1,40001bf4 <dir_read+0x5e>
    40001be4:	4501                	li	a0,0
    40001be6:	70a2                	ld	ra,40(sp)
    40001be8:	7402                	ld	s0,32(sp)
    40001bea:	64e2                	ld	s1,24(sp)
    40001bec:	6942                	ld	s2,16(sp)
    40001bee:	69a2                	ld	s3,8(sp)
    40001bf0:	6145                	addi	sp,sp,48
    40001bf2:	8082                	ret
    40001bf4:	4581                	li	a1,0
    40001bf6:	8522                	mv	a0,s0
    40001bf8:	c13ff0ef          	jal	ra,4000180a <dir_next>
    40001bfc:	2501                	sext.w	a0,a0
    40001bfe:	d945                	beqz	a0,40001bae <dir_read+0x18>
    40001c00:	00042a23          	sw	zero,20(s0)
    40001c04:	b7cd                	j	40001be6 <dir_read+0x50>
    40001c06:	4511                	li	a0,4
    40001c08:	bfe5                	j	40001c00 <dir_read+0x6a>

0000000040001c0a <dir_alloc.constprop.12>:
    40001c0a:	1101                	addi	sp,sp,-32
    40001c0c:	4581                	li	a1,0
    40001c0e:	e822                	sd	s0,16(sp)
    40001c10:	ec06                	sd	ra,24(sp)
    40001c12:	e426                	sd	s1,8(sp)
    40001c14:	842a                	mv	s0,a0
    40001c16:	88fff0ef          	jal	ra,400014a4 <dir_sdi>
    40001c1a:	2501                	sext.w	a0,a0
    40001c1c:	e50d                	bnez	a0,40001c46 <dir_alloc.constprop.12+0x3c>
    40001c1e:	0e500493          	li	s1,229
    40001c22:	484c                	lw	a1,20(s0)
    40001c24:	6008                	ld	a0,0(s0)
    40001c26:	a8cff0ef          	jal	ra,40000eb2 <move_window>
    40001c2a:	2501                	sext.w	a0,a0
    40001c2c:	ed09                	bnez	a0,40001c46 <dir_alloc.constprop.12+0x3c>
    40001c2e:	6c1c                	ld	a5,24(s0)
    40001c30:	0007c783          	lbu	a5,0(a5)
    40001c34:	00978d63          	beq	a5,s1,40001c4e <dir_alloc.constprop.12+0x44>
    40001c38:	cb99                	beqz	a5,40001c4e <dir_alloc.constprop.12+0x44>
    40001c3a:	4585                	li	a1,1
    40001c3c:	8522                	mv	a0,s0
    40001c3e:	bcdff0ef          	jal	ra,4000180a <dir_next>
    40001c42:	2501                	sext.w	a0,a0
    40001c44:	dd79                	beqz	a0,40001c22 <dir_alloc.constprop.12+0x18>
    40001c46:	4791                	li	a5,4
    40001c48:	00f51363          	bne	a0,a5,40001c4e <dir_alloc.constprop.12+0x44>
    40001c4c:	451d                	li	a0,7
    40001c4e:	60e2                	ld	ra,24(sp)
    40001c50:	6442                	ld	s0,16(sp)
    40001c52:	64a2                	ld	s1,8(sp)
    40001c54:	6105                	addi	sp,sp,32
    40001c56:	8082                	ret

0000000040001c58 <dir_register>:
    40001c58:	1101                	addi	sp,sp,-32
    40001c5a:	e822                	sd	s0,16(sp)
    40001c5c:	e426                	sd	s1,8(sp)
    40001c5e:	ec06                	sd	ra,24(sp)
    40001c60:	842a                	mv	s0,a0
    40001c62:	fa9ff0ef          	jal	ra,40001c0a <dir_alloc.constprop.12>
    40001c66:	0005049b          	sext.w	s1,a0
    40001c6a:	e49d                	bnez	s1,40001c98 <dir_register+0x40>
    40001c6c:	484c                	lw	a1,20(s0)
    40001c6e:	6008                	ld	a0,0(s0)
    40001c70:	a42ff0ef          	jal	ra,40000eb2 <move_window>
    40001c74:	0005049b          	sext.w	s1,a0
    40001c78:	e085                	bnez	s1,40001c98 <dir_register+0x40>
    40001c7a:	6c08                	ld	a0,24(s0)
    40001c7c:	02000613          	li	a2,32
    40001c80:	4581                	li	a1,0
    40001c82:	84cff0ef          	jal	ra,40000cce <mem_set>
    40001c86:	700c                	ld	a1,32(s0)
    40001c88:	6c08                	ld	a0,24(s0)
    40001c8a:	462d                	li	a2,11
    40001c8c:	82aff0ef          	jal	ra,40000cb6 <mem_cpy>
    40001c90:	601c                	ld	a5,0(s0)
    40001c92:	4705                	li	a4,1
    40001c94:	00e78223          	sb	a4,4(a5)
    40001c98:	60e2                	ld	ra,24(sp)
    40001c9a:	6442                	ld	s0,16(sp)
    40001c9c:	8526                	mv	a0,s1
    40001c9e:	64a2                	ld	s1,8(sp)
    40001ca0:	6105                	addi	sp,sp,32
    40001ca2:	8082                	ret

0000000040001ca4 <remove_chain>:
    40001ca4:	4785                	li	a5,1
    40001ca6:	00b7ed63          	bltu	a5,a1,40001cc0 <remove_chain+0x1c>
    40001caa:	4509                	li	a0,2
    40001cac:	8082                	ret
    40001cae:	4509                	li	a0,2
    40001cb0:	70a2                	ld	ra,40(sp)
    40001cb2:	7402                	ld	s0,32(sp)
    40001cb4:	64e2                	ld	s1,24(sp)
    40001cb6:	6942                	ld	s2,16(sp)
    40001cb8:	69a2                	ld	s3,8(sp)
    40001cba:	6a02                	ld	s4,0(sp)
    40001cbc:	6145                	addi	sp,sp,48
    40001cbe:	8082                	ret
    40001cc0:	4d1c                	lw	a5,24(a0)
    40001cc2:	7179                	addi	sp,sp,-48
    40001cc4:	f022                	sd	s0,32(sp)
    40001cc6:	ec26                	sd	s1,24(sp)
    40001cc8:	f406                	sd	ra,40(sp)
    40001cca:	e84a                	sd	s2,16(sp)
    40001ccc:	e44e                	sd	s3,8(sp)
    40001cce:	e052                	sd	s4,0(sp)
    40001cd0:	842a                	mv	s0,a0
    40001cd2:	84ae                	mv	s1,a1
    40001cd4:	fcf5fde3          	bleu	a5,a1,40001cae <remove_chain+0xa>
    40001cd8:	4a05                	li	s4,1
    40001cda:	59fd                	li	s3,-1
    40001cdc:	4c1c                	lw	a5,24(s0)
    40001cde:	00f4fa63          	bleu	a5,s1,40001cf2 <remove_chain+0x4e>
    40001ce2:	85a6                	mv	a1,s1
    40001ce4:	8522                	mv	a0,s0
    40001ce6:	ec8ff0ef          	jal	ra,400013ae <get_fat>
    40001cea:	0005091b          	sext.w	s2,a0
    40001cee:	00091463          	bnez	s2,40001cf6 <remove_chain+0x52>
    40001cf2:	4501                	li	a0,0
    40001cf4:	bf75                	j	40001cb0 <remove_chain+0xc>
    40001cf6:	fb490ce3          	beq	s2,s4,40001cae <remove_chain+0xa>
    40001cfa:	03390763          	beq	s2,s3,40001d28 <remove_chain+0x84>
    40001cfe:	4601                	li	a2,0
    40001d00:	85a6                	mv	a1,s1
    40001d02:	8522                	mv	a0,s0
    40001d04:	8afff0ef          	jal	ra,400015b2 <put_fat>
    40001d08:	2501                	sext.w	a0,a0
    40001d0a:	f15d                	bnez	a0,40001cb0 <remove_chain+0xc>
    40001d0c:	481c                	lw	a5,16(s0)
    40001d0e:	01378a63          	beq	a5,s3,40001d22 <remove_chain+0x7e>
    40001d12:	2785                	addiw	a5,a5,1
    40001d14:	c81c                	sw	a5,16(s0)
    40001d16:	00544783          	lbu	a5,5(s0)
    40001d1a:	0017e793          	ori	a5,a5,1
    40001d1e:	00f402a3          	sb	a5,5(s0)
    40001d22:	0009049b          	sext.w	s1,s2
    40001d26:	bf5d                	j	40001cdc <remove_chain+0x38>
    40001d28:	4505                	li	a0,1
    40001d2a:	b759                	j	40001cb0 <remove_chain+0xc>

0000000040001d2c <f_mount>:
    40001d2c:	7139                	addi	sp,sp,-64
    40001d2e:	ec2a                	sd	a0,24(sp)
    40001d30:	1028                	addi	a0,sp,40
    40001d32:	fc06                	sd	ra,56(sp)
    40001d34:	e82e                	sd	a1,16(sp)
    40001d36:	e432                	sd	a2,8(sp)
    40001d38:	f42e                	sd	a1,40(sp)
    40001d3a:	83eff0ef          	jal	ra,40000d78 <get_ldnumber>
    40001d3e:	04054263          	bltz	a0,40001d82 <f_mount+0x56>
    40001d42:	00005797          	auipc	a5,0x5
    40001d46:	b3678793          	addi	a5,a5,-1226 # 40006878 <FatFs>
    40001d4a:	050e                	slli	a0,a0,0x3
    40001d4c:	00a78733          	add	a4,a5,a0
    40001d50:	6318                	ld	a4,0(a4)
    40001d52:	6622                	ld	a2,8(sp)
    40001d54:	c319                	beqz	a4,40001d5a <f_mount+0x2e>
    40001d56:	00070023          	sb	zero,0(a4)
    40001d5a:	6762                	ld	a4,24(sp)
    40001d5c:	c319                	beqz	a4,40001d62 <f_mount+0x36>
    40001d5e:	00070023          	sb	zero,0(a4)
    40001d62:	97aa                	add	a5,a5,a0
    40001d64:	e398                	sd	a4,0(a5)
    40001d66:	4501                	li	a0,0
    40001d68:	cb11                	beqz	a4,40001d7c <f_mount+0x50>
    40001d6a:	4785                	li	a5,1
    40001d6c:	00f61863          	bne	a2,a5,40001d7c <f_mount+0x50>
    40001d70:	4601                	li	a2,0
    40001d72:	080c                	addi	a1,sp,16
    40001d74:	0828                	addi	a0,sp,24
    40001d76:	a0eff0ef          	jal	ra,40000f84 <find_volume>
    40001d7a:	2501                	sext.w	a0,a0
    40001d7c:	70e2                	ld	ra,56(sp)
    40001d7e:	6121                	addi	sp,sp,64
    40001d80:	8082                	ret
    40001d82:	452d                	li	a0,11
    40001d84:	bfe5                	j	40001d7c <f_mount+0x50>

0000000040001d86 <f_open>:
    40001d86:	7175                	addi	sp,sp,-144
    40001d88:	f8ca                	sd	s2,112(sp)
    40001d8a:	e506                	sd	ra,136(sp)
    40001d8c:	e122                	sd	s0,128(sp)
    40001d8e:	fca6                	sd	s1,120(sp)
    40001d90:	f4ce                	sd	s3,104(sp)
    40001d92:	f0d2                	sd	s4,96(sp)
    40001d94:	ecd6                	sd	s5,88(sp)
    40001d96:	e8da                	sd	s6,80(sp)
    40001d98:	e42e                	sd	a1,8(sp)
    40001d9a:	4925                	li	s2,9
    40001d9c:	14050d63          	beqz	a0,40001ef6 <f_open+0x170>
    40001da0:	00053023          	sd	zero,0(a0)
    40001da4:	89b2                	mv	s3,a2
    40001da6:	84aa                	mv	s1,a0
    40001da8:	8a79                	andi	a2,a2,30
    40001daa:	002c                	addi	a1,sp,8
    40001dac:	1028                	addi	a0,sp,40
    40001dae:	9d6ff0ef          	jal	ra,40000f84 <find_volume>
    40001db2:	0005091b          	sext.w	s2,a0
    40001db6:	14091063          	bnez	s2,40001ef6 <f_open+0x170>
    40001dba:	65a2                	ld	a1,8(sp)
    40001dbc:	083c                	addi	a5,sp,24
    40001dbe:	1028                	addi	a0,sp,40
    40001dc0:	e4be                	sd	a5,72(sp)
    40001dc2:	b6dff0ef          	jal	ra,4000192e <follow_path>
    40001dc6:	2501                	sext.w	a0,a0
    40001dc8:	6406                	ld	s0,64(sp)
    40001dca:	e119                	bnez	a0,40001dd0 <f_open+0x4a>
    40001dcc:	e011                	bnez	s0,40001dd0 <f_open+0x4a>
    40001dce:	4519                	li	a0,6
    40001dd0:	01c9f793          	andi	a5,s3,28
    40001dd4:	01f9fa13          	andi	s4,s3,31
    40001dd8:	c3e1                	beqz	a5,40001e98 <f_open+0x112>
    40001dda:	c54d                	beqz	a0,40001e84 <f_open+0xfe>
    40001ddc:	4791                	li	a5,4
    40001dde:	00f51663          	bne	a0,a5,40001dea <f_open+0x64>
    40001de2:	1028                	addi	a0,sp,40
    40001de4:	e75ff0ef          	jal	ra,40001c58 <dir_register>
    40001de8:	2501                	sext.w	a0,a0
    40001dea:	008a6a13          	ori	s4,s4,8
    40001dee:	e949                	bnez	a0,40001e80 <f_open+0xfa>
    40001df0:	6406                	ld	s0,64(sp)
    40001df2:	008a7793          	andi	a5,s4,8
    40001df6:	cfcd                	beqz	a5,40001eb0 <f_open+0x12a>
    40001df8:	7aa2                	ld	s5,40(sp)
    40001dfa:	04600793          	li	a5,70
    40001dfe:	02100713          	li	a4,33
    40001e02:	00f408a3          	sb	a5,17(s0)
    40001e06:	00f40ca3          	sb	a5,25(s0)
    40001e0a:	00040723          	sb	zero,14(s0)
    40001e0e:	000407a3          	sb	zero,15(s0)
    40001e12:	00e40823          	sb	a4,16(s0)
    40001e16:	00040b23          	sb	zero,22(s0)
    40001e1a:	00040ba3          	sb	zero,23(s0)
    40001e1e:	00e40c23          	sb	a4,24(s0)
    40001e22:	000405a3          	sb	zero,11(s0)
    40001e26:	00040e23          	sb	zero,28(s0)
    40001e2a:	00040ea3          	sb	zero,29(s0)
    40001e2e:	00040f23          	sb	zero,30(s0)
    40001e32:	00040fa3          	sb	zero,31(s0)
    40001e36:	000ac503          	lbu	a0,0(s5)
    40001e3a:	85a2                	mv	a1,s0
    40001e3c:	fc9fe0ef          	jal	ra,40000e04 <ld_clust.isra.0>
    40001e40:	4785                	li	a5,1
    40001e42:	00040d23          	sb	zero,26(s0)
    40001e46:	00040da3          	sb	zero,27(s0)
    40001e4a:	00040a23          	sb	zero,20(s0)
    40001e4e:	00040aa3          	sb	zero,21(s0)
    40001e52:	0005099b          	sext.w	s3,a0
    40001e56:	00fa8223          	sb	a5,4(s5)
    40001e5a:	04098b63          	beqz	s3,40001eb0 <f_open+0x12a>
    40001e5e:	85ce                	mv	a1,s3
    40001e60:	8556                	mv	a0,s5
    40001e62:	030aab03          	lw	s6,48(s5)
    40001e66:	e3fff0ef          	jal	ra,40001ca4 <remove_chain>
    40001e6a:	2501                	sext.w	a0,a0
    40001e6c:	e911                	bnez	a0,40001e80 <f_open+0xfa>
    40001e6e:	7522                	ld	a0,40(sp)
    40001e70:	39fd                	addiw	s3,s3,-1
    40001e72:	85da                	mv	a1,s6
    40001e74:	01352623          	sw	s3,12(a0)
    40001e78:	83aff0ef          	jal	ra,40000eb2 <move_window>
    40001e7c:	2501                	sext.w	a0,a0
    40001e7e:	c90d                	beqz	a0,40001eb0 <f_open+0x12a>
    40001e80:	892a                	mv	s2,a0
    40001e82:	a895                	j	40001ef6 <f_open+0x170>
    40001e84:	00b44783          	lbu	a5,11(s0)
    40001e88:	8bc5                	andi	a5,a5,17
    40001e8a:	e3d9                	bnez	a5,40001f10 <f_open+0x18a>
    40001e8c:	0049f993          	andi	s3,s3,4
    40001e90:	f60981e3          	beqz	s3,40001df2 <f_open+0x6c>
    40001e94:	4921                	li	s2,8
    40001e96:	a085                	j	40001ef6 <f_open+0x170>
    40001e98:	f565                	bnez	a0,40001e80 <f_open+0xfa>
    40001e9a:	00b44783          	lbu	a5,11(s0)
    40001e9e:	0107f713          	andi	a4,a5,16
    40001ea2:	e72d                	bnez	a4,40001f0c <f_open+0x186>
    40001ea4:	0029f993          	andi	s3,s3,2
    40001ea8:	00098463          	beqz	s3,40001eb0 <f_open+0x12a>
    40001eac:	8b85                	andi	a5,a5,1
    40001eae:	e3ad                	bnez	a5,40001f10 <f_open+0x18a>
    40001eb0:	008a7793          	andi	a5,s4,8
    40001eb4:	c399                	beqz	a5,40001eba <f_open+0x134>
    40001eb6:	020a6a13          	ori	s4,s4,32
    40001eba:	79a2                	ld	s3,40(sp)
    40001ebc:	85a2                	mv	a1,s0
    40001ebe:	0309a783          	lw	a5,48(s3)
    40001ec2:	f480                	sd	s0,40(s1)
    40001ec4:	01448523          	sb	s4,10(s1)
    40001ec8:	d09c                	sw	a5,32(s1)
    40001eca:	000485a3          	sb	zero,11(s1)
    40001ece:	0009c503          	lbu	a0,0(s3)
    40001ed2:	f33fe0ef          	jal	ra,40000e04 <ld_clust.isra.0>
    40001ed6:	c8c8                	sw	a0,20(s1)
    40001ed8:	01c40513          	addi	a0,s0,28
    40001edc:	dbbfe0ef          	jal	ra,40000c96 <LD_DWORD>
    40001ee0:	0069d783          	lhu	a5,6(s3)
    40001ee4:	c888                	sw	a0,16(s1)
    40001ee6:	0004a623          	sw	zero,12(s1)
    40001eea:	0004ae23          	sw	zero,28(s1)
    40001eee:	0134b023          	sd	s3,0(s1)
    40001ef2:	00f49423          	sh	a5,8(s1)
    40001ef6:	60aa                	ld	ra,136(sp)
    40001ef8:	640a                	ld	s0,128(sp)
    40001efa:	854a                	mv	a0,s2
    40001efc:	74e6                	ld	s1,120(sp)
    40001efe:	7946                	ld	s2,112(sp)
    40001f00:	79a6                	ld	s3,104(sp)
    40001f02:	7a06                	ld	s4,96(sp)
    40001f04:	6ae6                	ld	s5,88(sp)
    40001f06:	6b46                	ld	s6,80(sp)
    40001f08:	6149                	addi	sp,sp,144
    40001f0a:	8082                	ret
    40001f0c:	4911                	li	s2,4
    40001f0e:	b7e5                	j	40001ef6 <f_open+0x170>
    40001f10:	491d                	li	s2,7
    40001f12:	b7d5                	j	40001ef6 <f_open+0x170>

0000000040001f14 <f_read>:
    40001f14:	7119                	addi	sp,sp,-128
    40001f16:	f8a2                	sd	s0,112(sp)
    40001f18:	ecce                	sd	s3,88(sp)
    40001f1a:	e8d2                	sd	s4,80(sp)
    40001f1c:	e4d6                	sd	s5,72(sp)
    40001f1e:	fc86                	sd	ra,120(sp)
    40001f20:	f4a6                	sd	s1,104(sp)
    40001f22:	f0ca                	sd	s2,96(sp)
    40001f24:	e0da                	sd	s6,64(sp)
    40001f26:	fc5e                	sd	s7,56(sp)
    40001f28:	f862                	sd	s8,48(sp)
    40001f2a:	f466                	sd	s9,40(sp)
    40001f2c:	f06a                	sd	s10,32(sp)
    40001f2e:	ec6e                	sd	s11,24(sp)
    40001f30:	0006a023          	sw	zero,0(a3) # 1000 <_tbss_end+0x1000>
    40001f34:	842a                	mv	s0,a0
    40001f36:	8a2e                	mv	s4,a1
    40001f38:	e432                	sd	a2,8(sp)
    40001f3a:	8ab6                	mv	s5,a3
    40001f3c:	e91fe0ef          	jal	ra,40000dcc <validate>
    40001f40:	0005099b          	sext.w	s3,a0
    40001f44:	00099863          	bnez	s3,40001f54 <f_read+0x40>
    40001f48:	00b44783          	lbu	a5,11(s0)
    40001f4c:	6622                	ld	a2,8(sp)
    40001f4e:	c39d                	beqz	a5,40001f74 <f_read+0x60>
    40001f50:	0007899b          	sext.w	s3,a5
    40001f54:	70e6                	ld	ra,120(sp)
    40001f56:	7446                	ld	s0,112(sp)
    40001f58:	854e                	mv	a0,s3
    40001f5a:	74a6                	ld	s1,104(sp)
    40001f5c:	7906                	ld	s2,96(sp)
    40001f5e:	69e6                	ld	s3,88(sp)
    40001f60:	6a46                	ld	s4,80(sp)
    40001f62:	6aa6                	ld	s5,72(sp)
    40001f64:	6b06                	ld	s6,64(sp)
    40001f66:	7be2                	ld	s7,56(sp)
    40001f68:	7c42                	ld	s8,48(sp)
    40001f6a:	7ca2                	ld	s9,40(sp)
    40001f6c:	7d02                	ld	s10,32(sp)
    40001f6e:	6de2                	ld	s11,24(sp)
    40001f70:	6109                	addi	sp,sp,128
    40001f72:	8082                	ret
    40001f74:	00a44783          	lbu	a5,10(s0)
    40001f78:	8b85                	andi	a5,a5,1
    40001f7a:	16078963          	beqz	a5,400020ec <f_read+0x1d8>
    40001f7e:	01042903          	lw	s2,16(s0)
    40001f82:	445c                	lw	a5,12(s0)
    40001f84:	40f907bb          	subw	a5,s2,a5
    40001f88:	893e                	mv	s2,a5
    40001f8a:	00f67463          	bleu	a5,a2,40001f92 <f_read+0x7e>
    40001f8e:	0006091b          	sext.w	s2,a2
    40001f92:	20000b93          	li	s7,512
    40001f96:	03040b13          	addi	s6,s0,48
    40001f9a:	5c7d                	li	s8,-1
    40001f9c:	fa090ce3          	beqz	s2,40001f54 <f_read+0x40>
    40001fa0:	4458                	lw	a4,12(s0)
    40001fa2:	1ff77793          	andi	a5,a4,511
    40001fa6:	12079063          	bnez	a5,400020c6 <f_read+0x1b2>
    40001faa:	6008                	ld	a0,0(s0)
    40001fac:	00975c9b          	srliw	s9,a4,0x9
    40001fb0:	00254783          	lbu	a5,2(a0)
    40001fb4:	37fd                	addiw	a5,a5,-1
    40001fb6:	0197fcb3          	and	s9,a5,s9
    40001fba:	0ffcfc93          	andi	s9,s9,255
    40001fbe:	020c9963          	bnez	s9,40001ff0 <f_read+0xdc>
    40001fc2:	eb11                	bnez	a4,40001fd6 <f_read+0xc2>
    40001fc4:	4848                	lw	a0,20(s0)
    40001fc6:	4785                	li	a5,1
    40001fc8:	00a7ec63          	bltu	a5,a0,40001fe0 <f_read+0xcc>
    40001fcc:	4789                	li	a5,2
    40001fce:	00f405a3          	sb	a5,11(s0)
    40001fd2:	4989                	li	s3,2
    40001fd4:	b741                	j	40001f54 <f_read+0x40>
    40001fd6:	4c0c                	lw	a1,24(s0)
    40001fd8:	bd6ff0ef          	jal	ra,400013ae <get_fat>
    40001fdc:	2501                	sext.w	a0,a0
    40001fde:	b7e5                	j	40001fc6 <f_read+0xb2>
    40001fe0:	01851763          	bne	a0,s8,40001fee <f_read+0xda>
    40001fe4:	4785                	li	a5,1
    40001fe6:	00f405a3          	sb	a5,11(s0)
    40001fea:	4985                	li	s3,1
    40001fec:	b7a5                	j	40001f54 <f_read+0x40>
    40001fee:	cc08                	sw	a0,24(s0)
    40001ff0:	00043d83          	ld	s11,0(s0)
    40001ff4:	4c0c                	lw	a1,24(s0)
    40001ff6:	856e                	mv	a0,s11
    40001ff8:	b98ff0ef          	jal	ra,40001390 <clust2sect>
    40001ffc:	2501                	sext.w	a0,a0
    40001ffe:	d579                	beqz	a0,40001fcc <f_read+0xb8>
    40002000:	000c861b          	sext.w	a2,s9
    40002004:	0099579b          	srliw	a5,s2,0x9
    40002008:	00a6073b          	addw	a4,a2,a0
    4000200c:	0007849b          	sext.w	s1,a5
    40002010:	8d3a                	mv	s10,a4
    40002012:	c4b5                	beqz	s1,4000207e <f_read+0x16a>
    40002014:	002dc683          	lbu	a3,2(s11)
    40002018:	9fb1                	addw	a5,a5,a2
    4000201a:	00f6f463          	bleu	a5,a3,40002022 <f_read+0x10e>
    4000201e:	419684bb          	subw	s1,a3,s9
    40002022:	001dc503          	lbu	a0,1(s11)
    40002026:	86a6                	mv	a3,s1
    40002028:	863a                	mv	a2,a4
    4000202a:	85d2                	mv	a1,s4
    4000202c:	06d030ef          	jal	ra,40005898 <disk_read>
    40002030:	2501                	sext.w	a0,a0
    40002032:	f94d                	bnez	a0,40001fe4 <f_read+0xd0>
    40002034:	00a44783          	lbu	a5,10(s0)
    40002038:	0407f793          	andi	a5,a5,64
    4000203c:	c385                	beqz	a5,4000205c <f_read+0x148>
    4000203e:	4c48                	lw	a0,28(s0)
    40002040:	41a507bb          	subw	a5,a0,s10
    40002044:	0097fc63          	bleu	s1,a5,4000205c <f_read+0x148>
    40002048:	0097951b          	slliw	a0,a5,0x9
    4000204c:	1502                	slli	a0,a0,0x20
    4000204e:	9101                	srli	a0,a0,0x20
    40002050:	20000613          	li	a2,512
    40002054:	85da                	mv	a1,s6
    40002056:	9552                	add	a0,a0,s4
    40002058:	c5ffe0ef          	jal	ra,40000cb6 <mem_cpy>
    4000205c:	0094949b          	slliw	s1,s1,0x9
    40002060:	02049793          	slli	a5,s1,0x20
    40002064:	9381                	srli	a5,a5,0x20
    40002066:	9a3e                	add	s4,s4,a5
    40002068:	445c                	lw	a5,12(s0)
    4000206a:	4099093b          	subw	s2,s2,s1
    4000206e:	9fa5                	addw	a5,a5,s1
    40002070:	c45c                	sw	a5,12(s0)
    40002072:	000aa783          	lw	a5,0(s5)
    40002076:	9fa5                	addw	a5,a5,s1
    40002078:	00faa023          	sw	a5,0(s5)
    4000207c:	b705                	j	40001f9c <f_read+0x88>
    4000207e:	4c50                	lw	a2,28(s0)
    40002080:	04e60163          	beq	a2,a4,400020c2 <f_read+0x1ae>
    40002084:	00a44783          	lbu	a5,10(s0)
    40002088:	0407f793          	andi	a5,a5,64
    4000208c:	c38d                	beqz	a5,400020ae <f_read+0x19a>
    4000208e:	001dc503          	lbu	a0,1(s11)
    40002092:	4685                	li	a3,1
    40002094:	85da                	mv	a1,s6
    40002096:	e43a                	sd	a4,8(sp)
    40002098:	065030ef          	jal	ra,400058fc <disk_write>
    4000209c:	2501                	sext.w	a0,a0
    4000209e:	f139                	bnez	a0,40001fe4 <f_read+0xd0>
    400020a0:	00a44783          	lbu	a5,10(s0)
    400020a4:	6722                	ld	a4,8(sp)
    400020a6:	fbf7f793          	andi	a5,a5,-65
    400020aa:	00f40523          	sb	a5,10(s0)
    400020ae:	601c                	ld	a5,0(s0)
    400020b0:	4685                	li	a3,1
    400020b2:	863a                	mv	a2,a4
    400020b4:	0017c503          	lbu	a0,1(a5)
    400020b8:	85da                	mv	a1,s6
    400020ba:	7de030ef          	jal	ra,40005898 <disk_read>
    400020be:	2501                	sext.w	a0,a0
    400020c0:	f115                	bnez	a0,40001fe4 <f_read+0xd0>
    400020c2:	01a42e23          	sw	s10,28(s0)
    400020c6:	444c                	lw	a1,12(s0)
    400020c8:	0009049b          	sext.w	s1,s2
    400020cc:	1ff5f593          	andi	a1,a1,511
    400020d0:	40bb87bb          	subw	a5,s7,a1
    400020d4:	0127f463          	bleu	s2,a5,400020dc <f_read+0x1c8>
    400020d8:	0007849b          	sext.w	s1,a5
    400020dc:	03058593          	addi	a1,a1,48
    400020e0:	8626                	mv	a2,s1
    400020e2:	95a2                	add	a1,a1,s0
    400020e4:	8552                	mv	a0,s4
    400020e6:	bd1fe0ef          	jal	ra,40000cb6 <mem_cpy>
    400020ea:	bf9d                	j	40002060 <f_read+0x14c>
    400020ec:	499d                	li	s3,7
    400020ee:	b59d                	j	40001f54 <f_read+0x40>

00000000400020f0 <f_write>:
    400020f0:	7159                	addi	sp,sp,-112
    400020f2:	f0a2                	sd	s0,96(sp)
    400020f4:	e8ca                	sd	s2,80(sp)
    400020f6:	e4ce                	sd	s3,72(sp)
    400020f8:	e0d2                	sd	s4,64(sp)
    400020fa:	fc56                	sd	s5,56(sp)
    400020fc:	f486                	sd	ra,104(sp)
    400020fe:	eca6                	sd	s1,88(sp)
    40002100:	f85a                	sd	s6,48(sp)
    40002102:	f45e                	sd	s7,40(sp)
    40002104:	f062                	sd	s8,32(sp)
    40002106:	ec66                	sd	s9,24(sp)
    40002108:	e86a                	sd	s10,16(sp)
    4000210a:	e46e                	sd	s11,8(sp)
    4000210c:	0006a023          	sw	zero,0(a3)
    40002110:	842a                	mv	s0,a0
    40002112:	8a2e                	mv	s4,a1
    40002114:	8932                	mv	s2,a2
    40002116:	8ab6                	mv	s5,a3
    40002118:	cb5fe0ef          	jal	ra,40000dcc <validate>
    4000211c:	0005099b          	sext.w	s3,a0
    40002120:	00099763          	bnez	s3,4000212e <f_write+0x3e>
    40002124:	00b44783          	lbu	a5,11(s0)
    40002128:	c39d                	beqz	a5,4000214e <f_write+0x5e>
    4000212a:	0007899b          	sext.w	s3,a5
    4000212e:	70a6                	ld	ra,104(sp)
    40002130:	7406                	ld	s0,96(sp)
    40002132:	854e                	mv	a0,s3
    40002134:	64e6                	ld	s1,88(sp)
    40002136:	6946                	ld	s2,80(sp)
    40002138:	69a6                	ld	s3,72(sp)
    4000213a:	6a06                	ld	s4,64(sp)
    4000213c:	7ae2                	ld	s5,56(sp)
    4000213e:	7b42                	ld	s6,48(sp)
    40002140:	7ba2                	ld	s7,40(sp)
    40002142:	7c02                	ld	s8,32(sp)
    40002144:	6ce2                	ld	s9,24(sp)
    40002146:	6d42                	ld	s10,16(sp)
    40002148:	6da2                	ld	s11,8(sp)
    4000214a:	6165                	addi	sp,sp,112
    4000214c:	8082                	ret
    4000214e:	00a44783          	lbu	a5,10(s0)
    40002152:	8b89                	andi	a5,a5,2
    40002154:	18078f63          	beqz	a5,400022f2 <f_write+0x202>
    40002158:	445c                	lw	a5,12(s0)
    4000215a:	0127873b          	addw	a4,a5,s2
    4000215e:	04f76c63          	bltu	a4,a5,400021b6 <f_write+0xc6>
    40002162:	20000b93          	li	s7,512
    40002166:	03040b13          	addi	s6,s0,48
    4000216a:	5c7d                	li	s8,-1
    4000216c:	4458                	lw	a4,12(s0)
    4000216e:	04090463          	beqz	s2,400021b6 <f_write+0xc6>
    40002172:	1ff77793          	andi	a5,a4,511
    40002176:	14079363          	bnez	a5,400022bc <f_write+0x1cc>
    4000217a:	6008                	ld	a0,0(s0)
    4000217c:	00975c9b          	srliw	s9,a4,0x9
    40002180:	00254783          	lbu	a5,2(a0)
    40002184:	37fd                	addiw	a5,a5,-1
    40002186:	0197fcb3          	and	s9,a5,s9
    4000218a:	0ffcfc93          	andi	s9,s9,255
    4000218e:	040c9a63          	bnez	s9,400021e2 <f_write+0xf2>
    40002192:	ef01                	bnez	a4,400021aa <f_write+0xba>
    40002194:	485c                	lw	a5,20(s0)
    40002196:	4581                	li	a1,0
    40002198:	cb91                	beqz	a5,400021ac <f_write+0xbc>
    4000219a:	4705                	li	a4,1
    4000219c:	02e79863          	bne	a5,a4,400021cc <f_write+0xdc>
    400021a0:	4789                	li	a5,2
    400021a2:	00f405a3          	sb	a5,11(s0)
    400021a6:	4989                	li	s3,2
    400021a8:	b759                	j	4000212e <f_write+0x3e>
    400021aa:	4c0c                	lw	a1,24(s0)
    400021ac:	d86ff0ef          	jal	ra,40001732 <create_chain>
    400021b0:	0005079b          	sext.w	a5,a0
    400021b4:	f3fd                	bnez	a5,4000219a <f_write+0xaa>
    400021b6:	445c                	lw	a5,12(s0)
    400021b8:	4818                	lw	a4,16(s0)
    400021ba:	12f76a63          	bltu	a4,a5,400022ee <f_write+0x1fe>
    400021be:	00a44783          	lbu	a5,10(s0)
    400021c2:	0207e793          	ori	a5,a5,32
    400021c6:	00f40523          	sb	a5,10(s0)
    400021ca:	b795                	j	4000212e <f_write+0x3e>
    400021cc:	01879763          	bne	a5,s8,400021da <f_write+0xea>
    400021d0:	4785                	li	a5,1
    400021d2:	00f405a3          	sb	a5,11(s0)
    400021d6:	4985                	li	s3,1
    400021d8:	bf99                	j	4000212e <f_write+0x3e>
    400021da:	4858                	lw	a4,20(s0)
    400021dc:	cc1c                	sw	a5,24(s0)
    400021de:	e311                	bnez	a4,400021e2 <f_write+0xf2>
    400021e0:	c85c                	sw	a5,20(s0)
    400021e2:	00a44783          	lbu	a5,10(s0)
    400021e6:	0407f793          	andi	a5,a5,64
    400021ea:	c38d                	beqz	a5,4000220c <f_write+0x11c>
    400021ec:	601c                	ld	a5,0(s0)
    400021ee:	4c50                	lw	a2,28(s0)
    400021f0:	4685                	li	a3,1
    400021f2:	0017c503          	lbu	a0,1(a5)
    400021f6:	85da                	mv	a1,s6
    400021f8:	704030ef          	jal	ra,400058fc <disk_write>
    400021fc:	2501                	sext.w	a0,a0
    400021fe:	f969                	bnez	a0,400021d0 <f_write+0xe0>
    40002200:	00a44783          	lbu	a5,10(s0)
    40002204:	fbf7f793          	andi	a5,a5,-65
    40002208:	00f40523          	sb	a5,10(s0)
    4000220c:	00043d83          	ld	s11,0(s0)
    40002210:	4c0c                	lw	a1,24(s0)
    40002212:	856e                	mv	a0,s11
    40002214:	97cff0ef          	jal	ra,40001390 <clust2sect>
    40002218:	2501                	sext.w	a0,a0
    4000221a:	d159                	beqz	a0,400021a0 <f_write+0xb0>
    4000221c:	000c869b          	sext.w	a3,s9
    40002220:	0099579b          	srliw	a5,s2,0x9
    40002224:	00a6863b          	addw	a2,a3,a0
    40002228:	0007849b          	sext.w	s1,a5
    4000222c:	8d32                	mv	s10,a2
    4000222e:	c4b5                	beqz	s1,4000229a <f_write+0x1aa>
    40002230:	002dc703          	lbu	a4,2(s11)
    40002234:	9fb5                	addw	a5,a5,a3
    40002236:	00f77463          	bleu	a5,a4,4000223e <f_write+0x14e>
    4000223a:	419704bb          	subw	s1,a4,s9
    4000223e:	001dc503          	lbu	a0,1(s11)
    40002242:	86a6                	mv	a3,s1
    40002244:	85d2                	mv	a1,s4
    40002246:	6b6030ef          	jal	ra,400058fc <disk_write>
    4000224a:	2501                	sext.w	a0,a0
    4000224c:	f151                	bnez	a0,400021d0 <f_write+0xe0>
    4000224e:	4c4c                	lw	a1,28(s0)
    40002250:	41a587bb          	subw	a5,a1,s10
    40002254:	0297f263          	bleu	s1,a5,40002278 <f_write+0x188>
    40002258:	0097959b          	slliw	a1,a5,0x9
    4000225c:	1582                	slli	a1,a1,0x20
    4000225e:	9181                	srli	a1,a1,0x20
    40002260:	20000613          	li	a2,512
    40002264:	95d2                	add	a1,a1,s4
    40002266:	855a                	mv	a0,s6
    40002268:	a4ffe0ef          	jal	ra,40000cb6 <mem_cpy>
    4000226c:	00a44783          	lbu	a5,10(s0)
    40002270:	fbf7f793          	andi	a5,a5,-65
    40002274:	00f40523          	sb	a5,10(s0)
    40002278:	0094949b          	slliw	s1,s1,0x9
    4000227c:	02049793          	slli	a5,s1,0x20
    40002280:	9381                	srli	a5,a5,0x20
    40002282:	9a3e                	add	s4,s4,a5
    40002284:	445c                	lw	a5,12(s0)
    40002286:	4099093b          	subw	s2,s2,s1
    4000228a:	9fa5                	addw	a5,a5,s1
    4000228c:	c45c                	sw	a5,12(s0)
    4000228e:	000aa783          	lw	a5,0(s5)
    40002292:	9fa5                	addw	a5,a5,s1
    40002294:	00faa023          	sw	a5,0(s5)
    40002298:	bdd1                	j	4000216c <f_write+0x7c>
    4000229a:	4c5c                	lw	a5,28(s0)
    4000229c:	00c78e63          	beq	a5,a2,400022b8 <f_write+0x1c8>
    400022a0:	4818                	lw	a4,16(s0)
    400022a2:	445c                	lw	a5,12(s0)
    400022a4:	00e7fa63          	bleu	a4,a5,400022b8 <f_write+0x1c8>
    400022a8:	001dc503          	lbu	a0,1(s11)
    400022ac:	4685                	li	a3,1
    400022ae:	85da                	mv	a1,s6
    400022b0:	5e8030ef          	jal	ra,40005898 <disk_read>
    400022b4:	2501                	sext.w	a0,a0
    400022b6:	fd09                	bnez	a0,400021d0 <f_write+0xe0>
    400022b8:	01a42e23          	sw	s10,28(s0)
    400022bc:	4448                	lw	a0,12(s0)
    400022be:	0009049b          	sext.w	s1,s2
    400022c2:	1ff57513          	andi	a0,a0,511
    400022c6:	40ab87bb          	subw	a5,s7,a0
    400022ca:	0127f463          	bleu	s2,a5,400022d2 <f_write+0x1e2>
    400022ce:	0007849b          	sext.w	s1,a5
    400022d2:	03050513          	addi	a0,a0,48
    400022d6:	8626                	mv	a2,s1
    400022d8:	85d2                	mv	a1,s4
    400022da:	9522                	add	a0,a0,s0
    400022dc:	9dbfe0ef          	jal	ra,40000cb6 <mem_cpy>
    400022e0:	00a44783          	lbu	a5,10(s0)
    400022e4:	0407e793          	ori	a5,a5,64
    400022e8:	00f40523          	sb	a5,10(s0)
    400022ec:	bf41                	j	4000227c <f_write+0x18c>
    400022ee:	c81c                	sw	a5,16(s0)
    400022f0:	b5f9                	j	400021be <f_write+0xce>
    400022f2:	499d                	li	s3,7
    400022f4:	bd2d                	j	4000212e <f_write+0x3e>

00000000400022f6 <f_sync>:
    400022f6:	1141                	addi	sp,sp,-16
    400022f8:	e022                	sd	s0,0(sp)
    400022fa:	e406                	sd	ra,8(sp)
    400022fc:	842a                	mv	s0,a0
    400022fe:	acffe0ef          	jal	ra,40000dcc <validate>
    40002302:	2501                	sext.w	a0,a0
    40002304:	e175                	bnez	a0,400023e8 <f_sync+0xf2>
    40002306:	00a44783          	lbu	a5,10(s0)
    4000230a:	0207f713          	andi	a4,a5,32
    4000230e:	cf69                	beqz	a4,400023e8 <f_sync+0xf2>
    40002310:	0407f793          	andi	a5,a5,64
    40002314:	c395                	beqz	a5,40002338 <f_sync+0x42>
    40002316:	601c                	ld	a5,0(s0)
    40002318:	4c50                	lw	a2,28(s0)
    4000231a:	4685                	li	a3,1
    4000231c:	0017c503          	lbu	a0,1(a5)
    40002320:	03040593          	addi	a1,s0,48
    40002324:	5d8030ef          	jal	ra,400058fc <disk_write>
    40002328:	2501                	sext.w	a0,a0
    4000232a:	ed55                	bnez	a0,400023e6 <f_sync+0xf0>
    4000232c:	00a44783          	lbu	a5,10(s0)
    40002330:	fbf7f793          	andi	a5,a5,-65
    40002334:	00f40523          	sb	a5,10(s0)
    40002338:	500c                	lw	a1,32(s0)
    4000233a:	6008                	ld	a0,0(s0)
    4000233c:	b77fe0ef          	jal	ra,40000eb2 <move_window>
    40002340:	2501                	sext.w	a0,a0
    40002342:	e15d                	bnez	a0,400023e8 <f_sync+0xf2>
    40002344:	741c                	ld	a5,40(s0)
    40002346:	00b7c703          	lbu	a4,11(a5)
    4000234a:	02076713          	ori	a4,a4,32
    4000234e:	00e785a3          	sb	a4,11(a5)
    40002352:	4818                	lw	a4,16(s0)
    40002354:	0107169b          	slliw	a3,a4,0x10
    40002358:	0106d69b          	srliw	a3,a3,0x10
    4000235c:	0086d69b          	srliw	a3,a3,0x8
    40002360:	00e78e23          	sb	a4,28(a5)
    40002364:	00d78ea3          	sb	a3,29(a5)
    40002368:	0107569b          	srliw	a3,a4,0x10
    4000236c:	0187571b          	srliw	a4,a4,0x18
    40002370:	00d78f23          	sb	a3,30(a5)
    40002374:	00e78fa3          	sb	a4,31(a5)
    40002378:	4858                	lw	a4,20(s0)
    4000237a:	00078b23          	sb	zero,22(a5)
    4000237e:	00078ba3          	sb	zero,23(a5)
    40002382:	00e78d23          	sb	a4,26(a5)
    40002386:	0107169b          	slliw	a3,a4,0x10
    4000238a:	0107571b          	srliw	a4,a4,0x10
    4000238e:	2701                	sext.w	a4,a4
    40002390:	00e78a23          	sb	a4,20(a5)
    40002394:	0107171b          	slliw	a4,a4,0x10
    40002398:	0107571b          	srliw	a4,a4,0x10
    4000239c:	0087571b          	srliw	a4,a4,0x8
    400023a0:	00e78aa3          	sb	a4,21(a5)
    400023a4:	0106d69b          	srliw	a3,a3,0x10
    400023a8:	02100713          	li	a4,33
    400023ac:	00e78c23          	sb	a4,24(a5)
    400023b0:	0086d69b          	srliw	a3,a3,0x8
    400023b4:	04600713          	li	a4,70
    400023b8:	00d78da3          	sb	a3,27(a5)
    400023bc:	00e78ca3          	sb	a4,25(a5)
    400023c0:	00078923          	sb	zero,18(a5)
    400023c4:	000789a3          	sb	zero,19(a5)
    400023c8:	00a44783          	lbu	a5,10(s0)
    400023cc:	6008                	ld	a0,0(s0)
    400023ce:	fdf7f793          	andi	a5,a5,-33
    400023d2:	00f40523          	sb	a5,10(s0)
    400023d6:	4785                	li	a5,1
    400023d8:	00f50223          	sb	a5,4(a0)
    400023dc:	6402                	ld	s0,0(sp)
    400023de:	60a2                	ld	ra,8(sp)
    400023e0:	0141                	addi	sp,sp,16
    400023e2:	ebbfe06f          	j	4000129c <sync_fs>
    400023e6:	4505                	li	a0,1
    400023e8:	60a2                	ld	ra,8(sp)
    400023ea:	6402                	ld	s0,0(sp)
    400023ec:	0141                	addi	sp,sp,16
    400023ee:	8082                	ret

00000000400023f0 <f_close>:
    400023f0:	1141                	addi	sp,sp,-16
    400023f2:	e022                	sd	s0,0(sp)
    400023f4:	e406                	sd	ra,8(sp)
    400023f6:	842a                	mv	s0,a0
    400023f8:	effff0ef          	jal	ra,400022f6 <f_sync>
    400023fc:	2501                	sext.w	a0,a0
    400023fe:	e901                	bnez	a0,4000240e <f_close+0x1e>
    40002400:	8522                	mv	a0,s0
    40002402:	9cbfe0ef          	jal	ra,40000dcc <validate>
    40002406:	2501                	sext.w	a0,a0
    40002408:	e119                	bnez	a0,4000240e <f_close+0x1e>
    4000240a:	00043023          	sd	zero,0(s0)
    4000240e:	60a2                	ld	ra,8(sp)
    40002410:	6402                	ld	s0,0(sp)
    40002412:	0141                	addi	sp,sp,16
    40002414:	8082                	ret

0000000040002416 <f_chdrive>:
    40002416:	1101                	addi	sp,sp,-32
    40002418:	e42a                	sd	a0,8(sp)
    4000241a:	0028                	addi	a0,sp,8
    4000241c:	ec06                	sd	ra,24(sp)
    4000241e:	95bfe0ef          	jal	ra,40000d78 <get_ldnumber>
    40002422:	00054a63          	bltz	a0,40002436 <f_chdrive+0x20>
    40002426:	00004797          	auipc	a5,0x4
    4000242a:	3ea78723          	sb	a0,1006(a5) # 40006814 <CurrVol>
    4000242e:	4501                	li	a0,0
    40002430:	60e2                	ld	ra,24(sp)
    40002432:	6105                	addi	sp,sp,32
    40002434:	8082                	ret
    40002436:	452d                	li	a0,11
    40002438:	bfe5                	j	40002430 <f_chdrive+0x1a>

000000004000243a <f_chdir>:
    4000243a:	7159                	addi	sp,sp,-112
    4000243c:	e42a                	sd	a0,8(sp)
    4000243e:	4601                	li	a2,0
    40002440:	002c                	addi	a1,sp,8
    40002442:	1028                	addi	a0,sp,40
    40002444:	f0a2                	sd	s0,96(sp)
    40002446:	f486                	sd	ra,104(sp)
    40002448:	eca6                	sd	s1,88(sp)
    4000244a:	b3bfe0ef          	jal	ra,40000f84 <find_volume>
    4000244e:	0005041b          	sext.w	s0,a0
    40002452:	ec19                	bnez	s0,40002470 <f_chdir+0x36>
    40002454:	65a2                	ld	a1,8(sp)
    40002456:	083c                	addi	a5,sp,24
    40002458:	1028                	addi	a0,sp,40
    4000245a:	e4be                	sd	a5,72(sp)
    4000245c:	cd2ff0ef          	jal	ra,4000192e <follow_path>
    40002460:	0005041b          	sext.w	s0,a0
    40002464:	e41d                	bnez	s0,40002492 <f_chdir+0x58>
    40002466:	6586                	ld	a1,64(sp)
    40002468:	e991                	bnez	a1,4000247c <f_chdir+0x42>
    4000246a:	77a2                	ld	a5,40(sp)
    4000246c:	5752                	lw	a4,52(sp)
    4000246e:	cbd8                	sw	a4,20(a5)
    40002470:	8522                	mv	a0,s0
    40002472:	70a6                	ld	ra,104(sp)
    40002474:	7406                	ld	s0,96(sp)
    40002476:	64e6                	ld	s1,88(sp)
    40002478:	6165                	addi	sp,sp,112
    4000247a:	8082                	ret
    4000247c:	00b5c783          	lbu	a5,11(a1)
    40002480:	8bc1                	andi	a5,a5,16
    40002482:	cb99                	beqz	a5,40002498 <f_chdir+0x5e>
    40002484:	74a2                	ld	s1,40(sp)
    40002486:	0004c503          	lbu	a0,0(s1)
    4000248a:	97bfe0ef          	jal	ra,40000e04 <ld_clust.isra.0>
    4000248e:	c8c8                	sw	a0,20(s1)
    40002490:	b7c5                	j	40002470 <f_chdir+0x36>
    40002492:	4791                	li	a5,4
    40002494:	fcf41ee3          	bne	s0,a5,40002470 <f_chdir+0x36>
    40002498:	4415                	li	s0,5
    4000249a:	bfd9                	j	40002470 <f_chdir+0x36>

000000004000249c <f_getcwd>:
    4000249c:	7175                	addi	sp,sp,-144
    4000249e:	fca6                	sd	s1,120(sp)
    400024a0:	e42a                	sd	a0,8(sp)
    400024a2:	e506                	sd	ra,136(sp)
    400024a4:	e122                	sd	s0,128(sp)
    400024a6:	f8ca                	sd	s2,112(sp)
    400024a8:	f4ce                	sd	s3,104(sp)
    400024aa:	f0d2                	sd	s4,96(sp)
    400024ac:	00050023          	sb	zero,0(a0)
    400024b0:	84ae                	mv	s1,a1
    400024b2:	4601                	li	a2,0
    400024b4:	002c                	addi	a1,sp,8
    400024b6:	1828                	addi	a0,sp,56
    400024b8:	acdfe0ef          	jal	ra,40000f84 <find_volume>
    400024bc:	2501                	sext.w	a0,a0
    400024be:	e529                	bnez	a0,40002508 <f_getcwd+0x6c>
    400024c0:	081c                	addi	a5,sp,16
    400024c2:	ecbe                	sd	a5,88(sp)
    400024c4:	77e2                	ld	a5,56(sp)
    400024c6:	8426                	mv	s0,s1
    400024c8:	597d                	li	s2,-1
    400024ca:	4bdc                	lw	a5,20(a5)
    400024cc:	02f00993          	li	s3,47
    400024d0:	c2be                	sw	a5,68(sp)
    400024d2:	4a16                	lw	s4,68(sp)
    400024d4:	040a1263          	bnez	s4,40002518 <f_getcwd+0x7c>
    400024d8:	4501                	li	a0,0
    400024da:	67a2                	ld	a5,8(sp)
    400024dc:	e505                	bnez	a0,40002504 <f_getcwd+0x68>
    400024de:	00004717          	auipc	a4,0x4
    400024e2:	33674703          	lbu	a4,822(a4) # 40006814 <CurrVol>
    400024e6:	0307071b          	addiw	a4,a4,48
    400024ea:	00e78023          	sb	a4,0(a5)
    400024ee:	03a00713          	li	a4,58
    400024f2:	00e780a3          	sb	a4,1(a5)
    400024f6:	0e941863          	bne	s0,s1,400025e6 <f_getcwd+0x14a>
    400024fa:	02f00713          	li	a4,47
    400024fe:	00e78123          	sb	a4,2(a5)
    40002502:	078d                	addi	a5,a5,3
    40002504:	00078023          	sb	zero,0(a5)
    40002508:	60aa                	ld	ra,136(sp)
    4000250a:	640a                	ld	s0,128(sp)
    4000250c:	74e6                	ld	s1,120(sp)
    4000250e:	7946                	ld	s2,112(sp)
    40002510:	79a6                	ld	s3,104(sp)
    40002512:	7a06                	ld	s4,96(sp)
    40002514:	6149                	addi	sp,sp,144
    40002516:	8082                	ret
    40002518:	4585                	li	a1,1
    4000251a:	1828                	addi	a0,sp,56
    4000251c:	f89fe0ef          	jal	ra,400014a4 <dir_sdi>
    40002520:	2501                	sext.w	a0,a0
    40002522:	fd45                	bnez	a0,400024da <f_getcwd+0x3e>
    40002524:	4581                	li	a1,0
    40002526:	1828                	addi	a0,sp,56
    40002528:	e6eff0ef          	jal	ra,40001b96 <dir_read>
    4000252c:	2501                	sext.w	a0,a0
    4000252e:	f555                	bnez	a0,400024da <f_getcwd+0x3e>
    40002530:	77e2                	ld	a5,56(sp)
    40002532:	65c6                	ld	a1,80(sp)
    40002534:	0007c503          	lbu	a0,0(a5)
    40002538:	8cdfe0ef          	jal	ra,40000e04 <ld_clust.isra.0>
    4000253c:	c2aa                	sw	a0,68(sp)
    4000253e:	4581                	li	a1,0
    40002540:	1828                	addi	a0,sp,56
    40002542:	f63fe0ef          	jal	ra,400014a4 <dir_sdi>
    40002546:	2501                	sext.w	a0,a0
    40002548:	f949                	bnez	a0,400024da <f_getcwd+0x3e>
    4000254a:	4581                	li	a1,0
    4000254c:	1828                	addi	a0,sp,56
    4000254e:	e48ff0ef          	jal	ra,40001b96 <dir_read>
    40002552:	2501                	sext.w	a0,a0
    40002554:	e105                	bnez	a0,40002574 <f_getcwd+0xd8>
    40002556:	77e2                	ld	a5,56(sp)
    40002558:	65c6                	ld	a1,80(sp)
    4000255a:	0007c503          	lbu	a0,0(a5)
    4000255e:	8a7fe0ef          	jal	ra,40000e04 <ld_clust.isra.0>
    40002562:	2501                	sext.w	a0,a0
    40002564:	01450e63          	beq	a0,s4,40002580 <f_getcwd+0xe4>
    40002568:	4581                	li	a1,0
    4000256a:	1828                	addi	a0,sp,56
    4000256c:	a9eff0ef          	jal	ra,4000180a <dir_next>
    40002570:	2501                	sext.w	a0,a0
    40002572:	dd61                	beqz	a0,4000254a <f_getcwd+0xae>
    40002574:	4711                	li	a4,4
    40002576:	67a2                	ld	a5,8(sp)
    40002578:	f8e516e3          	bne	a0,a4,40002504 <f_getcwd+0x68>
    4000257c:	4509                	li	a0,2
    4000257e:	b759                	j	40002504 <f_getcwd+0x68>
    40002580:	100c                	addi	a1,sp,32
    40002582:	1828                	addi	a0,sp,56
    40002584:	f5cfe0ef          	jal	ra,40000ce0 <get_fileinfo>
    40002588:	4781                	li	a5,0
    4000258a:	02079713          	slli	a4,a5,0x20
    4000258e:	9301                	srli	a4,a4,0x20
    40002590:	1094                	addi	a3,sp,96
    40002592:	9736                	add	a4,a4,a3
    40002594:	fc974703          	lbu	a4,-55(a4)
    40002598:	eb05                	bnez	a4,400025c8 <f_getcwd+0x12c>
    4000259a:	0037871b          	addiw	a4,a5,3
    4000259e:	04e46263          	bltu	s0,a4,400025e2 <f_getcwd+0x146>
    400025a2:	fff7871b          	addiw	a4,a5,-1
    400025a6:	40f405bb          	subw	a1,s0,a5
    400025aa:	00e586bb          	addw	a3,a1,a4
    400025ae:	02069613          	slli	a2,a3,0x20
    400025b2:	66a2                	ld	a3,8(sp)
    400025b4:	9201                	srli	a2,a2,0x20
    400025b6:	96b2                	add	a3,a3,a2
    400025b8:	01271a63          	bne	a4,s2,400025cc <f_getcwd+0x130>
    400025bc:	fff7c793          	not	a5,a5
    400025c0:	01368023          	sb	s3,0(a3)
    400025c4:	9c3d                	addw	s0,s0,a5
    400025c6:	b731                	j	400024d2 <f_getcwd+0x36>
    400025c8:	2785                	addiw	a5,a5,1
    400025ca:	b7c1                	j	4000258a <f_getcwd+0xee>
    400025cc:	02071613          	slli	a2,a4,0x20
    400025d0:	9201                	srli	a2,a2,0x20
    400025d2:	1088                	addi	a0,sp,96
    400025d4:	962a                	add	a2,a2,a0
    400025d6:	fc964603          	lbu	a2,-55(a2) # fffffc9 <_tbss_end+0xfffffc9>
    400025da:	377d                	addiw	a4,a4,-1
    400025dc:	00c68023          	sb	a2,0(a3)
    400025e0:	b7e9                	j	400025aa <f_getcwd+0x10e>
    400025e2:	4545                	li	a0,17
    400025e4:	bddd                	j	400024da <f_getcwd+0x3e>
    400025e6:	0789                	addi	a5,a5,2
    400025e8:	6722                	ld	a4,8(sp)
    400025ea:	02041693          	slli	a3,s0,0x20
    400025ee:	9281                	srli	a3,a3,0x20
    400025f0:	9736                	add	a4,a4,a3
    400025f2:	00074703          	lbu	a4,0(a4)
    400025f6:	0785                	addi	a5,a5,1
    400025f8:	2405                	addiw	s0,s0,1
    400025fa:	fee78fa3          	sb	a4,-1(a5)
    400025fe:	fe9465e3          	bltu	s0,s1,400025e8 <f_getcwd+0x14c>
    40002602:	b709                	j	40002504 <f_getcwd+0x68>

0000000040002604 <f_lseek>:
    40002604:	7139                	addi	sp,sp,-64
    40002606:	f822                	sd	s0,48(sp)
    40002608:	f426                	sd	s1,40(sp)
    4000260a:	f04a                	sd	s2,32(sp)
    4000260c:	fc06                	sd	ra,56(sp)
    4000260e:	ec4e                	sd	s3,24(sp)
    40002610:	e852                	sd	s4,16(sp)
    40002612:	e456                	sd	s5,8(sp)
    40002614:	842a                	mv	s0,a0
    40002616:	84ae                	mv	s1,a1
    40002618:	fb4fe0ef          	jal	ra,40000dcc <validate>
    4000261c:	0005091b          	sext.w	s2,a0
    40002620:	00091763          	bnez	s2,4000262e <f_lseek+0x2a>
    40002624:	00b44783          	lbu	a5,11(s0)
    40002628:	cf89                	beqz	a5,40002642 <f_lseek+0x3e>
    4000262a:	0007891b          	sext.w	s2,a5
    4000262e:	70e2                	ld	ra,56(sp)
    40002630:	7442                	ld	s0,48(sp)
    40002632:	854a                	mv	a0,s2
    40002634:	74a2                	ld	s1,40(sp)
    40002636:	7902                	ld	s2,32(sp)
    40002638:	69e2                	ld	s3,24(sp)
    4000263a:	6a42                	ld	s4,16(sp)
    4000263c:	6aa2                	ld	s5,8(sp)
    4000263e:	6121                	addi	sp,sp,64
    40002640:	8082                	ret
    40002642:	4818                	lw	a4,16(s0)
    40002644:	00977763          	bleu	s1,a4,40002652 <f_lseek+0x4e>
    40002648:	00a44783          	lbu	a5,10(s0)
    4000264c:	8b89                	andi	a5,a5,2
    4000264e:	e391                	bnez	a5,40002652 <f_lseek+0x4e>
    40002650:	84ba                	mv	s1,a4
    40002652:	4458                	lw	a4,12(s0)
    40002654:	00042623          	sw	zero,12(s0)
    40002658:	e4bd                	bnez	s1,400026c6 <f_lseek+0xc2>
    4000265a:	445c                	lw	a5,12(s0)
    4000265c:	4818                	lw	a4,16(s0)
    4000265e:	fcf778e3          	bleu	a5,a4,4000262e <f_lseek+0x2a>
    40002662:	c81c                	sw	a5,16(s0)
    40002664:	00a44783          	lbu	a5,10(s0)
    40002668:	0207e793          	ori	a5,a5,32
    4000266c:	00f40523          	sb	a5,10(s0)
    40002670:	bf7d                	j	4000262e <f_lseek+0x2a>
    40002672:	4481                	li	s1,0
    40002674:	445c                	lw	a5,12(s0)
    40002676:	1ff7f793          	andi	a5,a5,511
    4000267a:	d3e5                	beqz	a5,4000265a <f_lseek+0x56>
    4000267c:	4c50                	lw	a2,28(s0)
    4000267e:	fc960ee3          	beq	a2,s1,4000265a <f_lseek+0x56>
    40002682:	00a44783          	lbu	a5,10(s0)
    40002686:	03040993          	addi	s3,s0,48
    4000268a:	0407f793          	andi	a5,a5,64
    4000268e:	c385                	beqz	a5,400026ae <f_lseek+0xaa>
    40002690:	601c                	ld	a5,0(s0)
    40002692:	4685                	li	a3,1
    40002694:	85ce                	mv	a1,s3
    40002696:	0017c503          	lbu	a0,1(a5)
    4000269a:	262030ef          	jal	ra,400058fc <disk_write>
    4000269e:	2501                	sext.w	a0,a0
    400026a0:	ed51                	bnez	a0,4000273c <f_lseek+0x138>
    400026a2:	00a44783          	lbu	a5,10(s0)
    400026a6:	fbf7f793          	andi	a5,a5,-65
    400026aa:	00f40523          	sb	a5,10(s0)
    400026ae:	601c                	ld	a5,0(s0)
    400026b0:	4685                	li	a3,1
    400026b2:	8626                	mv	a2,s1
    400026b4:	0017c503          	lbu	a0,1(a5)
    400026b8:	85ce                	mv	a1,s3
    400026ba:	1de030ef          	jal	ra,40005898 <disk_read>
    400026be:	2501                	sext.w	a0,a0
    400026c0:	ed35                	bnez	a0,4000273c <f_lseek+0x138>
    400026c2:	cc44                	sw	s1,28(s0)
    400026c4:	bf59                	j	4000265a <f_lseek+0x56>
    400026c6:	6008                	ld	a0,0(s0)
    400026c8:	00254783          	lbu	a5,2(a0)
    400026cc:	0097999b          	slliw	s3,a5,0x9
    400026d0:	c729                	beqz	a4,4000271a <f_lseek+0x116>
    400026d2:	377d                	addiw	a4,a4,-1
    400026d4:	fff4869b          	addiw	a3,s1,-1
    400026d8:	0336d6bb          	divuw	a3,a3,s3
    400026dc:	0337563b          	divuw	a2,a4,s3
    400026e0:	02c6ed63          	bltu	a3,a2,4000271a <f_lseek+0x116>
    400026e4:	413007bb          	negw	a5,s3
    400026e8:	8ff9                	and	a5,a5,a4
    400026ea:	4c0c                	lw	a1,24(s0)
    400026ec:	2781                	sext.w	a5,a5
    400026ee:	c45c                	sw	a5,12(s0)
    400026f0:	9c9d                	subw	s1,s1,a5
    400026f2:	d1c1                	beqz	a1,40002672 <f_lseek+0x6e>
    400026f4:	5a7d                	li	s4,-1
    400026f6:	4a85                	li	s5,1
    400026f8:	0499ea63          	bltu	s3,s1,4000274c <f_lseek+0x148>
    400026fc:	445c                	lw	a5,12(s0)
    400026fe:	9fa5                	addw	a5,a5,s1
    40002700:	c45c                	sw	a5,12(s0)
    40002702:	1ff4f793          	andi	a5,s1,511
    40002706:	d7b5                	beqz	a5,40002672 <f_lseek+0x6e>
    40002708:	6008                	ld	a0,0(s0)
    4000270a:	c87fe0ef          	jal	ra,40001390 <clust2sect>
    4000270e:	2501                	sext.w	a0,a0
    40002710:	cd11                	beqz	a0,4000272c <f_lseek+0x128>
    40002712:	0094d49b          	srliw	s1,s1,0x9
    40002716:	9ca9                	addw	s1,s1,a0
    40002718:	bfb1                	j	40002674 <f_lseek+0x70>
    4000271a:	484c                	lw	a1,20(s0)
    4000271c:	e595                	bnez	a1,40002748 <f_lseek+0x144>
    4000271e:	814ff0ef          	jal	ra,40001732 <create_chain>
    40002722:	0005059b          	sext.w	a1,a0
    40002726:	4785                	li	a5,1
    40002728:	00f59763          	bne	a1,a5,40002736 <f_lseek+0x132>
    4000272c:	4789                	li	a5,2
    4000272e:	00f405a3          	sb	a5,11(s0)
    40002732:	4909                	li	s2,2
    40002734:	bded                	j	4000262e <f_lseek+0x2a>
    40002736:	57fd                	li	a5,-1
    40002738:	00f59763          	bne	a1,a5,40002746 <f_lseek+0x142>
    4000273c:	4785                	li	a5,1
    4000273e:	00f405a3          	sb	a5,11(s0)
    40002742:	4905                	li	s2,1
    40002744:	b5ed                	j	4000262e <f_lseek+0x2a>
    40002746:	c84c                	sw	a1,20(s0)
    40002748:	cc0c                	sw	a1,24(s0)
    4000274a:	b765                	j	400026f2 <f_lseek+0xee>
    4000274c:	00a44783          	lbu	a5,10(s0)
    40002750:	6008                	ld	a0,0(s0)
    40002752:	8b89                	andi	a5,a5,2
    40002754:	cb81                	beqz	a5,40002764 <f_lseek+0x160>
    40002756:	fddfe0ef          	jal	ra,40001732 <create_chain>
    4000275a:	0005059b          	sext.w	a1,a0
    4000275e:	e599                	bnez	a1,4000276c <f_lseek+0x168>
    40002760:	84ce                	mv	s1,s3
    40002762:	bf69                	j	400026fc <f_lseek+0xf8>
    40002764:	c4bfe0ef          	jal	ra,400013ae <get_fat>
    40002768:	0005059b          	sext.w	a1,a0
    4000276c:	fd4588e3          	beq	a1,s4,4000273c <f_lseek+0x138>
    40002770:	fabafee3          	bleu	a1,s5,4000272c <f_lseek+0x128>
    40002774:	601c                	ld	a5,0(s0)
    40002776:	4f9c                	lw	a5,24(a5)
    40002778:	faf5fae3          	bleu	a5,a1,4000272c <f_lseek+0x128>
    4000277c:	445c                	lw	a5,12(s0)
    4000277e:	cc0c                	sw	a1,24(s0)
    40002780:	413484bb          	subw	s1,s1,s3
    40002784:	013787bb          	addw	a5,a5,s3
    40002788:	c45c                	sw	a5,12(s0)
    4000278a:	b7bd                	j	400026f8 <f_lseek+0xf4>

000000004000278c <f_opendir>:
    4000278c:	7139                	addi	sp,sp,-64
    4000278e:	fc06                	sd	ra,56(sp)
    40002790:	f822                	sd	s0,48(sp)
    40002792:	e42e                	sd	a1,8(sp)
    40002794:	c52d                	beqz	a0,400027fe <f_opendir+0x72>
    40002796:	842a                	mv	s0,a0
    40002798:	4601                	li	a2,0
    4000279a:	002c                	addi	a1,sp,8
    4000279c:	0828                	addi	a0,sp,24
    4000279e:	fe6fe0ef          	jal	ra,40000f84 <find_volume>
    400027a2:	2501                	sext.w	a0,a0
    400027a4:	e115                	bnez	a0,400027c8 <f_opendir+0x3c>
    400027a6:	67e2                	ld	a5,24(sp)
    400027a8:	65a2                	ld	a1,8(sp)
    400027aa:	8522                	mv	a0,s0
    400027ac:	e01c                	sd	a5,0(s0)
    400027ae:	101c                	addi	a5,sp,32
    400027b0:	f01c                	sd	a5,32(s0)
    400027b2:	97cff0ef          	jal	ra,4000192e <follow_path>
    400027b6:	2501                	sext.w	a0,a0
    400027b8:	e529                	bnez	a0,40002802 <f_opendir+0x76>
    400027ba:	6c0c                	ld	a1,24(s0)
    400027bc:	cd99                	beqz	a1,400027da <f_opendir+0x4e>
    400027be:	00b5c783          	lbu	a5,11(a1)
    400027c2:	8bc1                	andi	a5,a5,16
    400027c4:	e789                	bnez	a5,400027ce <f_opendir+0x42>
    400027c6:	4515                	li	a0,5
    400027c8:	00043023          	sd	zero,0(s0)
    400027cc:	a02d                	j	400027f6 <f_opendir+0x6a>
    400027ce:	67e2                	ld	a5,24(sp)
    400027d0:	0007c503          	lbu	a0,0(a5)
    400027d4:	e30fe0ef          	jal	ra,40000e04 <ld_clust.isra.0>
    400027d8:	c448                	sw	a0,12(s0)
    400027da:	67e2                	ld	a5,24(sp)
    400027dc:	4581                	li	a1,0
    400027de:	8522                	mv	a0,s0
    400027e0:	0067d783          	lhu	a5,6(a5)
    400027e4:	00f41423          	sh	a5,8(s0)
    400027e8:	cbdfe0ef          	jal	ra,400014a4 <dir_sdi>
    400027ec:	2501                	sext.w	a0,a0
    400027ee:	4791                	li	a5,4
    400027f0:	fcf50be3          	beq	a0,a5,400027c6 <f_opendir+0x3a>
    400027f4:	f971                	bnez	a0,400027c8 <f_opendir+0x3c>
    400027f6:	70e2                	ld	ra,56(sp)
    400027f8:	7442                	ld	s0,48(sp)
    400027fa:	6121                	addi	sp,sp,64
    400027fc:	8082                	ret
    400027fe:	4525                	li	a0,9
    40002800:	bfdd                	j	400027f6 <f_opendir+0x6a>
    40002802:	4791                	li	a5,4
    40002804:	fcf501e3          	beq	a0,a5,400027c6 <f_opendir+0x3a>
    40002808:	b7c1                	j	400027c8 <f_opendir+0x3c>

000000004000280a <f_closedir>:
    4000280a:	1141                	addi	sp,sp,-16
    4000280c:	e022                	sd	s0,0(sp)
    4000280e:	e406                	sd	ra,8(sp)
    40002810:	842a                	mv	s0,a0
    40002812:	dbafe0ef          	jal	ra,40000dcc <validate>
    40002816:	2501                	sext.w	a0,a0
    40002818:	e119                	bnez	a0,4000281e <f_closedir+0x14>
    4000281a:	00043023          	sd	zero,0(s0)
    4000281e:	60a2                	ld	ra,8(sp)
    40002820:	6402                	ld	s0,0(sp)
    40002822:	0141                	addi	sp,sp,16
    40002824:	8082                	ret

0000000040002826 <f_readdir>:
    40002826:	7179                	addi	sp,sp,-48
    40002828:	f022                	sd	s0,32(sp)
    4000282a:	ec26                	sd	s1,24(sp)
    4000282c:	e84a                	sd	s2,16(sp)
    4000282e:	f406                	sd	ra,40(sp)
    40002830:	842a                	mv	s0,a0
    40002832:	892e                	mv	s2,a1
    40002834:	d98fe0ef          	jal	ra,40000dcc <validate>
    40002838:	0005049b          	sext.w	s1,a0
    4000283c:	e889                	bnez	s1,4000284e <f_readdir+0x28>
    4000283e:	00091f63          	bnez	s2,4000285c <f_readdir+0x36>
    40002842:	4581                	li	a1,0
    40002844:	8522                	mv	a0,s0
    40002846:	c5ffe0ef          	jal	ra,400014a4 <dir_sdi>
    4000284a:	0005049b          	sext.w	s1,a0
    4000284e:	70a2                	ld	ra,40(sp)
    40002850:	7402                	ld	s0,32(sp)
    40002852:	8526                	mv	a0,s1
    40002854:	6942                	ld	s2,16(sp)
    40002856:	64e2                	ld	s1,24(sp)
    40002858:	6145                	addi	sp,sp,48
    4000285a:	8082                	ret
    4000285c:	02243023          	sd	sp,32(s0)
    40002860:	4581                	li	a1,0
    40002862:	8522                	mv	a0,s0
    40002864:	b32ff0ef          	jal	ra,40001b96 <dir_read>
    40002868:	2501                	sext.w	a0,a0
    4000286a:	4791                	li	a5,4
    4000286c:	02f51363          	bne	a0,a5,40002892 <f_readdir+0x6c>
    40002870:	00042a23          	sw	zero,20(s0)
    40002874:	85ca                	mv	a1,s2
    40002876:	8522                	mv	a0,s0
    40002878:	c68fe0ef          	jal	ra,40000ce0 <get_fileinfo>
    4000287c:	4581                	li	a1,0
    4000287e:	8522                	mv	a0,s0
    40002880:	f8bfe0ef          	jal	ra,4000180a <dir_next>
    40002884:	2501                	sext.w	a0,a0
    40002886:	4791                	li	a5,4
    40002888:	00f51663          	bne	a0,a5,40002894 <f_readdir+0x6e>
    4000288c:	00042a23          	sw	zero,20(s0)
    40002890:	bf7d                	j	4000284e <f_readdir+0x28>
    40002892:	d16d                	beqz	a0,40002874 <f_readdir+0x4e>
    40002894:	84aa                	mv	s1,a0
    40002896:	bf65                	j	4000284e <f_readdir+0x28>

0000000040002898 <f_stat>:
    40002898:	7159                	addi	sp,sp,-112
    4000289a:	eca6                	sd	s1,88(sp)
    4000289c:	e42a                	sd	a0,8(sp)
    4000289e:	84ae                	mv	s1,a1
    400028a0:	4601                	li	a2,0
    400028a2:	002c                	addi	a1,sp,8
    400028a4:	1028                	addi	a0,sp,40
    400028a6:	f0a2                	sd	s0,96(sp)
    400028a8:	f486                	sd	ra,104(sp)
    400028aa:	edafe0ef          	jal	ra,40000f84 <find_volume>
    400028ae:	0005041b          	sext.w	s0,a0
    400028b2:	e00d                	bnez	s0,400028d4 <f_stat+0x3c>
    400028b4:	65a2                	ld	a1,8(sp)
    400028b6:	083c                	addi	a5,sp,24
    400028b8:	1028                	addi	a0,sp,40
    400028ba:	e4be                	sd	a5,72(sp)
    400028bc:	872ff0ef          	jal	ra,4000192e <follow_path>
    400028c0:	0005041b          	sext.w	s0,a0
    400028c4:	e801                	bnez	s0,400028d4 <f_stat+0x3c>
    400028c6:	6786                	ld	a5,64(sp)
    400028c8:	cf81                	beqz	a5,400028e0 <f_stat+0x48>
    400028ca:	c489                	beqz	s1,400028d4 <f_stat+0x3c>
    400028cc:	85a6                	mv	a1,s1
    400028ce:	1028                	addi	a0,sp,40
    400028d0:	c10fe0ef          	jal	ra,40000ce0 <get_fileinfo>
    400028d4:	8522                	mv	a0,s0
    400028d6:	70a6                	ld	ra,104(sp)
    400028d8:	7406                	ld	s0,96(sp)
    400028da:	64e6                	ld	s1,88(sp)
    400028dc:	6165                	addi	sp,sp,112
    400028de:	8082                	ret
    400028e0:	4419                	li	s0,6
    400028e2:	bfcd                	j	400028d4 <f_stat+0x3c>

00000000400028e4 <f_getfree>:
    400028e4:	7159                	addi	sp,sp,-112
    400028e6:	f0a2                	sd	s0,96(sp)
    400028e8:	8432                	mv	s0,a2
    400028ea:	f85a                	sd	s6,48(sp)
    400028ec:	e42a                	sd	a0,8(sp)
    400028ee:	8b2e                	mv	s6,a1
    400028f0:	4601                	li	a2,0
    400028f2:	002c                	addi	a1,sp,8
    400028f4:	8522                	mv	a0,s0
    400028f6:	e0d2                	sd	s4,64(sp)
    400028f8:	f486                	sd	ra,104(sp)
    400028fa:	eca6                	sd	s1,88(sp)
    400028fc:	e8ca                	sd	s2,80(sp)
    400028fe:	e4ce                	sd	s3,72(sp)
    40002900:	fc56                	sd	s5,56(sp)
    40002902:	f45e                	sd	s7,40(sp)
    40002904:	f062                	sd	s8,32(sp)
    40002906:	ec66                	sd	s9,24(sp)
    40002908:	e7cfe0ef          	jal	ra,40000f84 <find_volume>
    4000290c:	00050a1b          	sext.w	s4,a0
    40002910:	000a1c63          	bnez	s4,40002928 <f_getfree+0x44>
    40002914:	6000                	ld	s0,0(s0)
    40002916:	01842c83          	lw	s9,24(s0)
    4000291a:	481c                	lw	a5,16(s0)
    4000291c:	ffec871b          	addiw	a4,s9,-2
    40002920:	02f76263          	bltu	a4,a5,40002944 <f_getfree+0x60>
    40002924:	00fb2023          	sw	a5,0(s6)
    40002928:	70a6                	ld	ra,104(sp)
    4000292a:	7406                	ld	s0,96(sp)
    4000292c:	8552                	mv	a0,s4
    4000292e:	64e6                	ld	s1,88(sp)
    40002930:	6946                	ld	s2,80(sp)
    40002932:	69a6                	ld	s3,72(sp)
    40002934:	6a06                	ld	s4,64(sp)
    40002936:	7ae2                	ld	s5,56(sp)
    40002938:	7b42                	ld	s6,48(sp)
    4000293a:	7ba2                	ld	s7,40(sp)
    4000293c:	7c02                	ld	s8,32(sp)
    4000293e:	6ce2                	ld	s9,24(sp)
    40002940:	6165                	addi	sp,sp,112
    40002942:	8082                	ret
    40002944:	00044b83          	lbu	s7,0(s0)
    40002948:	4785                	li	a5,1
    4000294a:	02fb9f63          	bne	s7,a5,40002988 <f_getfree+0xa4>
    4000294e:	4909                	li	s2,2
    40002950:	4481                	li	s1,0
    40002952:	59fd                	li	s3,-1
    40002954:	4a85                	li	s5,1
    40002956:	85ca                	mv	a1,s2
    40002958:	8522                	mv	a0,s0
    4000295a:	a55fe0ef          	jal	ra,400013ae <get_fat>
    4000295e:	2501                	sext.w	a0,a0
    40002960:	09350863          	beq	a0,s3,400029f0 <f_getfree+0x10c>
    40002964:	09550863          	beq	a0,s5,400029f4 <f_getfree+0x110>
    40002968:	e111                	bnez	a0,4000296c <f_getfree+0x88>
    4000296a:	2485                	addiw	s1,s1,1
    4000296c:	4c1c                	lw	a5,24(s0)
    4000296e:	2905                	addiw	s2,s2,1
    40002970:	fef963e3          	bltu	s2,a5,40002956 <f_getfree+0x72>
    40002974:	00544783          	lbu	a5,5(s0)
    40002978:	c804                	sw	s1,16(s0)
    4000297a:	0017e793          	ori	a5,a5,1
    4000297e:	00f402a3          	sb	a5,5(s0)
    40002982:	009b2023          	sw	s1,0(s6)
    40002986:	b74d                	j	40002928 <f_getfree+0x44>
    40002988:	504c                	lw	a1,36(s0)
    4000298a:	10000ab7          	lui	s5,0x10000
    4000298e:	4901                	li	s2,0
    40002990:	4981                	li	s3,0
    40002992:	4481                	li	s1,0
    40002994:	4c09                	li	s8,2
    40002996:	1afd                	addi	s5,s5,-1
    40002998:	00099e63          	bnez	s3,400029b4 <f_getfree+0xd0>
    4000299c:	8522                	mv	a0,s0
    4000299e:	0015899b          	addiw	s3,a1,1
    400029a2:	d10fe0ef          	jal	ra,40000eb2 <move_window>
    400029a6:	2501                	sext.w	a0,a0
    400029a8:	e921                	bnez	a0,400029f8 <f_getfree+0x114>
    400029aa:	85ce                	mv	a1,s3
    400029ac:	03440913          	addi	s2,s0,52
    400029b0:	20000993          	li	s3,512
    400029b4:	038b9163          	bne	s7,s8,400029d6 <f_getfree+0xf2>
    400029b8:	00194783          	lbu	a5,1(s2)
    400029bc:	00094703          	lbu	a4,0(s2)
